:020000040800F2
:1000000000000220D167000821680008216800086C
:10001000216800082168000821680008000000002D
:10002000000000000000000000000000216800083F
:100030002168000800000000214A0008254A000845
:10004000216800082168000821680008216800086C
:10005000216800082168000821680008216800085C
:10006000354A000821680008216800082168000856
:10007000216800082168000821680008216800083C
:1000800021680008216800083D4A000800000000BF
:1000900000000000000000000000000021680008CF
:1000A000494A000821680008654A000821680008DC
:1000B0002168000821680008814A00088D4A00086C
:1000C000994A000821680008216800082168000892
:1000D0002168000821680008BD4A000800000000EF
:1000E000A54A0008216800082168000800000000F7
:1000F000000000000000000000000000216800086F
:10010000000000002168000821680008216800083C
:1001100000000000000000000000000000000000DF
:10012000216800082168000821680008216800088B
:10013000216800080000000000000000000000002E
:10014000000000000000000000000000216800081E
:10015000216800082168000821680008216800085B
:10016000216800082168000800000000000000006D
:10017000000000000000000000000000000000007F
:1001800000000000216800080000000000000000DE
:08019000216800082168000845
:1001980010B5054C237833B9044B13B10448AFF3B9
:1001A80000800123237010BDC00000200000000063
:1001B8009468000808B5034B1BB103490348AFF323
:1001C800008008BD00000000C400002094680008FA
:1001D80053B94AB9002908BF00281CBF4FF0FF31A6
:1001E8004FF0FF3000F072B9ADF1080C6DE904CEA4
:1001F80000F006F8DDF804E0DDE9022304B07047FA
:100208002DE9F047089E04468846002B4BD18A42C8
:10021800154667D9B2FA82F24AB1C2F1200701FA4B
:1002280002F320FA07F7954047EA030894404FEA9B
:10023800154E230CB8FBFEF71FFA85FC0EFB17883A
:1002480043EA084307FB0CF1994209D9EB1807F177
:10025800FF3080F01B81994240F21881023F2B4405
:100268005B1AA4B2B3FBFEF00EFB103344EA03445E
:1002780000FB0CFCA44509D92C1900F1FF3380F0D0
:100288000781A44540F2048102382C4440EA074023
:10029800A4EB0C0400271EB1D4400023C6E9004398
:1002A8003946BDE8F0878B4209D9002E00F0EB8073
:1002B8000027C6E9000138463946BDE8F087B3FA99
:1002C80083F7002F47D18B4202D3824200F2FA8093
:1002D800841A61EB030301209846002EE0D0C6E99A
:1002E8000048DDE702B9FFDEB2FA82F2002A40F0E8
:1002F8008F80491B4FEA154E1FFA85F80127B1FB7D
:10030800FEFC230C0EFB1C1143EA014308FB0CF115
:10031800994207D9EB180CF1FF3002D2994200F24A
:10032800CD808446591AA3B2B1FBFEF00EFB10141F
:1003380043EA044408FB00F8A04507D92C1900F14A
:10034800FF3302D2A04500F2B6801846A4EB080499
:1003580040EA0C409FE7C7F1200CBB4022FA0CFE94
:100368004EEA030E01FA07F420FA0CF521FA0CF311
:100378004FEA1E482543B3FBF8F92C0C08FB193348
:100388001FFA8EFA44EA034309FB0AF49C4202FA74
:1003980007F200FA07F10BD91EEB030309F1FF304E
:1003A80080F087809C4240F28480A9F1020973445E
:1003B8001B1BADB2B3FBF8F008FB103345EA03444E
:1003C80000FB0AFAA24508D91EEB040400F1FF332A
:1003D8006BD2A24569D90238744440EA0940A0FBAF
:1003E8000289A4EB0A044C45C2464B4654D351D06B
:1003F800002E69D0B1EB0A0564EB030404FA0CFC87
:10040800FD40FC404CEA0505C6E90054002747E7D3
:10041800C2F1200320FA03F7954001FA02F021FA0D
:1004280003F34FEA154E3843010CB3FBFEF71FFAEE
:1004380085F80EFB173341EA034107FB08F38B42AB
:1004480004FA02F407D9691807F1FF3C2FD28B424E
:100458002DD9023F2944CB1A81B2B3FBFEF00EFB23
:10046800103341EA034100FB08F38B4207D96918AE
:1004780000F1FF3C17D28B4215D902382944C91A1A
:1004880040EA07473BE73746304609E70746E7E6CD
:100498001846FBE64145ABD2B8EB020A69EB0E02FF
:1004A80001381346A4E76046E9E7184695E767462A
:1004B800D1E781467CE702382C4447E7ACF1020CCF
:1004C8002B442FE7384608E73746E9E6704700BF70
:1004D800084B094A1B6810B5A2FB03230446980978
:1004E80000F002FB214600224FF0FF3000F0ACFA8A
:1004F800002010BD04000020D34D621008B50B4B3E
:100508001A6842F400721A601A6842F480621A602B
:100518001A6842F480721A60032000F083FA0020FF
:10052800FFF7D6FF04F008F8002008BD003C0240A1
:10053800024A136801331360704700BFAC040020FF
:10054800014B1868704700BFAC040020002800F079
:100558008E80F8B5036C0446002B7ED0236CDB0636
:1005680004D50023012084F83C30F8BD226C4C49A6
:1005780023684C4D22F4885222F0020242F0020213
:1005880022644A6822F440324A604A68606802433A
:100598004A6058682169A768E66820F48070586046
:1005A8005A6842EA01225A60586820F04070586040
:1005B8005968A06A39435960996821F400619960C3
:1005C8009A68A84242EA06029A6052D09968E56A97
:1005D80021F0706199609A6810439860996821F0D9
:1005E800405199609A682A439A609968A569206A77
:1005F80021F0020199609A6842EA45029A605A68B5
:1006080000283FD122F400625A60DA6AE569276B54
:10061800666922F47002DA62D86A013D40EA055040
:10062800D862986820F400709860996841EA472178
:100638009960996821F4806199609A68002042EA7B
:1006480086229A606064236C23F0030343F001035D
:100658002364002384F83C30F8BD436480F83C30C0
:1006680003F0B4FF236CDB063FF57BAF7EE7012088
:1006780070479A6822F070629A609A6822F0405235
:100688009A60B2E742F40062616A5A605A6822F4DA
:1006980060425A605A68013942EA41325A60B4E706
:1006A800002301400100000F10B490F83C3083B0E3
:1006B8000022012B01925BD0026893680121DB07BD
:1006C80080F83C1014D42D4B2D4C1B689168A4FB6A
:1006D80003439B0C03EB430341F001019160019339
:1006E800019B2BB1019B013B0193019B002BF9D18D
:1006F8009368DC072BD5036C23F4E06323F0010334
:1007080043F4807303645368590505D5036C23F4D7
:10071800405343F480530364036C13F480531CBFA9
:10072800436C23F00603436400216FF0220380F832
:100738003C1013605368134943F0806343F020036F
:1007480053604B68DB0607D00F4B9A4204D0002059
:1007580003B05DF8044B7047906810F04050F6D134
:10076800936843F08043936003B05DF8044B70478F
:10077800022003B05DF8044B704700BF040000205E
:1007880083DE1B4300230140002001400368D86C2E
:10079800704700BF704700BF704700BF38B5036897
:1007A8001A6859680446900701D58A0653D41A680E
:1007B8005968520701D50D061BD41A685968D00725
:1007C80001D54A0606D41A685968900601D54A0127
:1007D80069D438BD1A68D507F5D5236C43F480333E
:1007E80023642046FFF7D6FF23686FF001021A60E2
:1007F800E9E7226CD00603D4226C42F4005222644A
:100808009A6812F4401F1ED19A6B12F4401F02D04E
:100818009A68510517D45A68520514D49A6812F088
:10082800405F10D1A26972B95A6822F080025A60FA
:10083800236C23F480532364236CDD0503D4236CD9
:1008480043F001032364204600F0EAF823686FF0C0
:100858000C021A60B1E7226CD50603D4226C42F46C
:10086800007222649A6812F0405F14D1A26992B9AA
:10087800DA6A12F4700F23D15A6822F020025A6003
:10088800236C23F480732364236CD90403D4236C6E
:1008980043F001032364204604F058F923686FF0FD
:1008A80012021A6083E7626C6FF0200542F00202C0
:1008B800626420461D60FFF76FFF23681D6038BD26
:1008C8009A685005E7D4D7E7F0B490F83C3082B086
:1008D8000022012B019200F08D800D688A68036860
:1008E8000124092DAFB280F83C4029D81C6905EBDA
:1008F80045064FF0070C0CFA06FC24EA0C041C61B0
:100908001C6902FA06F626431E614E68062E06EB9F
:1009180086022AD8596B053A1F24944021EA04011B
:100928005963596B07FA02F20A435A63374A9342EA
:100938002DD0002380F83C30184602B0F0BC704738
:1009480007EB4706DC681E3E4FF0070C0CFA06FC66
:1009580024EA0C04DC60DC6802FA06F62643DE6052
:100968004E68062E06EB8602D4D90C2E2DD8A2F19D
:1009780023041F211A6BA14022EA01021A63196B92
:1009880007FA04F20A431A63204A9342D1D1122D7E
:1009980029D01F4B9D4231D11E491F4B4A681F4C1D
:1009A80042F400024A601B68A4FB03239B0C03EB80
:1009B80083035B000193019B002BBAD0019B013B91
:1009C8000193019B002BF9D1B3E7A2F141011F2448
:1009D800DA6A8C4022EA0402DA62DC6A07FA01F277
:1009E8002243DA62A2E7D2F8043343F48003C2F860
:1009F80004339EE7022002B0F0BC7047112D98D155
:100A0800044A536843F40003536092E7002001400E
:100A180012000010002301400400002083DE1B4365
:100A2800704700BF074AD3684FF6FF010B4000022A
:100A380043F0BF6300F4E06043F400330343D36042
:100A4800704700BF00ED00E0184BDB68C3F30223DA
:100A580030B4C3F10705042D03F1040428BF0425AD
:100A6800062C19D9033B4FF0FF349C4022EA0404BA
:100A78004FF0FF32AA4021EA020101FA03F22243B1
:100A880012010028D2B20ADB00F1604000F5614093
:100A980080F8002330BC704700242346E8E7044B65
:100AA80000F00F0003441A7630BC704700ED00E0F8
:100AB800FCEC00E000F01F0101234009024A8B40D2
:100AC80042F82030704700BF00E100E043092033BE
:100AD80000F01F000122034902FA00F041F8230048
:100AE800704700BF00E100E00138B0F1807F0ED20E
:100AF800084B10B4084C5860F02084F823000022FA
:100B0800072110469A6019605DF8044B7047012070
:100B1800704700BF10E000E000ED00E0044A1368F1
:100B280004280CBF43F0040323F004031360704748
:100B380010E000E008B505F015FE08BD90F8353066
:100B4800022B03D0802343650120704702680523E8
:100B580080F83530136823F00103136000207047D4
:100B68002DE9F04FDFF8B4C1D1F8008083B08E468C
:100B780000254FF0010902E00135102D7ED009FA59
:100B880005F308EA03018B42F6D1DEF8044024F0AD
:100B9800100ABAF1020F74D06F000322D0F800B027
:100BA800BA40D24304F0030602EA0B0BBE400AF136
:100BB800FF3A46EA0B06BAF1010F066040F282805E
:100BC800C668DEF808303240BB401343E700C36014
:100BD800D2D54D4A00230193536C43F480435364A8
:100BE800536C25F0030606F1804603F4804306F5AE
:100BF8009C36019305F00302019BB76892000F230E
:100C0800934027EA0303414FB84211D007F58067A4
:100C1800B8426AD03E4FB8426BD03E4FB8426DD012
:100C28003D4FB8420CBF0427072707FA02F21343C7
:100C3800B360DCF80030CA43E60354BF13400B43EB
:100C4800CCF80030DCF80430A70354BF13400B4342
:100C5800CCF80430DCF80830E60254BF13400B43EC
:100C6800CCF80830DCF80C30A40205F1010554BFBB
:100C780013400B43102DCCF80C3080D103B0BDE8E5
:100C8800F08FEF0800EB870705F007063A6AB60011
:100C98004FF00F0B0BFA06FB22EA0B0ADEF81020C6
:100CA800B24042EA0A023A626F000322D0F800A07A
:100CB800BA40D24304F0030602EA0A0ABE4046EAF2
:100CC8000A060660866806EA020ADEF80C60BE407C
:100CD80046EA0A068660D0F804A0C4F300162AEA99
:100CE8000303AE401E4346606AE709FA02F2134363
:100CF8009EE7022707FA02F2134399E7032707FA48
:100D080002F2134394E700BF00380240000002409B
:100D180000080240000C024000100240003C014064
:100D28002DE9F04F002383B0DFF80C91DFF80C8138
:100D38004FF0010E4FF0030B4FF00F0A02E00133A2
:100D4800102B61D00EFA03F232EA0104F7D15C00ED
:100D580005680BFA04F4E443DE08254000EB860638
:100D6800056003F00705376AAD000AFA05F527EABA
:100D7800050535628568254085604568D24315407C
:100D88004560C66823F0030505F18045344005F544
:100D98009C35C46003F00304AE68A4000AFA04F7A3
:100DA8003E404845019632D01F4EB04231D01F4ECA
:100DB800B04231D01E4EB04233D01E4EB0420CBFAE
:100DC8004FF0040C4FF0070C0CFA04F4019EA642F5
:100DD800B5D1AC6824EA0707AF60D8F800401440E2
:100DE800C8F80040D8F804401440C8F80440D8F8BF
:100DF80008401440C8F80840D8F80C400133224095
:100E0800102BC8F80C209DD103B0BDE8F08F00244A
:100E1800DCE70EFA04F4D9E74FF0020C0CFA04F4FC
:100E2800D4E70BFA04F4D1E70004024000080240BA
:100E3800000C02400010024000000240003C01404B
:100E48000369194214BF01200020704702B9090440
:100E5800816170474369594041617047044A51694B
:100E6800014200D1704708B5506103F063FE08BD28
:100E7800003C01402DE9F0410746164698468DB2E0
:100E88003C6804E061694A0507D4731C18D160699D
:100E980035EA0000F6D1BDE8F081236843F4007319
:100EA800236000226FF4806004212023606139648C
:100EB80001203A6387F83C2087F83D30BDE8F0818F
:100EC8002EB1FFF73DFBA0EB0800B042D8D90023B4
:100ED80020223B6387F83C3087F83D200320DAE77F
:100EE8002DE9F843814690461E460F0C8CB2D9F87E
:100EF800005009E0A96934EA01030CBF0120002071
:100F080080450BD1731C0CD1012FF3D16B6934EAE6
:100F180003030CBF012000208045F3D00020BDE86A
:100F2800F8832EB1FFF70CFB089BC01AB042DED93C
:100F380000232022C9F8303089F83C3089F83D2058
:100F4800032089F83E30EAE7F8B506460D4617460D
:100F5800306804E04469620507D46B1C12D1436908
:100F680013F00403F6D00020F8BD6FF48064042168
:100F78002022446131640120336386F83C3086F8CE
:100F88003D20F8BD25B1FFF7DBFAC01BA842DFD929
:100F9800336C002243F020032021336486F83C2080
:100FA8003263032086F83D10F8BD00BF70B50546D2
:100FB8000C46164608E05169C90617D45CB1FFF71C
:100FC800BFFA801BA04206D82A68536913F0400371
:100FD800F1D0002070BD2B6C2022134300212B641C
:100FE80085F83C1085F83D20032070BD6FF0100097
:100FF800202150612B6401202B6385F83C3085F853
:101008003D1070BDF8B506460D461746306804E039
:101018004469620507D46B1C12D1436913F080033D
:10102800F6D00020F8BD6FF48064042120224461CA
:1010380031640120336386F83C3086F83D20F8BDE2
:1010480025B1FFF77DFAC01BA842DFD9336C002217
:1010580043F020032021336486F83C2032630320C8
:1010680086F83D10F8BD00BF2DE9F047066884B04A
:1010780035680D9F45F48075884691469A463560D7
:101088000C9B009700224FF001110446FFF728FF40
:1010980088B92268204908F0FE03136120463B46C0
:1010A8000C9AFFF7E7FE50B1236C042B03D1012003
:1010B80004B0BDE8F087032004B0BDE8F0872368DA
:1010C80003905A6903929B6903933A460C99039BD0
:1010D8002046FFF797FF88B9BAF1010F216817D0AA
:1010E8004FEA19230B613A460C992046FFF78AFF0D
:1010F80020B922685FFA89F31361DDE7236C042BBA
:10110800D9D12268136843F4007313600120D3E730
:101118005FFA89F30B61CFE7020001002DE9F04780
:101128000468266846F48066266084B026680D9FA9
:1011380046F48076884691469A4626600C9B00972E
:1011480000224FF001110546FFF7CAFE98B92B6837
:1011580032495FFA88F808F0FE021A6128463B46D1
:101168000C9AFFF787FE50B12B6C042B03D101209A
:1011780004B0BDE8F087032004B0BDE8F0872B6811
:1011880003905A6903929B6903933A460C99039B0F
:101198002846FFF737FF40BBBAF1010F2B682DD166
:1011A8005FFA89F21A613A460C992846FFF72AFF36
:1011B800D8B929680B6843F480730B6002460C9B0E
:1011C80000974FF001112846FFF78AFE0028D2D178
:1011D8002868124948F0010202613B460C9A2846E9
:1011E800FFF748FE0028BFD1C6E72B6C042BC2D1FD
:1011F8002A68136843F400731360B8E74FEA1922AA
:101208001A610C993A462846FFF7FCFE0028ECD1F3
:101218002A685FFA89F31361C5E700BF020001007D
:1012280000285CD090F83D3070B503F0FF0204460A
:10123800002B4FD02268324D242384F83D301368A8
:1012480023F00103136001F0DFF9D4E900312D4ADE
:10125800A2FB0062920CA9425A6025D84900B0FB53
:10126800F1F0C0F30B01013203291A6298BF042080
:10127800D4E90725D4E90361D86142EA0500D4E935
:10128800052531432A4318609960DA6019680022FD
:1012980041F00101202519601046226484F83D5070
:1012A800226384F83E2070BD4FF49675164E05FBF8
:1012B80002F2A6FB02529209A56801321A6285B9A8
:1012C80001EB4101B0FBF1F0C0F30B02AAB140F40D
:1012D8000040CDE780F83C2003F0AEF9AAE70120F2
:1012E800704701EB810101EB8101B0FBF1F0C0F324
:1012F8000B0212B140F44040BAE70120B8E700BF42
:10130800A086010083DE1B43D34D62102DE9F04710
:10131800044682B098460E461746BDF82C90FFF753
:101328000FF994F83D30202B03D0022002B0BDE81D
:10133800F08705460090192301223F492046FFF710
:10134800CFFD0028F1D194F83C30012BEDD0236873
:101358001A680121D00784F83C1002D41A680A439D
:101368001A601A68354922F400621A604FF0000AC0
:101378002122402384F83D2084F83E30C4F840A060
:10138800A4F82A90E162608D0A9B636231460C9E44
:1013980001950096434620853A462046FFF764FEAD
:1013A80048BB238D0C992A462046ABB1FFF72AFE8D
:1013B800C0B9616A2068268D4B1C63620B78036193
:1013C800628D013A92B262854269731E9BB25207DE
:1013D8002385E7D58A1CBBB92A460C992046FFF716
:1013E800B3FDE0B1236C042B0CD12268136843F4DD
:1013F8000073136004E0236C84F83CA0042B01D133
:10140800012093E7032091E762624B780361628DC4
:10141800B31E013A9BB292B223856285C2E7226865
:101428001368202143F40073136084F83D1084F896
:101438003C0084F83E0079E7020010000000FFFF3E
:101448002DE9F047044686B098460E461746BDF883
:101458003C90FFF775F894F83D30202B04D0022615
:10146800304606B0BDE8F0870546009019230122F2
:101478007D492046FFF734FD0028F0D194F83C3030
:10148800012BECD023681A680121D00784F83C109E
:1014980002D41A680A431A601A68744922F400626E
:1014A8001A604FF0000A2222402384F83D2084F875
:1014B8003E30C4F840A0A4F82A90E162608D0E9BEB
:1014C80063623146109E00960195434620853A4650
:1014D8002046FFF723FE0646A8B9238D2268F3B9F4
:1014E80002905369029393690293029B136843F431
:1014F800007313600023202284F83D2084F83C30D8
:1015080084F83E30ACE7236C84F83CA0042B04D16B
:101518000126A5E7236C202BFAD10326A0E7012B8F
:1015280078D0022B00F0918005905169059192695D
:101538000592059A4E4F032B4DD8012B79D0022BDB
:101548000095109B4FF00002394620461CD0FFF74B
:10155800C7FC0028E1D12368D4F824C0196821F415
:10156800806119601B690CF1010262628CF800301D
:10157800638D218D0095013B9BB201396385109BDA
:101588002185024639462046FFF7AAFC0028C4D127
:101598002368616A1A6842F400721A601B694A1C5F
:1015A80062620B70638D218D606A2268013B9BB279
:1015B800638512694B1E411C238561620270238D6D
:1015C800628D013B013A9BB292B223856285002B62
:1015D80090D0032BB1D92A4610992046FFF7E6FC94
:1015E800002897D1636A2268591C126961621A70CF
:1015F800628D2168238D013A92B262854A69013B66
:101608009BB252072385E2D5636A0A69591C616255
:101618001A70D4E7116821F4806111600390516950
:101628000391916903910399116841F40071116064
:1016380080E72A4610992046FFF7B8FC00287FF477
:1016480069AF2268636A1269E0E7116821F4806172
:101658001160116841F400611160049051690491AE
:1016680092690492049A65E7020010000000FFFFE7
:1016780004000100704700BF704700BF704700BFFB
:10168800704700BF704700BF704700BF704700BF7A
:10169800704700BF704700BF704700BF90F83D20FB
:1016A800293A012A38B50446036856D990F83D20EE
:1016B800602A05D05A6815055CBF202280F83D20B5
:1016C8000022226384F83E201A6822F400621A601D
:1016D8005A6812F400621DD05A68606B22F40062E6
:1016E8005A6090F83530012B52D0374B0365FFF71D
:1016F80025FA50B12268606B1368016D23F001036D
:101708002025136084F83D50884794F83D30282BF5
:1017180013D038BD94F83D10602924D05A69520678
:1017280004D5626A1B69511C616213702046FFF779
:10173800B1FF94F83D30282BEBD1236C5B07E8D53B
:10174800224BE362202200232363204684F83D20B5
:1017580084F83E30FFF798FF38BD00212822016346
:1017680080F83D20B0E7202184F83D1022645A69B2
:10177800510605D5626A1B69511C616213702368A2
:101788001A6822F001021A602046FFF785FFBCE7BD
:10179800A06B0D4B0365FFF7D1F90028B5D023687E
:1017A8005A69500605D5626A1B69511C616213703B
:1017B80023681A68A06B22F0010220211A60036DC9
:1017C80084F83D109847A0E7E52000080000FFFFD7
:1017D800F0B5036804469E695A69586894F83E1043
:1017E800C9B210298DB03DD040293BD09B4911404A
:1017F800002900F0CB80870500F187819849994D31
:1018080031401540002900F03781974911400029DF
:1018180000F08981460540F18681002D40F08681DF
:1018280094F83D10628D92B2C9B2CAB1626A501C76
:10183800606212781A61628D013A92B26285628D95
:1018480092B26AB929290BD15A68212522F48062FB
:1018580028215A602046256384F83D10FFF70EFFC3
:101868000DB0F0BD12F0011F41D0850500F13381A4
:101878007E491140002943D0794D7A4935401140BD
:10188800002D5AD0784D1540002D52D0470550D51F
:10189800002900F072818605E2D5E16A94F83D20BE
:1018A800212ADDD1628D92B2002A40F047810429B5
:1018B80005D0082903D011F5803F40F0D9825A6835
:1018C80022F4E0625A601A680021202042F4007273
:1018D8001A60216384F83D0094F83E3084F83E1085
:1018E800402B204600F08982FFF7C4FEB8E75F4925
:1018F800114029B18105BFD5616CC9B21961BBE737
:10190800564911400029B7D08705B5D594F83E103F
:10191800E76AD4F830C094F83D50222DC9B200F0DF
:10192800838100210A9159690A9199690A910A9952
:10193800A2E70029AFD10DB0F0BD4D4D15400DB354
:1019480045051FD5002900F04581820588D5E56A3F
:10195800628D616A92B2042A01F1010000F0AE8141
:10196800628D92B2032A00F0B281628D92B2022A8D
:1019780000F0BA811B6960620B70638D013B9BB2FA
:1019880063856DE70029E0D10DB0F0BD394F1740F0
:10199800002F3FF433AF85057FF530AF94F83D0055
:1019A8005A6822F4E0625A600B915A690B921A68DD
:1019B80042F001021A600B9A1A6822F480621A60D7
:1019C8005A6811051D46C0B20ED594F83D20222A4A
:1019D80000F06E8194F83D202A2A00F06981626B3C
:1019E8001268526892B26285628D92B2E2B15A6907
:1019F800520709D5626A1B69511C61621370638DB5
:101A08002568013B9BB263856B695F0608D5636AED
:101A18002A69591C61621A70638D013B9BB2638508
:101A2800236C43F004032364236C002B40F01981DA
:101A3800A0F12802022A40F22181236B222B02D036
:101A480022287FF40DAF002320222363204684F848
:101A58003D2084F83E30FFF713FE01E70200010045
:101A680004001000040001008000010008000100CB
:101A7800400001001000010099491140002967D079
:101A8800410565D5002D66D194F83D10628D92B25E
:101A9800C9B2002A3FF4E4AE626A1B69501C606256
:101AA8001370638D013B9BB26385638D9BB2002BE2
:101AB8007FF4D6AE2A297FF4D3AE22685368222554
:101AC80023F48063282153602046256384F83D1061
:101AD800FFF7D6FDC4E694F83E10402900F0C78011
:101AE8002169B1F5804F00F09380216D002900F045
:101AF800D180216D01297FF4BFAE616CC91101F05D
:101B0800060141F0F1011961B6E699699B6981F016
:101B180004011E06C1F3800154BFA289228B20460E
:101B2800FFF7B0FD9CE6002D3FF49AAE80057FF5E7
:101B380097AE628D92B2002A3FF492AE626A511C4F
:101B4800616212781A61638D013B9BB2638587E6F7
:101B5800002D3FF485AE82057FF582AE628D92B28C
:101B6800002A3FF47DAE626A1B69511C61621370E2
:101B7800638D013B9BB2638572E694F83D20258D09
:101B880094F83E10E06AD2B2C9B2002D40F09B80B2
:101B9800212A00F0148140297FF462AE222A7FF4C2
:101BA8005FAE628D92B2002A00F0228194F83E2046
:101BB800402AC3D1226D002A40F0A581E26C012A97
:101BC800A26C00F0C081C2F307221A61236D0133B1
:101BD800236545E694F83D20222A7FF441AE628DC4
:101BE80092B2032A40F2C980626A1B69511C616281
:101BF8001370638D013B9BB26385638D9BB2032B8E
:101C08007FF42EAE2268536823F48063536027E67E
:101C180094F83D102129616C16BF41F0010101F0D3
:101C2800FE01C9B2196127E6256D15B9402900F0F2
:101C3800E780256D25B92169B1F5404F00F0EF80A7
:101C4800618D89B200297CD1039159690391996901
:101C580003910399196841F4007119600021216505
:101C68000AE620460DB0BDE8F040FFF717BD216D2C
:101C7800C1B9616C01F0FE011961FDE5194AE26222
:101C880020222363204684F83D2084F83E30FFF765
:101C9800FBFCE5E5616CC91101F0060141F0F001BA
:101CA8001961E9E5616C41F00101C9B21961E3E527
:101CB800A26B1268526892B2628595E65A6822F45D
:101CC80080625A6056E6212A3FF46BAF63E75A6890
:101CD80022F480625A601A6822F480621A6049E627
:101CE800400001000000FFFF013D012D1A6840F28D
:101CF8008E8042F400721A601B6960620B70638DFB
:101D0800626A2168013B9BB263850B69511C616261
:101D18001370638D2168013B9BB263854B6820205B
:101D280023F4407300224B6084F83D00226394F84A
:101D38003E3084F83E20402B20463DD0FFF79CFCE7
:101D48008EE5618D89B2012977D0618D89B202292A
:101D580000F09B80196841F4806119605968090591
:101D680003D5596841F48051596000210991596996
:101D7800099199690991099970E7012A3FF670ADAF
:101D88001A68606A22F480621A605A6822F4E06273
:101D98005A601B69421C62620370638D013B9BB2EF
:101DA8002022638584F83D20216394F83E3084F82E
:101DB8003E10402B2046C1D1FFF76AFC50E50428AD
:101DC8003FF47DAD08283FF47AAD10F5803F3FF42D
:101DD80076AD5A68112622F4E06220215A60204626
:101DE800266384F83E5084F83D10FFF743FC37E53E
:101DF8005A6822F480625A6032E5FFF747FC2FE503
:101E080001955969019199690191019934E522F483
:101E180080621A601A6842F480721A606CE7029550
:101E280059690291996902910299196841F480717E
:101E38001960216D013121651EE517F5803F4ED0EF
:101E4800042F3CD0082F3AD0BCF1120F37D0E16AEA
:101E58000229196814BF21F4806141F48061196076
:101E68000021069159690691996906910699F5E646
:101E78005968112621F4E06120255960204626631F
:101E880084F83E2084F83D502EE5E16A022919685D
:101E98004AD021F480611960196841F40061196021
:101EA80059680D0503D5596841F4805159600021DE
:101EB800089159690891996908910899CEE61968B5
:101EC800002521F48061196007955969079199697E
:101ED80007910799196841F400711960BEE61968FD
:101EE80021F480611960596811F4006120D01968E3
:101EF800002521F480611960049559690491996954
:101F080004910499AAE6226D012A22D0226D022AA0
:101F18007FF4A6AC94F83D20222A21D094F83D20E5
:101F2800212A7FF49DAC09E641F480611960B7E786
:101F3800059159690591996905910599196841F4BF
:101F4800007119608AE6D2B21A61236D02332365E3
:101F580086E4A26CD2B21A61236D013323657FE453
:101F68001A6842F480721A607AE400BF70B50446B9
:101F78005848226853695168034203F4813023D0DA
:101F8800CD0521D5256C6FF4807645F001052564D3
:101F98005661002848D0206C6FF4007540F00200AC
:101FA80013F4823F2064556103F4843523D145B18D
:101FB800CB0506D5236C6FF4006143F00803236456
:101FC8005161236C5BB970BD70B1C805E3D413F4DB
:101FD800823F03F48435EAD0236C002BF3D02046EB
:101FE800BDE87040FFF75ABB13F4823F03F4843511
:101FF800DDD0C905E5D594F83E00638D94F83D1011
:10200800266B20289BB2C9B214D0236C43F004037A
:10201800236494F83E30102B39D06FF480635361F9
:10202800002DCED02268C5E713F4823F03F484352F
:10203800E1D1BCE7002BE8D101F0F703212B03D055
:102048002829E2D1212EE0D194F83D30E16A042913
:10205800DBB221D008291FD0212BDED11E49E16235
:1020680020200021236384F83D0084F83E10536843
:102078006FF4806123F4E0635360516113680B408F
:1020880013602046FFF7FAFA002D9AD0CAE71368C2
:1020980043F400731360C0E7282BDDD10E4BE362D5
:1020A80053686FF4806123F4E063536051611368EF
:1020B800002123F48063202613602046216384F8DE
:1020C8003D6084F83E10FFF7DFFA002D3FF479AF4A
:1020D800A8E700BF000101000000FFFF806B026855
:1020E800116838B521F480610023456B846B116059
:1020F800438590F83D102B6560294FF0200123653A
:1021080080F83D1080F83E3006D0136823F00103B4
:102118001360FFF7BFFA38BD0364136823F00103A7
:102128001360FFF7B9FA38BD002800F02081F0B538
:102138000368DD0783B004462FD5A8498A6802F0F2
:102148000C02042A00F0AE808A6802F00C02082A09
:1021580000F0A4806368B3F5803F00F0AD80B3F56C
:10216800A02F00F02C819D4D2A6822F480322A602D
:102178002A6822F480222A60002B40F0A280FEF711
:10218800DFF9064605E0FEF7DBF9801B642800F25C
:10219800E2802B689B03F6D423689F0739D41A077B
:1021A80014D56369002B69D08D4B8C4D01221A60C0
:1021B800FEF7C6F9064605E0FEF7C2F9801B0228BD
:1021C80000F2C9806B6F9F07F6D52368590700F1A5
:1021D8008680A269D2B1814DA96801F00C01082955
:1021E80049D0022A7F4A4FF00001116000F0F180C7
:1021F800FEF7A6F92C46054605E0FEF7A1F9401BB7
:10220800022800F2A88023689B01F6D4002003B0BE
:10221800F0BD724A916811F00C0F25D0916801F059
:102228000C0108291DD0E368002B00F0A2806E4B3A
:102238006A4D01221A60FEF783F9064605E0FEF7AB
:102248007FF9801B022800F286802B689807F6D554
:102258002B68226923F0F80343EAC2032B60236842
:102268009DE752685602DED45C4A1268950775D518
:10227800E268012A72D0012003B0F0BD584A574DD8
:102288001360FEF75DF9064604E0FEF759F9801B76
:10229800022860D86B6F9807F7D496E74A6850020F
:1022A8007FF558AF4D4A126891037FF576AF6268A3
:1022B800002A7FF472AFDEE7484A136843F480339C
:1022C8001360FEF73DF9454D064604E0FEF738F980
:1022D800801B64283FD82B689A03F7D55CE73F4BEF
:1022E800424D002201921A6C42F080521A641B6C13
:1022F80003F080530193019B2B6843F480732B6098
:10230800FEF71EF9064604E0FEF71AF9801B0228BC
:1023180021D82B68DA05F7D5A368012B3AD0052B0D
:1023280000F08E802D4D2A6F22F001022A672A6F55
:1023380022F004022A67002B31D1FEF701F941F29D
:10234800883607462B6F98077FF543AFFEF7F8F8F6
:10235800C01BB042F6D9032003B0F0BD1F49206965
:102368000A6822F0F80242EAC0020A6017E7012070
:1023780070471D4A194D1360FEF7E2F8064604E05F
:10238800FEF7DEF8801B0228E5D82B689907F7D4FA
:10239800236804E7114A136F43F001031367FEF73C
:1023A800CFF80E4D074641F288362B6F9B073FF555
:1023B80010AFFEF7C5F8C01BB042F6D9CBE7074B04
:1023C8001A6842F480221A601A6842F480321A604D
:1023D80077E7FEF7B5F806460FE000BF0038024081
:1023E800800E4742600047420000474200700040AC
:1023F800FEF7A6F8801B0228ADD82B689901F7D400
:10240800D4E90736D4E90902E16A124C334343EAB6
:102418008013520843EA0163013A0F4943EA024331
:1024280001226B600A60FEF78BF8054604E0FEF7B0
:1024380087F8401B02288ED823689A01F7D5E5E66D
:10244800044B1A6F42F004021A671A6F42F0010235
:102458001A67A4E70038024060004742174908B5E8
:102468008B6803F00C03042B1BD0082B17D14A6888
:102478004B6813F4800302F03F0214D149681048F6
:10248800C1F38811A1FB0001FDF7A2FE0B4B5B68AD
:10249800C3F3014301335B00B0FBF3F008BD084808
:1024A80008BD084808BD4B680648C3F38813A3FB5A
:1024B80000010023FDF78CFEE8E700BF003802406A
:1024C8000024F40000127A0060B1484A136803F04F
:1024D8000F038B4208D2CBB21370136803F00F03BB
:1024E8008B4201D00120704703682DE9F0419D0718
:1024F80014D55C0704D53E4CA26842F4E052A260B1
:102508001A0704D53A4CA26842F46042A260384CDB
:102518008568A26822F0F0022A43A260DF07044619
:102528000D4622D54268012A56D0931E012B304B06
:102538001B6858D9990725D52D4EB36823F0030396
:102548001343B360FDF7FCFF41F28837804605E08E
:10255800FDF7F6FFA0EB0800B84242D8B3686268FE
:1025680003F00C03B3EB820FF2D1204A136803F097
:102578000F03AB4209D9EBB21370136803F00F03D2
:10258800AB4202D00120BDE8F08123685A0706D586
:102598001749E0688A6822F4E05202438A601B0700
:1025A80011D4FFF75BFF124B12499B68124AC3F321
:1025B8000313CB5C20FA03F300201360FDF788FFB8
:1025C8000020BDE8F0810A4A2169936823F460433A
:1025D80043EAC1039360E4E7054B1B689E03ABD451
:1025E800D0E70320EDE79801A6D4CBE7003C0240F2
:1025F80000380240C068000804000020014B186839
:10260800704700BF04000020044B054A9B68054939
:10261800C3F382230868D35CD8407047003802406F
:10262800D068000804000020044B054A9B6805494F
:10263800C3F342330868D35CD8407047003802407F
:10264800D068000804000020F0B4046AD1F808C07B
:102658000E68124D24F001040462036A4768826917
:1026680023F0020322F07302A84243EA0C0342EA71
:1026780006020BD1D1E90545CE6823F0080327F4FB
:10268800407733432C4323F00403274349684760CA
:102698008261F0BC41630362704700BF00000140E3
:1026A800F0B4046AD1F808C00E68134D24F480749D
:1026B8000462036A4768C26923F4007322F0730254
:1026C800A84243EA0C2342EA06020DD1D1E90545A6
:1026D800CE6823F4006327F4405743EA06232C43CB
:1026E80023F4806347EA041749684760C261F0BC75
:1026F800C1630362704700BF00000140F0B4046A80
:102708008F680E680E4D24F480540462036A44688E
:10271800C26923F4005322F4E642A84243EA07338D
:1027280042EA062204D14D6924F4804444EA85141F
:1027380049684460C261F0BC01640362704700BF2D
:1027480000000140026870B49368D1E9004023F0AA
:102758007003034323F0070323435028936036D0C4
:1027680024D960280ED070280AD1D1E9024308691B
:102778009168234343EA002321F47F410B4393608C
:1027880070BC7047106A8C680D6920F010001062E8
:102798009169136A21F4704123F0A00341EA0531DD
:1027A80043EA0413916170BC136270474028E7D173
:1027B800146A106A0D6920F001001062936923F011
:1027C800F00343EA05139361146270BC7047146AFE
:1027D800156A0E69886825F001051562936924F069
:1027E8000A0123F0F00343EA06130143936170BC26
:1027F800116270470222036810B580F83920196AFF
:1028080041F211121142044608D1196A40F24442B9
:10281800114203D11A6822F001021A60204602F020
:1028280053F8002084F8390084F8380010BD00BF40
:102838000368DA6842F00102DA601A6842F00102BD
:102848001A600020704700BF0368DA6822F00102AE
:10285800DA60196A41F21112114208D1196A40F27C
:102868004442114203D11A6822F001021A60002082
:10287800704700BF704700BF704700BF704700BF78
:1028880090F83830012B67D002220368F0B480F842
:1028980039209A680C6822F47F4222F077020125D9
:1028A800402C80F838509A6000F0938018D9702C2A
:1028B8007FD02BD9B4F5805F76D0B4F5005F1CD1FA
:1028C800D1E90152CC6899682A4342EA042221F4EA
:1028D8007F410A439A609A6842F480429A600CE009
:1028E800102C42D02FD9202C38D0302C05D19A6802
:1028F80022F0700242F037029A600023012280F829
:10290800392080F83830F0BC18467047502C33D046
:10291800602CF2D11C6A4D68CE6824F010041C6249
:1029280099691A6A21F4704122F0A00242EA05125C
:1029380041EA063199611A629A6822F0700242F0FF
:1029480067029A60D9E7002CD7D19A6822F0700202
:1029580042F007029A60D0E7022070479A6822F096
:10296800700242F027029A60C7E79A6822F0700264
:1029780042F017029A60C0E71D6A1E6A4C68CF6869
:1029880026F001061E629A6925F00A0122F0F0027B
:1029980042EA071221439A6119629A6822F070028A
:1029A80042F057029A60A8E79A6822F007029A60F4
:1029B800A3E7D1E90152CC6899682A4342EA042284
:1029C80021F47F410A439A609A6842F077029A603C
:1029D80093E71D6A1E6A4C68CF6826F001061E62DE
:1029E8009A6925F00A0122F0F00242EA071221430F
:1029F8009A6119629A6822F0700242F047029A605E
:102A08007BE700BF38B590F83830012B18D0044662
:102A18000125022380F8385080F83930FFF792FEFC
:102A28002368DA6822F04002DA60DA68002122F4CA
:102A38008042DA60084684F8395084F8381038BD86
:102A4800022038BD704700BF704700BF03681A698D
:102A5800910710B5044602D5DA6892075FD41A695F
:102A6800500702D5DA68510746D41A69120702D509
:102A7800DA6810072ED41A69D20602D5DA68D006A9
:102A880018D41A69D10702D5DA68D2075DD41A6951
:102A9800100602D5DA6811065FD41A69520602D503
:102AA800DA68500661D41A69910602D5DA68920686
:102AB80043D410BD6FF010021A61DB69082213F4C9
:102AC800407F2276204664D0FFF7BCFF00222368AF
:102AD8002276D6E76FF008021A61DB6904229907AB
:102AE8002276204652D102F00FF82046FFF7ACFFBD
:102AF800002223682276BEE76FF004021A619B6900
:102B0800022213F4407F227620463CD101F0FCFFDC
:102B18002046FFF799FF002223682276A5E76FF089
:102B280002021A619B6901229B07027625D0FFF7F2
:102B380089FF00222368227691E76FF02002204661
:102B48001A61BDE8104001F0EBBF6FF001021A6195
:102B5800204601F0B5FF236899E76FF080021A61FB
:102B6800204602F003F8236897E76FF040021A61E5
:102B7800204601F0EDFF236895E701F0C5FF2046E8
:102B8800FFF762FFD5E7FFF75DFFC4E7FFF75AFFDE
:102B9800AEE701F0B9FF2046FFF756FF96E700BF02
:102BA80070B4214C03688A680D68A0422AD0B0F13D
:102BB800804F18D0A4F57C44A04214D004F580645A
:102BC800A04210D004F58064A0420CD004F59A34D9
:102BD800A0420CD004F58064A04208D004F58064BB
:102BE800A04208D103E04C6823F070032343C9686E
:102BF80023F440730B4303600123C262856243617F
:102C080070BC70474E68CC6823F07003334323F4DC
:102C1800407323430360C26285620B690363012327
:102C2800436170BC704700BF00000140B8B190F824
:102C3800393010B503F0FF0204465BB1022384F873
:102C480039302068211DFFF7ABFF012384F83930A4
:102C5800002010BD80F8382001F028FDEEE70120A3
:102C6800704700BFB8B190F8393010B503F0FF02D3
:102C780004465BB1022384F839302068211DFFF730
:102C88008FFF012384F83930002010BD80F83820E8
:102C9800FFF7F0FDEEE70120704700BFB8B190F8EC
:102CA800393010B503F0FF0204465BB1022384F803
:102CB80039302068211DFFF773FF012384F839306C
:102CC800002010BD80F83820FFF7D6FDEEE7012080
:102CD800704700BFB8B190F8393010B503F0FF0263
:102CE80004465BB1022384F839302068211DFFF7C0
:102CF80057FF012384F83930002010BD80F83820B0
:102D0800FFF7BCFDEEE70120704700BF70B4046A0E
:102D1800174E24F0010404628469056AB04224F065
:102D2800030415D0B0F1804F12D0A6F57C46B0420E
:102D38000ED006F58066B0420AD006F58066B0422D
:102D480006D006F59A36B04202D044F0010200E0FF
:102D580022431B0125F00A04DBB222F0F00201F045
:102D68000A0121431343836170BC0162704700BFAD
:102D780000000140F8B590F83830012B64D00D46BA
:102D880002231646012280F8382080F8393004469C
:102D9800D1E900120068EB6856B3042EAD6833D051
:102DA800082E066A52D026F480560662C669076A5B
:102DB80026F440761B03090346EA02229BB201F47B
:102DC800204122F4704227F4204713433943C3615A
:102DD8000162C36923F44063C361C36943EA0525FB
:102DE800C5610123002084F8393084F83800F8BD23
:102DF800FFF78CFF2368A868996921F00C01996195
:102E08009A6902439A61ECE7066A26F010060662A0
:102E18008669076A26F440761B03090146EA0222FE
:102E28009BB201F0A00122F4704227F0A0071A43D8
:102E3800394382610162836923F440638361836952
:102E480043EA05258561CCE70220F8BD26F48076A3
:102E58000662C669076A26F003061B0109023243A7
:102E6800DBB201F4206122F0F00227F420671A4354
:102E78003943C2610162C36923F00C03C361C369AA
:102E88001D43C561ADE700BFF0B4046AD1F808C0BE
:102E98000E68134D24F010040462036A47688269BF
:102EA80023F0200322F4E642A84243EA0C1342EA44
:102EB80006220DD1D1E90545CE6823F0800327F419
:102EC800406743EA06132C4323F0400347EA84078C
:102ED800496847608261F0BC81630362704700BF44
:102EE8000000014090F83830012B28D010B5044676
:102EF8000223012084F8380084F839300C2A0BD8D2
:102F0800DFE802F0070A0A0A150A0A0A190A0A0A71
:102F180011002068FFF798FB0123002084F839305E
:102F280084F8380010BD2068FFF7E8FBF4E7206854
:102F3800FFF7AAFFF0E72068FFF7B2FBECE70220F3
:102F4800704700BF38B590F83830012B74D00D4663
:102F580002230121044680F8381080F839300C2A01
:102F680019D8DFE802F00718181838181818511877
:102F780018181F0029460068FFF766FB23682869B0
:102F8800996941F008019961996921F004019961F1
:102F98009A6902439A610123002084F8393084F841
:102FA800380038BD29460068FFF7A8FB2368286960
:102FB800D96941F40061D961D96921F48061D96185
:102FC800DA6942EA0022DA610020012384F8393004
:102FD80084F83800E5E729460068FFF755FF2368BD
:102FE8002869996941F400619961996921F48061BE
:102FF80099619A6942EA00229A610020012384F8C3
:10300800393084F83800CCE729460068FFF748FBD8
:1030180023682869D96941F00801D961D96921F083
:103028000401D961DA690243DA610020012384F8D6
:10303800393084F83800B4E7022038BD90F83830C9
:10304800012B24D010B4012331F0300480F838303B
:10305800036806D19C6824F070049C609C68214336
:10306800996059685DF8044B41F00101596059684D
:1030780021F00401596059680A435A60DA6800214E
:1030880042F02002DA6080F83810084670470223C0
:103098001846704790F83830012B1ED0024602209F
:1030A800136870B482F839005C6824F07004D1E9C0
:1030B80000565C60586828435860986820F0800083
:1030C800986099680024012531439960204682F868
:1030D800395082F8384070BC70470220704700BFF2
:1030E80090F83830012B21D030B4D1E90253D1E91E
:1030F800002423F440732B4323F48063234323F4F5
:103108000063D1E90454134323F480532B4323F47D
:10311800005389690268234323F440430B43002189
:10312800536430BC80F838100846704702231846AC
:10313800704700BF026811692DE9F843C5688368C4
:1031480021F440510446294300691161D168656939
:103158000343E06921F416412B4321F00C0103439A
:103168000B43D3605369A16923F440730B43B0F553
:10317800004F53619B4B00F09A809A4259D003F557
:1031880080639A4255D0FFF73FFA974F636800EB88
:10319800800000EB80009B00B0FBF3F3A7FB032348
:1031A8005B091D01FFF730FA666800EB800000EB51
:1031B8008000B600B0FBF6F6FFF726FA636800EB6E
:1031C800800000EB80009B00B0FBF3F3A7FB032318
:1031D8005B094FF0640909FB13631B013233A7FB3A
:1031E80003235B0903F0F006FFF70EFA626800EBB1
:1031F800800000EB80009300B0FBF3F8FFF704FABF
:10320800D4E9002300EB80009B0000EB8000B0FBBA
:10321800F3F0A7FB0030400909FB10831B01323390
:10322800A7FB0313C3F3431333432B449360BDE855
:10323800F883FFF7F9F96C4F636800EB800000EB47
:1032480080009B00B0FBF3F3A7FB03235B091D0180
:10325800FFF7EAF9666800EB800000EB8000B60033
:10326800B0FBF6F6FFF7E0F9636800EB800000EBCF
:1032780080009B00B0FBF3F3A7FB03234FF0640926
:103288005B0909FB13631B013233A7FB03235B09AB
:1032980003F0F006FFF7C8F9626800EB80009300BE
:1032A80000EB8000B0FBF3F8FFF7BEF9A8E79A42FD
:1032B80059D003F580639A4255D0FFF7A5F94A4FD4
:1032C800636800EB800000EB80005B00B0FBF3F369
:1032D800A7FB03235B091E01FFF796F9656800EB5E
:1032E800800000EB80006D00B0FBF5F5FFF78CF96E
:1032F800636800EB800000EB80005B00B0FBF3F339
:10330800A7FB03235B094FF0640909FB1353DB0098
:103318003233A7FB03231B0903F4F875FFF774F98D
:10332800626800EB800000EB80005300B0FBF3F80C
:10333800FFF76AF9D4E9002300EB800000EB800076
:103348005B00B0FBF3F3A7FB03135B0909FB1383D3
:10335800DB003233A7FB0313C3F3421333442B447C
:103368009360BDE8F883FFF75FF91F4F636800EBD0
:10337800800000EB80005B00B0FBF3F3A7FB0323A6
:103388005B091E01FFF750F9656800EB800000EB50
:1033980080006D00B0FBF5F5FFF746F9636800EBB8
:1033A800800000EB80005B00B0FBF3F3A7FB032376
:1033B8004FF064095B0909FB1353DB003233A7FBA9
:1033C80003231B0903F4F875FFF72EF9626800EB75
:1033D8008000530000EB8000B0FBF3F8FFF724F9FE
:1033E800A8E700BF001001401F85EB5160B338B556
:1033F80090F83930044603F0FF0203B3226824230F
:1034080084F83930D36823F40053D3602046FFF79B
:1034180091FE23681A6922F490421A615A6922F0CF
:103428002A025A61DA680025202142F40052DA6043
:103438002846E56384F8391084F83A1038BD80F8D6
:10344800382001F09FFAD9E70120704780B110B504
:103458002423044680F8393001F0C4FA0023E363DA
:1034680084F8383084F83930184684F83A3010BD7A
:103478000120704738B5094C054600F001024FF4A9
:1034880080412046FDF7E2FCC5F3400220464FF498
:103498000041BDE83840FDF7D9BC00BF0008024034
:1034A80010B50B4C204600F0DDFC04F14C0000F098
:1034B800D9FC04F1980000F0D5FC04F1E40000F018
:1034C800D1FC94F83001BDE81040FFF7D3BF00BF2E
:1034D800DC000020F8B5124E124D337895F83041D3
:1034E8005A1E3270C3B9FDF751F90F4BE4B204EB21
:1034F800C3039B00621C02F0030201271F6085F8CA
:10350800302195F8303105EB4404A4F8340118460D
:10351800FFF7B0FF3770F8BDBDE8F840FDF736B9E2
:1035280000000020DC000020180210212DE9F843DB
:103538000F4ED6F83C3173B10E4D00246D01A146F3
:1035480006F59A7806F5A0772B6833B90234082C6B
:1035580005F10405F8D1BDE8F8832621C5F80090E7
:1035680001FB046138F8040000F08DFC3853EDE7E6
:10357800DC00002018021021024B036008230B60B6
:10358800002070471C020020F0B585B06426022494
:10359800264D0095CDE9014601230022A0212448AB
:1035A800FDF74EFF08B105B0F0BD2B190093CDE92A
:1035B800014601232246A0211D48FDF741FF0028AE
:1035C800F1D101272A1D0092CDE901763B4604225C
:1035D800A0211748FDF734FF0028E4D16B1D0093A4
:1035E800CDE901763B460522A0211148FDF728FFC9
:1035F8000028D8D1AB1D0093CDE901463B460622F1
:10360800A0210B48FDF71CFF0028CCD108350095F8
:10361800CDE901463B460822A0210548FDF710FFE9
:103628000028C0D1034B5B011F60BCE7B004002039
:10363800F8040020240210212DE9F04F89B0A0F1F0
:1036480008038346069107934FF0000A904612E05C
:103658006423059E0096CDE901730123FDF756FE0C
:10366800002847D1A8EB07081FFA88F80AF1010AD1
:10367800B8F1000F41D05FFA8AF44746E400069E8D
:103688002048082F0BEB040528BF0827AAB22644B8
:10369800079D0596FEB22E44F6B207EB0B0E1FFAF5
:1036A80086F9A7EB090CBEF1080F4FF001034FF0A4
:1036B800A00104921FFA8CFCCADD6420CDE901C088
:1036C800059800900F48FDF721FE049B3B44A3EBAF
:1036D80009023C44069BA61B1E4492B20123A0216A
:1036E80040B96420CDE9019000960648FDF70EFE2A
:1036F8000028B7D009B0BDE8F08F404609B0BDE852
:10370800F08F00BFF8040020034B5B0118680030FD
:1037180018BF0120704700BF24021021B0F5004FE8
:1037280008B519D0042808D0B0F5806F0AD10D4B20
:103738000D4A5B0112689A6004E00A4B0B4A5B0170
:1037480012685A6002F062FB094B5B0101221A60A1
:10375800BDE8084002F05ABC024B064A5B011268F9
:103768001A60EFE7BA0410212882404208824142D9
:10377800BB0410213C024042094A0A490A4B12681C
:1037880009681B689B0043EA41031343DBB2EFF36C
:10379800108272B605490B7082F31088704700BF1B
:1037A8003C0240420882414228824042BA0400203A
:1037B800EFF3108372B6034A1078C0B283F310880F
:1037C800704700BFBA040020431E052B0AD8064ADA
:1037D800135C013B13F0FF0301D10220704713442F
:1037E800187A704700207047AC680008431E052B04
:1037F8000AD8064A135C0133DBB2062B01D9032031
:1038080070471344187A704700207047AC68000866
:10381800034B00304FEA431318BF0120186070476C
:10382800BB041021034B5B011868003018BF01204E
:10383800704700BFBB04102102F0E0BD08B500F0DE
:10384800CBFD00B108BD00F180404FF4007100F5D8
:103858000130BDE80840FDF7FDBA00BF70B594B06F
:103868000020274A0190116C264B41F080511164C9
:10387800126C02F080520192019A02901A6842F486
:1038880040421A601B68012003F44043029302245B
:1038980004254FF480314FF480025423089008A87F
:1038A800029E09910E941294CDE90F251395119358
:1038B800FEF73AFC00B1FEE7034621464FF480527A
:1038C8000F2603A804940593079303960692FEF720
:1038D800FBFD044600B1FEE7FEF790FE4FF47A7355
:1038E800B0FBF3F0FDF700F92846FDF717F922467B
:1038F80021464FF0FF30FDF7A7F814B070BD00BFA8
:1039080000380240007000402DE9F041A84BDFF874
:10391800DC821B68A74DA2B00024ADF80C301B0C4C
:103928008DF80E30FCF7EAFDFFF798FFA24B0494E0
:103938001A6BA24842F004021A631A6B02F00402DE
:103948000492049A05941A6B42F080021A631A6B67
:1039580002F080020592059A06941A6B42F0010261
:103968001A631A6B02F001020692069A07941A6B00
:1039780042F002021A631A6B02F002020792079AD7
:1039880008941A6B42F008021A631B6B03F00803D1
:10399800089322464FF44241089BFDF757FA224606
:1039A80040F226218648FDF751FA4FF4705202235F
:1039B8001BA982481D93CDE91B240126FDF7D0F8E9
:1039C8004FF442431BA97D48CDE91B36CDE91D4480
:1039D800FDF7C6F840F226231BA979481B93CDE9C9
:1039E8001C641E94FDF7BCF84FF480631BA974484F
:1039F8001D96CDE91B38FDF7B3F84FF400431BA91A
:103A080070481B93CDE91C860427FDF7A9F81BA96C
:103A18006D481B97CDE91C86FDF7A2F82246214682
:103A28000820FDF711F80820FDF744F82246214642
:103A38002820FDF709F82820FDF73CF8634828609E
:103A48004FF480314FF080524FF000632846AC604D
:103A58002C61AC612C62EC60EE612C636E61696074
:103A6800C5E90A32FCF772FD00B1FEE703460522FC
:103A780028461BA91C961D931B92FCF725FF00B135
:103A8800FEE7534B534C54491C60C3E90200C3E999
:103A98000500C3E907004FF48042184659601A61CF
:103AA800FDF7BEFB00B1FEE74C4C4D49606020229B
:103AB800C4E9040040F2CF7320462160C4E9022320
:103AC800FFF7B4F800B1FEE722AD4FF4805345F894
:103AD8005C3D20462946FEF7D3FE00B1FEE72046AE
:103AE800FFF7DCF800B1FEE7302306220FA92046D5
:103AF80010930F92FEF786FF034600B1FEE709A96F
:103B08002046CDE90933FFF7C5FA00B1FEE70246C2
:103B18006023CDE91500CDE91700CDE9190014A9F6
:103B280020461493FFF70EFA00B1FEE73A46204606
:103B380014A9FFF707FA00B1FEE7082214A92748DD
:103B4800FFF700FA00B1FEE7A7214FF40052CDE9D4
:103B58001B001D901F904FF480431E911F48209218
:103B68001BA92193FFF7BCFA064600B1FEE71D4CDE
:103B78001A4800F053FE4FF020081B4A666040F2D6
:103B8800CF73204626612260C4E90283FFF74EF80E
:103B980000B1FEE74FF480570FA920460F97FEF7B4
:103BA8006FFE00B1FEE72046FFF778F800B3FEE7A6
:103BB800BC680008C4050020003802400008024024
:103BC8000004024000000240000C024000200140B6
:103BD800F804002000540040A08601004806002098
:103BE800000001408805002000040040000031105A
:103BF8000622302314A9204614921593FEF702FFDB
:103C080000B1FEE7802329462046CDF82C800C938E
:103C1800FFF740FA00B1FEE70246602640F2DC53A7
:103C28001D901F901BA920461B961C93FFF78AF92D
:103C3800064600B1FEE7204600F0F0FD7A4B7B4ACD
:103C48001A604FF4E1304FF480610C225860184636
:103C58009F60DE60C3E90666C3E90412FFF7C6FB8E
:103C680000B1FEE7724B734A9860186101211A602F
:103C780018464AF20F425960DA60FEF7D7FF00B1E2
:103C8800FEE76D4C6D4B236053234FF6FF72636064
:103C980020460023C4E902322361FEF7C7FF00B1C2
:103CA800FEE7294620464FF480550B95FEF7E8FDC0
:103CB80000B1FEE72046FFF70DF800B1FEE7204609
:103CC800FEF7D0FF00B1FEE70426302314A92046F2
:103CD800CDE91463FEF796FE00B1FEE720230A90B3
:103CE80009A920460993FFF7D5F900B1FEE7032398
:103CF80002460F90CDE911000FA920461093FFF757
:103D080039F8034600B1FEE72046324601241BA9D4
:103D18001B931D931F931C94FFF7E4F800B1FEE773
:103D2800474C4849A060072220614FF4037320469E
:103D380021606260E360FEF779FF00B1FEE720468C
:103D48001BA91B95FEF79CFD00B1FEE73E4C3F4BBF
:103D580023603F21002349F65C3220466160C4E9B4
:103D680002322361FEF762FF00B1FEE72046FEF74C
:103D780095FF00B1FEE70246602546F293731D9059
:103D88001F901BA92046CDE91B53FFF7DBF800B1B4
:103D9800FEE7204600F042FD012220212C482D4C50
:103DA800FDF754F801224FF400712948FDF74EF849
:103DB80000F056FF00F072FB2546284600F0B0FBE5
:103DC8000028FAD0217800220224009410464FF4EB
:103DD800E12301F0F1F900B1FEE7032303AA012171
:103DE800342001F0B3F900B1FEE701F035FA00B173
:103DF800FEE7FFF7C1FC00F095F800F0EFF800F0DF
:103E0800F1FA02F023FB144A40F2F311204600F0C5
:103E180037FF2046114A40F2F31100F031FF01F05C
:103E28002DFA02F063FBFAE7C006002000440040C8
:103E38000C06002000480140BC0400200008004097
:103E480084060020004001404C0500200044014049
:103E580000040240010000204538000841380008ED
:103E6800FEE700BF38B5044600F1140538220021EA
:103E7800284602F002FD2560002363602381221D8D
:103E8800E260238238BDF0B5044600B901240B680E
:103E980008330A4642F8143B9B1A302B00DD0A60AF
:103EA8000B689C800B4653F80C2BD2F800E0C868CE
:103EB800824203D0CA689C4600200DE0C1F80CE09D
:103EC800F8E7C2F800E00DE0C3F800E01DE09D420D
:103ED80025D01A68013080B2062820D816680D68E7
:103EE800AE42EED09588A54205D20C681D682560C3
:103EF8000C681C600024DCF800C00D1D95420ED033
:103F080013680F681E68BE42DED09E88A642DED2C5
:103F18000C68166826600C6814600024D7E7BCF8A3
:103F28000400F0BD70B50C4C86B000234FF48075CA
:103F38002046012601A9CDE90333CDE90156FCF756
:103F48000FFE324629462046FCF780FF002000F08D
:103F5800B7FE06B070BD00BF0004024008B5054BAF
:103F6800002205201A7002F091F8BDE8084002F01E
:103F780041B900BF2802002010B500F04FFA00B187
:103F880010BD054C0146607800F0ACFE6078032156
:103F9800BDE8104000F0E6BE2802002010B582B04F
:103FA80002A9002341F8043D68460093FFF7E4FAAC
:103FB800019A082A03D80099074802F053FC01F037
:103FC80051FF054C608102F069F9208102F080F808
:103FD800A081002002B010BD1007002038B5FFF7FF
:103FE80093FB48B3FFF790FB98B1154A154B5479EA
:103FF800D088118955889D8004F0010415791288AC
:104008001C81C0F30B00C1F30B01DD805A8058817D
:1040180099810D4A0D4C40F2E731012000F030FE45
:104028000B4AA0700921012000F02AFE6070BDE84B
:104038003840052002F02AB8FFF7A6FAD2E700BFF9
:10404800B004002000070020653F00082802002077
:10405800813F000830B5013989B240F24B4399429B
:1040680083B0044605D8B1F57A7F35D2012003B074
:1040780030BD531840F25340834223DDB1F5966FAB
:104088002BD340F2D2408342F0DC1A4BA1F596655F
:10409800AAB1013A05F1004190B20139221D02EBA3
:1040A800400203EB4101A01C31F8023F1B0A00F853
:1040B800023C0B8800F8013C02308242F4D1002017
:1040C80003B030BD0C4B5B01A1F24C45196859B1E6
:1040D80000211960094BDBE75318B3F57C7FC5DC79
:1040E800A1F57A75064BD3E70192FFF757FF034B0B
:1040F800019ACDE7200700202C021021100700208C
:1041080000070020013989B2B1F5966F70B52BD33D
:10411800551840F2D244A54229DCA1F59661A04C7D
:1041280083B3012B1ED1B2B101F10041013A031D45
:10413800013992B204EB410103EB4202023010F85C
:10414800023C1B0221F8023F10F8015C02302B43AD
:1041580082420B80F3D1924DAC4200F08280914DA7
:10416800AC4229D0002070BDB1F57A7F01D2012080
:1041780070BD5418B4F57C7FF9DCA1F57A71894CCF
:10418800002BCED1002AEDD001F10041013A031DE8
:10419800013992B204EB410103EB4202023031F8DB
:1041A800023F1B0A00F8023C0B8800F8013C023071
:1041B8008242F4D10020D6E72B88002B40F0C5803E
:1041C800AC8801F0ABFE844202D0A88801F09CFEC6
:1041D800EC8801F0AFFE80B2844202D0A87901F0E9
:1041E800AFFE714E6C88B07800F0CAFD844208D0EA
:1041F8006988B07800F0D2FD02226C490020FFF7F0
:104208001BFA6B4C2B8962795340DB0700F19780CE
:10421800E3886889C3F30B03984206D001F02AFFAC
:10422800022264490620FFF707FA2389A889C3F305
:104238000B03984206D001F023FF02225E490820B2
:10424800FFF7FAF9EB89032B00F08580012B7FD06B
:10425800022B87D1B368012B84D1052001F02EFFF2
:1042680080E7564C2A8823789342FFF47BAF69880D
:104278000A449A427FF776AF4B4E3378002B7DD0B5
:10428800B07800F07DFD00286FD1FFF787FE4C4B1A
:104298005B0101221A6001F063FE002861D12378D6
:1042A800013BDBB205EB4305AC88630B042B3FF6FF
:1042B80059AF01A252F823F009430008014300084E
:1042C800DD4200086D410008D542000801F092FF68
:1042D800002070BD01F04EFE0446002857D1012091
:1042E80000F092F82146707800F0FCFC7078032109
:1042F80000F038FD204670BD01F01AFE002070BDA8
:1043080001F038FE08B901F06DFF01F0CBFD25136F
:1043180080B2854206D001F0C5FD064601F0CAFD0F
:10432800864238D0274B1B68DB6AC4F30B0403FBB7
:1043380004F4C4F30F3001F063FE002070BD0122C5
:1043480021490520FFF778F962E701F097FD37E783
:10435800B360002070BD0024EC8101F0BFFE204650
:1043680070BD002001F0F6FD99E70021B07800F05B
:10437800B9FC0321B07800F0F5FC86E701224FF480
:1043880000711248FCF762FD0123337078E701F0F1
:10439800F7FD002070BD284601F094FDC2E700BF7C
:1043A8002007002000070020280200200207002024
:1043B800B00400200A0700200C070020010000209C
:1043C8002C021021480600200807002000040240A3
:1043D8000120704701207047014B1878704700BFD3
:1043E8002802002010B500220921012000F048FC15
:1043F800044C0022A0740421012000F041FCE07468
:1044080010BD00BF34020020034B00EBC300800046
:1044180001230360704700BF3402102110B51D4C02
:1044280082B0E07C00F092FC012812D0E07C00F021
:104438006FFC30B90DF1070001F010FEC0B902B0F1
:1044480010BDFFF7EFF9E0B9134B0120187002B067
:1044580010BD114BE07C1978890000F09FFC002109
:10446800E07C00F03FFC0321E07C00F07BFCDDE712
:1044780001F018FD9DF80730181A18BF012002B086
:1044880010BD0020FFF7C4F9034A137801331370F5
:10449800D0E700BF340200200200002070B54FF4BE
:1044A80080611C481C4CFCF7CBFC4FF40061207069
:1044B8001848FCF7C5FC4FF4805160701548FCF7AC
:1044C800BFFC4FF40051A0701248FCF7B9FC134A26
:1044D800217813786578A678E0700B442B44334430
:1044E8000344DBB2012B0AD00021537900208B4210
:1044F80010704FF0010318BF5171137170BD01297D
:10450800F3D0012D04D0012E14BF04210321ECE7C0
:104518000221EAE700080240640700204802002060
:10452800EFF3108372B6034A51790170107983F35F
:10453800108870474802002010B582B00024224B32
:1045480000945A6C42F480425A645A6C02F48042D5
:104558000092009A01941A6C42F080521A641B6C03
:1045680003F0805301930320019BFCF75BFA22467A
:1045780021466FF00B00FCF767FA224621466FF0E0
:104588000A00FCF761FA224621466FF00900FCF7A1
:104598005BFA224621466FF00400FCF755FA2246E2
:1045A80021466FF00300FCF74FFA22460F216FF007
:1045B8000100FCF749FA224621464FF0FF3002B0CD
:1045C800BDE81040FCF740BA003802400268174BBB
:1045D8009A4200D0704730B587B0002403F58C3379
:1045E80000945A6C124842F480725A645B6C0394CB
:1045F80003F480730093032501A93E23009ACDE9B3
:104608000135FCF7ADFA222301A90A480193CDE947
:104618000254FCF7A5FA224629461220FCF714FAA0
:104628001220FCF747FA07B030BD00BF0020014058
:1046380000080240000002400268194B9A4200D06C
:10464800704730B587B00423C0200DEB0301032267
:104658000190122501241348CDE90423CDE9025421
:10466800FCF77EFA0024104B00941A6C42F40012F6
:104678001A641B6C03F40013224600930C211F20BC
:10468800009BFCF7E1F91F20FCF714FA22460D21E4
:104698002020FCF7D9F92020FCF70CFA07B030BD30
:1046A80000540040000402400038024070B503681E
:1046B800514A93428AB032D0504A93420DD0504A60
:1046C800934270D04F4A934215D04F4A93425CD0E0
:1046D8004E4A93427BD00AB070BD4D4B00220192E6
:1046E8001A6C42F002021A641B6C03F00203019375
:1046F800019B0AB070BD0022454B0392596C41F4EE
:10470800803159645B6C03F48033039302211820D1
:10471800039BFCF799F91820FCF7CCF9DBE7002498
:104728003B4B00945A6C3B4842F001025A645B6C64
:10473800079403F0010300930226012505A94FF40D
:104748008053009A0894CDE905360995FCF708FAD4
:104758004FF4C05305A930480593CDE90664CDE967
:104768000845FCF7FDF9224631461820FCF76CF99C
:104778001820FCF79FF9224629461A20FCF764F90D
:104788001A20FCF797F90AB070BD214B0022049259
:104798005A6C42F400325A645B6C03F4003304939D
:1047A800049B0AB070BD0022194B0292196C41F0AB
:1047B800040119641B6C03F00403029311461E20C4
:1047C800029BFCF741F91E20FCF774F983E70022ED
:1047D8000F4B0592596C41F4802159645B6C03F4CA
:1047E8008023059301211A20059BFCF72DF91A2037
:1047F800FCF760F96FE700BF0000014000040040CB
:1048080000080040004001400044014000480140C9
:1048180000380240000402400000024030B503683E
:10482800244A934287B007D0234A934233D0234A7D
:10483800934220D007B030BD00224FF6FF71FEF73B
:10484800FDFB022401A94FF4604301251C4805958E
:10485800CDE90134CDE90344FCF782F94FF4E06374
:1048680001A918480193CDE90244CDE90445FCF7B4
:1048780077F907B030BD002303224FF48075022476
:1048880001A90F480592CDE90154CDE90333FCF79E
:1048980067F907B030BD02220023102401A9084897
:1048A8000592CDE90142CDE90333FCF759F907B088
:1048B80030BD00BF0000014000040040004401403A
:1048C800000402400000024008B5264A03689342EB
:1048D80024D0254A93420CD0244A934237D0244A04
:1048E80093420DD0234A93422AD0234A93420ED0B2
:1048F80008BD02F50D32136C23F00203136408BDE2
:1049080002F57842536C23F48033536408BD02F5F2
:104918007042536C23F48023536408BD02F59C3223
:104928001648536C23F0010353644FF47041FCF7AD
:10493800F7F94FF4F8511248BDE80840FCF7F0B910
:1049480002F57442536C23F40033536408BD02F536
:104958000C321E20136C23F004031364BDE80840D6
:10496800FCF7B4B800000140000400400008004013
:10497800004001400044014000480140000402405A
:10498800000002400268154B9A4200D0704770B58B
:1049980086B0002503F5FA330095196C104841F4E8
:1049A800003119641B6C0C2403F4003302210093BA
:1049B8000122032301940291072401A9CDE90323CD
:1049C800009E0594FCF7CCF82A4621462620FCF7E1
:1049D8003BF82620FCF76EF806B070BD0044004096
:1049E8000000024008B50268084B9A4200D008BD92
:1049F800074A0848136C23F4003313640C21FCF7AE
:104A08008FF92620BDE80840FCF760B80044004054
:104A1800003802400000024000F0F6B808B5FBF785
:104A280087FDBDE80840FCF785B800BF0420FCF707
:104A380015BA00BF0148FBF7B1BE00BFC40500208E
:104A480008B50448FEF702F80348BDE80840FDF73A
:104A5800FDBF00BF480600208406002008B50448B2
:104A6800FDF7F4FF0348BDE80840FDF7EFBF00BFBE
:104A7800480600200C0600200148FDF7E7BF00BFEC
:104A8800BC0400200148FCF7A3BE00BFF8040020C6
:104A98000148FDF76BBA00BFF804002008B54FF4D1
:104AA8008060FCF7DBF94FF40040BDE80840FCF7F4
:104AB800D5B900BF014800F029BD00BFC0060020DD
:104AC80008B50D4A036893420AD00C4A93420FD0A6
:104AD8000B4A934200D008BDBDE8084001F01ABC5B
:104AE80000F078F8074A536843F08053536008BDD4
:104AF800BDE8084000F084BD004801400040014086
:104B08000008004000ED00E00268034B9A4202D121
:104B1800024B5B011B687047000800409409102194
:104B28000268034B9A4200D0704701F0B3B900BF46
:104B380000000140B0F5004F05D0042803D0B0F5BF
:104B4800806F00D07047FEF7E9BD00BF01F00ABCD6
:104B58000268044B9A4200D070474FF40071024833
:104B6800FCF778B9000400400008024008B50122AB
:104B780020210948FCF76AF9084A13680133B3F59C
:104B88007A7F136000D808BD01F034FB0020BDE82F
:104B9800084001F07BBA00BF000402401C0300205B
:104BA8000148FDF745BE00BF0C060020034B1A68FC
:104BB800D36823F00103D360704700BF0C060020C0
:104BC800034B1A68D36843F00103D360704700BFF2
:104BD8000C060020024A136801331360704700BFB7
:104BE8005002002010B5FFF7E1FF064B1C681CB906
:104BF800FFF7E6FF204610BD00221A60FFF7E0FF2E
:104C0800204610BD500200202DE9F041FFF7EAFFD1
:104C180008B3124C07464FF0000804F1C8050126F6
:104C28000DE02369C4F80480032A267308BF2670A0
:104C380013B184F80C8098471434AC420BD0227816
:104C4800012AF9D9D4E901318B42EAD23B446360A5
:104C58001434AC42F3D1BDE8F08100BF68070020EE
:104C6800064B002203F1C8011A701A611A73C3E9CE
:104C7800012214338B42F7D1FFF792BF6807002057
:104C880070B1F0B40D4F064600233C462578D8B2E3
:104C980014343DB101330A2BF8D1FF20F0BC704722
:104CA800FF20704703EB83039B00FC18FE54257319
:104CB800C4E901512261F0BC704700BF68070020B9
:104CC80009280BD8064900EB80008300CA18002089
:104CD800C854C2E90100106110737047FF20704783
:104CE8006807002009280ED838B50D460446FFF796
:104CF8005DFF064B04EB840003EB80004560FFF783
:104D08005FFF002038BDFF20704700BF6807002004
:104D1800092838B514D80446FFF748FF0A4B04EBB6
:104D2800840003EB8000057B1DB9FFF749FF284687
:104D380038BD002303730125FFF742FF284638BD1D
:104D4800FF25284638BD00BF6807002009289DBFF9
:104D580000EB8000024B13F82000FF20704700BFD3
:104D680068070020092806D800EB8003034A0020C2
:104D780002F823107047FF20704700BF6807002023
:104D8800092806D8044B00EB800003EB80008068FC
:104D98007047FF20704700BF68070020092807D820
:104DA800044B00EB800003EB800300209960704700
:104DB800FF207047680700201049114BD1F8882060
:104DC80042F4700210B4C1F888201A680D4C002013
:104DD80042F001021A6098601A6822F0847222F484
:104DE80080321A605C601A684FF0006422F48022F6
:104DF8001A60D8608C605DF8044B704700ED00E0E5
:104E080000380240103000240B88052B2AD170B5D9
:104E1800B0F8032052BA92B2531E9BB240F2CE743D
:104E2800A34221D800250124B0F801300D80047078
:104E38000C8801340C80C2F3C70554071CBF013528
:104E4800EDB245700E880C4659BA0131731C2380A7
:104E580089B202300023FFF7BBFA38B9228815441B
:104E6800258070BD03207047032070BDBDE87040E9
:104E780000F09AB90B88052B1CD10379D3B910B56A
:104E8800C478621ED2B2FD2A82B018D9B0F80110D7
:104E98008DF80530FF2C08BF012349BA8DF804307E
:104EA8000131012389B21A4601A8FFF791FA18B90E
:104EB80002B010BD0320704700F076F9F8E7032030
:104EC80002B010BD0B88052B15D910B5B0F803201A
:104ED80052BA92B25407C2F3C70318BF013302F1A2
:104EE800FF3418BFDBB2B4F5F66F02D244799C42A6
:104EF80003D0032010BD032070470C46B0F8011002
:104F080049BA013189B206300123FFF761FA10B9B5
:104F18000522228010BDBDE8104000F045B900BF51
:104F28000B88052B29D170B5B0F8032052BA92B27C
:104F3800531E9BB240F2CE74A34220D8002502240F
:104F4800B0F801300D8004700C8801340C80C2F375
:104F5800C70554071CBF0135EDB245700E880C46D5
:104F680059BA0131731C89B202302380FFF732FA33
:104F780038B922881544258070BD03207047032066
:104F880070BDBDE8704000F00FB900BF08B50B88D0
:104F9800052B01D0032008BDB0F8011049BA013132
:104FA800012389B203301A46FFF7ACF80028F2D083
:104FB800BDE8084000F0F8B80B88052B0ED9B0F80A
:104FC800032052BA92B2531E772B07D810B553005C
:104FD8004479DBB29C4203D0032010BD0320704704
:104FE8000C46B0F8011049BA013189B206300123E4
:104FF800FFF788F810B90522228010BDBDE81040DF
:1050080000F0D2B80B88052B23D170B5027995B280
:105018006B1E7C2B1BD80C4603260023B0F801100E
:105028002380067026885200013626804270228826
:1050380049BA01320131228089B202302A46FFF78B
:1050480061F840B9228802EB4505258070BD032030
:1050580070BD03207047BDE8704000F0A5B800BFE0
:105068000B88092B16D92DE9F041B0F8034064BA32
:10507800A4B2631E7C2B0AD8B0F8072052BA92B2A9
:10508800531E782B03D8437AB3EB420F04D0032086
:10509800BDE8F081002070470E46B0F80510B0F862
:1050A800017049BA01310123054689B20A30FFF778
:1050B80029F8034618B1BDE8F04100F075B8172289
:1050C80030802A7032884FEA44080132328085F8ED
:1050D8000180328879BA0131571C89B22246A81C4E
:1050E8003780FFF70FF80028E5D133889844A6F8F1
:1050F8000080CDE738B50B88052B20D1B0F8032008
:1051080052BA92B2531E7B2B19D80C4600250423A1
:10511800B0F80110258003702388550001332380DF
:105128004570238849BA0131013389B2023023809E
:10513800FEF790FF28B922881544258038BD032042
:1051480038BDBDE8384000F02FB800BF1D2B16D879
:1051580038B50C1C0B4D18BF0124644202216C7039
:10516800287029840BB9184638BD11461C461A46C2
:10517800A81C01F077FBA31C2B84002038BD042059
:10518800704700BF5402002038B5064B1C8C0D46F2
:10519800224619460134013001F064FB2C800020BE
:1051A80038BD00BF5402002007289ABF014B185C85
:1051B80004207047D8680008F8B54C1EE4B2F62CF5
:1051C8009DF8187029D8174C217030BB1546164A1F
:1051D800DFF880C01E460846144B15491160154A71
:1051E8001A6029463246144D144ECCF800503B46FE
:1051F800134D6660134F144EA560144D6561C4E9E4
:10520800037600F0A5FA054640B900F0AFF838B1CA
:105218000F4B257601221A7000E002252846F8BDBA
:105228000325FBE77802002038080020300800201A
:10523800A15800081159000871590008A157000821
:10524800C557000831580008E1570008AD53000859
:10525800080000203408002010B5064C2378012BE4
:1052680005D1054B5B6898470020207010BD0620CB
:1052780010BD00BF0800002078020020F0B5384DAE
:105288002C7883B04CB90DF1070000F07FF80128A5
:1052980007D00024204603B0F0BD0624204603B002
:1052A800F0BD9DF80730012B2DD0022BF2D12D4EE9
:1052B800D6F81CC086F822009CF8002086F8212029
:1052C800291D11F83430E70001341BB19A4231D05E
:1052D800102CF6D196F82030002BDAD0012062F09D
:1052E8007F02012373838CF80020738BF269591CA9
:1052F8007183D054337E012B2ED0F368728BF16901
:1053080030789847C5E7174D2B6905F11A0205F162
:105318001C0105F12000984704460028B9D195F8EA
:1053280020302A789A4201D0002BB2D1022000F016
:1053380025F8AFE73D446046AB680B49984796F8B7
:10534800203086F82200002BA3D00028D2D096F86F
:105358002120D6F81CC0C2E7022000F0C3F9CCE730
:10536800080000207802002092020020024B002250
:105378001A700120704700BF9B020020024A0123D7
:1053880050701370184670479B020020044A137827
:1053980023B1537803700023137001231846704714
:1053A8009B02002008B500F09BF8BDE8084000F01B
:1053B80061B900BF10B51F4C2368DA68C8B142F064
:1053C8000402DA605A6942F001025A61DA6842F46A
:1053D8008072DA60DA6842F02002DA60D1B92368B4
:1053E800DA6822F08002DA60DA6842F04002DA60B5
:1053F80010BD22F02002DA60DA6822F48072DA60E6
:105408005A6922F001025A61DA6822F00402DA606D
:105418000029E4D0012204210748FBF717FD23687F
:10542800DA6842F08002DA60DA6822F04002DA6074
:1054380010BD00BFC006002000040240F0B5274D93
:105448001E468C4617460FCD89B001AC0FC495E8AF
:105458000700012E84E8070016D00ED3022E02D0D2
:10546800002009B0F0BD072F33D9082FF8D14FF429
:10547800806200234FF480510CE0082FF0D80022FE
:1054880011464FF4005305E0072F1AD80023194698
:105498004FF4C062CDE901C1CDE9033201AC0FCCB4
:1054A8000E4D0FC594E8070085E80700A5F1140024
:1054B800FDF7CCFFA5F11400FDF798FF012009B016
:1054C800F0BD082FCCD14FF4C06200234FF48051B7
:1054D800E0E7002319464FF48062DBE7C4060020AA
:1054E8000148FDF7B3BF00BFC0060020024B1B6890
:1054F80058600120704700BFC0060020024B1B689F
:105508005B68037001207047C006002070B5026810
:1055180013681D07044682B0D068516930D011F075
:10552800010151D0DE0705D5C50503D5E56B45F06A
:105538000105E5635E0703F0020549D561B1E16B3A
:1055480041F00201E16303F00806002D45D11EB1C8
:10555800E16B41F00801E163E16B79B19E0605D585
:10556800850603D5224B1B689847226800230193C0
:105578001168019152680192019AE36302B070BD0B
:10558800990609D41C060FD501060DD5194B1B68C1
:1055980002B0BDE8704018478206F3D5144B1B686B
:1055A80002B0BDE8704018475A06E7D54306E5D56E
:1055B800002204211048FBF749FC104B1A68D368F5
:1055C80023F04003D360D9E710F4907FDAD0A9E73D
:1055D80045B10029C0D003F00806E16B41F0040191
:1055E800E163B4E71D07B7D50029B1D1B4E700BF1F
:1055F800380800203008002000040240C0060020BF
:1056080010B5002202210448FBF720FC034BBDE83B
:1056180010401B68184700BF0004024034080020EF
:1056280010B504461048FDF7E5F8C0B90E4BDA6826
:10563800184604FB02F4DC60FDF7F8FA044618B1DA
:1056480045210A48FEF70CFC012108460022FFF715
:1056580017FB074B1870B4FA84F0400910BD4021BD
:105668000248FEF7FDFBE1E784060020606B0008B6
:105678009D0200200148FDF7BDB800BF8406002048
:1056880010B50E4C0E4801220221FBF7DFFB236800
:105698001A68D20703D52046FDF7D6F823681A689A
:1056A800064842F0040201211A6059611A6822F082
:1056B80004021A60BDE81040FDF7BAB8840600205D
:1056C8000004024008B50548FDF7BEF80022022193
:1056D8000348BDE80840FBF7B9BB00BF84060020BB
:1056E8000004024010B50A4C642101FB00F1207847
:1056F800FFF754FB00212078FFF7F4FA2078032104
:10570800FFF730FB2078FFF703FB0028FAD110BD24
:105718009D020020B1B130B44C1EA4B20134FF2365
:105728000A4904441A4610F8015B6B40CD18CB5C5B
:10573800A04283EA020395F80021F4D143EA02204B
:1057480030BC70474FF6FF70704700BFE068000834
:1057580038B51446EFF3108572B60822084621467C
:10576800FFF76CFE01280FD1B4F5964F10D8094801
:105778006400B0FBF4F4A0B2FFF752FF012803D194
:10578800002085F3108838BD032085F3108838BDC4
:105798000620F1E7A07F170010B5EFF3108472B66A
:1057A8000023054A194601201370FFF703FEFFF78F
:1057B80067FF84F3108810BDA002002010B5EFF336
:1057C800108472B600210846FFF7F4FDFFF77AFF50
:1057D80084F3108810BD00BF2DE9F843EFF310895A
:1057E80072B60F4C6388032B14D90E4D0E468046B3
:1057F800618828461746FFF78DFF58B915F8011B31
:10580800628888F80010033A3A80356089F3108876
:10581800BDE8F883052089F31088BDE8F88300BF48
:10582800A002002044080020F8B5EFF3108672B6F5
:10583800174C2578EDB2012D03D0052086F310888A
:10584800F8BD258101F8010C2389124F1A4492B240
:10585800228122894B1E184611466360FFF75AFFC2
:1058680023899BB25A1CC1B292B22281F95423896E
:105878009BB2591CC0F3072288B220812946002018
:10588800FA54A572FFF796FD002086F31088F8BD3C
:10589800A00200204408002030B583B00DF10700B5
:1058A800FFF72CFE164B1A78032A0AD8DFE802F015
:1058B800070C02075A88FF2A18D903221A70FFF723
:1058C800DFFE002003B030BD00225A805A880D4CFC
:1058D8009DF8075092B2511C89B202205980A554F4
:1058E8001870FFF7CDFE002003B030BD5A88054878
:1058F8009DF8074092B2511C89B259808454DEE762
:10590800A002002044080020F8B5164CA37A03F042
:10591800FF0593B1012D02D000263046F8BD278936
:10592800BFB28FB90320FFF729FD3946064628463E
:10593800FFF740FDA7723046F8BD294601202E46E4
:10594800FFF738FD3046F8BD63681878FFF7CEFDDD
:1059580023896268013B9BB2013200262381626081
:105968003046F8BDA002002038B50C4C237803F06F
:10597800FF0013B1022809D10120FFF7FFFC0546FB
:10598800FFF7A0FE01232846237038BDFFF79AFED3
:10599800002501232846237038BD00BFA00200203F
:1059A80008B500F02DF808BD08B500F081F808BD6D
:1059B80008B500F0D5F808BD08B500F029F908BD0C
:1059C80008B500F043F908BD08B500F05DF908BD59
:1059D80008B500F05BF908BD08B500F05DF908BD31
:1059E80008B500F05FF908BD08B500F09DFE08BDD8
:1059F80008B500F0A5FE08BD08B500F0ADFE08BD6D
:105A08002A4B1B6830B4DC6924F0730444F040046A
:105A1800DC611C6A24F480741C621C6A002524F46E
:105A280080641C62DD639C6924F0730444F06004A4
:105A380001299C612FD001281C6A27D044F0040456
:105A48001C6200245C639C6924F4E64444F4C0446A
:105A580001299C6122D0042823D01A6A42F040020E
:105A68001A6200229A631A6A42F001021A621A6ADA
:105A780042F010021A6239B11A6A42F004021A623C
:105A88001A6A42F040021A6230BC704724F00404DB
:105A98001C625A63D7E70128D3D1FAE70428E0D17A
:105AA800E0E7186A20F040001862DBE748060020AB
:105AB8002A4B1B6830B49C6924F4E64444F48044BF
:105AC8009C611C6A24F010041C621C6A002524F0E6
