:020000040800F2
:1000000040050020D9000008413E00086920000892
:1000100000000000000000000000000000000000E0
:100020000000000000000000000000007D45000806
:1000300000000000000000008D4200082D4700086D
:10004000EB000008EB00000881430008EB0000080B
:10005000EB000008EB000008EB000008EB000008D4
:10006000EB000008EB0000082D0C0008EB00000876
:10007000EB000008EB000008EB000008D148000886
:10008000EB000008DD480008F94800080000000007
:10009000AD480008EB000008C1480008EB0000086C
:1000A000EB000008EB000008EB000008FD4800082A
:1000B000EB000008EB00000800000000EB00000867
:1000C0000448854600F016FB004800472150000810
:1000D000C046C04640050020044880470448004709
:1000E000FEE7FEE7FEE7FEE7FEE7FEE75948000809
:1000F000C100000830B50B46014600202022012433
:1001000009E00D46D5409D4205D31D469540491B4B
:100110002546954040191546521E002DF1DC30BD94
:10012000D2B201E00270401C491EFBD2704700228F
:10013000F6E710B513460A4604461946FFF7F0FFE6
:10014000204610BDF0B507460846584087B0C00F9E
:10015000049048000E46590040084908BC1A8841DE
:1001600005D2384631461E4617460B460246580011
:10017000400810434DD0300D039040055900400D0C
:10018000490D0590401A0290402873DA18030121A6
:10019000000B09050843019004980092002806D03E
:1001A0001146019A49420020904100910190029825
:1001B00040210A1A0199009800F0C8F905460C463A
:1001C0006B4607CB00F0E3F9C0197141039A0E0D9D
:1001D0000023D71756401A467A40164344D0049A53
:1001E000002A2DD0029A012A039A15DC1205C01AA2
:1001F000914101263605001C7141D20F059ED207A0
:100200000093019202962A46234600F021FA07B095
:10021000F0BD38463146FAE71605234A0F46B218B4
:10022000C01AB74101210905001C4F4100187F4148
:10023000114618187941E20F10436D19644113E01B
:10024000E2076D0815436408C2071443039A0126A8
:100250001205C01A91413605001C7141CE074008B5
:1002600030434908C01851412A46234600F0E3F9BB
:10027000CDE7FFE7049801224000C117121A0023BE
:100280008B4104983146C417381AA141EEE730B4C7
:100290000124E407634030BC54E730B40124E40790
:1002A000614030BC4EE700000000E0FFF0B51FB435
:1002B00088B00B990998002448400999C00F49005B
:1002C00049080991C0070B990090490049080B9112
:1002D00009990898A64608431CD00B990A98084328
:1002E00018D0099801244000420D4800410D09989A
:1002F00024050003000B204309900B980003000B1A
:1003000020430B9050181C494018002201901446BD
:10031000104605E0002001460DB0F0BD032801DACB
:10032000034600E003239C46C11A0AAE0AE05F00C0
:1003300008ADED5B4F00F75B7D430027AA187C41B9
:10034000491C5B1E6145F2DD410004AB5A52210499
:10035000120C0A43240C401C0828DFDB0198029091
:100360000099704601910090059B049A07990698A0
:1003700000F06EF9D0E700000DFCFFFFF0B50C4671
:100380005C4085B0E40FE40703944C000026640849
:1003900059009446490802460296224321D06246FB
:1003A0000A431ED06200570D4A000E032303550D69
:1003B000012402462C492405781B1B0B360B4018E0
:1003C00023432643614600901C46501AB44103D390
:1003D0000098401C009002E0921800985B410028B1
:1003E00003DA0020014605B0F0BD00200121090517
:1003F0000746864611E064461D46141BB54106D3E8
:100400006546521BB341744607430C43A646CD07CD
:1004100040084908284392185B4105460D43EAD13C
:100420001046184313D060461946504071400843A7
:1004300006D06046101AB34106D20122002306E01E
:1004400000220123DB0702E00122D243531000986F
:1004500074460105381C6141029C039D00196941E5
:1004600000F0E9F8BFE70000FD0300000EB5C21779
:10047000C10F5040CA0740180021054B029301925A
:1004800000910A460B4600F0E3F803B000BD0000FF
:10049000330400000EB505490291002100910A467F
:1004A0000B46019100F0D4F803B000BD3304000006
:1004B0004A0009030123090B1B051943094B10B519
:1004C000520D9A4201DA002010BD064B34339A4295
:1004D00003DC9A1A00F04AF810BD0349511888400D
:1004E00010BD0000FF030000CDFBFFFFC20FD207CD
:1004F000400040080BD0C10D0723DB01C9184002A2
:100500000905400A1143C208400711437047002003
:1005100001467047CB0FDB07490010B5490802467A
:100520000A4307D00A0D07240903E401090B121B33
:10053000002A01DC002010BDC900440F0C43C1009B
:10054000E018D205801800F035F810BD10B5202A4B
:1005500004DB0146203A9140002010BD9140202349
:100560009C1A0346E3401943904010BD10B5202A61
:1005700004DB0846203AD040002110BD0B46D34092
:10058000D0402024A21A91400843194610BD10B54E
:10059000202A06DBCB170846203A1041C1170B432F
:1005A00006E00B461341D0402024A21A9140084394
:1005B000194610BD002904DA401C490001D1400849
:1005C0004000704770B40024050C05D110240004CD
:1005D00002D1002921D01124050E01D100020834D6
:1005E000050F01D10001241D850F01D18000A41C3D
:1005F000002801DB4000641C002908D020252E1BA8
:100600000D46F540A14000D00121294308430106D1
:100610001B1B000ADB1D02D5002070BC7047DB05E8
:10062000181880180029F8DA401C4900F5D170BC70
:1006300040084000704710B5002B08DA0024401C29
:10064000614192185B411A4301D14008400010BD3E
:10065000F0B51FB482B005460C0003D0084604F084
:1006600081F902E004F07EF9203002460090214634
:100670002846FFF76BFF049B059A04460F46184374
:100680001143084314D0184610431BD00098402152
:100690000A1A18460599FFF769FF05460E46009AA3
:1006A00005990498FFF752FF084305D0012004E0A4
:1006B0002046394607B0F0BD0020C11705430E4360
:1006C0002C43374300990E986305401A7905E40AD4
:1006D00000220C43FD0A0A3002D500200146E9E75A
:1006E0000105101969410C9C0D9D00196941FFF726
:1006F000A2FFDFE7064C0125064E05E0E36807CCC4
:100700002B430C3C98471034B442F7D3FFF7DCFC82
:100710005C5100087C51000870B50D460169C9079D
:10072000C90F27D00121C9430161164C2068FFF78A
:10073000B1FE02460B4600201349FFF71FFEFFF7EC
:10074000B7FEE86221681148142905D901684904F7
:1007500002D52068401E0CE021680D4A12689142C3
:1007600009D20168C90502D40168890503D520684A
:10077000401C206070BD016801229203914301601A
:1007800070BD00004000002080841E413800002021
:100790004400002070B5124C61681248124D81422D
:1007A00017DA61680122D205914212DB6068FFF717
:1007B0009DFE0E4A0E4BFFF779FD00220D4BFFF711
:1007C000C1FCFFF775FE411EA060632900D82870A8
:1007D00070BD6168814201DB6420F8E70120F6E723
:1007E000740000200050434832000020FCA9F1D2E0
:1007F0004D62403F0000F03FF8B57D4A1068116837
:10080000C007C00F8907C90F401811684907C90FF1
:10081000401811680907C90F40181168C906C90FA7
:10082000401811688906C90F401811680901C90FDD
:10083000401811686F4CC900C90F40182168890120
:10084000C90F401821684906C90F4018216849049A
:10085000C90F40182168C901C90F4018216849050E
:10086000C90F40186449C0B208701168634B644FE7
:10087000C90704D03978890701D401285ED01168EE
:10088000890704D53978890701D401285CD021680B
:100890005D4D8E005B4904D41668760701D50128AA
:1008A0005BD02668760004D41668360701D5012887
:1008B0005ED02168554D564E090507D41168C9060A
:1008C00004D53978890701D4012862D02168C90488
:1008D00007D41168890604D53978890701D401281D
:1008E00060D01168090101D5012864D01168C900E0
:1008F00001D5012865D02168490601D501286AD0B3
:100900002168C90101D501286BD02168890101D571
:10091000012869D0802098624020986220683D4973
:100920000840206004F0C2F80122920729463046B0
:1009300002F086FD384900200860F8BD20680121DA
:1009400008432060802004E02068022108432060E2
:100950004020986103F026FEF8BD20680422104371
:1009600020602E4802F078FA00280FD1022009E01A
:100970002068082210432060284802F06DFA002801
:1009800004D10420A861322002F0A4FC04F0C8F8CD
:10099000F8BD20681021084320602946304602F047
:1009A000A9FCF8BD20682021084320602946304674
:1009B00002F0F4FCF8BD642002F08CFC04F076F93F
:1009C00004E0642002F086FC04F034F92068400062
:1009D00040082060F8BD124A2946304603F0ECF981
:1009E000F8BD00F0BFF8F8BD03F087FFF8BD0000C8
:1009F00034000020380000204A0000200000005091
:100A000049000020000100000004005000140140D3
:100A100000080140C0FFFFE75C0000200004004028
:100A20000014004002480168024A1140016070470A
:100A300034000020C0FFFFE770B5064601250A4CD0
:100A40000EE00220A0610420A061142002F042FC0C
:100A50000220A0620420A062642002F03BFC6D1C16
:100A6000B542EEDD70BD00000004005038B5002036
:100A7000694608701D4B1E490AE06C4622789A5C54
:100A800024780C5DA2422FD16C462278521C227031
:100A90006A4612780E2AF0D9694608701449083956
:100AA0000CE0684600781818027E68460078085CFA
:100AB000824219D16A461078401C1070684600784E
:100AC0000428EED9FFF7AEFF987CD97B09060843CE
:100AD000197C5A7C090412021143084305490A682B
:100AE0001043086003F05EFD38BD000004010020E3
:100AF0002B5100083400002010B512490868020E7E
:100B00001148C2710A681202120E02720A681204B7
:100B1000120E4272096881720C490978C1720C4C3C
:100B2000217801730B49097841730B490978817366
:100B30000A480068810140180949FFF7DBFA401DA7
:100B4000207010BD3800002010000020320000206E
:100B50003000002031000020490000203C0000202F
:100B600048BE08007047000010B517488168174A52
:100B70001140091D816001680907C90FFBD00821D8
:100B80000160006C124C80B2124920804843124927
:100B9000FFF7B0FA80B27D21E080C9004843FA2116
:100BA000FFF7A8FAA060E1684A09891A0818E0600E
:100BB00040090A492061884205D909480168012293
:100BC000D2071143016010BD00240140E8FFFF7F00
:100BD00060000020E40C0000FF0F0000B80B0000D4
:100BE000380000200E4881681722914342051143C6
:100BF00081600C4902E08A88521C8A808268D20F88
:100C0000F9D18268084B1A40521C8260202048802B
:100C100080B2401E0004000C4880F9D170470000EB
:100C20000024014060000020E8FFFF7F10B502486B
:100C300000F02EF910BD00000000024010B500F0D9
:100C400079F800F0C5F87D20C00002F043FB00F009
:100C50003FF810BD01210548C902416001154160FE
:100C6000411541608115416070470000000002405D
:100C700038B5144C206840084000206000F0A8F807
:100C800082201049114D009020230F4A243128461C
:100C900000F01EF9A06840210843A060A0688021F0
:100CA0008843A060206A490108432062206A082125
:100CB000084320622968012001432960216801431B
:100CC000216038BD0038014004010020300002409E
:100CD00038B5EFF31080012181F3108811498A683B
:100CE00040231A438A6080F310880F4C032120466A
:100CF00001F07EFB0321204601F086FB0B48094AE8
:100D000000900B4B24320321204601F04FFB2022A0
:100D10000321204601F092FB0321204601F05CFBF9
:100D200038BD000000380140000002407003000898
:100D30000401002000B504480168044A1140016024
:100D400000F060F800BD000030000240FEFF00002F
:100D500010B500F009F8052002F0BCFA00F010F818
:100D6000FFF784FE10BD000004488021416040214F
:100D70004160202141601021416070470000024025
:100D800038B5104C2068400840002060FFF7D2FFC3
:100D900092200C490D4D009020230B4A2831284603
:100DA00000F096F8A06880210843A060A068402168
:100DB0008843A0602968012001432960216801431C
:100DC000216038BD00380140100000201C000240A6
:100DD00000B504480168044A1140016000F012F8AF
:100DE00000BD00001C000240FEFF000010B5FFF730
:100DF00031FF052002F06EFAFFF73AFFFFF77CFEA5
:100E000010BD00000168204A11400160002101600E
:100E100041608160C1601D491C4A0839904202D17D
:100E200048680F2205E0194A1432904204D14868FC
:100E3000F022104348607047144A2832904203D190
:100E400048680F221202F4E7104A3C32904203D164
:100E500048680F221203ECE70C4A5032904203D14B
:100E600048680F221204E4E7084A6432904203D132
:100E700048680F221205DCE7044A78329042DAD142
:100E800048680F221206D4E7FEFF00000800024067
:100E900010B501688906C90F04D020214160FFF711
:100EA000A5FF10BD01688905C90F05D001214902C0
:100EB0004160FFF74DFF10BD01680906C90F03D15E
:100EC00000680005C00FF6D0FFF7B8FE10BD0000A7
:100ED00070B5049D0468044E436034402C43816027
:100EE000C260046070BD00000180FFFF10B50169A1
:100EF000C907C90F14D0416B0A4C89B22180826B9B
:100F000062800122D24302610748FFF7F3F80749E4
:100F1000A06048430649FFF7EDF8322800D8E060AA
:100F200010BD00004C0000208096980048930000FF
:100F300000127A007047000010B5084900224A618B
:100F400007494B684C1523434B604B6808242343E7
:100F50004B60C009C001026010BD0000EC00002021
:100F60000020024010B5214A00219069C3052048A5
:100F700004D54169022319434161911593699B0589
:100F800005D54369012423434361630219439369EF
:100F90005B0505D54369082423434361E3011943F5
:100FA00093691B0505D54369042423434361630208
:100FB000194393699B0405D5436910242343436176
:100FC0006302194393699B0304D5446920231C439E
:100FD000446119439369DB0305D5436940242343E6
:100FE0004361A0020143916110BD00000020024056
:100FF000EC00002070B5054600F0C6FA0646184C15
:101000000AE0681C08D0002D04D000F0BDFA801B57
:10101000A84201D9032070BDA069C007F1D1A06921
:10102000800701D50220A061A069C00511D4A06984
:1010300080050ED4A06940050BD4A069000508D432
:10104000A069800405D4A069800302D4A069C0030C
:1010500003D5FFF787FF012070BD002070BD0000A1
:101060000020024070470000F3B50446364881B0C6
:10107000017C012907D0012101743448FFF7BAFF30
:10108000060002D05AE00220FEBD00210298C943AA
:101090000160A0682E4F002804D0B98F0904490BC5
:1010A000884203D9BC212BA003F0FFFC2068002854
:1010B00003D0BD2127A003F0F8FC01256068ED06F0
:1010C000A84205D3B98F090489094919884203D375
:1010D000BE2120A003F0E9FC6068A168C009C0013E
:1010E000C9014018401EA84205D3B98F09048909D7
:1010F0004919884203D3BF2116A003F0D6FC254F1F
:10110000656815E02846FFF717FF1048FFF772FFE4
:101110000646786808218843786079680120400293
:1011200081437960002E02D00298056006E0803588
:10113000A0686168C0014018A842E3D802480021B5
:1011400001743046FEBD0000EC00002050C30000DA
:101150004000F81F2E2E2F447269766572732F534C
:10116000544D33324C3078785F48414C5F4472695B
:101170007665722F5372632F73746D33326C3078CF
:10118000785F68616C5F666C6173685F65782E6319
:101190000000000000200240F8B5164C0D46217CEE
:1011A000174601291DD001212174022803D0EF2107
:1011B00011A003F07AFC0120C006854206D31D4928
:1011C000898F090489090818A84203D8F0210AA0C8
:1011D00003F06BFC1848FFF70DFF0026002802D033
:1011E00006E00220F8BD66612F601348FFF702FF9A
:1011F0002674F8BDEC0000202E2E2F44726976650F
:1012000072732F53544D33324C3078785F48414CD1
:101210005F4472697665722F5372632F73746D33F6
:10122000326C3078785F68616C5F666C6173682ED1
:10123000630000004000F81F50C3000011484168DF
:10124000C9070BD0EFF3108172B60F4AC2600F4A84
:10125000C26081F310884168C9070ED141688907CF
:101260000DD5EFF3108172B6094A0261094A026195
:1012700081F310884068800701D501207047002065
:101280007047000000200240EFCDAB890504030247
:10129000BFAE9D8C16151413F8B504464868002798
:1012A0000D46002825D0012823D0112821D002285E
:1012B0001FD012281DD011210904884219D02121E4
:1012C0000904884215D031210904884211D009212E
:1012D000490488420DD011214904884209D01921BE
:1012E0004904884205D0032803D0A3218EA003F02F
:1012F000DCFB05200007844204D128680104090CA6
:1013000025D109E09748844206D128680104090CD8
:101310000CD0000C2CD009E09348844206D12868F8
:101320000104090C0CD0000CF4D009E08F48844271
:1013300006D128680104090C0BD0000CEAD008E0A3
:101340008B48844205D128680104090C0CD0000C9C
:1013500008E08848844207D187492868084203D0BA
:10136000C94308400028D5D0A4216FA003F09DFBFD
:10137000D4E00121B940064600910E407ED0287984
:101380008007800F012801D002281ED1E8680028BC
:1013900009D0012807D0022805D0032803D0B421A2
:1013A00061A003F082FBA268790003208840824399
:1013B000E86888401043A0606068009988432979F4
:1013C000C906C90FB940014361602879C04380074D
:1013D00013D0A868002807D0012805D0022803D020
:1013E000C52151A003F061FBE0687A000321914020
:1013F0008843A96891400143E16028798007800F04
:1014000002282AD105200007844212D05548844280
:101410000FD0554884420CD05448844209D05448D7
:10142000844206D05348844203D0D2213EA003F028
:101430003CFB2869072803D9D3213BA003F035FBE7
:10144000F80880000319186A7907CA0E0F21914025
:101450008843296991400143196220687900032279
:101460008A4090432A799207920F8A400243226071
:1014700068688003800F50D0404800E04DE0416B29
:10148000012211434163B9083D4889000B1898684F
:10149000B9070A0F0F2191408843052109078C42A3
:1014A00001D1002119E02F498C4201D1012114E022
:1014B0002D498C4201D102210FE02C498C4201D1EF
:1014C00003210AE02A498C4201D1042105E029497F
:1014D0008C4201D1052100E0062191400143996031
:1014E000284908686A68B043D20300D530430860D1
:1014F00048686A68B043920300D530434860886802
:101500006A68B043D20200D530438860C8686A6810
:10151000B043920200D53043C8607F1C2E6830462D
:10152000FE4000D025E7F8BD2E2E2F447269766567
:1015300072732F53544D33324C3078785F48414C9E
:101540005F4472697665722F5372632F73746D33C3
:10155000326C3078785F68616C5F6770696F2E639A
:10156000000000000004005000080050000C005073
:1015700000100050001C0050030600000010024044
:1015800000000140000401400148806870470000ED
:101590000000002002488168027889188160704745
:1015A0000000002010B508480024016840221143C3
:1015B0000160012000F00AF8002801D0012401E0B8
:1015C00000F026F8204610BD0020024070B5044609
:1015D0000D4D7D202978C000FEF78CFD01460B489B
:1015E0000068FEF787FD00F027FD002809D1042CD4
:1015F00007D200222146401E00F02CF800206C602B
:1016000070BD012070BD0000000000200C00002013
:101610001CB500240E4800940194416B0122114333
:101620004163816B02041143816301212246881FBB
:1016300000F010F801210022C81E00F00BF8009401
:101640006846019400F032F800F0B6F81CBD0000C6
:101650000010024070B50C460546102903D38721BF
:1016600003A003F022FA2146284603F0EDF970BDED
:101670002E2E2F447269766572732F53544D333278
:101680004C3078785F48414C5F4472697665722FC0
:101690005372632F73746D33326C3078785F686186
:1016A0006C5F636F727465782E63000010B504463A
:1016B0000068002812D0202810D040280ED06028C2
:1016C0000CD080280AD0A02808D0C02806D0E02856
:1016D00004D0FF21683126A003F0E7F932496068A1
:1016E000884215D0491C884212D0491C88420FD02C
:1016F0002E4988420CD0491C884209D0491C884296
:1017000006D0002804D0FF21693119A003F0CDF9DB
:1017100027490868E0229043226810430860254961
:101720004A680120000482434A600A6882430A60D2
:10173000CA688243CA608A6882438A606268D20348
:1017400002D50A6802430A606268920302D54A68B9
:1017500002434A602279D20702D08A6802438A6033
:101760002279920702D5CA680243CA6010BD000000
:101770002E2E2F447269766572732F53544D333277
:101780004C3078785F48414C5F4472697665722FBF
:101790005372632F73746D33326C3078785F686185
:1017A0006C5F7077722E630001000100010002007F
:1017B00000700040000401400248016810221143FB
:1017C0000160704700700040F8B504007ED0834986
:1017D0002068884207D08249884204D0FF214B31DB
:1017E00080A003F062F9FF2760680537002806D063
:1017F000B84204D0FF214C317AA003F056F9A0681A
:1018000000280BD001218902884207D04901884273
:1018100004D0FF214D3173A003F047F90121E068A6
:10182000C902884206D0002804D0FF214E316DA0A5
:1018300003F03BF9A069C11FFF39FA390AD000282B
:1018400008D001218904884204D0FF214F3165A0CE
:1018500003F02BF9E069002812D0082810D01028D6
:101860000ED018280CD020280AD0282808D03028DC
:1018700006D0382804D0FF2150315AA003F015F9C2
:10188000206A002806D0802804D0FF21513155A0BD
:1018900003F00BF9606A002500282CD0102807D02F
:1018A000FF2152314FA003F000F9606A002822D0D6
:1018B000E069002814D0082812D0102810D0182869
:1018C0000ED020280CD028280AD000E011E03028C3
:1018D00006D0382804D0FF21643142A003F0E5F897
:1018E0002561656126464036A562707C002832D0AD
:1018F00035E00120F8BD2069002806D0022804D078
:10190000FF21553137A003F0D0F86069002806D0D8
:10191000012804D0FF21563132A003F0C6F86068D8
:10192000B84216D1E0690028DCD00828DAD01028A7
:10193000D8D01828D6D02028D4D02828D2D03028E3
:10194000D0D03828CED0FF215A3126A003F0ADF8F0
:10195000C8E7E561C6E73574204600F05FF802216C
:1019600071742068026840239A4302602123A268B0
:1019700060689B021A4038401043E3688A021340B3
:10198000184323690B40217D1843C907C90F084339
:10199000A169931019400843E169382319400843AD
:1019A000216A802319400843A16A93001940084323
:1019B00021680860A0690421000C0840616A1023B6
:1019C00019400843216848602068C1699143C1619A
:1019D0006565012070740020F8BD000000300140F2
:1019E000003800402E2E2F447269766572732F5393
:1019F000544D33324C3078785F48414C5F447269C3
:101A00007665722F5372632F73746D33326C307836
:101A1000785F68616C5F7370692E630010B586B083
:101A2000044614216846FEF782FB0F49206888426D
:101A300017D10E48416B821411434163C26A0221DF
:101A40000A43C262C06A01910840059038200090A4
:101A50000021032002910491039069460448FFF796
:101A60001BFC06B010BD0000003001400010024019
:101A700000040050FFB50446C068002781B01D4631
:101A8000002806D00298C00703D0524952A003F0A4
:101A90000CF8FF212646606805314036884202D1A5
:101AA000A06800280CD0307C012814D001203074AC
:101AB000FFF76AFD0090707C01280ED0022781E0BC
:101AC00004207074029A009511462046039B00F092
:101AD00083F905B0F0BD0220FBE70298002870D022
:101AE000039800286DD0042070740020606502996E
:101AF000A1630399A1870399E1872063A086E0860B
:101B0000206460640122A068D2034021904208D181
:101B1000206802688A430260206802680B029A43C8
:101B2000026020680268520602D402680A4302601A
:101B3000E068002819D035E020688168C90709D01D
:101B4000017BA06B0170A06B401CA063E08F401E66
:101B5000E0870AE0FFF718FD0099401AA84202D377
:101B6000681C02D034E0002D32D0E08F0028E3D191
:101B70001BE020688168C90709D0C068A16B088094
:101B8000A06B801CA063E08F401EE0870AE0FFF797
:101B9000FBFC0099401AA84202D3681C02D017E04F
:101BA000002D15D0E08F0028E3D129462046009A69
:101BB00002F02AFC002801D020206065606D00281A
:101BC00000D001270120707400203074384680E76F
:101BD0000327F7E7C30300002E2E2F4472697665B2
:101BE00072732F53544D33324C3078785F48414CE8
:101BF0005F4472697665722F5372632F73746D330D
:101C0000326C3078785F68616C5F7370692E630046
:101C1000FFB50446C068002781B01646002806D0EC
:101C20000298C00703D05D495DA002F03EFFA068A6
:101C3000002808D00121C903884204D0574958A080
:101C4000091D02F032FF25464035287C012809D0C5
:101C500001202874FFF798FC0090687C012804D0CC
:101C6000022795E0022005B0F0BD0298002872D04E
:101C7000002E70D0032068740020606502992163F3
:101C8000A686E686A063A087E087606420640120C2
:101C9000A268C0034021824208D1206802688A43BA
:101CA0000260206802680B021A4302602068026822
:101CB000520602D402680A4302600120E168C002B1
:101CC0008142606826D1002801D0012E1ED1206BF0
:101CD00021680088C86006E020688168890709D506
:101CE000216B0988C160206B801C2063E08E401E40
:101CF000E0860BE0FFF748FC0099411A0498814206
:101D000002D3401C02D039E0002837D0E08E0028F2
:101D1000E2D126E0002801D0012E1FD1206B2168DE
:101D20000078087306E020688168890709D5216B6F
:101D300009780173206B401C2063E08E401EE08612
:101D40000CE0FFF721FC0099411A0498814203D36B
:101D5000401C03D012E01AE000280FD0E08E0028CB
:101D6000E1D12046009A049902F07CFB002801D0C2
:101D700020206065A068002802D005E0032707E066
:101D80002068C16880680090606D002800D001273D
:101D90000120687400202874384664E715030000A9
:101DA0002E2E2F447269766572732F53544D333241
:101DB0004C3078785F48414C5F4472697665722F89
:101DC0005372632F73746D33326C3078785F68614F
:101DD0006C5F7370692E6300FFB5044683B0012009
:101DE000019000200090E0680C9F1D4600280ED056
:101DF0000498C00703D0814981A002F056FE0598DF
:101E0000C00704D09321C9007DA002F04EFEA06857
:101E1000002804D079497AA0491D02F046FE2646E2
:101E20004036307C01280FD001203074FFF7ACFB26
:101E30000290707C616801280DD0CA1FFD3A08D15C
:101E4000A168002905D102E0022007B0F0BD0428F6
:101E500001D00220C2E00498002828D0059800286C
:101E600025D0002D23D0707C042801D0052070746B
:101E7000002060650599A163E587A5870499216322
:101E8000E586A5862064606420680168490603D45D
:101E900001684022114301600121E068C9028842C3
:101EA000606847D1002804D0012D02D03BE001201A
:101EB00094E0206B21680088C860206B801C206340
:101EC000E08E401EE0862EE020688168890710D5EC
:101ED000E18E00290DD0019901290AD1216B0988D1
:101EE000C160206B801C2063E08E401EE0860020D5
:101EF000019020688168C9070DD0E18F00290AD0C0
:101F0000C068A16B0880A06B801CA063E08F401E9E
:101F1000E08701200190FFF737FB0299401AB84291
:101F200001D3781C59D1E08E0028CDD1E08F002854
:101F3000CAD146E0002801D0012D3CD1206B216898
:101F400000780873206B401C2063E08E401EE08602
:101F500031E020688168890710D5E18E00290DD015
:101F6000019901290AD1216B09780173206B401C6A
:101F70002063E08E401EE08600200190206881688A
:101F8000C9070DD0E18F00290AD0C068A16B087085
:101F9000A06B401CA063E08F401EE08701200190F1
:101FA000FFF7F2FA0299401AB84202D3781C02D025
:101FB00013E0002F11D0E08E0028CAD1E08F002856
:101FC000C7D139462046029A02F04CFA002807D0C1
:101FD000012000902020606509E00320009006E0C9
:101FE000A068002803D12068C168806801900120A2
:101FF000707400203074009827E7000097040000F8
:102000002E2E2F447269766572732F53544D3332DE
:102010004C3078785F48414C5F4472697665722F26
:102020005372632F73746D33326C3078785F6861EC
:102030006C5F7370692E6300094910B5401E8842B9
:1020400001D9012010BD074C60610321081F02F077
:10205000FBFC0020A06107202061002010BD0000D3
:10206000FFFFFF0000E000E0FEE7000010B50449BC
:1020700008700007020E1021002002F041FC10BD84
:10208000740000204008800510B5020C10210020CB
:1020900002F036FC10BD0000014940208861704705
:1020A0000004005010B506480122007812030028F1
:1020B00000D092001021022002F022FC10BD00008E
:1020C0007400002010B500F029F83220FFF7DAFF85
:1020D0000020FFF7CBFF0F2000F016F80749084853
:1020E000FFF7E0FF02F0ACFE0648026801210A4358
:1020F0000260C2680A43C26010BD00001A410000BD
:10210000102700000010004010B5034A10210120E4
:1021100002F0F6FB10BD0000FFBF000010B5012269
:1021200012031021002002F0EBFB10BD70B5054634
:102130002F4800260C46854204D0FF21E6312DA011
:1021400002F0B3FC01212068C90788420CD049087D
:10215000884209D04942884206D0002804D0FF2195
:10216000E83124A002F0A1FC606800280AD0082809
:1021700008D0102806D0182804D0FF21E9311DA06E
:1021800002F093FCA068002806D0202804D0FF218C
:10219000EA3118A002F089FCE06800280FD0012184
:1021A000890388420BD04900884208D00321890363
:1021B000884204D0FF21EB310EA002F076FCA86823
:1021C000C007C00F02D00126304670BDA16860680C
:1021D000EA680843E168154B1A4011430843E86078
:1021E000286921688000800808432861ECE7000026
:1021F000002401402E2E2F447269766572732F538E
:10220000544D33324C3078785F48414C5F447269AA
:102210007665722F5372632F73746D33326C30781E
:10222000785F6C6C5F6164632E630000C73FFFFFE3
:1022300070B50546404800260C46854204D09121E1
:1022400089003EA002F031FC2168002923D0012042
:10225000800281421FD01120800181421BD00920C1
:10226000C001814217D013208001814213D0052084
:10227000000281420FD01520800181420BD00B203B
:10228000C001814207D017208001814203D0394923
:102290002AA002F00AFC6068002808D00121090485
:1022A000884204D0334925A0491C02F0FEFBA068F7
:1022B000002808D001214903884204D02D491FA0DD
:1022C000891C02F0F2FBE068002808D0012806D043
:1022D000032804D04921C90018A002F0E6FB2069B8
:1022E000002808D001210903884204D0214913A005
:1022F000091D02F0DAFBA068002807D060680028FA
:1023000004D01C490DA0083102F0CFFBA868C0071B
:10231000C00F02D00126304670BD03CC626808436E
:10232000216811430843A1680843E968124A114033
:102330000843E860EFE70000002401402E2E2F4400
:102340007269766572732F53544D33324C307878FE
:102350005F48414C5F4472697665722F5372632FF8
:1023600073746D33326C3078785F6C6C5F6164636A
:102370002E630000450200003CC2FEFF08B5044980
:102380008A6B02438A63896B0140009108BD00009B
:102390000010024008B504494A6B02434A63496B86
:1023A0000140009108BD00000010024070B5094EC8
:1023B000044671182039049D0C34CE7F0830102D4E
:1023C00003D03250C87F035170BD3251C97F0B50CA
:1023D00070BD00001C510008044A51182039C97F03
:1023E000425801231A434250704700001C51000814
:1023F000044A51182039C97F425802231A434250D7
:10240000704700001C510008044A51182039C97F48
:10241000425808231A434250704700001C510008DC
:10242000054B10B559182039C97F4358032424039C
:10243000A3431343435010BDF4500008054B5918F3
:102440002039C97F001D0B581B0C1B0413430B5074
:10245000704700001C510008054B10B55918203971
:10246000C97F4358034C23401343435010BD000021
:10247000F4500008EFBFFFFF054B10B55918203985
:10248000C97F43588024A3431343435010BD000029
:10249000F4500008054B10B559182039C97F43582E
:1024A0000324A402A3431343435010BDF450000877
:1024B000054B10B559182039C97F43582024A34330
:1024C0001343435010BD0000F4500008054B10B5F5
:1024D00059182039C97F43584024A343134343501C
:1024E00010BD0000F450000810B589000F24091F2A
:1024F0008C408030836A8A40A3431343836210BDBB
:10250000054B10B559182039C97F435803242402BC
:10251000A3431343435010BDF4500008FEB50546D5
:102520000520002700070E46854212D058488542F4
:102530000FD0584885420CD05748854209D057489B
:10254000854206D05648854203D0A32155A002F00B
:10255000ACFA30686149401E884203D9A42151A0D9
:1025600002F0A3FA7068002809D0012807D00228D9
:1025700005D0032803D0A5214AA002F096FA3069BD
:10258000002807D001287ED002287CD0A62145A0B3
:1025900002F08BFA77E00120B840044072D07068F6
:1025A000012801D0022826D1B068002809D00128CE
:1025B00007D0022805D0032803D0B72139A002F0A4
:1025C00074FAB268A968204660434300C31899436F
:1025D00050430143A960F068002805D0012803D0CA
:1025E000BD2130A002F061FA3168F0686A688A4360
:1025F00041430A436A603269E96820466043430008
:10260000C31800909943504301930143E9607068F7
:1026100002282FD17069002811D001280FD002287C
:102620000DD003280BD0042809D0052807D0062890
:1026300005D0072803D0C9211AA002F036FAFF2CD2
:102640000BD871692A6A00986043604303011B1A22
:102650009A43484302432A620CE0200A0146414360
:10266000414341430801431A7269686A51439843E0
:102670000843686270682B68019A0099934341434C
:102680000B432B607F1C34682046F84083D1FEBD8D
:102690000004005000080050000C005000100050D2
:1026A000001C00502E2E2F447269766572732F53D2
:1026B000544D33324C3078785F48414C5F447269F6
:1026C0007665722F5372632F73746D33326C30786A
:1026D000785F6C6C5F6770696F2E6300FEFF0000AF
:1026E0000069814301D0002070470120704700003D
:1026F00008B50449CA6A0243CA62C96A0140009126
:1027000008BD00000010024008B50449CA6A02432F
:10271000CA62C96A0140009108BD00000010024071
:1027200010B5044601F0DAFD206001F0B1FD6060F3
:1027300001F0BCFDA060606801F0C4FDE06010BD68
:10274000F8B5224D01270024AE00FF03032816D060
:102750000C2804D0FC211EA002F0A7F931E000F003
:1027600057F8294940182ED0042819D0082823D01A
:1027700001F0B4FD01F08CFD01F098FD0EE000F0D9
:1027800047F8224940181ED0012809D0022813D04A
:1027900001F0A4FD01F07CFD01F094FD044610E081
:1027A00000F03EF800280CD000F042F8002801D0DC
:1027B0002C4606E0344604E000F042F8002800D041
:1027C0003C462046F8BD01F089FDE7E700093D00E1
:1027D0002E2E2F447269766572732F53544D333207
:1027E0004C3078785F48414C5F4472697665722F4F
:1027F0005372632F73746D33326C3078785F6C6C06
:102800005F7263632E630000FCFFF3FFFFFFFCFFBA
:102810000249C96801400004084370474010024063
:10282000024800684007C00F7047000000100240D7
:1028300002480068C006C00F704700000010024048
:10284000024800698005C00F704700004010024038
:1028500010B5029C49032406240A1B0621431B0CC5
:102860001943D2B211434268024B1A400A434260F4
:1028700010BD0000C00000FFF8B50546584801270C
:1028800014460E46854204D0FF21723155A002F055
:102890000CF9002E5AD0012E04D0FF21733151A023
:1028A00002F003F9E0780A22010900075143000F02
:1028B0000818C0B2632804D9FF21813149A002F071
:1028C000F4F860780A22010900075143000F081844
:1028D000C0B2401E0B2804D9FF21823141A002F072
:1028E000E4F8A0780A22010900075143000F0818F4
:1028F000C0B2401E1E2804D9FF21833139A002F046
:10290000D4F82078012810D002280ED003280CD04B
:1029100004280AD0052808D0062806D0072804D0A5
:10292000FF2185312FA002F0C0F8CA206862532031
:102930006862284600F072F8012848D0E078002E3E
:1029400023D000906378A278217835E06078C106C2
:1029500003D5EF2108400A306070E078632804D97D
:10296000FF217B311FA002F0A0F86078401E0B28E9
:1029700004D9FF217C311BA002F097F8A078401EFB
:102980001E28BED9FF217D31B8E70A21FDF7B2FB31
:1029900000010843C7B260780A21FDF7ABFB0001D4
:1029A0000843C6B2A0780A21FDF7A4FB0001084342
:1029B00000972178C2B233462846FFF749FF8020AE
:1029C000C043E860A8688006C00F04D00027FF203D
:1029D00068623846F8BD284600F0D4F90746F6E7A5
:1029E000002800402E2E2F447269766572732F5393
:1029F000544D33324C3078785F48414C5F447269B3
:102A00007665722F5372632F73746D33326C307826
:102A1000785F6C6C5F7274632E63000038B5044697
:102A20007D20C000009014480025844204D0172166
:102A3000490112A002F039F8E0684006C00F0AD13F
:102A4000401EE060E06800994006C00F002902D0F7
:102A50001849002801D0284638BD0869C003C00FB6
:102A600002D00098401E0090E068009A4006C00F17
:102A7000002AEED10125EEE7002800402E2E2F443B
:102A80007269766572732F53544D33324C307878B7
:102A90005F48414C5F4472697665722F5372632FB1
:102AA00073746D33326C3078785F6C6C5F72746302
:102AB0002E63000000E000E070B5044622480126C5
:102AC0000D46844203D0CF2120A001F0EEFF2868FC
:102AD000002805D0402803D0D0211CA001F0E5FF3C
:102AE00068687F2803D9D12118A001F0DEFF2549AD
:102AF000A868884203D9D22114A001F0D6FFCA20C9
:102B00006062532060622046FFF788FF012817D0DB
:102B10002968A068402290430843A060A868216902
:102B2000C90BC90301432161A98820697F221204CE
:102B300090430904084320618020C043E0600026E0
:102B4000FF206062304670BD002800402E2E2F44CA
:102B50007269766572732F53544D33324C307878E6
:102B60005F48414C5F4472697665722F5372632FE0
:102B700073746D33326C3078785F6C6C5F72746331
:102B80002E630000FF7F00001206120A10B50A43F0
:102B90001906090C029C0A43E1B20A430168024B80
:102BA00019401143016010BD808080FFF8B50546D3
:102BB0006548012714460E46854204D0FF210B319B
:102BC00062A001F072FF002E24D0012E04D0FF215C
:102BD0000C315EA001F069FFA8684021084248D08E
:102BE00020790A22010900075143000F0818C0B2DA
:102BF000401E0B2804D9FF21213154A001F055FFBC
:102C00002068002846D001218905884242D0FF2152
:102C100022313CE0A8684021084212D02079401EB1
:102C20000B2804D9FF21123148A001F03EFF206893
:102C3000002810D00121890588420CD0FF211331D2
:102C400006E0002020602079172804D9FF211831E0
:102C50003EA001F02AFF60793B2804D9FF211A31F8
:102C60003AA001F022FFA0793B2831D9FF211B3186
:102C70002BE00020206020790A220109000751433F
:102C8000000F0818C0B2172804D9FF2127312FA040
:102C900001F00BFF60790A22010900075143000F80
:102CA0000818C0B23B2804D9FF21293127A001F020
:102CB000FCFEA0790A22010900075143000F081801
:102CC000C0B23B2804D9FF212A3120A001F0EDFE3B
:102CD000CA206862532068622846FFF79FFE0128D9
:102CE00029D0A079002E04D0009063792279216840
:102CF00016E00A21FDF7FEF900010843C7B260792A
:102D00000A21FDF7F7F900010843C6B220790A212C
:102D1000FDF7F0F90001084300972168C2B233467D
:102D20002846FFF731FF8020C043E860A86880068E
:102D3000C00F04D00027FF2068623846F8BD28463F
:102D400000F020F80746F6E7002800402E2E2F441A
:102D50007269766572732F53544D33324C307878E4
:102D60005F48414C5F4472697665722F5372632FDE
:102D700073746D33326C3078785F6C6C5F7274632F
:102D80002E630000F8B504467D26F6001E48002597
:102D90000096844203D01D491DA001F086FEE06824
:102DA00080210840A138E060E068009A8006C00FEA
:102DB0002549002A0CD10DE00869C003C00F01D0DD
:102DC000501E0090E068009A8006C00F002A19D0BB
:102DD0000028F1D1002D13D10096E0688006C00FC5
:102DE0000CE00869C003C00F02D00098401E00909C
:102DF000E068009A8006C00F002A03D00028F0D0B7
:102E00002846F8BD0125FBE7002800402703000005
:102E10002E2E2F447269766572732F53544D3332C0
:102E20004C3078785F48414C5F4472697665722F08
:102E30005372632F73746D33326C3078785F6C6CBF
:102E40005F7274632E63000000E000E001490860D7
:102E5000704700000C000020006A814301D0002070
:102E6000704701207047000010B5012917D01029C4
:102E700017D0CB1FF93B10D006210B4B18305B5CF1
:102E800018180368084C0E34615C03248C40120C43
:102E9000A3438A401343036010BD0421EDE70021E2
:102EA000EBE70221E9E70000D850000810B501293E
:102EB00017D0102917D0CB1FF93B10D006210B4B90
:102EC00018305B5C18180368084C0E34615CF02401
:102ED0008C40120CA3438A401343036010BD0421AD
:102EE000EDE70021EBE70221E9E70000D8500008F8
:102EF00010B5012911D0102911D0CB1FF93B0AD0F0
:102F00000623016A074CE35C0A249C40A1439A40D3
:102F10001143016210BD0423F3E70023F1E702230C
:102F2000EFE70000ED50000810B5012917D0102977
:102F300017D0CB1FF93B10D006210B4B18305B5C30
:102F400018180368084C0E34615C0C248C40120C79
:102F5000A3438A401343036010BD0421EDE7002121
:102F6000EBE70221E9E70000D8500008F8B5044675
:102F7000012080072D4E2E4F0D46844210D0B442C2
:102F80000ED02C4884420BD02B48844208D0BC423F
:102F900006D02A48844203D0E42129A001F085FD0F
:102FA000686800280BD0102809D0402807D02028B6
:102FB00005D0602803D0E52121A001F076FDE86866
:102FC00000280AD0C11FF93907D0C11FFF39FA39CB
:102FD00003D0E6211AA001F068FD206801218907CD
:102FE0008C4206D0B44204D0BC4202D0134A944270
:102FF00003D1702290436A6810438C4206D0B442D9
:1030000004D0BC4202D00D498C4204D103210902F4
:103010008843E96808432060A868E0622888A062C5
:1030200060690121084360610020F8BD0004004090
:10303000000801400010004000140040001401404E
:103040002E2E2F447269766572732F53544D33328E
:103050004C3078785F48414C5F4472697665722FD6
:103060005372632F73746D33326C3078785F6C6C8D
:103070005F74696D2E630000034610B501200129BD
:103080000DD0102910D0FF39491E12D00F24240270
:10309000A14203D11146184601F048F810BD11466F
:1030A000184600F0CFFE10BD1146184600F048FF4C
:1030B00010BD1146184600F0C3FF10BD8268024BD8
:1030C0001A400A4382607047F8BFFFFF42687023CE
:1030D0009A430A4342607047F0B5044667480126A8
:1030E00085B00D4684420CD06548844209D06548BD
:1030F000844206D06448844203D0C42163A001F016
:10310000D4FC71492868884203D9C5215FA001F029
:10311000CCFC0121090768680F14884207D00028F9
:1031200005D0B84203D0C62158A001F0BEFC3946F4
:103130000327A8683F0388420BD0002809D0B84273
:1031400007D001214903884203D0C7214FA001F0D5
:10315000ACFCE86800280BD001218902884207D026
:1031600003214902884203D0C82148A001F09DFCF8
:103170002869002809D0042807D0082805D00C2881
:1031800003D0C92141A001F090FC686900280ED04D
:10319000C11FF9390BD0C11FFF39FA3907D00321FC
:1031A0000902884203D0CA2138A001F07EFCA86938
:1031B000002807D00121C903884203D0CB2133A0C6
:1031C00001F073FC2068C007C00F53D1E96868683C
:1031D000AA69084329691143084321683B4A114001
:1031E00008432060A9686068B84308436060696963
:1031F000A0680322120290430843A0601F48844243
:1032000001D1032003E01E48844203D10C20FFF7C4
:1032100097FA09E01B48844202D01B48844229D116
:103220006846FFF77DFA0298002823D02968002914
:1032300020D00123AA690026DB039A420CD140006A
:103240004A088018FCF756FF81B221480840090758
:10325000490F0143E16005E04A081018FCF74AFFF6
:1032600080B2E060E068102804D2FF21213107A07D
:1032700001F01BFC304605B0F0BD000000380140F5
:1032800000440040004C0040005000402E2E2F44CF
:103290007269766572732F53544D33324C3078789F
:1032A0005F48414C5F4472697665722F5372632F99
:1032B00073746D33326C3078785F6C6C5F757361EA
:1032C00072742E630000000000093D00F369FFEFF7
:1032D000F0FF000008B506490A690092421C00D0C0
:1032E000401C0A69D20300D5401E0028F9D108BD50
:1032F00000E000E070B50D46064601F053F9224C9F
:10330000206840043FD4206800053CD42868C007EA
:10331000C00F38D101211D48890381622168C20292
:103320001143216001018161206809020843206086
:1033300004210520000781622168120111432160E8
:10334000216880229143216021689202114321600B
:103350000221816220680903884320600C491420FF
:1033600008600D490B4808606420F0622946304629
:1033700000F074FF206801210904084320602068E0
:10338000C9110843206070BD3800002000080050BB
:10339000400000201815000044000020F8B50D463C
:1033A000064601F0FFF8214C206840043DD4206817
:1033B000C0043AD42868C007C00F36D101211C4888
:1033C000890381622168C20211432160070187617C
:1033D0002068510008432060042105200007816215
:1033E00021681201114321602168802291432160EC
:1033F0002168920211432160022181612068090342
:10340000084320600B49142008600C490A480860F2
:103410006420F0622946304600F020FF20683843DF
:1034200020602068F91108432060F8BD38000020B2
:103430000008005040000020181500004400002043
:1034400070B51C4A12681C4B142A31D81A68012422
:10345000A403A2431A601A6880252A431A601A68D6
:103460006500AA431A601A68A600B2431A601A6877
:10347000E600B2431A601A68A611B2431A601A68CD
:103480006611B2431A60042205263607B2611A6833
:103490002603B2431A6000F0BFFE08488461196831
:1034A000C202914319608562186851008843186010
:1034B000186870BD4000002038000020000800504F
:1034C00070B590B014216846FCF731FE00250595D3
:1034D00006950795182109A80895FCF728FE2F489E
:1034E0000121426B49020A434263426B0A400F9238
:1034F000C26A01210A43C262C06A0E4608400F90A8
:1035000003200A900991052009A90D950007FFF7EE
:1035100005F8234CA06A3043A062009501950295FE
:103520000395694620460495FEF782FE6069C0084F
:10353000C00060612069400840002061E16804200B
:103540008143E160174A1168C305994311606168BE
:10355000814361606068082188436060C806059007
:103560000695079505A908952046FEF7DFFDA0689A
:103570000D490840012109070843A0600C480B4988
:103580000068FCF7B7FD0A214843FCF7B3FD00E0F3
:10359000401E0028FCD110B070BD00000010024099
:1035A0000024014008270140E8FFFF7F400D030091
:1035B0000C00002008B50A480121026B0A4302638F
:1035C000006B0840074900900868FF2212049043EE
:1035D0000122D2051043086003495013086008BD5A
:1035E0000010024008E400E000E100E0F0B587B020
:1035F00018216846FCF79BFD0420FFF779F880202E
:10360000FFF776F80120FFF773F80220FFF770F854
:10361000012186484903816248008449886240004C
:103620008862022005263607B0620420B0620820B6
:10363000B0621020B0624020B0628020B0627C4F47
:103640000220B8620420B8624002B0624000B0625A
:10365000C000B0624020B8628020B8624000B8620A
:103660004000B862002400010125009002940394F8
:103670006946019504946D48FEF750FFA803009039
:10368000029403946946019504946848FEF746FF46
:10369000E8030090029403946946019504946348FA
:1036A000FEF73CFF02200090032002900195039456
:1036B000694604943046FEF731FF04200090032051
:1036C000029001950394694604943046FEF726FF64
:1036D0000820009003200290019503946946049409
:1036E0003046FEF71BFF10200090029403946946B9
:1036F000019504943046FEF711FF4020009002949B
:1037000003946946019504943046FEF707FF802034
:103710000090029403946946019504943046FEF7A4
:10372000FDFE0220009002940394694601950494E2
:103730003846FEF7F3FE0420009002940394694695
:10374000019504943846FEF7E9FE28030090694687
:10375000049501943846FEF7E1FE6803009069463F
:10376000049501943846FEF7D9FEA80300906946F7
:10377000049501943846FEF7D1FEE80300906946AF
:10378000049501943846FEF7C9FE28020090019482
:10379000694604943046FEF7C1FEE80200900294A8
:1037A00003946946019504943046FEF7B7FE28035A
:1037B0000090029403946946019504943046FEF704
:1037C000ADFEE803009002940394694601950494C9
:1037D0003046FEF7A3FE4020009002940394694611
:1037E000019504943846FEF799FE802000900294DB
:1037F00003946946019504943846FEF78FFE28022B
:103800000090029403946946019504943846FEF7AB
:1038100085FE680200900294039469460195049421
:103820003846FEF77BFE07B0F0BD000000080050F0
:103830000004005070B586B000241848039400942A
:103840000194029401690122920411430161144917
:103850000868FF22130498430860012511490420D9
:1038600008607F20104E049003A905923046FFF7B0
:1038700023F969460C714C718C716A4600213046FF
:10388000FFF794F969460D724D728D72CC7202AADF
:1038900000213046FEF7F0FF06B070BD4010024038
:1038A00000E400E000E100E00028004010B50F480F
:1038B0000D490160FF210531416000218160C16037
:1038C0000122426101615202826101621822416259
:1038D000C26181620721C162FDF776FF002801D035
:1038E000FDF728FB10BD00000030014094000020CF
:1038F0007FB5002400940194029404200394FEF701
:1039000049FD0221142001F07DF8142001F062F835
:103910001F2069460880019403940A200A4C0290F3
:103920002046FFF723FB20688025284320600021E4
:103930002046FFF7C3FB00212046FFF7C7FBA06826
:10394000A843A0607FBD0000000801407FB50024AF
:1039500000940194029420200394FEF71BFD0021A3
:10396000162001F04FF8162001F034F81F206946A8
:103970000880019403940A200A4C02902046FFF725
:10398000F5FA206880252843206000212046FFF7B3
:1039900095FB00212046FFF799FBA068A843A06093
:1039A0007FBD00000014014030B58BB000240694A8
:1039B00007940894182168460994FCF7B8FB012085
:1039C000FEF7DCFC0120FEF79FFE0220FEF79CFEC6
:1039D0002020009005200225059002940394019573
:1039E000049469460007FEF799FD6802059500906A
:1039F000029403940195694604943148FEF78EFDC4
:103A000000210F2000F0FEFF0F2000F0E3FF2D4803
:103A1000694608832C480794099408906C0706A906
:103A20002046FFF7A3FA20688025A84320600021E4
:103A30002046FFF743FBA0685021702290430843C3
:103A4000A060A1680420C908C9000143A160002248
:103A500001212046FFF72AFA002201212046FFF724
:103A600047FAE06840218843E060E0680902884343
:103A7000E06000212046FFF729FBA068A843A06072
:103A8000A21301212046FFF7EFF900220121204671
:103A9000FFF74AFA621310212046FFF7E5F90022EA
:103AA00010212046FFF740FA002210212046FFF7A0
:103AB000FDF9022210212046FFF71AFA0BB030BDA3
:103AC000000400507F0C0000FFFF0000F0B591B033
:103AD00000240C940D940E940F940194029403947A
:103AE000182105A80494FCF722FB0220FEF746FCEF
:103AF0000320694608862448244E0E900D940CA994
:103B00000F943046FFF732FA3168802081433160EC
:103B100000213046FFF7D2FA1D48B11502791B4843
:103B20001830151828681A4AD21D137908229A40AD
:103B300010432860602002270190029401AA049794
:103B400003943046FFF798FA29681148C01D02799E
:103B5000042090408143296000213046FFF7B6FAE7
:103B6000B06880218843B0600220FEF7CDFD0120BF
:103B70000A97059007940894069705A909940548A3
:103B8000FEF7CCFC11B0F0BDCF07000000040040F0
:103B9000D8500008000400507FB500240094019420
:103BA000029410200394FEF7E9FB0121112000F09C
:103BB00029FF112000F00EFF0A4869460880019491
:103BC00009480A4C02902046FFF7D0F9206880256A
:103BD0002843206000212046FFF778FAA068A84318
:103BE000A0607FBDFF7C0000F620000000100040B8
:103BF0007FB5002400940194029420200394FEF7E2
:103C0000BDFB0121122000F0FDFE122000F0E2FEBB
:103C10000B48694608807D200194C000094C029041
:103C20002046FFF7A3F92068802528432060002163
:103C30002046FFF74BFAA068A843A0607FBD0000B4
:103C4000FF7C000000140040F0B58FB01C2106A8D6
:103C5000FCF76DFA18216846FCF769FA5148012112
:103C6000426B89030A434263426B0A400D92C26A67
:103C700001210A43C262C06A002408400D90480234
:103C800004270225032603946A460597049461C21B
:103C9000052069460007FEF741FC680203946A4666
:103CA0000597049461C2052069460007FEF736FCBB
:103CB0003D4D032211462846FEF716FC0022032143
:103CC0002846FEF7C9FBAE14324603212846FEF70C
:103CD000A7FB002203212846FEF7EAFB002203216E
:103CE0002846FEF7F3FB802203212846FEF7C4FB9B
:103CF000002203212846FEF703FC00220321284668
:103D0000FEF7C8FB032202212846FEF7EDFB102236
:103D100002212846FEF7A0FB324602212846FEF784
:103D20007FFB002202212846FEF7C2FB002202216F
:103D30002846FEF7CBFB802202212846FEF79CFB9B
:103D4000002202212846FEF7DBFB00220221284642
:103D5000FEF7A0FB154801680902090A0207114392
:103D600001600125124910090860E1204002069017
:103D70000794089409940B940C940C200D4C0A9011
:103D800006A92046FFF7A8F960680921C9028843FF
:103D90006060A0682A218843A060206828432060D2
:103DA0000FB0F0BD001002400000024018E400E037
:103DB00000E100E00038014070B51C4C0646206868
:103DC0000D4600051BD53046FFF73AFB206840063C
:103DD00014D52946304600F01FFA20684021884358
:103DE000206020680902884320601249104808605A
:103DF00011491420086011490020087070BD28681E
:103E0000C007C00FFAD110684008400010607D2044
:103E1000C000FFF75FFA29463046FFF76BFA2068CB
:103E2000012149020843206070BD000038000020D5
:103E300048BE08003C000020400000204800002050
:103E40007047000070B50446012080070D4684428B
:103E50000DD02A4884420AD02948844207D02948F4
:103E6000844204D0FF21E43127A000F01EFE286820
:103E7000002812D0102810D020280ED030280CD0C6
:103E800040280AD0502808D0602806D0702804D0D6
:103E9000FF21E5311CA000F008FE6868002806D06C
:103EA000012804D0FF21E63117A000F0FEFDE868EC
:103EB000002806D0022804D0FF21E73112A000F02C
:103EC000F4FD206A400840002062206A6268A1690F
:103ED00070238908890099432B681943022398436A
:103EE000EB68184340086B68400018436260A161AA
:103EF000A96861632062002070BD000000040040DA
:103F000000080140001401402E2E2F44726976658E
:103F100072732F53544D33324C3078785F48414C94
:103F20005F4472697665722F5372632F73746D33B9
:103F3000326C3078785F6C6C5F74696D2E63000052
:103F400070B50446012080070D4684420CD02A48F3
:103F5000844209D02948844206D02948844203D0AB
:103F6000284929A000F0A1FD2868002812D01028B7
:103F700010D020280ED030280CD040280AD050284D
:103F800008D0602806D0702804D01E491EA0491C05
:103F900000F08BFD6868002806D0012804D01121AC
:103FA000490119A000F081FDE868002806D0022828
:103FB00004D0144914A0C91C00F077FD206A102118
:103FC00088432062206A6368A26973263602B2437E
:103FD0002E68360232432026B043EE683601304365
:103FE00088436968636009010843A261A968A16305
:103FF0002062002070BD0000000400400008014065
:10400000001401401E0200002E2E2F4472697665B6
:1040100072732F53544D33324C3078785F48414C93
:104020005F4472697665722F5372632F73746D33B8
:10403000326C3078785F6C6C5F74696D2E63000051
:1040400070B50446012080070D46844206D02748FB
:10405000844203D0264927A000F027FD28680028C5
:1040600012D0102810D020280ED030280CD0402894
:104070000AD0502808D0602806D0702804D01C49E7
:104080001CA0491C00F011FD6868002806D001281A
:1040900004D0174917A0891C00F007FDE868002824
:1040A00006D0022804D09721890012A000F0FDFC60
:1040B000206AFF22013290432062206A6368E1692E
:1040C000702689088900B1432E6831435600B043F9
:1040D000EE683602304390436A6863601202104310
:1040E000E161A968E1632062002070BD0004004026
:1040F000590200002E2E2F447269766572732F5379
:10410000544D33324C3078785F48414C5F4472698B
:104110007665722F5372632F73746D33326C3078FF
:10412000785F6C6C5F74696D2E63000070B5044637
:10413000012080070D46844207D02748844204D0DE
:10414000A521890025A000F0B0FC2868002811D026
:1041500010280FD020280DD030280BD0402809D0AF
:10416000502807D0602805D0702803D029491BA00B
:1041700000F09BFC6868002806D0012804D025497F
:1041800016A0491C00F091FCE868002806D002281F
:1041900004D0204911A0891C00F087FC206A01226C
:1041A000120390432062206A6368E1697326360235
:1041B000B1432E68360231435600B043EE683603F1
:1041C000304390436A68636012031043E161A96859
:1041D00021642062002070BD000400402E2E2F4478
:1041E0007269766572732F53544D33324C30787840
:1041F0005F48414C5F4472697665722F5372632F3A
:1042000073746D33326C3078785F6C6C5F74696D89
:104210002E630000950200000268D207D20F03D07F
:1042200002685208520002600868C007C00F05D03B
:1042300008684008400008600548C86205480078E2
:10424000322804D3044801684022114301607047BA
:10425000A8610000480000203800002010B5026866
:104260000122D2430261046801231C4304600868F0
:10427000904307D10A61086818430860024908782A
:10428000401C087010BD000048000020704700006E
:104290000449C968F0221140034A0909515CC84029
:1042A0007047000000100240FB5000080349C96835
:1042B000034A4905490F515CC8407047001002404D
:1042C000145100080349C968034A8904490F515C25
:1042D000C8407047001002401451000810B50F4943
:1042E000CA680C2002400E4805D0042A09D0082ACA
:1042F0000FD00C2A0FD049680904490F491C884087
:1043000010BDFEF795FA002801D0064810BD0648FA
:1043100010BD064810BD00F00BF810BD00100240A3
:104320000080000000093D000024F40000127A0023
:1043300010B50E4CE06801210904084205D1FEF7D2
:1043400077FA00280FD00A4A00E00A4AE068000223
:10435000810FE068084B8002000F185C491C504335
:10436000FBF7C8FE10BD054AF0E700000010024050
:1043700000093D0000127A000B5100080024F400EF
:104380000548C168C905C90F05D0C1688022114020
:10439000FF398239C1607047002800407CB50D00AC
:1043A000044601D0202D01D900207CBD00F00AFE7A
:1043B000A0006946401C08700024114E4020B062E5
:1043C0000A2301220F48FDF723FCED080A232A46A1
:1043D00001A90C48FDF74EFB4020B061002101A867
:1043E00008E06A1A1218203AD27FCB009A401419BA
:1043F000491CC9B28D42F4D800F0FBFD20467CBDBB
:104400000004005094000020F8B504464368FF26DD
:10441000012005368002B3420AD1A3684501AB42B0
:1044200001D0834204D123681D684027BD431D602D
:1044300063682025B34210D1A36883420DD0009257
:104440000B4600228021204600F03CF8002803D0D3
:10445000606D284360650320F8BD00920B46002282
:104460000121F0E7F8B5044615480E4615461349F4
:104470000068FBF73FFE7D21C9004843009060685B
:10448000C11FFD390ED13346002280212046009500
:1044900000F018F800280FD0606D202108436065F7
:1044A0000320F8BD0098002806D0401E0090206828
:1044B0008068C0430006F5D50020F8BD00366E01C7
:1044C0000C000020FFB581B01E4604460A9DFDF792
:1044D0005BF8401B351AFDF757F807462648006879
:1044E0004001000D684339E0701C38D0FDF74CF8EE
:1044F000C01BA84205D2002D03D0009800282BD065
:104500002BE020684168E022914341606068C11F50
:10451000FD390CD10121A068C903884202D049119C
:10452000884204D120680168402291430160012043
:10453000A16A4003814207D121680A6882430A6068
:1045400021680A6802430A60012040346074002038
:104550002074032005B0F0BD0025401E00902068A7
:1045600081680298884305D0002103988142BBD11D
:104570000020EFE70121F8E70C0000207047000061
:104580007D22D200511A89B2054B4A1E9A4202D8A6
:104590004900491E01E0002900D1C16370470000B5
:1045A000E70300007047000010B5FDF775FD01201E
:1045B000124C4003A061FDF785FD01208003A0613E
:1045C0000F480168E20291430160D111A1610168C5
:1045D0005200114301600220FCF72EFA0948816B5A
:1045E00002041143816300F045FD00F0FDFA00F084
:1045F0004DFDFCF7F7FA00F005FC10BD0008005077
:10460000380000200010024030B50169C907C90F09
:1046100030D00121C9430161184B18680521840479
:1046200000220907164D17481B68002C11DADB041D
:104630000DD44B6908221C46144024049A431443A9
:104640008C610168002915D00168491E11E00260E3
:1046500012E00D4C1B050ED44B6908221D46154077
:104660002D049A4315438D610168A14202D201686D
:10467000491C016030BD04602A7030BD3800002044
:10468000480000203C00002048BE080070B501250D
:10469000244E2D0329463046FEF722F801466810C5
:1046A000214C0129216832D0814321600121490335
:1046B0003046FEF715F8012820682AD0A84320606C
:1046C000012189033046FEF70BF80146012040071F
:1046D000012921681FD0814321600121C90330468F
:1046E000FDF7FEFF012189070128206815D08843C6
:1046F0002060FF21052001310007FDF7F1FF0121B6
:104700008902012820680AD08843206070BD0143D7
:10471000CBE72843D3E70143DEE70843E8E7084354
:10472000F3E70000000400503800002010B5FCF74B
:1047300031FF10BD70B54448012102688A430A4325
:1047400002600168C907C90FFBD04049012208680F
:10475000D2020323DB029843104308603C480268FE
:1047600001231B041A43026002689203D20FFBD09C
:10477000036801221343036003685B07DB0FFBD070
:1047800043681F242402A3430124240323434360DA
:104790002F4C403423691343236122699207D20FBF
:1047A000FBD00A68FF2301331A430A6021690323FF
:1047B0001B0401221940520491420AD0256991003C
:1047C0000D43256125698D43256121699943114375
:1047D000216121690122920411432161C168FD22F6
:1047E00012049143912212041143C1600168012215
:1047F00012061143016001688901C90FFBD0C1682D
:10480000F0229143C160C168072212029143C16046
:10481000C168D2009143C160C26803218A430A4340
:10482000C2600C22C16811400C29FBD10948FEF777
:104830000DFB0120FCF7CAFEE06802218008800021
:104840000843E06070BD000000200240007000409E
:10485000001002400048E801104801688215114329
:104860000160C1680E4A1140C16001680D4A1140E3
:104870000160816849084900816001680122920451
:1048800091430160C168FD2212049143C16000217F
:1048900001610549C00388607047000000100240B4
:1048A0000C40FF88F6FFF6FE00ED00E010B502496F
:1048B0000248FBF731FF10BD001401400008014021
:1048C00010B50248FFF7A0FE10BD00000014014023
:1048D00010B501208007FCF709FB10BD10B5054895
:1048E0000169C907C90F04D00121C943016100F062
:1048F000A7FA10BD001000407047704770470000D5
:104900007CB516460C00054627D0202C25D800F093
:1049100059FBA800694608700020E50801A907E0D6
:10492000C200131932469A40120E0A54401CC0B2FB
:104930008542F5D8094C4020A0620A23012269462D
:104940000748FDF765F90A232A4601A90448FDF73F
:104950005FF94020A06100F04CFB7CBD00040050DA
:10496000940000202021020C01D010211046020AE0
:1049700001D010460839020901D01046091F8208EB
:1049800001D01046891E420801D0881E7047081ABF
:1049900070470000002809DBC106C90E01208840CD
:1049A00003490860BFF34F8FBFF36F8F704700005C
:1049B00080E100E0002809DBC106C90E0120884023
:1049C00003490860BFF34F8FBFF36F8F704700003C
:1049D00080E100E0002805DBC106C90E0120884007
:1049E000014908607047000000E100E0002805DB95
:1049F000C106C90E012088400149086070470000C7
:104A000000E100E08307FF22DB0E9A408907090ED0
:104A10009940002808DB830809489B001B18186888
:104A200090430843186070470007000F0838830858
:104A300004489B001B18D86990430843D86170470D
:104A400000E400E000ED00E08307FF22DB0E9A4067
:104A50008907090E9940002808DB830809489B0054
:104A60001B18186890430843186070470007000F30
:104A70000838830804489B001B18D86990430843F2
:104A8000D861704700E400E000ED00E002E008C8F3
:104A9000121F08C1002AFAD170477047002001E0B8
:104AA00001C1121F002AFBD17047704770B5174C27
:104AB0002068800229D50121154889038161216878
:104AC000C20291432160010181622068090288438A
:104AD000206010490020C86088800F4D014628469C
:104AE000FFF74EFD0F20FFF765FF286AA9158843E1
:104AF00028623220FEF7EEFB084802218162042181
:104B000081622068C9048843206070BD380000209D
:104B1000000800504C000020000400400004005039
:104B2000F8B5FCF721F8FFF73DFD29490868002595
:104B300082022848284C002A18DB284A0314936272
:104B40000B68060333430B60C31393610A68460383
:104B500032430A60224A1360026A83151A430262D2
:104B600008685A0310430860E560F8BDA188FFF7A4
:104B700007FD1C4EE06831787D27FF00884207D290
:104B8000A088C01CB84203D2A0800120FEF7A2FB7F
:104B90003178E068884207D1A088B84204D2401C2E
:104BA000A0800120FEF796FB3178E068884207D9A3
:104BB000A088022804D2801EA0800120FEF78AFB74
:104BC000A088002801D0B842CFD9E560A580F8BD03
:104BD00038000020000400404C0000200008005075
:104BE00000E100E03100002010B511480168012407
:104BF000214301600021FFF7C3FC0F20FFF7DAFE1D
:104C0000A007C16802221143C160016A2143016209
:104C1000C16804221143C160026A10210A43026282
:104C2000016821430160C1682143C16010BD0000DB
:104C3000000400401B4802691B49002A06D10A787B
:104C4000052A03D90A78521E0A7005E00269002A73
:104C500006D00269052A03D80169491C0161704721
:104C60000269052A05D902690F2A02D80A78052A9D
:104C700012D802690F2A09D90A780F2A06D90269BF
:104C8000521C026108780A380870704702690F2ABE
:104C9000FBD90A78052AF8D90269521C0261087802
:104CA000401EF1E74C000020310000201B48026943
:104CB0001B49002A06D10A78322A03D20A78521CEC
:104CC0000A7005E00269002A06D00269032A03D8A7
:104CD0000169491C016170470269032A05D902690B
:104CE0000F2A02D80A78322A12D302690F2A09D968
:104CF0000A78282A06D20269521C026108780A3012
:104D00000870704702690F2AFBD90A78322AF8D254
:104D10000269521C02610878401CF1E74C00002037
:104D20003100002010B50D4AC1018C180B4A7F32AA
:104D3000891800220AE00B78002B04D0900820216B
:104D4000081A80B210BD521C92B2491EA142F2D282
:104D5000012100F00BF8012010BD000080FFFF07CB
:104D60000149C0014018704780FFFF0738B5084A65
:104D700000230C461360FFF7F3FF94605060694610
:104D800003480093FCF770F902490120488038BDC0
:104D90003401002090000020C0018900401807491C
:104DA00010B54318002001465A181278CC00A240D2
:104DB000491C1043C9B20429F6D310BD7CFFFF077C
:104DC00070B50F4C064660880D46401C60806088B8
:104DD000202803D901212846FFF7C8FF01200AE057
:104DE0002846FFF7BDFF618832468900411802203E
:104DF000091FFCF7D1F9607060780028F0D170BD10
:104E00009000002070B5FCF719FA0B4C607001257A
:104E1000AD022846FFF786FF608061882846FFF7CD
:104E2000BBFF4100090E01D0044908602078012130
:104E30000843207070BD0000900000207800002022
:104E4000F8B5514D514E0424600041194978285C51
:104E5000FFF7A4FAA10089198039641CE4B208673D
:104E6000082CF1D3308800B2FBF700FB0022484B3E
:104E7000FBF71CFAFBF74EFB464CE060308900B2B2
:104E8000FBF7F4FA444A454BFBF710FAFBF742FBF9
:104E900005462061F068FBF7FDFA414A414BFBF7FC
:104EA00005FAFBF737FB0121C9053F4A3F4F404E4A
:104EB000A0618D421ADB3178FD23194031703178C1
:104EC000490849003170616891422FDAFBF70EFB07
:104ED000384A394BFBF7EAF905460E466068FBF79E
:104EE00005FB2A463346FBF7D2F91CE033498D42D5
:104EF00027D33178490849003170317802231943AA
:104F000031706168914211DAFBF7F0FA294A2A4BB5
:104F1000FBF7CCF905460E466068FBF7E7FA2A4630
:104F20003346FBF70FF9FBF7F5FA60603878C007F6
:104F300024D06068FCF796F801218902FFF740FF52
:104F40001CE03878C00719D03078C00716D16069E6
:104F5000884213D36800000E10D119486060606861
:104F6000FCF780F801218902FFF72AFF3078012140
:104F7000084330703078FD2108403070FBF70AFCA0
:104F800020696061F8BD00003A510008240100204A
:104F90000000094074000020333333333333D33FF0
:104FA000B81E85EB51B8AE3F0024F44990000020B4
:104FB000490000208BFDCDDA5933633F000080802B
:104FC0000050434810B50220FFF7E4FC0A20FFF729
:104FD000E1FC0F20FFF7DEFC0F20FFF7DBFC1420C5
:104FE000FFF7D8FC1620FFF7D5FC1B20FFF7D2FCFB
:104FF00010BD10B50220FFF7F9FC0A20FFF7F6FC00
:105000000F20FFF7F3FC0F20FFF7F0FC1420FFF751
:10501000EDFC1620FFF7EAFC1B20FFF7E7FC10BDB4
:10502000FCF7C0FAFFF786FBFEF7E0FAFEF702FC9A
:10503000FEF7C0FAFEF7B8FCFEF748FDFEF7ACFD40
:10504000FEF7D6FDFEF754FCFEF780FCFEF7FCFDF4
:10505000FEF736FAFEF72AFCFFF7A6FA034D044CDA
:10506000FBF7CAFBFFF712FB2560F9E7AAAA0000CD
:105070000030004000B5FBF75DFEFBF7A9FEFBF733
:10508000E9FDFBF771FEFBF7F3FD00BD10B50E481F
:10509000C16801221143C160C1681143C1600B495D
:1050A000CB681343CB600A4AFEF7CAF9FBF7BAFC98
:1050B000084801680122920391430160016840227F
:1050C0001143016010BD00000008014000140140C0
:1050D000001400403800002000000000040004001C
:1050E000000800000008000008000000080000049C
:1050F0000008000C081C3044586C800000000000C0
:105100000000000102030406070809030406080C56
:10511000101820300000000001020304081C304475
:10512000586C802053797374656D0D5472616E7381
:10513000706F72746174696F6E200010011002103C
:10514000041005100610071008180B100C100D1095
:105150000E100F10101011103E103F107C5100085F
:1051600000000020940000008C4A00081052000843
:1051700094000020AC0400009C4A000801000000DC
:105180000400000000000000000020005379737448
:10519000656D2000000000000000000020547261D6
:1051A0006E73706F72746174696F6E0D0028000009
:1051B00000000000000000000000000046050000A4
:1051C00014000000000000000000000000000000CB
:1051D00000000000000000000000000000000000CF
:1051E00000000000000000000000000000000000BF
:1051F00000000000000000000000000000000000AF
:10520000000000000000000000000000000001009D
:04000005080000C12E
:00000001FF
