:020000040800F2
:1000000048050020D9000008393F00087521000884
:1000100000000000000000000000000000000000E0
:10002000000000000000000000000000754600080D
:100030000000000000000000854300083D48000863
:10004000EB000008EB00000879440008EB00000812
:10005000EB000008EB000008EB000008EB000008D4
:10006000EB000008EB000008F90C0008EB000008AA
:10007000EB000008EB000008EB000008E149000875
:10008000EB000008ED490008094A000800000000E4
:10009000BD490008EB000008D1490008EB0000084A
:1000A000EB000008EB000008EB0000080D4A000818
:1000B000EB000008EB00000800000000EB00000867
:1000C0000448854600F0FEFB0048004799510008AF
:1000D000C046C04648050020044880470448004701
:1000E000FEE7FEE7FEE7FEE7FEE7FEE769490008F8
:1000F000C100000830B50B46014600202022012433
:1001000009E00D46D5409D4205D31D469540491B4B
:100110002546954040191546521E002DF1DC30BD94
:10012000D2B201E00270401C491EFBD2704700228F
:10013000F6E710B513460A4604461946FFF7F0FFE6
:10014000204610BDF8B502464A40D40F42004B008D
:1001500052085B089A4202D20246084611464A00FB
:1001600023D0C30D4A00DDB2120EAD1A202D35DAB0
:1001700049020126490AF6058A19002C00D052428C
:1001800020214F1B1146B9402A411018C20D9A4236
:1001900021D0002C17D0012D08DCDA05801AD20FEF
:1001A0008019D207DBB200F0F5FAF8BDDA05801A43
:1001B000012340001B06C01880185A428018CA0F3D
:1001C0001043490007E04908C2071143DA05801AC5
:1001D00080194008801800F0D5FAF8BD61000122AE
:1001E000511A001BF7E70122D2075140AAE701226A
:1001F000D2075040A6E7024670B54A40D30FDB074E
:1002000040002DD04A002AD0010E140E0002120226
:100210000919400A520A8418E50104465443000AA9
:10022000120A2E045043A4194219200CC543AA18DF
:10023000120C0125AD03521C521912047F392404FB
:1002400000D0521C104301D44000491EC2B20C061B
:10025000C0092018401C4008802A02D003E000207A
:1002600070BD40084000002900DA0020184370BD2E
:1002700070B502464A40D50F40004A00ED074008DD
:100280005208002814D0002A12D0C40DD30D410208
:100290000120C0055202490A520AE41A091812182C
:1002A0007D34914201D3641C00E04900002C01DA46
:1002B000002070BD0023914201D3891A03434008F6
:1002C00049000028F7D100290AD0914202D101212A
:1002D000C90705E0914201D2012101E00121C94392
:1002E000E005C018401900F04DFA70BDF0B50746A2
:1002F0000846584087B0C00F049048000E46590089
:1003000040084908BC1A884105D2384631461E4685
:1003100017460B4602465800400810434DD0300D9A
:10032000039040055900400D490D0590401A029078
:10033000402873DA18030121000B090508430190D6
:1003400004980092002806D01146019A49420020E4
:10035000904100910190029840210A1A0199009859
:1003600000F0DCF905460C466B4607CB00F0F7F9C8
:10037000C0197141039A0E0D0023D71756401A4633
:100380007A40164344D0049A002A2DD0029A012ABA
:10039000039A15DC1205C01A914101263605001C8E
:1003A0007141D20F059ED2070093019202962A4610
:1003B000234600F035FA07B0F0BD38463146FAE77B
:1003C0001605234A0F46B218C01AB7410121090584
:1003D000001C4F4100187F41114618187941E20F67
:1003E00010436D19644113E0E2076D08154364087A
:1003F000C2071443039A01261205C01A914136051B
:10040000001C7141CE07400830434908C0185141D3
:100410002A46234600F0F7F9CDE7FFE704980122CA
:100420004000C117121A00238B4104983146C417AB
:10043000381AA141EEE730B40124E407634030BC30
:1004400054E730B40124E407614030BC4EE70000BB
:100450000000E0FFF0B51FB488B00B9909980024A4
:1004600048400999C00F490049080991C0070B99F4
:100470000090490049080B9109990898A64608433D
:100480001CD00B990A98084318D009980124400001
:10049000420D4800410D099824050003000B20433C
:1004A00009900B980003000B20430B9050181C4937
:1004B0004018002201901446104605E00020014635
:1004C0000DB0F0BD032801DA034600E003239C468B
:1004D000C11A0AAE0AE05F0008ADED5B4F00F75BA2
:1004E0007D430027AA187C41491C5B1E6145F2DD53
:1004F000410004AB5A522104120C0A43240C401C44
:100500000828DFDB01980290009970460191009065
:10051000059B049A0799069800F082F9D0E700003D
:100520000DFCFFFFF0B50C465C4085B0E40FE4071E
:1005300003944C000026640859009446490802467A
:100540000296224321D062460A431ED06200570D14
:100550004A000E032303550D012402462C492405AD
:10056000781B1B0B360B4018234326436146009033
:100570001C46501AB44103D30098401C009002E07E
:10058000921800985B41002803DA0020014605B06C
:10059000F0BD0020012109050746864611E06446AA
:1005A0001D46141BB54106D36546521BB341744624
:1005B00007430C43A646CD07400849082843921834
:1005C0005B4105460D43EAD11046184313D06046FF
:1005D000194650407140084306D06046101AB34196
:1005E00006D20122002306E000220123DB0702E0FD
:1005F0000122D2435310009874460105381C614112
:10060000029C039D0019694100F0FDF8BFE700005E
:10061000FD0300000EB5C217C10F5040CA074018B5
:100620000021054B0293019200910A460B4600F00F
:10063000F7F803B000BD0000330400000EB5054913
:100640000291002100910A460B46019100F0E8F862
:1006500003B000BD33040000410040020122400A03
:10066000D205090E80187F2901DA002070479629EB
:1006700003DC9622511AC84070479639884070476B
:100680004A0009030123090B1B051943094B10B547
:10069000520D9A4201DA002010BD064B34339A42C3
:1006A00003DC9A1A00F04AF810BD0349511888403B
:1006B00010BD0000FF030000CDFBFFFFC20FD207FB
:1006C000400040080BD0C10D0723DB01C9184002D0
:1006D0000905400A1143C208400711437047002032
:1006E00001467047CB0FDB07490010B549080246A9
:1006F0000A4307D00A0D07240903E401090B121B62
:10070000002A01DC002010BDC900440F0C43C100C9
:10071000E018D205801800F035F810BD10B5202A79
:1007200004DB0146203A9140002010BD9140202377
:100730009C1A0346E3401943904010BD10B5202A8F
:1007400004DB0846203AD040002110BD0B46D340C0
:10075000D0402024A21A91400843194610BD10B57C
:10076000202A06DBCB170846203A1041C1170B435D
:1007700006E00B461341D0402024A21A91400843C2
:10078000194610BD002904DA401C490001D1400877
:100790004000704770B40024050C05D110240004FB
:1007A00002D1002921D01124050E01D10002083404
:1007B000050F01D10001241D850F01D18000A41C6B
:1007C000002801DB4000641C002908D020252E1BD6
:1007D0000D46F540A14000D0012129430843010600
:1007E0001B1B000ADB1D02D5002070BC7047DB0517
:1007F000181880180029F8DA401C4900F5D170BC9F
:1008000040084000704710B5002B08DA0024401C57
:10081000614192185B411A4301D14008400010BD6C
:10082000F0B51FB482B005460C0003D0084604F0B2
:1008300021F902E004F01EF9203002460090214622
:100840002846FFF76BFF049B059A04460F461843A2
:100850001143084314D0184610431BD00098402180
:100860000A1A18460599FFF769FF05460E46009AD1
:1008700005990498FFF752FF084305D0012004E0D2
:100880002046394607B0F0BD0020C11705430E438E
:100890002C43374300990E986305401A7905E40A02
:1008A00000220C43FD0A0A3002D500200146E9E788
:1008B0000105101969410C9C0D9D00196941FFF754
:1008C000A2FFDFE7064C0125064E05E0E36807CCF2
:1008D0002B430C3C98471034B442F7D3FFF7F4FB9A
:1008E000E85200080853000870B50D460169C907B1
:1008F000C90F27D00121C9430161134C2068FFF7BC
:100900009DFE02460B4600201049FFF70BFEFFF745
:10091000B7FEE86221680E48142905D90168490428
:1009200002D52068401E0CE021680A4A12689142F4
:1009300008D20168C90502D40068800502D5206884
:10094000401C206070BD00004400002080841E41D7
:100950003C0000204800002070B5404C2068C107D2
:100960003F4802D08021816101E0802181622168BD
:10097000890702D54021816101E040218162206820
:10098000384942073848394D08D52268002A05DB26
:1009900002F0E8FA002810D102200AE022681207CB
:1009A0000ED52268002A0BDB02F0DCFA002804D105
:1009B0000420A861322002F013FD04F039F970BD63
:1009C0002B480168090105D5C82002F009FD04F093
:1009D000EFF907E00068C00009D5C82002F000FD6B
:1009E00004F0AAF9206840004008206070BD20682B
:1009F0002049C206204808D52268520605D422683C
:100A0000520402D402F0FCFC70BD2268920608D5A4
:100A10002268520605D42268520402D402F03EFD38
:100A200070BD2268520603D5144A03F045FA70BD22
:100A30002268D20102D500F0FBF870BD2268920155
:100A400002D503F0E2FF70BD0122920702F072FDB1
:100A50000B490020086004F0B1F870BD3C00002094
:100A6000000000500001000000040040000400509D
:100A7000380000200014014000080140001400402C
:100A800060000020F8B5234C206880010FD4224874
:100A90000168C90702D02068012104E001688907C4
:100AA00006D5206802210843206003F0F7FDF8BD59
:100AB00001681A4D1A4E1B4F490705D52068800062
:100AC000F5D42068042107E0016809070DD52068E6
:100AD0004000ECD4206808210843206003F0DEFDCC
:100AE000B561206838432060F8BD0168C90605D5A6
:100AF00020680005F8D420681021EDE70068800622
:100B0000206804D5C004EFD420682021E4E706491A
:100B10000840E8E73C00002038000020008000008A
:100B20000008005000008000C0FFFFE70248016895
:100B3000024A11400160704738000020C0FFFFE703
:100B400038B50020694608701D4B1E490AE06C4606
:100B500022789A5C24780C5DA2422FD16C462278D0
:100B6000521C22706A4612780E2AF0D96946087023
:100B7000144908390CE0684600781818027E684667
:100B80000078085C824219D16A461078401C1070C7
:100B9000684600780428EED9FFF7C8FF987CD97B17
:100BA00009060843197C5A7C0904120211430843C0
:100BB00005490A681043086003F070FD38BD000065
:100BC0000C010020B75200083800002010B5114970
:100BD0000868020E1048C2710A681202120E0272F0
:100BE0000A681204120E4272096881720B49097870
:100BF000C1720B4C217801730A49097841730A4884
:100C00000068810140180949FFF774FA401D2070FF
:100C100010BD00003C000020100000203400002027
:100C200032000020330000204000002048BE0800B1
:100C30007047000010B517488168174A1140091D18
:100C4000816001680907C90FFBD008210160006CB1
:100C5000124C80B21249208048431249FFF74AFAE9
:100C600080B27D21E080C9004843FA21FFF742FAB3
:100C7000A060E1684A09891A0818E06040090A4939
:100C80002061884205D9094801680122D207114331
:100C9000016010BD00240140E8FFFF7F64000020D8
:100CA000E40C0000FF0F0000B80B00003C00002027
:100CB0000E488168172291434205114381600C4917
:100CC00002E08A88521C8A808268D20FF9D1826839
:100CD000084B1A40521C82602020488080B2401E7F
:100CE0000004000C4880F9D1704700000024014046
:100CF00064000020E8FFFF7F10B5024800F051F9C2
:100D000010BD00000000024010B5074800F03CF99B
:100D10000548143800F038F97D20C00002F060FB6F
:100D200000F046F810BD00003000024001210548E7
:100D3000C902416001154160411541608115416062
:100D4000704700000000024038B5164C206840088B
:100D500040002060144D284600F016F9284600F0A7
:100D6000CDF882200F4900902023104A24312846D4
:100D700000F036F9A06840210843A060A0688021F7
:100D80008843A060206A490108432062206A082144
:100D900008432062284600F0FFF82068012108433C
:100DA000206038BD00380140300002400C010020B6
:100DB00038B5EFF31080012181F3108811498A685A
:100DC00040231A438A6080F310880F4C0321204689
:100DD00001F094FB0321204601F09CFB0B48094ADB
:100DE00000900B4B24320321204601F065FB2022AA
:100DF0000321204601F0A8FB0321204601F072FBED
:100E000038BD0000003801400000024070030008B7
:100E10000C01002010B50B49002008700A4800F0B2
:100E2000B3F8FFF783FF094C2078002806D105208E
:100E300002F0D6FA00F018F801202070FFF780FECB
:100E400010BD0000300000203000024031000020C2
:100E500004488021416040214160202141601021EF
:100E6000416070470000024038B5124C20684008CD
:100E700040002060104D284600F086F8284600F01B
:100E80003DF892200B49009020230C4A2831284637
:100E900000F0A6F8A06880210843A060A068402167
:100EA0008843A060284600F077F8206801210843B5
:100EB000206038BD003801401C00024010000020B6
:100EC00010B50B49002008700A4800F05DF8FFF7E4
:100ED000BFFF094C2078002806D1052002F080FAD7
:100EE000FFF732FF01202070FFF770FE10BD0000F9
:100EF000310000201C000240300000200168204A20
:100F0000114001600021016041608160C1601D49A4
:100F10001C4A0839904202D148680F2205E0194A5C
:100F20001432904204D14868F02210434860704760
:100F3000144A2832904203D148680F221202F4E783
:100F4000104A3C32904203D148680F221203ECE76A
:100F50000C4A5032904203D148680F221204E4E751
:100F6000084A6432904203D148680F221205DCE738
:100F7000044A78329042DAD148680F221206D4E748
:100F8000FEFF0000080002400168024A11400160B3
:100F900070470000FEFF000001680122114301605C
:100FA000704710B501688906C90F04D0202141603F
:100FB000FFF786FF10BD01688905C90F05D0012123
:100FC00049024160FFF726FF10BD01680906C90FFD
:100FD00003D100680005C00FF6D0FFF795FE10BDE5
:100FE00070B5049D0468044E436034402C43816016
:100FF000C260046070BD00000180FFFF10B5016990
:10100000C907C90F12D0416B094C89B22180826B8C
:1010100062800122D24302610648FFF76BF806495D
:10102000A06048430549FFF765F8E06010BD000087
:1010300050000020809698004893000000127A002B
:101040007047000010B5084900224A6107494B6803
:101050004C1523434B604B68082423434B60C00965
:10106000C001026010BD0000F4000020002002401A
:1010700010B5214A00219069C305204804D5416973
:10108000022319434161911593699B0505D5436975
:101090000124234343616302194393695B0505D52A
:1010A0004369082423434361E301194393691B0502
:1010B00005D54369042423434361630219439369BB
:1010C0009B0405D5436910242343436163021943FC
:1010D00093699B0304D5446920231C43446119434D
:1010E0009369DB0305D54369402423434361A00290
:1010F0000143916110BD000000200240F400002077
:1011000070B5054600F0C6FA0646184C0AE0681CA1
:1011100008D0002D04D000F0BDFA801BA84201D9F0
:10112000032070BDA069C007F1D1A069800701D577
:101130000220A061A069C00511D4A06980050ED469
:10114000A06940050BD4A069000508D4A0698004FB
:1011500005D4A069800302D4A069C00303D5FFF7BA
:1011600087FF012070BD002070BD000000200240FC
:1011700070470000F3B50446364881B0017C012970
:1011800007D0012101743448FFF7BAFF060002D0EE
:101190005AE00220FEBD00210298C9430160A06808
:1011A0002E4F002804D0B98F0904490B884203D977
:1011B000BC212BA003F001FD2068002803D0BD2135
:1011C00027A003F0FAFC01256068ED06A84205D3CC
:1011D000B98F090489094919884203D3BE2120A087
:1011E00003F0EBFC6068A168C009C001C9014018A8
:1011F000401EA84205D3B98F0904890949198842BC
:1012000003D3BF2116A003F0D8FC254F656815E075
:101210002846FFF717FF1048FFF772FF0646786869
:101220000821884378607968012040028143796011
:10123000002E02D00298056006E08035A068616843
:10124000C0014018A842E3D802480021017430468A
:10125000FEBD0000F400002050C300004000F81F55
:101260002E2E2F447269766572732F53544D33328C
:101270004C3078785F48414C5F4472697665722FD4
:101280005372632F73746D33326C3078785F68619A
:101290006C5F666C6173685F65782E6300000000A8
:1012A00000200240F8B5164C0D46217C1746012956
:1012B0001DD001212174022803D0EF2111A003F0D9
:1012C0007CFC0120C006854206D31D49898F090494
:1012D00089090818A84203D8F0210AA003F06DFC80
:1012E0001848FFF70DFF0026002802D006E0022074
:1012F000F8BD66612F601348FFF702FF2674F8BD42
:10130000F40000202E2E2F447269766572732F53DD
:10131000544D33324C3078785F48414C5F447269A9
:101320007665722F5372632F73746D33326C30781D
:10133000785F68616C5F666C6173682E63000000A3
:101340004000F81F50C3000011484168C9070BD086
:10135000EFF3108172B60F4AC2600F4AC26081F388
:1013600010884168C9070ED1416889070DD5EFF390
:10137000108172B6094A0261094A026181F310883C
:101380004068800701D501207047002070470000A9
:1013900000200240EFCDAB8905040302BFAE9D8C57
:1013A00016151413F8B50446486800270D460028A2
:1013B00025D0012823D0112821D002281FD012289F
:1013C0001DD011210904884219D021210904884225
:1013D00015D031210904884211D0092149048842DD
:1013E0000DD011214904884209D0192149048842AD
:1013F00005D0032803D0A3218EA003F0DEFB052037
:101400000007844204D128680104090C25D109E0B1
:101410009748844206D128680104090C0CD0000CBE
:101420002CD009E09348844206D128680104090CB5
:101430000CD0000CF4D009E08F48844206D1286813
:101440000104090C0BD0000CEAD008E08B48844260
:1014500005D128680104090C0CD0000C08E088486C
:10146000844207D187492868084203D0C94308400D
:101470000028D5D0A4216FA003F09FFBD4E0012168
:10148000B940064600910E407ED028798007800F33
:10149000012801D002281ED1E868002809D00128BF
:1014A00007D0022805D0032803D0B42161A003F09F
:1014B00084FBA2687900032088408243E868884062
:1014C0001043A0606068009988432979C906C90F54
:1014D000B940014361602879C043800713D0A868F0
:1014E000002807D0012805D0022803D0C52151A02B
:1014F00003F063FBE0687A00032191408843A96808
:1015000091400143E16028798007800F02282AD1A9
:1015100005200007844212D0554884420FD0554818
:1015200084420CD05448844209D05448844206D0A6
:101530005348844203D0D2213EA003F03EFB2869E9
:10154000072803D9D3213BA003F037FBF80880001C
:101550000319186A7907CA0E0F2191408843296937
:101560009140014319622068790003228A40904328
:101570002A799207920F8A400243226068688003AA
:10158000800F50D0404800E04DE0416B01221143F4
:101590004163B9083D4889000B189868B9070A0FDC
:1015A0000F2191408843052109078C4201D1002178
:1015B00019E02F498C4201D1012114E02D498C42C0
:1015C00001D102210FE02C498C4201D103210AE014
:1015D0002A498C4201D1042105E029498C4201D1DC
:1015E000052100E0062191400143996028490868DF
:1015F0006A68B043D20300D53043086048686A681F
:10160000B043920300D53043486088686A68B043AD
:10161000D20200D530438860C8686A68B04392023D
:1016200000D53043C8607F1C2E683046FE4000D095
:1016300025E7F8BD2E2E2F447269766572732F53FD
:10164000544D33324C3078785F48414C5F44726976
:101650007665722F5372632F73746D33326C3078EA
:10166000785F68616C5F6770696F2E6300000000CF
:101670000004005000080050000C00500010005002
:10168000001C005003060000001002400000014052
:1016900000040140014880687047000000000020FD
:1016A0000248816802788918816070470000002034
:1016B00010B5084800240168402211430160012050
:1016C00000F00AF8002801D0012401E000F026F81B
:1016D000204610BD0020024070B504460D4D7D200F
:1016E0002978C000FEF706FD01460B480068FEF7AA
:1016F00001FD00F027FD002809D1042C07D20022AB
:101700002146401E00F02CF800206C6070BD0120C6
:1017100070BD0000000000200C0000201CB500245B
:101720000E4800940194416B012211434163816B87
:1017300002041143816301212246881F00F010F842
:1017400001210022C81E00F00BF8009468460194A5
:1017500000F032F800F0B6F81CBD000000100240A6
:1017600070B50C460546102903D3872103A003F06A
:1017700024FA2146284603F0EFF970BD2E2E2F449F
:101780007269766572732F53544D33324C307878CA
:101790005F48414C5F4472697665722F5372632FC4
:1017A00073746D33326C3078785F68616C5F636F2F
:1017B000727465782E63000010B504460068002836
:1017C00012D0202810D040280ED060280CD08028BD
:1017D0000AD0A02808D0C02806D0E02804D0FF21D5
:1017E000683126A003F0E9F932496068884215D0D3
:1017F000491C884212D0491C88420FD02E49884289
:101800000CD0491C884209D0491C884206D00028C7
:1018100004D0FF21693119A003F0CFF927490868E6
:10182000E022904322681043086025494A6801205D
:10183000000482434A600A6882430A60CA6882439D
:10184000CA608A6882438A606268D20302D50A68E5
:1018500002430A606268920302D54A6802434A6002
:101860002279D20702D08A6802438A6022799207DD
:1018700002D5CA680243CA6010BD00002E2E2F4454
:101880007269766572732F53544D33324C307878C9
:101890005F48414C5F4472697665722F5372632FC3
:1018A00073746D33326C3078785F68616C5F707719
:1018B000722E630001000100010002000070004070
:1018C0000004014002480168102211430160704782
:1018D00000700040F8B504007ED08349206888423B
:1018E00007D08249884204D0FF214B3180A003F009
:1018F00064F9FF2760680537002806D0B84204D095
:10190000FF214C317AA003F058F9A06800280BD0D1
:1019100001218902884207D04901884204D0FF2171
:101920004D3173A003F049F90121E068C9028842F2
:1019300006D0002804D0FF214E316DA003F03DF900
:10194000A069C11FFF39FA390AD0002808D0012147
:101950008904884204D0FF214F3165A003F02DF99E
:10196000E069002812D0082810D010280ED01828BE
:101970000CD020280AD0282808D0302806D03828B3
:1019800004D0FF2150315AA003F017F9206A002833
:1019900006D0802804D0FF21513155A003F00DF965
:1019A000606A002500282CD0102807D0FF21523172
:1019B0004FA003F002F9606A002822D0E0690028F5
:1019C00014D0082812D0102810D018280ED02028A3
:1019D0000CD028280AD000E011E0302806D03828A2
:1019E00004D0FF21643142A003F0E7F8256165616E
:1019F00026464036A562707C002832D035E00120B2
:101A0000F8BD2069002806D0022804D0FF215531F6
:101A100037A003F0D2F86069002806D0012804D06E
:101A2000FF21563132A003F0C8F86068B84216D1E1
:101A3000E0690028DCD00828DAD01028D8D018288F
:101A4000D6D02028D4D02828D2D03028D0D03828BA
:101A5000CED0FF215A3126A003F0AFF8C8E7E561E8
:101A6000C6E73574204600F05FF8022171742068E3
:101A7000026840239A4302602123A26860689B02A7
:101A80001A4038401043E3688A0213401843236920
:101A90000B40217D1843C907C90F0843A169931062
:101AA00019400843E169382319400843216A80231B
:101AB00019400843A16A930019400843216808604F
:101AC000A0690421000C0840616A102319400843F2
:101AD000216848602068C1699143C1616565012042
:101AE00070740020F8BD0000003001400038004054
:101AF0002E2E2F447269766572732F53544D3332F4
:101B00004C3078785F48414C5F4472697665722F3B
:101B10005372632F73746D33326C3078785F686101
:101B20006C5F7370692E630010B586B00446142193
:101B30006846FEF7FCFA0F492068884217D10E4824
:101B4000416B821411434163C26A02210A43C2629B
:101B5000C06A0191084005903820009000210320C0
:101B600002910491039069460448FFF71BFC06B0FC
:101B700010BD000000300140001002400004005081
:101B8000FFB50446C068002781B01D46002806D076
:101B90000298C00703D0524952A003F00EF8FF216B
:101BA0002646606805314036884202D1A068002888
:101BB0000CD0307C012814D001203074FFF76AFD6E
:101BC0000090707C01280ED0022781E00420707400
:101BD000029A009511462046039B00F083F905B058
:101BE000F0BD0220FBE70298002870D0039800287F
:101BF0006DD004207074002060650299A163039980
:101C0000A1870399E1872063A086E0862064606451
:101C10000122A068D2034021904208D120680268C6
:101C20008A430260206802680B029A4302602068BF
:101C30000268520602D402680A430260E068002883
:101C400019D035E020688168C90709D0017BA06BF5
:101C50000170A06B401CA063E08F401EE0870AE08B
:101C6000FFF718FD0099401AA84202D3681C02D061
:101C700034E0002D32D0E08F0028E3D11BE0206853
:101C80008168C90709D0C068A16B0880A06B801C5F
:101C9000A063E08F401EE0870AE0FFF7FBFC00999D
:101CA000401AA84202D3681C02D017E0002D15D0BC
:101CB000E08F0028E3D129462046009A02F020FC5C
:101CC000002801D020206065606D002800D0012729
:101CD0000120707400203074384680E70327F7E74E
:101CE000C30300002E2E2F447269766572732F5342
:101CF000544D33324C3078785F48414C5F447269C0
:101D00007665722F5372632F73746D33326C307833
:101D1000785F68616C5F7370692E6300FFB504467D
:101D2000C068002781B01646002806D00298C00778
:101D300003D05D495DA002F040FFA068002808D0F4
:101D40000121C903884204D0574958A0091D02F057
:101D500034FF25464035287C012809D0012028740D
:101D6000FFF798FC0090687C012804D0022795E0DA
:101D7000022005B0F0BD0298002872D0002E70D06D
:101D8000032068740020606502992163A686E686B8
:101D9000A063A087E087606420640120A268C0037C
:101DA0004021824208D1206802688A43026020688C
:101DB00002680B021A43026020680268520602D4CD
:101DC00002680A4302600120E168C0028142606843
:101DD00026D1002801D0012E1ED1206B2168008859
:101DE000C86006E020688168890709D5216B0988E9
:101DF000C160206B801C2063E08E401EE0860BE0FB
:101E0000FFF748FC0099411A0498814202D3401C14
:101E100002D039E0002837D0E08E0028E2D126E059
:101E2000002801D0012E1FD1206B21680078087393
:101E300006E020688168890709D5216B097801735C
:101E4000206B401C2063E08E401EE0860CE0FFF714
:101E500021FC0099411A0498814203D3401C03D00D
:101E600012E01AE000280FD0E08E0028E1D12046D1
:101E7000009A049902F072FB002801D020206065CE
:101E8000A068002802D005E0032707E02068C168A9
:101E900080680090606D002800D0012701206874E0
:101EA00000202874384664E7150300002E2E2F44C6
:101EB0007269766572732F53544D33324C30787893
:101EC0005F48414C5F4472697665722F5372632F8D
:101ED00073746D33326C3078785F68616C5F7370E7
:101EE000692E6300FFB5044683B0012001900020F5
:101EF0000090E0680C9F1D4600280ED00498C00793
:101F000003D0814981A002F058FE0598C00704D093
:101F10009321C9007DA002F050FEA068002804D0E3
:101F200079497AA0491D02F048FE26464036307CA9
:101F300001280FD001203074FFF7ACFB0290707CB9
:101F4000616801280DD0CA1FFD3A08D1A168002997
:101F500005D102E0022007B0F0BD042801D0022024
:101F6000C2E00498002828D00598002825D0002D2C
:101F700023D0707C042801D0052070740020606597
:101F80000599A163E587A58704992163E586A58660
:101F90002064606420680168490603D40168402217
:101FA000114301600121E068C9028842606847D19D
:101FB000002804D0012D02D03BE0012094E0206BEA
:101FC00021680088C860206B801C2063E08E401E62
:101FD000E0862EE020688168890710D5E18E00290F
:101FE0000DD0019901290AD1216B0988C160206BAC
:101FF000801C2063E08E401EE08600200190206857
:102000008168C9070DD0E18F00290AD0C068A16B93
:102010000880A06B801CA063E08F401EE087012039
:102020000190FFF737FB0299401AB84201D3781CA0
:1020300059D1E08E0028CDD1E08F0028CAD146E0EA
:10204000002801D0012D3CD1206B21680078087355
:10205000206B401C2063E08E401EE08631E020684B
:102060008168890710D5E18E00290DD001990129D9
:102070000AD1216B09780173206B401C2063E08E2C
:10208000401EE0860020019020688168C9070DD0BD
:10209000E18F00290AD0C068A16B0870A06B401CBA
:1020A000A063E08F401EE08701200190FFF7F2FA65
:1020B0000299401AB84202D3781C02D013E0002FD4
:1020C00011D0E08E0028CAD1E08F0028C7D1394650
:1020D0002046029A02F042FA002807D00120009020
:1020E0002020606509E00320009006E0A068002839
:1020F00003D12068C16880680190012070740020BD
:102100003074009827E70000970400002E2E2F441B
:102110007269766572732F53544D33324C30787830
:102120005F48414C5F4472697665722F5372632F2A
:1021300073746D33326C3078785F68616C5F737084
:10214000692E6300094910B5401E884201D901205B
:1021500010BD074C60610321081F02F0FDFC002048
:10216000A06107202061002010BD0000FFFFFF00DC
:1021700000E000E0FEE7000010B5044948700007E9
:10218000020E1021002002F043FC10BD7800002058
:102190004008800510B5020C1021002002F038FC28
:1021A00010BD0000014940208861704700040050C4
:1021B00010B50648012240781203002800D0920092
:1021C0001021022002F024FC10BD00007800002045
:1021D00010B500F029F83220FFF7DAFF0020FFF7F2
:1021E000CBFF0F2000F016F807490848FFF7E0FF83
:1021F00002F0ACFE0648026801210A430260C26890
:102200000A43C26010BD00001A4100001027000000
:102210000010004010B5034A1021012002F0F8FB25
:1022200010BD0000FFBF000010B5012212031021F5
:10223000002002F0EDFB10BD70B505462F480026CA
:102240000C46854204D0FF21E6312DA002F0B5FCFA
:1022500001212068C90788420CD04908884209D06A
:102260004942884206D0002804D0FF21E83124A04A
:1022700002F0A3FC606800280AD0082808D01028C3
:1022800006D0182804D0FF21E9311DA002F095FCEA
:10229000A068002806D0202804D0FF21EA3118A029
:1022A00002F08BFCE06800280FD0012189038842EE
:1022B0000BD04900884208D003218903884204D00A
:1022C000FF21EB310EA002F078FCA868C007C00F18
:1022D00002D00126304670BDA1686068EA680843F4
:1022E000E168154B1A4011430843E86028692168EA
:1022F0008000800808432861ECE7000000240140CA
:102300002E2E2F447269766572732F53544D3332DB
:102310004C3078785F48414C5F4472697665722F23
:102320005372632F73746D33326C3078785F6C6CDA
:102330005F6164632E630000C73FFFFF70B5054611
:10234000404800260C46854204D0912189003EA0D9
:1023500002F033FC2168002923D001208002814251
:102360001FD01120800181421BD00920C001814271
:1023700017D013208001814213D005200002814232
:102380000FD01520800181420BD00B20C00181426B
:1023900007D017208001814203D039492AA002F0DA
:1023A0000CFC6068002808D001210904884204D090
:1023B000334925A0491C02F000FCA068002808D081
:1023C00001214903884204D02D491FA0891C02F035
:1023D000F4FBE068002808D0012806D0032804D0C8
:1023E0004921C90018A002F0E8FB2069002808D0A4
:1023F00001210903884204D0214913A0091D02F0DC
:10240000DCFBA068002807D06068002804D01C49C5
:102410000DA0083102F0D1FBA868C007C00F02D0A0
:102420000126304670BD03CC626808432168114321
:102430000843A1680843E968124A11400843E8606C
:10244000EFE70000002401402E2E2F4472697665CC
:1024500072732F53544D33324C3078785F48414C6F
:102460005F4472697665722F5372632F73746D3394
:10247000326C3078785F6C6C5F6164632E6300004F
:10248000450200003CC2FEFF08B504498A6B0243C6
:102490008A63896B0140009108BD00000010024072
:1024A00008B504494A6B02434A63496B01400091F5
:1024B00008BD00000010024070B5094E04467118B6
:1024C0002039049D0C34CE7F0830102D03D03250BB
:1024D000C87F035170BD3251C97F0B5070BD0000E1
:1024E000A8520008044A51182039C97F42580123D4
:1024F0001A43425070470000A8520008044A51187D
:102500002039C97F425802231A43425070470000C5
:10251000A8520008044A51182039C97F425808239C
:102520001A43425070470000A8520008054B10B5EE
:1025300059182039C97F435803242403A343134364
:10254000435010BD80520008054B59182039C97FEF
:10255000001D0B581B0C1B0413430B50704700004D
:10256000A8520008054B10B559182039C97F4358A7
:10257000034C23401343435010BD00008052000819
:10258000EFBFFFFF054B10B559182039C97F4358DD
:102590008024A3431343435010BD00008052000821
:1025A000054B10B559182039C97F43580324A4029C
:1025B000A3431343435010BD80520008054B10B590
:1025C00059182039C97F43582024A343134343504B
:1025D00010BD000080520008054B10B55918203975
:1025E000C97F43584024A3431343435010BD000008
:1025F0008052000810B589000F24091F8C408030DC
:10260000836A8A40A3431343836210BD054B10B510
:1026100059182039C97F435803242402A343134384
:10262000435010BD80520008FEB505460520002726
:1026300000070E46854212D0584885420FD05848B0
:1026400085420CD05748854209D05748854206D06C
:102650005648854203D0A32155A002F0AEFA306857
:102660006149401E884203D9A42151A002F0A5FA75
:102670007068002809D0012807D0022805D0032857
:1026800003D0A5214AA002F098FA3069002807D0AB
:1026900001287ED002287CD0A62145A002F08DFA28
:1026A00077E00120B840044072D07068012801D062
:1026B000022826D1B068002809D0012807D00228B6
:1026C00005D0032803D0B72139A002F076FAB2680A
:1026D000A968204660434300C3189943504301430F
:1026E000A960F068002805D0012803D0BD2130A0E2
:1026F00002F063FA3168F0686A688A4341430A432A
:102700006A603269E968204660434300C31800905C
:102710009943504301930143E960706802282FD127
:102720007069002811D001280FD002280DD003288D
:102730000BD0042809D0052807D0062805D0072883
:1027400003D0C9211AA002F038FAFF2C0BD8716906
:102750002A6A00986043604303011B1A9A43484366
:1027600002432A620CE0200A0146414341434143AF
:102770000801431A7269686A5143984308436862C2
:1027800070682B68019A0099934341430B432B6077
:102790007F1C34682046F84083D1FEBD0004005001
:1027A00000080050000C005000100050001C0050A9
:1027B0002E2E2F447269766572732F53544D333227
:1027C0004C3078785F48414C5F4472697665722F6F
:1027D0005372632F73746D33326C3078785F6C6C26
:1027E0005F6770696F2E6300FEFF00000069814320
:1027F00001D00020704701207047000008B504494F
:10280000CA6A0243CA62C96A0140009108BD000059
:102810000010024008B50449CA6A0243CA62C96A84
:102820000140009108BD00000010024010B50446B0
:1028300001F0D0FD206001F0A7FD606001F0B2FD65
:10284000A060606801F0BAFDE06010BDF8B5224DEF
:1028500001270024AE00FF03032816D00C2804D063
:10286000FC211EA002F0A9F931E000F057F8294937
:1028700040182ED0042819D0082823D001F0AAFD32
:1028800001F082FD01F08EFD0EE000F047F82249D4
:1028900040181ED0012809D0022813D001F09AFD5B
:1028A00001F072FD01F08AFD044610E000F03EF8F0
:1028B00000280CD000F042F8002801D02C4606E099
:1028C000344604E000F042F8002800D03C462046A0
:1028D000F8BD01F07FFDE7E700093D002E2E2F44F3
:1028E0007269766572732F53544D33324C30787859
:1028F0005F48414C5F4472697665722F5372632F53
:1029000073746D33326C3078785F6C6C5F726363B4
:102910002E630000FCFFF3FFFFFFFCFF0249C968C4
:10292000014000040843704740100240024800681C
:102930004007C00F704700000010024002480068C6
:10294000C006C00F70470000001002400248006936
:102950008005C00F704700004010024010B5029C77
:1029600049032406240A1B0621431B0C1943D2B237
:1029700011434268024B1A400A43426010BD0000F6
:10298000C00000FFF8B505465848012714460E461A
:10299000854204D0FF21723155A002F00EF9002EBD
:1029A0005AD0012E04D0FF21733151A002F005F955
:1029B000E0780A22010900075143000F0818C0B24D
:1029C000632804D9FF21813149A002F0F6F860782C
:1029D0000A22010900075143000F0818C0B2401E27
:1029E0000B2804D9FF21823141A002F0E6F8A0783B
:1029F0000A22010900075143000F0818C0B2401E07
:102A00001E2804D9FF21833139A002F0D6F820789E
:102A1000012810D002280ED003280CD004280AD098
:102A2000052808D0062806D0072804D0FF218531C4
:102A30002FA002F0C2F8CA206862532068622846BC
:102A400000F072F8012848D0E078002E23D00090E2
:102A50006378A278217835E06078C10603D5EF214C
:102A600008400A306070E078632804D9FF217B3188
:102A70001FA002F0A2F86078401E0B2804D9FF21A5
:102A80007C311BA002F099F8A078401E1E28BED908
:102A9000FF217D31B8E70A21FDF72CFB0001084337
:102AA000C7B260780A21FDF725FB00010843C6B2D2
:102AB000A0780A21FDF71EFB00010843009721784A
:102AC000C2B233462846FFF749FF8020C043E86082
:102AD000A8688006C00F04D00027FF20686238462F
:102AE000F8BD284600F0D4F90746F6E70028004074
:102AF0002E2E2F447269766572732F53544D3332E4
:102B00004C3078785F48414C5F4472697665722F2B
:102B10005372632F73746D33326C3078785F6C6CE2
:102B20005F7274632E63000038B504467D20C000D8
:102B3000009014480025844204D01721490112A0B6
:102B400002F03BF8E0684006C00F0AD1401EE0608A
:102B5000E06800994006C00F002902D018490028FB
:102B600001D0284638BD0869C003C00F02D00098C4
:102B7000401E0090E068009A4006C00F002AEED187
:102B80000125EEE7002800402E2E2F44726976655D
:102B900072732F53544D33324C3078785F48414C28
:102BA0005F4472697665722F5372632F73746D334D
:102BB000326C3078785F6C6C5F7274632E630000E7
:102BC00000E000E070B50446224801260D4684422C
:102BD00003D0CF2120A001F0F0FF2868002805D005
:102BE000402803D0D0211CA001F0E7FF68687F28AF
:102BF00003D9D12118A001F0E0FF2549A868884237
:102C000003D9D22114A001F0D8FFCA20606253205A
:102C100060622046FFF788FF012817D02968A06866
:102C2000402290430843A060A8682169C90BC903EA
:102C300001432161A98820697F221204904309047D
:102C4000084320618020C043E0600026FF206062CE
:102C5000304670BD002800402E2E2F4472697665E4
:102C600072732F53544D33324C3078785F48414C57
:102C70005F4472697665722F5372632F73746D337C
:102C8000326C3078785F6C6C5F7274632E63000016
:102C9000FF7F00001206120A10B50A431906090C3C
:102CA000029C0A43E1B20A430168024B19401143F6
:102CB000016010BD808080FFF8B50546654801279A
:102CC00014460E46854204D0FF210B3162A001F06C
:102CD00074FF002E24D0012E04D0FF210C315EA001
:102CE00001F06BFFA8684021084248D020790A22F1
:102CF000010900075143000F0818C0B2401E0B28FD
:102D000004D9FF21213154A001F057FF2068002889
:102D100046D001218905884242D0FF2122313CE082
:102D2000A8684021084212D02079401E0B2804D9FF
:102D3000FF21123148A001F040FF2068002810D088
:102D40000121890588420CD0FF21133106E00020C3
:102D500020602079172804D9FF2118313EA001F006
:102D60002CFF60793B2804D9FF211A313AA001F0E9
:102D700024FFA0793B2831D9FF211B312BE0002013
:102D8000206020790A22010900075143000F08182A
:102D9000C0B2172804D9FF2127312FA001F00DFF61
:102DA00060790A22010900075143000F0818C0B2D8
:102DB0003B2804D9FF21293127A001F0FEFEA0798C
:102DC0000A22010900075143000F0818C0B23B282E
:102DD00004D9FF212A3120A001F0EFFECA20686249
:102DE000532068622846FFF79FFE012829D0A0796A
:102DF000002E04D0009063792279216816E00A2120
:102E0000FDF778F900010843C7B260790A21FDF7A0
:102E100071F900010843C6B220790A21FDF76AF969
:102E20000001084300972168C2B233462846FFF7E5
:102E300031FF8020C043E860A8688006C00F04D03E
:102E40000027FF2068623846F8BD284600F020F8C9
:102E50000746F6E7002800402E2E2F44726976655B
:102E600072732F53544D33324C3078785F48414C55
:102E70005F4472697665722F5372632F73746D337A
:102E8000326C3078785F6C6C5F7274632E63000014
:102E9000F8B504467D26F6001E48002500968442BB
:102EA00003D01D491DA001F088FEE0688021084084
:102EB000A138E060E068009A8006C00F2549002A2A
:102EC0000CD10DE00869C003C00F01D0501E009066
:102ED000E068009A8006C00F002A19D00028F1D1BE
:102EE000002D13D10096E0688006C00F0CE0086941
:102EF000C003C00F02D00098401E0090E068009A06
:102F00008006C00F002A03D00028F0D02846F8BD64
:102F10000125FBE700280040270300002E2E2F4448
:102F20007269766572732F53544D33324C30787812
:102F30005F48414C5F4472697665722F5372632F0C
:102F400073746D33326C3078785F6C6C5F7274635D
:102F50002E63000000E000E00149086070470000B7
:102F60000C000020006A814301D00020704701203E
:102F70007047000010B5012917D0102917D0CB1FBA
:102F8000F93B10D006210B4B18305B5C1818036816
:102F9000084C0E34615C03248C40120CA3438A401D
:102FA0001343036010BD0421EDE70021EBE702218C
:102FB000E9E700006452000810B5012917D0102974
:102FC00017D0CB1FF93B10D006210B4B18305B5CA0
:102FD00018180368084C0E34615CF0248C40120C05
:102FE000A3438A401343036010BD0421EDE7002191
:102FF000EBE70221E9E700006452000810B501295F
:1030000011D0102911D0CB1FF93B0AD00623016A39
:10301000074CE35C0A249C40A1439A40114301629F
:1030200010BD0423F3E70023F1E70223EFE70000DC
:103030007952000810B5012917D0102917D0CB1FDD
:10304000F93B10D006210B4B18305B5C1818036855
:10305000084C0E34615C0C248C40120CA3438A4053
:103060001343036010BD0421EDE70021EBE70221CB
:10307000E9E7000064520008F8B504460120800723
:103080002D4E2E4F0D46844210D0B4420ED02C4807
:1030900084420BD02B48844208D0BC4206D02A4838
:1030A000844203D0E42129A001F087FD686800284C
:1030B0000BD0102809D0402807D0202805D0602840
:1030C00003D0E52121A001F078FDE86800280AD0AE
:1030D000C11FF93907D0C11FFF39FA3903D0E621E2
:1030E0001AA001F06AFD2068012189078C4206D0F0
:1030F000B44204D0BC4202D0134A944203D170229D
:1031000090436A6810438C4206D0B44204D0BC425B
:1031100002D00D498C4204D1032109028843E96899
:1031200008432060A868E0622888A06260690121E5
:10313000084360610020F8BD000400400008014021
:103140000010004000140040001401402E2E2F44B7
:103150007269766572732F53544D33324C307878E0
:103160005F48414C5F4472697665722F5372632FDA
:1031700073746D33326C3078785F6C6C5F74696D2A
:103180002E630000034610B5012001290DD010293F
:1031900010D0FF39491E12D00F242402A14203D1BE
:1031A0001146184601F03EF810BD1146184600F0D1
:1031B000C5FE10BD1146184600F03EFF10BD114679
:1031C000184600F0B9FF10BD8268024B1A400A434E
:1031D00082607047F8BFFFFF426870239A430A433A
:1031E00042607047F0B504466748012685B00D4639
:1031F00084420CD06548844209D06548844206D098
:103200006448844203D0C42163A001F0D6FC714914
:103210002868884203D9C5215FA001F0CEFC0121B6
:10322000090768680F14884207D0002805D0B84203
:1032300003D0C62158A001F0C0FC39460327A86876
:103240003F0388420BD0002809D0B84207D00121A3
:103250004903884203D0C7214FA001F0AEFCE868C3
:1032600000280BD001218902884207D0032149029E
:10327000884203D0C82148A001F09FFC286900289B
:1032800009D0042807D0082805D00C2803D0C9216C
:1032900041A001F092FC686900280ED0C11FF939E5
:1032A0000BD0C11FFF39FA3907D003210902884228
:1032B00003D0CA2138A001F080FCA869002807D0FB
:1032C0000121C903884203D0CB2133A001F075FC52
:1032D0002068C007C00F53D1E9686868AA6908432D
:1032E00029691143084321683B4A11400843206083
:1032F000A9686068B843084360606969A0680322F0
:10330000120290430843A0601F48844201D1032069
:1033100003E01E48844203D10C20FFF797FA09E02E
:103320001B48844202D01B48844229D16846FFF7DB
:103330007DFA0298002823D02968002920D0012393
:10334000AA690026DB039A420CD140004A08801883
:10335000FCF7D0FE81B2214808400907490F01431C
:10336000E16005E04A081018FCF7C4FE80B2E06096
:10337000E068102804D2FF21213107A001F01DFCD4
:10338000304605B0F0BD0000003801400044004068
:10339000004C0040005000402E2E2F44726976658C
:1033A00072732F53544D33324C3078785F48414C10
:1033B0005F4472697665722F5372632F73746D3335
:1033C000326C3078785F6C6C5F75736172742E63E9
:1033D0000000000000093D00F369FFEFF0FF00006E
:1033E00008B506490A690092421C00D0401C0A69CF
:1033F000D20300D5401E0028F9D108BD00E000E04E
:1034000030B5214C226852043CD42268120539D4CC
:103410000A68D207D20F35D101231C4A9B0393625D
:103420002368D5022B4323601301936122681B029A
:103430001A432260042305221207936223682D0198
:103440002B43236023688025AB4323602368AD02B0
:103450002B4323600223936222681B039A4322605A
:103460000B4B14221A600C4B0A4A1A606422C26287
:1034700000F070FF20686910084320602068C911BF
:103480000843206030BD00003C00002000080050D0
:1034900044000020181500004800002070B5204CA2
:1034A000226852043BD42268D20438D40A68D20776
:1034B000D20F34D101231B4A9B0393622368D502A8
:1034C0002B4323601501956122682B021A43226069
:1034D00004230522120793622368EE02334323601C
:1034E00023688026B34323602368AE003343236000
:1034F0000223936122681B031A4322600A4B1422A1
:103500001A600B4B094A1A606422C26200F022FF63
:103510002068284320602068E9110843206070BDBE
:103520003C00002000080050440000201815000056
:103530004800002070B51F4A12680124A4031E4BE6
:10354000142A2FD81A68A2431A601A6880252A43C1
:103550001A601A686500AA431A601A68A600B24386
:103560001A601A68E600B2431A601A68A611B243DC
:103570001A601A686611B2431A60042205263607DB
:10358000B2611A682603B2431A6000F0C1FE0B480C
:1035900084611968C20291431960856218685100FC
:1035A000884318601868000602D418682043186021
:1035B00070BD0000440000203C00002000080050C6
:1035C00070B590B014216846FCF7B1FD0025059553
:1035D00006950795182109A80895FCF7A8FD2F481E
:1035E0000121426B49020A434263426B0A400F9237
:1035F000C26A01210A43C262C06A0E4608400F90A7
:1036000003200A900991052009A90D950007FFF7ED
:103610000BF8234CA06A3043A062009501950295F7
:103620000395694620460495FEF788FE6069C00848
:10363000C00060612069400840002061E16804200A
:103640008143E160174A1168C305994311606168BD
:10365000814361606068082188436060C806059006
:103660000695079505A908952046FEF7E5FDA06893
:103670000D490840012109070843A0600C480B4987
:103680000068FCF737FD0A214843FCF733FD00E0F2
:10369000401E0028FCD110B070BD00000010024098
:1036A0000024014008270140E8FFFF7F400D030090
:1036B0000C00002008B50A480121026B0A4302638E
:1036C000006B0840074900900868FF2212049043ED
:1036D0000122D2051043086003495013086008BD59
:1036E0000010024008E400E000E100E0F0B587B01F
:1036F00018216846FCF71BFD0420FFF77FF88020A7
:10370000FFF77CF80120FFF779F80220FFF776F841
:10371000012186484903816248008449886240004B
:103720008862022005263607B0620420B0620820B5
:10373000B0621020B0624020B0628020B0627C4F46
:103740000220B8620420B8624002B0624000B06259
:10375000C000B0624020B8628020B8624000B86209
:103760004000B862002400010125009002940394F7
:103770006946019504946D48FEF756FFA803009032
:10378000029403946946019504946848FEF74CFF3F
:10379000E8030090029403946946019504946348F9
:1037A000FEF742FF0220009003200290019503944F
:1037B000694604943046FEF737FF0420009003204A
:1037C000029001950394694604943046FEF72CFF5D
:1037D0000820009003200290019503946946049408
:1037E0003046FEF721FF10200090029403946946B2
:1037F000019504943046FEF717FF40200090029494
:1038000003946946019504943046FEF70DFF80202D
:103810000090029403946946019504943046FEF7A3
:1038200003FF0220009002940394694601950494DA
:103830003846FEF7F9FE042000900294039469468E
:10384000019504943846FEF7EFFE28030090694680
:10385000049501943846FEF7E7FE68030090694638
:10386000049501943846FEF7DFFEA80300906946F0
:10387000049501943846FEF7D7FEE80300906946A8
:10388000049501943846FEF7CFFE2802009001947B
:10389000694604943046FEF7C7FEE80200900294A1
:1038A00003946946019504943046FEF7BDFE280353
:1038B0000090029403946946019504943046FEF703
:1038C000B3FEE803009002940394694601950494C2
:1038D0003046FEF7A9FE402000900294039469460A
:1038E000019504943846FEF79FFE802000900294D4
:1038F00003946946019504943846FEF795FE280224
:103900000090029403946946019504943846FEF7AA
:103910008BFE68020090029403946946019504941A
:103920003846FEF781FE07B0F0BD000000080050E9
:103930000004005070B586B0002418480394009429
:103940000194029401690122920411430161144916
:103950000868FF22130498430860012511490420D8
:1039600008607F20104E049003A905923046FFF7AF
:1039700029F969460C714C718C716A4600213046F8
:10398000FFF79AF969460D724D728D72CC7202AAD8
:1039900000213046FEF7F6FF06B070BD4010024031
:1039A00000E400E000E100E00028004010B50F480E
:1039B0000D490160FF210531416000218160C16036
:1039C0000122426101615202826101621822416258
:1039D000C26181620721C162FDF77CFF002801D02E
:1039E000FDF72EFB10BD0000003001409C000020C0
:1039F0007FB5002400940194029404200394FEF700
:103A00004FFD0221142001F085F8142001F06AF81E
:103A10001F2069460880019403940A200A4C0290F2
:103A20002046FFF729FB20688025284320600021DD
:103A30002046FFF7C9FB00212046FFF7CDFBA06819
:103A4000A843A0607FBD0000000801407FB50024AE
:103A500000940194029420200394FEF721FD00219C
:103A6000162001F057F8162001F03CF81F20694697
:103A70000880019403940A200A4C02902046FFF724
:103A8000FBFA206880252843206000212046FFF7AC
:103A90009BFB00212046FFF79FFBA068A843A06086
:103AA0007FBD00000014014030B58BB000240694A7
:103AB00007940894182168460994FCF738FB012004
:103AC000FEF7E2FC0120FEF7A5FE0220FEF7A2FEB3
:103AD0002020009005200225059002940394019572
:103AE000049469460007FEF79FFD68020595009063
:103AF000029403940195694604943148FEF794FDBD
:103B000000210F2001F006F80F2000F0EBFF2D48F8
:103B1000694608832C480794099408906C0706A905
:103B20002046FFF7A9FA20688025A84320600021DD
:103B30002046FFF749FBA0685021702290430843BC
:103B4000A060A1680420C908C9000143A160002247
:103B500001212046FFF730FA002201212046FFF71D
:103B60004DFAE06840218843E060E068090288433C
:103B7000E06000212046FFF72FFBA068A843A0606B
:103B8000A21301212046FFF7F5F90022012120466A
:103B9000FFF750FA621310212046FFF7EBF90022DD
:103BA00010212046FFF746FA002210212046FFF799
:103BB00003FA022210212046FFF720FA0BB030BD95
:103BC000000400507F0C0000FFFF0000F0B591B032
:103BD00000240C940D940E940F9401940294039479
:103BE000182105A80494FCF7A2FA0220FEF74CFC69
:103BF0000320694608862448244E0E900D940CA993
:103C00000F943046FFF738FA3168802081433160E5
:103C100000213046FFF7D8FA1D48B11502791B483C
:103C20001830151828681A4AD21D137908229A40AC
:103C300010432860602002270190029401AA049793
:103C400003943046FFF79EFA29681148C01D027997
:103C5000042090408143296000213046FFF7BCFAE0
:103C6000B06880218843B0600220FEF7D3FD0120B8
:103C70000A97059007940894069705A909940548A2
:103C8000FEF7D2FC11B0F0BDCF07000000040040E9
:103C900064520008000400507FB500240094019491
:103CA000029410200394FEF7EFFB0121112000F095
:103CB00031FF112000F016FF0A4869460880019480
:103CC00009480A4C02902046FFF7D6F92068802563
:103CD0002843206000212046FFF77EFAA068A84311
:103CE000A0607FBDFF7C0000F620000000100040B7
:103CF0007FB5002400940194029420200394FEF7E1
:103D0000C3FB0121122000F005FF122000F0EAFEA3
:103D10000B48694608807D200194C000094C029040
:103D20002046FFF7A9F9206880252843206000215C
:103D30002046FFF751FAA068A843A0607FBD0000AD
:103D4000FF7C000000140040F0B58FB01C2106A8D5
:103D5000FCF7EDF918216846FCF7E9F95148012113
:103D6000426B89030A434263426B0A400D92C26A66
:103D700001210A43C262C06A002408400D90480233
:103D800004270225032603946A460597049461C21A
:103D9000052069460007FEF747FC680203946A465F
:103DA0000597049461C2052069460007FEF73CFCB4
:103DB0003D4D032211462846FEF71CFC002203213C
:103DC0002846FEF7CFFBAE14324603212846FEF705
:103DD000ADFB002203212846FEF7F0FB0022032161
:103DE0002846FEF7F9FB802203212846FEF7CAFB8E
:103DF000002203212846FEF709FC00220321284661
:103E0000FEF7CEFB032202212846FEF7F3FB102229
:103E100002212846FEF7A6FB324602212846FEF77D
:103E200085FB002202212846FEF7C8FB0022022162
:103E30002846FEF7D1FB802202212846FEF7A2FB8E
:103E4000002202212846FEF7E1FB0022022128463B
:103E5000FEF7A6FB154801680902090A020711438B
:103E600001600125124910090860E1204002069016
:103E70000794089409940B940C940C200D4C0A9010
:103E800006A92046FFF7AEF960680921C9028843F8
:103E90006060A0682A218843A060206828432060D1
:103EA0000FB0F0BD001002400000024018E400E036
:103EB00000E100E00038014070B51A4C0646206869
:103EC0000D46000517D53046FFF734FB2068400645
:103ED00010D52946304600F01BFA2068402188435F
:103EE00020601249104808601149142008601149E7
:103EF0000020087070BD2868C007C00FFAD1106894
:103F00004008400010607D20C000FFF769FA294694
:103F10003046FFF775FA2068012149020843206006
:103F200070BD00003C00002048BE0800400000209A
:103F3000440000204C0000207047000070B504468B
:103F4000012080070D4684420DD02A4884420AD0C1
:103F50002948844207D02948844204D0FF21E43113
:103F600027A000F02AFE2868002812D0102810D0C0
:103F700020280ED030280CD040280AD0502808D055
:103F8000602806D0702804D0FF21E5311CA000F085
:103F900014FE6868002806D0012804D0FF21E6310D
:103FA00017A000F00AFEE868002806D0022804D016
:103FB000FF21E73112A000F000FE206A4008400017
:103FC0002062206A6268A169702389088900994388
:103FD0002B68194302239843EB68184340086B6829
:103FE000400018436260A161A968616320620020FB
:103FF00070BD0000000400400008014000140140B2
:104000002E2E2F447269766572732F53544D3332BE
:104010004C3078785F48414C5F4472697665722F06
:104020005372632F73746D33326C3078785F6C6CBD
:104030005F74696D2E63000070B50446012080072F
:104040000D4684420CD02A48844209D02948844233
:1040500006D02948844203D0284929A000F0ADFDAC
:104060002868002812D0102810D020280ED0302820
:104070000CD040280AD0502808D0602806D07028DC
:1040800004D01E491EA0491C00F097FD6868002856
:1040900006D0012804D01121490119A000F08DFD9E
:1040A000E868002806D0022804D0144914A0C91CCE
:1040B00000F083FD206A102188432062206A636833
:1040C000A26973263602B2432E6836023243202696
:1040D000B043EE6836013043884369686360090184
:1040E0000843A261A968A1632062002070BD00009E
:1040F0000004004000080140001401401E020000BE
:104100002E2E2F447269766572732F53544D3332BD
:104110004C3078785F48414C5F4472697665722F05
:104120005372632F73746D33326C3078785F6C6CBC
:104130005F74696D2E63000070B50446012080072E
:104140000D46844206D02748844203D0264927A042
:1041500000F033FD2868002812D0102810D0202845
:104160000ED030280CD040280AD0502808D0602823
:1041700006D0702804D01C491CA0491C00F01DFD6D
:104180006868002806D0012804D0174917A0891CA8
:1041900000F013FDE868002806D0022804D097211B
:1041A000890012A000F009FD206AFF22013290432D
:1041B0002062206A6368E169702689088900B1433A
:1041C0002E6831435600B043EE68360230439043C8
:1041D0006A68636012021043E161A968E1632062CA
:1041E000002070BD00040040590200002E2E2F4414
:1041F0007269766572732F53544D33324C30787830
:104200005F48414C5F4472697665722F5372632F29
:1042100073746D33326C3078785F6C6C5F74696D79
:104220002E63000070B50446012080070D468442CD
:1042300007D02748844204D0A521890025A000F09A
:10424000BCFC2868002811D010280FD020280DD0E1
:1042500030280BD0402809D0502807D0602805D03E
:10426000702803D029491BA000F0A7FC686800282B
:1042700006D0012804D0254916A0491C00F09DFC59
:10428000E868002806D0022804D0204911A0891C23
:1042900000F093FC206A0122120390432062206AFE
:1042A0006368E16973263602B1432E6836023143F2
:1042B0005600B043EE683603304390436A6863604B
:1042C00012031043E161A96821642062002070BDDF
:1042D000000400402E2E2F447269766572732F53AE
:1042E000544D33324C3078785F48414C5F447269AA
:1042F0007665722F5372632F73746D33326C30781E
:10430000785F6C6C5F74696D2E630000950200002D
:104310000268D207D20F03D002685208520002602E
:104320000868C007C00F05D0086840084000086052
:104330000548C86205480078322804D3044801685B
:104340004022114301607047A86100004C0000202A
:104350003C00002010B502680122D24302610468CB
:1043600001231C4304600868904307D10A61086870
:104370001843086002490878401C087010BD00000E
:104380004C000020704700000449C968F022114029
:10439000034A0909515CC840704700000010024000
:1043A000875200080349C968034A4905490F515C0F
:1043B000C840704700100240A05200080349C96875
:1043C000034A8904490F515CC840704700100240FD
:1043D000A052000810B50F49CA680C2002400E48D0
:1043E00005D0042A09D0082A0FD00C2A0FD049681A
:1043F0000904490F491C884010BDFEF79FFA0028A8
:1044000001D0064810BD064810BD064810BD00F09A
:104410000BF810BD001002400080000000093D00B4
:104420000024F40000127A0010B50E4CE06801215F
:104430000904084205D1FEF781FA00280FD00A4A84
:1044400000E00A4AE0680002810FE068084B800241
:10445000000F185C491C5043FBF74CFE10BD054A89
:10446000F0E700000010024000093D0000127A0051
:10447000975200080024F4000548C168C905C90F17
:1044800005D0C16880221140FF398239C160704770
:10449000002800407CB50D00044601D0202D01D934
:1044A00000207CBD00F04AFEA0006946401C087058
:1044B0000024114E4020B0620A2301220F48FDF76C
:1044C0002DFCED080A232A4601A90C48FDF758FBEC
:1044D0004020B061002101A808E06A1A1218203AB1
:1044E000D27FCB009A401419491CC9B28D42F4D82E
:1044F00000F03BFE20467CBD000400509C000020E4
:10450000F8B504464368FF26012005368002B34211
:104510000AD1A3684501AB4201D0834204D123688C
:104520001D684027BD431D6063682025B34210D13C
:10453000A36883420DD000920B46002280212046C2
:1045400000F03CF8002803D0606D2843606503202C
:10455000F8BD00920B4600220121F0E7F8B50446B1
:1045600015480E46154613490068FBF7C3FD7D212B
:10457000C900484300906068C11FFD390ED1334621
:10458000002280212046009500F018F800280FD066
:10459000606D2021084360650320F8BD0098002865
:1045A00006D0401E009020688068C0430006F5D504
:1045B0000020F8BD00366E010C000020FFB581B070
:1045C0001E4604460A9DFDF765F8401B351AFDF7A7
:1045D00061F80746264800684001000D684339E04D
:1045E000701C38D0FDF756F8C01BA84205D2002D2C
:1045F00003D0009800282BD02BE020684168E022EF
:10460000914341606068C11FFD390CD10121A06850
:10461000C903884202D04911884204D12068016848
:104620004022914301600120A16A4003814207D1E9
:1046300021680A6882430A6021680A6802430A60A6
:1046400001204034607400202074032005B0F0BDC8
:104650000025401E0090206881680298884305D09C
:10466000002103988142BBD10020EFE70121F8E748
:104670000C000020704700007D22D200511A89B240
:10468000054B4A1E9A4202D84900491E01E0002902
:1046900000D1C16370470000E703000070470000CD
:1046A00070B5FDF77FFD01201A4C4003A061FDF7B6
:1046B0008FFD01208003A06117480168E202914349
:1046C0000160D111A1610168520011430160134CD6
:1046D00001250220A0610420A0611E20FEF780FEBB
:1046E0000220A0620420A062C820FEF779FE6D1CA3
:1046F000042DEEDD0A48816B02041143816300F052
:1047000079FD00F0F3FA00F087FDFCF7D1FA00F034
:10471000FBFB70BD000800503C000020000400506E
:104720000010024030B50169C907C90F30D001211E
:10473000C9430161184B1868052184040022090748
:10474000164D17481B68002C11DADB040DD44B6999
:1047500008221C46144024049A4314438C610168C7
:10476000002915D00168491E11E0026012E00D4CCD
:104770001B050ED44B6908221D4615402D049A4393
:1047800015438D610168A14202D20168491C016094
:1047900030BD04602A7030BD3C0000204C00002079
:1047A0004000002048BE080070B50125214E2D03B1
:1047B00029463046FEF71AF8014668101E4C0129BA
:1047C000216825D081432160012149033046FEF74D
:1047D0000DF8012820681DD0A8432060012189031D
:1047E0003046FEF703F80146012040070129216801
:1047F000216811D0814321600121C9033046FDF7B2
:10480000F5FF012189070128206820680BD00EE000
:104810000143D8E72843E0E70143216020680421F1
:1048200088432060E8E70843206020680821884327
:10483000206070BD000400503C00002010B5FCF763
:104840002FFF10BD70B54448012102688A430A4316
:1048500002600168C907C90FFBD0404901220868FE
:10486000D2020323DB029843104308603C480268ED
:1048700001231B041A43026002689203D20FFBD08B
:10488000036801221343036003685B07DB0FFBD05F
:1048900043681F242402A3430124240323434360C9
:1048A0002F4C403423691343236122699207D20FAE
:1048B000FBD00A68FF2301331A430A6021690323EE
:1048C0001B0401221940520491420AD0256991002B
:1048D0000D43256125698D43256121699943114364
:1048E000216121690122920411432161C168FD22E5
:1048F00012049143912212041143C1600168012204
:1049000012061143016001688901C90FFBD0C1681B
:10491000F0229143C160C168072212029143C16035
:10492000C168D2009143C160C26803218A430A432F
:10493000C2600C22C16811400C29FBD10948FEF766
:104940000BFB0120FCF7C8FEE06802218008800014
:104950000843E06070BD000000200240007000408D
:10496000001002400048E801104801688215114318
:104970000160C1680E4A1140C16001680D4A1140D2
:104980000160816849084900816001680122920440
:1049900091430160C168FD2212049143C16000216E
:1049A00001610549C00388607047000000100240A3
:1049B0000C40FF88F6FFF6FE00ED00E010B502495E
:1049C0000248FBF791FF10BD0014014000080140B0
:1049D00010B50248FFF7A6FE10BD0000001401400C
:1049E00010B501208007FCF709FB10BD10B5054884
:1049F0000169C907C90F04D00121C943016100F051
:104A0000A5FA10BD001000407047704770470000C5
:104A10007CB516460C00054627D0202C25D800F082
:104A20008DFBA800694608700020E50801A907E091
:104A3000C200131932469A40120E0A54401CC0B2EA
:104A40008542F5D8094C4020A0620A23012269461C
:104A50000748FDF763F90A232A4601A90448FDF730
:104A60005DF94020A06100F080FB7CBD0004005097
:104A70009C0000202021020C01D010211046020AC7
:104A800001D010460839020901D01046091F8208DA
:104A900001D01046891E420801D0881E7047081AAE
:104AA00070470000002809DBC106C90E01208840BC
:104AB00003490860BFF34F8FBFF36F8F704700004B
:104AC00080E100E0002809DBC106C90E0120884012
:104AD00003490860BFF34F8FBFF36F8F704700002B
:104AE00080E100E0002805DBC106C90E01208840F6
:104AF000014908607047000000E100E0002805DB84
:104B0000C106C90E012088400149086070470000B5
:104B100000E100E08307FF22DB0E9A408907090EBF
:104B20009940002808DB830809489B001B18186877
:104B300090430843186070470007000F0838830847
:104B400004489B001B18D86990430843D8617047FC
:104B500000E400E000ED00E08307FF22DB0E9A4056
:104B60008907090E9940002808DB830809489B0043
:104B70001B18186890430843186070470007000F1F
:104B80000838830804489B001B18D86990430843E1
:104B9000D861704700E400E000ED00E002E008C8E2
:104BA000121F08C1002AFAD170477047002001E0A7
:104BB00001C1121F002AFBD17047704770B5174C16
:104BC0002068800229D50121154889038161216867
:104BD000C202914321600101816220680902884379
:104BE000206010490020C86088800F4D014628468B
:104BF000FFF742FD0F20FFF765FF286AA9158843DC
:104C000028623220FEF7ECFB084802218162042171
:104C100081622068C9048843206070BD3C00002088
:104C20000008005050000020000400400004005024
:104C3000F8B528490868002582022748274C002A31
:104C400018DB274B02149A620A68060332430A6093
:104C5000C2139A610B68460333430B60214B1A6001
:104C6000026A83151A43026208685A0310430860F7
:104C7000E560F8BDA188FFF7FFFC1B4EE0683178C6
:104C80007D27FF00884207D2A088B84204D2C01C0A
:104C9000A0800120FEF7A4FB3178E068884205D1AE
:104CA000A088401CA0800120FEF79AFB3178E068C4
:104CB000884207D9A088002809D0801EA080012042
:104CC000FEF78EFBA088002801D0B842D1D9E5605C
:104CD000A580F8BD3C0000200004004050000020EA
:104CE0000008005000E100E03300002010B511483A
:104CF00001680124214301600021FFF7BDFC0F2062
:104D0000FFF7E0FEA007C16802221143C160016AFB
:104D100021430162C16804221143C160026A10216B
:104D20000A430262016821430160C1682143C160F6
:104D300010BD0000000400401B4802691B49002A06
:104D400006D10A78052A03D90A78521E0A7005E0AE
:104D50000269002A06D00269052A03D80169491CA4
:104D6000016170470269052A05D902690F2A02D834
:104D70000A78052A12D802690F2A09D90A780F2A57
:104D800006D90269521C026108780A380870704717
:104D900002690F2AFBD90A78052AF8D90269521C40
:104DA00002610878401EF1E7500000203300002027
:104DB0001B4802691B49002A06D10A78322A03D20D
:104DC0000A78521C0A7005E00269002A06D00269BE
:104DD000032A03D80169491C016170470269032A4B
:104DE00005D902690F2A02D80A78322A12D3026939
:104DF0000F2A09D90A78282A06D20269521C0261B0
:104E000008780A300870704702690F2AFBD90A78BF
:104E1000322AF8D20269521C02610878401CF1E77C
:104E2000500000203300002010B50D4AC1018C183D
:104E30000B4A7F32891800220AE00B78002B04D03D
:104E400090082021081A80B210BD521C92B2491E4F
:104E5000A142F2D2012100F00BF8012010BD0000A8
:104E600080FFFF070149C0014018704780FFFF071E
:104E700038B5084A00230C461360FFF7F3FF94602F
:104E80005060694603480093FCF774F90249012019
:104E9000488038BD3C01002098000020C0018900F6
:104EA0004018074910B54318002001465A181278D7
:104EB000CC00A240491C1043C9B20429F6D310BD4E
:104EC0007CFFFF0770B50F4C064660880D46401CFE
:104ED00060806088202803D901212846FFF7C8FF99
:104EE00001200AE02846FFF7BDFF618832468900AD
:104EF00041180220091FFCF7D5F96070607800287E
:104F0000F0D170BD9800002070B5FCF71DFA0C4C74
:104F100060700125AD022846FFF786FF608061883A
:104F20002846FFF7BBFF6903884201DB054900E023
:104F300005490860207801210843207070BD0000F9
:104F400098000020800000207C000020F8B5664D0D
:104F5000664E0424600041194978285CFFF79AFAEC
:104F6000A10089198039641CE4B20867082CF1D3C8
:104F7000308800B2FBF74EFB00225D4BFBF76AFA6C
:104F8000FBF7B0FB5B4C2061308900B2FBF742FBC2
:104F9000594A5A4BFBF75EFAFBF7A4FB05466061E2
:104FA000F068FBF74BFB564A564BFBF753FAFBF7FF
:104FB00099FBE0610122D205A3691602524993428E
:104FC00005DB8D4203D363687340A36013E08B421B
:104FD00005D3954203DBA368734063600BE04B4F3E
:104FE0008B4202D36E00360E04D05B001B0E02D142
:104FF000954200DB6760464E464F95422BDB616869
:10500000454A914211D9FBF759FB444A444BFBF7FF
:1050100021FA054600916068FBF750FB2A46009B89
:10502000FBF709FAFBF75EFB60603E496068FBF73F
:10503000E2F83D49FBF71CF93C49FBF7D8F8FBF7D0
:105040000BFB411EE060632900D230703878C00746
:1050500046D060682AE08D422FD30021217061681C
:10506000334A914211DAFBF729FB2C4A2C4BFBF710
:10507000F1F905460091A068FBF720FB2A46009B4A
:10508000FBF734F9FBF72EFBA0602A49A068FBF779
:10509000B2F82549FBF7ECF8FBF7DEFAE06064288C
:1050A00000D230703878C0071AD0A068FCF760F8DA
:1050B00001218902FFF706FF12E03878C0070FD000
:1050C000207800280CD1642030701B486060606834
:1050D000FCF74EF801218902FFF7F4FE0120207051
:1050E0006069A061F8BD0000C65200082C010020D4
:1050F0000000094078000020333333333333D33F8B
:10510000B81E85EB51B8AE3F00008080F3FC7F4FA6
:1051100034000020980000200024F4C98BFDCDDA73
:105120005933633F0000C8C2005043480000CA42E0
:105130000024F4490000C842005043C810B50220C2
:10514000FFF7B0FC0A20FFF7ADFC0F20FFF7AAFC29
:105150000F20FFF7A7FC1420FFF7A4FC1620FFF791
:10516000A1FC1B20FFF79EFC10BD10B50220FFF72D
:10517000C5FC0A20FFF7C2FC0F20FFF7BFFC0F2081
:10518000FFF7BCFC1420FFF7B9FC1620FFF7B6FCB4
:105190001B20FFF7B3FC10BDFCF78AFAFFF752FBA8
:1051A000FEF7A4FAFEF7C6FBFEF784FAFEF77CFCD6
:1051B000FEF70CFDFEF770FDFEF79AFDFEF718FCFA
:1051C000FEF744FCFEF7C0FDFEF7FAF9FEF7EEFB32
:1051D000FFF766FA054D064CFBF7BEFBFBF752FCEA
:1051E000FFF7E2FAFBF726FD2560F5E7AAAA000023
:1051F0000030004010B50748FBF7C6FE05481438DC
:10520000FBF7C2FEFBF792FDFBF722FEFBF79CFDCE
:1052100010BD00003000024010B50E48C1680122E8
:105220001143C160C1681143C1600B49CB6813438E
:10523000CB600A4AFEF77EF9FBF778FC0848016864
:1052400001229203914301600168402211430160F1
:1052500010BD00000008014000140140001400408F
:105260003C000020000000000400040000080000D2
:105270000008000008000000080000040008000CFE
:10528000081C3044586C8000000000000000000141
:1052900002030406070809030406080C101820304E
:1052A0000000000001020304081C3044586C8020F8
:1052B00053797374656D0D5472616E73706F72748F
:1052C0006174696F6E200010011002100410051047
:1052D0000610071008180B100C100D100E100F10F0
:1052E000101011103E103F1008530008000000205D
:1052F0009C0000009C4B0008A45300089C00002068
:10530000AC040000AC4B00080100000004000000E9
:10531000000000000000200053797374656D2000C8
:105320000000000000000000205472616E73706F76
:1053300072746174696F6E0D000000280000000037
:105340000000000000000000000000004605000012
:105350001400000000000000000000000000000039
:10536000000000000000000000000000000000003D
:10537000000000000000000000000000000000002D
:10538000000000000000000000000000000000001D
:10539000000000000000000000000000000000000D
:0453A0000000010008
:04000005080000C12E
:00000001FF
