:020000040800F2
:1000000040050020D9000008C53D00080120000877
:1000100000000000000000000000000000000000E0
:100020000000000000000000000000000145000882
:10003000000000000000000011420008A546000872
:10004000EB000008EB00000805430008EB00000887
:10005000EB000008EB000008EB000008EB000008D4
:10006000EB000008EB000008C90B0008EB000008DB
:10007000EB000008EB000008EB000008494800080E
:10008000EB00000855480008714800080000000017
:1000900025480008EB00000839480008EB0000087C
:1000A000EB000008EB000008EB00000875480008B2
:1000B000EB000008EB00000800000000EB00000867
:1000C0000448854600F016FB004800478D4F0008A5
:1000D000C046C04640050020044880470448004709
:1000E000FEE7FEE7FEE7FEE7FEE7FEE7D147000892
:1000F000C100000830B50B46014600202022012433
:1001000009E00D46D5409D4205D31D469540491B4B
:100110002546954040191546521E002DF1DC30BD94
:10012000D2B201E00270401C491EFBD2704700228F
:10013000F6E710B513460A4604461946FFF7F0FFE6
:10014000204610BDF0B507460846584087B0C00F9E
:10015000049048000E46590040084908BC1A8841DE
:1001600005D2384631461E4617460B460246580011
:10017000400810434DD0300D039040055900400D0C
:10018000490D0590401A0290402873DA18030121A6
:10019000000B09050843019004980092002806D03E
:1001A0001146019A49420020904100910190029825
:1001B00040210A1A0199009800F0C8F905460C463A
:1001C0006B4607CB00F0E3F9C0197141039A0E0D9D
:1001D0000023D71756401A467A40164344D0049A53
:1001E000002A2DD0029A012A039A15DC1205C01AA2
:1001F000914101263605001C7141D20F059ED207A0
:100200000093019202962A46234600F021FA07B095
:10021000F0BD38463146FAE71605234A0F46B218B4
:10022000C01AB74101210905001C4F4100187F4148
:10023000114618187941E20F10436D19644113E01B
:10024000E2076D0815436408C2071443039A0126A8
:100250001205C01A91413605001C7141CE074008B5
:1002600030434908C01851412A46234600F0E3F9BB
:10027000CDE7FFE7049801224000C117121A0023BE
:100280008B4104983146C417381AA141EEE730B4C7
:100290000124E407634030BC54E730B40124E40790
:1002A000614030BC4EE700000000E0FFF0B51FB435
:1002B00088B00B990998002448400999C00F49005B
:1002C00049080991C0070B990090490049080B9112
:1002D00009990898A64608431CD00B990A98084328
:1002E00018D0099801244000420D4800410D09989A
:1002F00024050003000B204309900B980003000B1A
:1003000020430B9050181C494018002201901446BD
:10031000104605E0002001460DB0F0BD032801DACB
:10032000034600E003239C46C11A0AAE0AE05F00C0
:1003300008ADED5B4F00F75B7D430027AA187C41B9
:10034000491C5B1E6145F2DD410004AB5A52210499
:10035000120C0A43240C401C0828DFDB0198029091
:100360000099704601910090059B049A07990698A0
:1003700000F06EF9D0E700000DFCFFFFF0B50C4671
:100380005C4085B0E40FE40703944C000026640849
:1003900059009446490802460296224321D06246FB
:1003A0000A431ED06200570D4A000E032303550D69
:1003B000012402462C492405781B1B0B360B4018E0
:1003C00023432643614600901C46501AB44103D390
:1003D0000098401C009002E0921800985B410028B1
:1003E00003DA0020014605B0F0BD00200121090517
:1003F0000746864611E064461D46141BB54106D3E8
:100400006546521BB341744607430C43A646CD07CD
:1004100040084908284392185B4105460D43EAD13C
:100420001046184313D060461946504071400843A7
:1004300006D06046101AB34106D20122002306E01E
:1004400000220123DB0702E00122D243531000986F
:1004500074460105381C6141029C039D00196941E5
:1004600000F0E9F8BFE70000FD0300000EB5C21779
:10047000C10F5040CA0740180021054B029301925A
:1004800000910A460B4600F0E3F803B000BD0000FF
:10049000330400000EB505490291002100910A467F
:1004A0000B46019100F0D4F803B000BD3304000006
:1004B0004A0009030123090B1B051943094B10B519
:1004C000520D9A4201DA002010BD064B34339A4295
:1004D00003DC9A1A00F04AF810BD0349511888400D
:1004E00010BD0000FF030000CDFBFFFFC20FD207CD
:1004F000400040080BD0C10D0723DB01C9184002A2
:100500000905400A1143C208400711437047002003
:1005100001467047CB0FDB07490010B5490802467A
:100520000A4307D00A0D07240903E401090B121B33
:10053000002A01DC002010BDC900440F0C43C1009B
:10054000E018D205801800F035F810BD10B5202A4B
:1005500004DB0146203A9140002010BD9140202349
:100560009C1A0346E3401943904010BD10B5202A61
:1005700004DB0846203AD040002110BD0B46D34092
:10058000D0402024A21A91400843194610BD10B54E
:10059000202A06DBCB170846203A1041C1170B432F
:1005A00006E00B461341D0402024A21A9140084394
:1005B000194610BD002904DA401C490001D1400849
:1005C0004000704770B40024050C05D110240004CD
:1005D00002D1002921D01124050E01D100020834D6
:1005E000050F01D10001241D850F01D18000A41C3D
:1005F000002801DB4000641C002908D020252E1BA8
:100600000D46F540A14000D00121294308430106D1
:100610001B1B000ADB1D02D5002070BC7047DB05E8
:10062000181880180029F8DA401C4900F5D170BC70
:1006300040084000704710B5002B08DA0024401C29
:10064000614192185B411A4301D14008400010BD3E
:10065000F0B51FB482B005460C0003D0084604F084
:100660003DF902E004F03AF92030024600902146BC
:100670002846FFF76BFF049B059A04460F46184374
:100680001143084314D0184610431BD00098402152
:100690000A1A18460599FFF769FF05460E46009AA3
:1006A00005990498FFF752FF084305D0012004E0A4
:1006B0002046394607B0F0BD0020C11705430E4360
:1006C0002C43374300990E986305401A7905E40AD4
:1006D00000220C43FD0A0A3002D500200146E9E75A
:1006E0000105101969410C9C0D9D00196941FFF726
:1006F000A2FFDFE7064C0125064E05E0E36807CCC4
:100700002B430C3C98471034B442F7D3FFF7DCFC82
:10071000D0500008F050000870B50D460169C907B7
:10072000C90F27D00121C9430161134C2068FFF78D
:10073000B1FE02460B4600201049FFF71FFEFFF7EF
:10074000B7FEE86221680E48142905D901684904FA
:1007500002D52068401E0CE021680A4A12689142C6
:1007600008D20168C90502D40068800502D5206856
:10077000401C206070BD00004000002080841E41AD
:10078000380000204400002070B5124C6168124807
:10079000124D814217DA61680122D205914212DBC3
:1007A0006068FFF7A3FE0E4A0E4BFFF77FFD0022A5
:1007B0000D4BFFF7C7FCFFF77BFE411EA0606329CE
:1007C00000D8287070BD6168814201DB6420F8E7C1
:1007D0000120F6E77400002000504348320000205A
:1007E000FCA9F1D24D62403F0000F03F70B5404C93
:1007F0002068C1073F4802D08021816101E080214B
:1008000081622168890702D54021816101E0402190
:1008100081622068384942073848394D08D5226836
:10082000002A05DB02F0E4FA002810D102200AE0D9
:10083000226812070ED52268002A0BDB02F0D8FAD4
:10084000002804D10420A861322002F00FFD04F03A
:1008500023F970BD2B480168090105D5C82002F0B5
:1008600005FD04F0D9F907E00068C00009D5C820EB
:1008700002F0FCFC04F094F920684000400820607D
:1008800070BD20682049C206204808D5226852065B
:1008900005D42268520402D402F0F8FC70BD22682C
:1008A000920608D52268520605D42268520402D462
:1008B00002F03AFD70BD2268520603D5144A03F0D7
:1008C00041FA70BD2268D20102D500F019F970BD5D
:1008D0002268920102D503F0CCFF70BD012292077D
:1008E00002F06EFD0B490020086004F09BF870BD1B
:1008F000380000200000005000010000000400400B
:1009000000040050340000200014014000080140A1
:10091000001400405C000020F8B5234C20688001E2
:100920000FD422480168C90702D02068012104E0E1
:100930000168890706D5206802210843206003F07A
:10094000F3FDF8BD01681A4D1A4E1B4F490705D536
:1009500020688000F5D42068042107E001680907B9
:100960000DD520684000ECD42068082108432060A1
:1009700003F0DAFDB561206838432060F8BD0168F6
:10098000C90605D520680005F8D420681021EDE7D8
:1009900000688006206804D5C004EFD420682021B8
:1009A000E4E706490840E8E738000020340000206A
:1009B000008000000008005000008000C0FFFFE73A
:1009C00002480168024A114001607047340000206B
:1009D000C0FFFFE770B5064601250A4C0EE0022075
:1009E000A0610420A061142002F040FC0220A0625B
:1009F0000420A062642002F039FC6D1CB542EEDDDB
:100A000070BD00000004005038B500206946087031
:100A10001D4B1E490AE06C4622789A5C24780C5DD6
:100A2000A2422FD16C462278521C22706A4612785C
:100A30000E2AF0D969460870144908390CE0684656
:100A400000781818027E68460078085C824219D146
:100A50006A461078401C1070684600780428EED969
:100A6000FFF7AEFF987CD97B09060843197C5A7CB6
:100A7000090412021143084305490A68104308603B
:100A800003F052FD38BD0000040100209F50000813
:100A90003400002010B512490868020E1148C271D6
:100AA0000A681202120E02720A681204120E4272D0
:100AB000096881720C490978C1720C4C2178017364
:100AC0000B49097841730B49097881730A4800681A
:100AD000810140180949FFF70DFB401D207010BD32
:100AE00038000020100000203200002030000020DC
:100AF00031000020490000203C00002048BE0800D2
:100B00007047000010B517488168174A1140091D49
:100B1000816001680907C90FFBD008210160006CE2
:100B2000124C80B21249208048431249FFF7E2FA82
:100B300080B27D21E080C9004843FA21FFF7DAFA4C
:100B4000A060E1684A09891A0818E06040090A496A
:100B50002061884205D9094801680122D207114362
:100B6000016010BD00240140E8FFFF7F600000200D
:100B7000E40C0000FF0F0000B80B0000380000205C
:100B80000E488168172291434205114381600C4948
:100B900002E08A88521C8A808268D20FF9D182686A
:100BA000084B1A40521C82602020488080B2401EB0
:100BB0000004000C4880F9D1704700000024014077
:100BC00060000020E8FFFF7F10B5024800F02EF91A
:100BD00010BD00000000024010B500F079F800F0F0
:100BE000C5F87D20C00002F041FB00F03FF810BDC9
:100BF00001210548C902416001154160411541606C
:100C000081154160704700000000024038B5144C67
:100C1000206840084000206000F0A8F882201049B9
:100C2000114D009020230F4A2431284600F01EF970
:100C3000A06840210843A060A06880218843A0608C
:100C4000206A490108432062206A08210843206283
:100C5000296801200143296021680143216038BDD2
:100C600000380140040100203000024038B5EFF3A5
:100C70001080012181F3108811498A6840231A43AA
:100C80008A6080F310880F4C0321204601F07CFB22
:100C90000321204601F084FB0B48094A00900B4BCE
:100CA00024320321204601F04DFB2022032120465F
:100CB00001F090FB0321204601F05AFB38BD0000F3
:100CC00000380140000002407003000804010020C9
:100CD00000B504480168044A1140016000F060F862
:100CE00000BD000030000240FEFF000010B500F023
:100CF00009F8052002F0BAFA00F010F8FFF784FEB8
:100D000010BD000004488021416040214160202145
:100D100041601021416070470000024038B5104C1E
:100D20002068400840002060FFF7D2FF92200C4965
:100D30000D4D009020230B4A2831284600F096F8EC
:100D4000A06880210843A060A06840218843A0607B
:100D5000296801200143296021680143216038BDD1
:100D600000380140100000201C00024000B504487B
:100D70000168044A1140016000F012F800BD000053
:100D80001C000240FEFF000010B5FFF731FF0520F8
:100D900002F06CFAFFF73AFFFFF77CFE10BD00008F
:100DA0000168204A114001600021016041608160BA
:100DB000C1601D491C4A0839904202D148680F227F
:100DC00005E0194A1432904204D14868F0221043D9
:100DD00048607047144A2832904203D148680F2275
:100DE0001202F4E7104A3C32904203D148680F22C5
:100DF0001203ECE70C4A5032904203D148680F22AC
:100E00001204E4E7084A6432904203D148680F2292
:100E10001205DCE7044A78329042DAD148680F22A2
:100E20001206D4E7FEFF00000800024010B501687A
:100E30008906C90F04D020214160FFF7A5FF10BD2E
:100E400001688905C90F05D0012149024160FFF7FA
:100E50004DFF10BD01680906C90F03D100680005E8
:100E6000C00FF6D0FFF7B8FE10BD000070B5049DAE
:100E70000468044E436034402C438160C2600460C7
:100E800070BD00000180FFFF10B50169C907C90FDF
:100E900012D0416B094C89B22180826B62800122A1
:100EA000D24302610648FFF725F90649A06048438E
:100EB0000549FFF71FF9E06010BD00004C0000205D
:100EC000809698004893000000127A007047000056
:100ED00010B5084900224A6107494B684C15234365
:100EE0004B604B68082423434B60C009C00102607B
:100EF00010BD0000EC0000200020024010B5214A87
:100F000000219069C305204804D541690223194393
:100F10004161911593699B0505D5436901242343DC
:100F200043616302194393695B0505D5436908244E
:100F300023434361E301194393691B0505D54369C5
:100F40000424234343616302194393699B0405D539
:100F500043691024234343616302194393699B034C
:100F600004D5446920231C43446119439369DB037E
:100F700005D54369402423434361A00201439161A5
:100F800010BD000000200240EC00002070B50546B6
:100F900000F0C6FA0646184C0AE0681C08D0002D7E
:100FA00004D000F0BDFA801BA84201D9032070BD17
:100FB000A069C007F1D1A069800701D50220A06116
:100FC000A069C00511D4A06980050ED4A0694005B0
:100FD0000BD4A069000508D4A069800405D4A069D9
:100FE000800302D4A069C00303D5FFF787FF012067
:100FF00070BD002070BD000000200240704700005E
:10100000F3B50446364881B0017C012907D001219F
:1010100001743448FFF7BAFF060002D05AE00220FC
:10102000FEBD00210298C9430160A0682E4F002830
:1010300004D0B98F0904490B884203D9BC212BA0E5
:1010400003F0EFFC2068002803D0BD2127A003F0A7
:10105000E8FC01256068ED06A84205D3B98F0904B4
:1010600089094919884203D3BE2120A003F0D9FC85
:101070006068A168C009C001C9014018401EA842AB
:1010800005D3B98F090489094919884203D3BF21BF
:1010900016A003F0C6FC254F656815E02846FFF74B
:1010A00017FF1048FFF772FF06467868082188434B
:1010B000786079680120400281437960002E02D077
:1010C0000298056006E08035A0686168C00140189C
:1010D000A842E3D80248002101743046FEBD00005A
:1010E000EC00002050C300004000F81F2E2E2F44BB
:1010F0007269766572732F53544D33324C30787861
:101100005F48414C5F4472697665722F5372632F5A
:1011100073746D33326C3078785F68616C5F666CC5
:101120006173685F65782E63000000000020024054
:10113000F8B5164C0D46217C174601291DD001211A
:101140002174022803D0EF2111A003F06AFC0120D2
:10115000C006854206D31D49898F090489090818EC
:10116000A84203D8F0210AA003F05BFC1848FFF75F
:101170000DFF0026002802D006E00220F8BD6661BF
:101180002F601348FFF702FF2674F8BDEC00002023
:101190002E2E2F447269766572732F53544D33325D
:1011A0004C3078785F48414C5F4472697665722FA5
:1011B0005372632F73746D33326C3078785F68616B
:1011C0006C5F666C6173682E630000004000F81F5E
:1011D00050C3000011484168C9070BD0EFF31081DC
:1011E00072B60F4AC2600F4AC26081F3108841682C
:1011F000C9070ED1416889070DD5EFF3108172B68A
:10120000094A0261094A026181F310884068800737
:1012100001D50120704700207047000000200240E7
:10122000EFCDAB8905040302BFAE9D8C16151413D8
:10123000F8B50446486800270D46002825D0012847
:1012400023D0112821D002281FD012281DD011210F
:101250000904884219D021210904884215D031217E
:101260000904884211D00921490488420DD0112176
:101270004904884209D019214904884205D003282D
:1012800003D0A3218EA003F0CCFB052000078442ED
:1012900004D128680104090C25D109E0974884424B
:1012A00006D128680104090C0CD0000C2CD009E0F0
:1012B0009348844206D128680104090C0CD0000C24
:1012C000F4D009E08F48844206D128680104090C53
:1012D0000BD0000CEAD008E08B48844205D1286886
:1012E0000104090C0CD0000C08E08848844207D1A6
:1012F00087492868084203D0C94308400028D5D050
:10130000A4216FA003F08DFBD4E00121B940064673
:1013100000910E407ED028798007800F012801D0EF
:1013200002281ED1E868002809D0012807D0022829
:1013300005D0032803D0B42161A003F072FBA2689A
:101340007900032088408243E86888401043A06009
:101350006068009988432979C906C90FB9400143DB
:1013600061602879C043800713D0A868002807D09F
:10137000012805D0022803D0C52151A003F051FB5C
:10138000E0687A00032191408843A96891400143B5
:10139000E16028798007800F02282AD10520000704
:1013A000844212D0554884420FD0554884420CD014
:1013B0005448844209D05448844206D05348844259
:1013C00003D0D2213EA003F02CFB2869072803D9C3
:1013D000D3213BA003F025FBF80880000319186A0D
:1013E0007907CA0E0F219140884329699140014332
:1013F00019622068790003228A4090432A79920773
:10140000920F8A400243226068688003800F50D0A8
:10141000404800E04DE0416B012211434163B908AF
:101420003D4889000B189868B9070A0F0F219140B1
:101430008843052109078C4201D1002119E02F4979
:101440008C4201D1012114E02D498C4201D10221AD
:101450000FE02C498C4201D103210AE02A498C4239
:1014600001D1042105E029498C4201D1052100E088
:101470000621914001439960284908686A68B04391
:10148000D20300D53043086048686A68B0439203CD
:1014900000D53043486088686A68B043D20200D5FE
:1014A00030438860C8686A68B043920200D5304310
:1014B000C8607F1C2E683046FE4000D025E7F8BD8E
:1014C0002E2E2F447269766572732F53544D33322A
:1014D0004C3078785F48414C5F4472697665722F72
:1014E0005372632F73746D33326C3078785F686138
:1014F0006C5F6770696F2E6300000000000400508D
:1015000000080050000C005000100050001C00505B
:1015100003060000001002400000014000040140EA
:101520000148806870470000000000200248816880
:1015300002788918816070470000002010B50848C3
:1015400000240168402211430160012000F00AF8E4
:10155000002801D0012401E000F026F8204610BD4B
:101560000020024070B504460D4D7D202978C00052
:10157000FEF7C0FD01460B480068FEF7BBFD00F01A
:1015800027FD002809D1042C07D200222146401E45
:1015900000F02CF800206C6070BD012070BD0000D0
:1015A000000000200C0000201CB500240E48009410
:1015B0000194416B012211434163816B0204114389
:1015C000816301212246881F00F010F801210022CA
:1015D000C81E00F00BF800946846019400F032F841
:1015E00000F0B6F81CBD00000010024070B50C46BB
:1015F0000546102903D3872103A003F012FA2146E0
:10160000284603F0DDF970BD2E2E2F4472697665F1
:1016100072732F53544D33324C3078785F48414CBD
:101620005F4472697665722F5372632F73746D33E2
:10163000326C3078785F68616C5F636F7274657864
:101640002E63000010B504460068002812D0202840
:1016500010D040280ED060280CD080280AD0A028B6
:1016600008D0C02806D0E02804D0FF21683126A089
:1016700003F0D7F932496068884215D0491C884286
:1016800012D0491C88420FD02E4988420CD0491CE8
:10169000884209D0491C884206D0002804D0FF2186
:1016A000693119A003F0BDF927490868E022904389
:1016B00022681043086025494A68012000048243DB
:1016C0004A600A6882430A60CA688243CA608A68BC
:1016D00082438A606268D20302D50A6802430A60C4
:1016E0006268920302D54A6802434A602279D207AF
:1016F00002D08A6802438A602279920702D5CA68BA
:101700000243CA6010BD00002E2E2F447269766518
:1017100072732F53544D33324C3078785F48414CBC
:101720005F4472697665722F5372632F73746D33E1
:10173000326C3078785F68616C5F7077722E63000E
:10174000010001000100020000700040000401409F
:101750000248016810221143016070470070004088
:10176000F8B504007ED083492068884207D08249BA
:10177000884204D0FF214B3180A003F052F9FF27AB
:1017800060680537002806D0B84204D0FF214C31EC
:101790007AA003F046F9A06800280BD00121890245
:1017A000884207D04901884204D0FF214D3173A0FF
:1017B00003F037F90121E068C902884206D0002809
:1017C00004D0FF214E316DA003F02BF9A069C11F99
:1017D000FF39FA390AD0002808D00121890488424B
:1017E00004D0FF214F3165A003F01BF9E069002808
:1017F00012D0082810D010280ED018280CD020287D
:101800000AD0282808D0302806D0382804D0FF2154
:1018100050315AA003F005F9206A002806D080282C
:1018200004D0FF21513155A003F0FBF8606A002578
:1018300000282CD0102807D0FF2152314FA003F0F0
:10184000F0F8606A002822D0E069002814D0082847
:1018500012D0102810D018280ED020280CD02828FC
:101860000AD000E011E0302806D0382804D0FF214B
:10187000643142A003F0D5F8256165612646403603
:10188000A562707C002832D035E00120F8BD2069C7
:10189000002806D0022804D0FF21553137A003F0DC
:1018A000C0F86069002806D0012804D0FF21563115
:1018B00032A003F0B6F86068B84216D1E06900289B
:1018C000DCD00828DAD01028D8D01828D6D0202884
:1018D000D4D02828D2D03028D0D03828CED0FF215C
:1018E0005A3126A003F09DF8C8E7E561C6E73574D4
:1018F000204600F05FF802217174206802684023DE
:101900009A4302602123A26860689B021A40384013
:101910001043E3688A021340184323690B40217D7A
:101920001843C907C90F0843A16993101940084318
:10193000E169382319400843216A8023194008438C
:10194000A16A93001940084321680860A069042136
:10195000000C0840616A1023194008432168486060
:101960002068C1699143C1616565012070740020E0
:10197000F8BD000000300140003800402E2E2F44FA
:101980007269766572732F53544D33324C307878C8
:101990005F48414C5F4472697665722F5372632FC2
:1019A00073746D33326C3078785F68616C5F73701C
:1019B000692E630010B586B0044614216846FEF710
:1019C000B6FB0F492068884217D10E48416B82143C
:1019D00011434163C26A02210A43C262C06A019193
:1019E00008400590382000900021032002910491C6
:1019F000039069460448FFF71BFC06B010BD0000C9
:101A0000003001400010024000040050FFB50446C1
:101A1000C068002781B01D46002806D00298C00784
:101A200003D0524952A002F0FCFFFF212646606815
:101A300005314036884202D1A06800280CD0307CA5
:101A4000012814D001203074FFF76AFD0090707CEB
:101A500001280ED0022781E004207074029A0095BC
:101A600011462046039B00F083F905B0F0BD02202B
:101A7000FBE70298002870D0039800286DD004205E
:101A80007074002060650299A1630399A18703998E
:101A9000E1872063A086E086206460640122A0685C
:101AA000D2034021904208D1206802688A43026034
:101AB000206802680B029A4302602068026852069E
:101AC00002D402680A430260E068002819D035E0B9
:101AD00020688168C90709D0017BA06B0170A06BE9
:101AE000401CA063E08F401EE0870AE0FFF718FD6E
:101AF0000099401AA84202D3681C02D034E0002D9D
:101B000032D0E08F0028E3D11BE020688168C9074C
:101B100009D0C068A16B0880A06B801CA063E08F17
:101B2000401EE0870AE0FFF7FBFC0099401AA8423C
:101B300002D3681C02D017E0002D15D0E08F0028DA
:101B4000E3D129462046009A02F020FC002801D06B
:101B500020206065606D002800D00127012070748E
:101B600000203074384680E70327F7E7C3030000FE
:101B70002E2E2F447269766572732F53544D333273
:101B80004C3078785F48414C5F4472697665722FBB
:101B90005372632F73746D33326C3078785F686181
:101BA0006C5F7370692E6300FFB50446C068002740
:101BB00081B01646002806D00298C00703D05D49C0
:101BC0005DA002F02EFFA068002808D00121C90303
:101BD000884204D0574958A0091D02F022FF25462B
:101BE0004035287C012809D001202874FFF798FC93
:101BF0000090687C012804D0022795E0022005B0FF
:101C0000F0BD0298002872D0002E70D003206874B6
:101C10000020606502992163A686E686A063A087FE
:101C2000E087606420640120A268C00340218242F2
:101C300008D1206802688A430260206802680B02AB
:101C40001A43026020680268520602D402680A43FE
:101C500002600120E168C0028142606826D100284C
:101C600001D0012E1ED1206B21680088C86006E0DB
:101C700020688168890709D5216B0988C160206BBC
:101C8000801C2063E08E401EE0860BE0FFF748FCDE
:101C90000099411A0498814202D3401C02D039E0D5
:101CA000002837D0E08E0028E2D126E0002801D0BD
:101CB000012E1FD1206B21680078087306E0206890
:101CC0008168890709D5216B09780173206B401C55
:101CD0002063E08E401EE0860CE0FFF721FC0099B7
:101CE000411A0498814203D3401C03D012E01AE049
:101CF00000280FD0E08E0028E1D12046009A0499F8
:101D000002F072FB002801D020206065A068002846
:101D100002D005E0032707E02068C16880680090D2
:101D2000606D002800D0012701206874002028740D
:101D3000384664E7150300002E2E2F44726976653D
:101D400072732F53544D33324C3078785F48414C86
:101D50005F4472697665722F5372632F73746D33AB
:101D6000326C3078785F68616C5F7370692E6300E5
:101D7000FFB5044683B00120019000200090E06888
:101D80000C9F1D4600280ED00498C00703D081493F
:101D900081A002F046FE0598C00704D09321C90037
:101DA0007DA002F03EFEA068002804D079497AA008
:101DB000491D02F036FE26464036307C01280FD001
:101DC00001203074FFF7ACFB0290707C6168012841
:101DD0000DD0CA1FFD3A08D1A168002905D102E043
:101DE000022007B0F0BD042801D00220C2E0049810
:101DF000002828D00598002825D0002D23D0707CFD
:101E0000042801D005207074002060650599A16345
:101E1000E587A58704992163E586A586206460642B
:101E200020680168490603D401684022114301601B
:101E30000121E068C9028842606847D1002804D0C7
:101E4000012D02D03BE0012094E0206B2168008846
:101E5000C860206B801C2063E08E401EE0862EE070
:101E600020688168890710D5E18E00290DD001997D
:101E700001290AD1216B0988C160206B801C206375
:101E8000E08E401EE0860020019020688168C9072E
:101E90000DD0E18F00290AD0C068A16B0880A06B2B
:101EA000801CA063E08F401EE08701200190FFF7B7
:101EB00037FB0299401AB84201D3781C59D1E08E01
:101EC0000028CDD1E08F0028CAD146E0002801D0FB
:101ED000012D3CD1206B216800780873206B401CD9
:101EE0002063E08E401EE08631E02068816889072B
:101EF00010D5E18E00290DD0019901290AD1216B5D
:101F000009780173206B401C2063E08E401EE08640
:101F10000020019020688168C9070DD0E18F002959
:101F20000AD0C068A16B0870A06B401CA063E08F52
:101F3000401EE08701200190FFF7F2FA0299401A53
:101F4000B84202D3781C02D013E0002F11D0E08EEB
:101F50000028CAD1E08F0028C7D139462046029A0E
:101F600002F042FA002807D001200090202060658E
:101F700009E00320009006E0A068002803D1206853
:101F8000C16880680190012070740020307400984E
:101F900027E70000970400002E2E2F447269766513
:101FA00072732F53544D33324C3078785F48414C24
:101FB0005F4472697665722F5372632F73746D3349
:101FC000326C3078785F68616C5F7370692E630083
:101FD000094910B5401E884201D9012010BD074CA7
:101FE00060610321081F02F0EBFC0020A0610720C4
:101FF0002061002010BD0000FFFFFF0000E000E0B6
:10200000FEE7000010B5044908700007020E102119
:10201000002002F031FC10BD740000204008800553
:1020200010B5020C1021002002F026FC10BD0000AB
:1020300001494020886170470004005010B50648EF
:10204000012200781203002800D092001021022003
:1020500002F012FC10BD00007400002010B500F06A
:1020600029F83220FFF7DAFF0020FFF7CBFF0F201F
:1020700000F016F807490848FFF7E0FF02F096FE67
:102080000648026801210A430260C2680A43C2602E
:1020900010BD00001A410000102700000010004091
:1020A00010B5034A1021012002F0E6FB10BD00002C
:1020B000FFBF000010B5012212031021002002F022
:1020C000DBFB10BD70B505462F4800260C46854247
:1020D00004D0FF21E6312DA002F0A3FC01212068ED
:1020E000C90788420CD04908884209D04942884231
:1020F00006D0002804D0FF21E83124A002F091FC92
:10210000606800280AD0082808D0102806D01828AF
:1021100004D0FF21E9311DA002F083FCA068002853
:1021200006D0202804D0FF21EA3118A002F079FC63
:10213000E06800280FD00121890388420BD04900B4
:10214000884208D003218903884204D0FF21EB3163
:102150000EA002F066FCA868C007C00F02D00126DE
:10216000304670BDA1686068EA680843E168154BB5
:102170001A4011430843E8602869216880008008FC
:1021800008432861ECE70000002401402E2E2F4474
:102190007269766572732F53544D33324C307878B0
:1021A0005F48414C5F4472697665722F5372632FAA
:1021B00073746D33326C3078785F6C6C5F6164631C
:1021C0002E630000C73FFFFF70B50546404800265C
:1021D0000C46854204D0912189003EA002F021FCEA
:1021E0002168002923D00120800281421FD01120C4
:1021F000800181421BD00920C001814217D01320E9
:102200008001814213D00520000281420FD01520A9
:10221000800181420BD00B20C001814207D01720E2
:102220008001814203D039492AA002F0FAFB60689C
:10223000002808D001210904884204D0334925A090
:10224000491C02F0EEFBA068002808D001214903D8
:10225000884204D02D491FA0891C02F0E2FBE068EF
:10226000002808D0012806D0032804D04921C9003D
:1022700018A002F0D6FB2069002808D0012109032C
:10228000884204D0214913A0091D02F0CAFBA068AE
:10229000002807D06068002804D01C490DA0083130
:1022A00002F0BFFBA868C007C00F02D0012630466D
:1022B00070BD03CC62680843216811430843A168DC
:1022C0000843E968124A11400843E860EFE700005C
:1022D000002401402E2E2F447269766572732F53AD
:1022E000544D33324C3078785F48414C5F447269CA
:1022F0007665722F5372632F73746D33326C30783E
:10230000785F6C6C5F6164632E63000045020000BF
:102310003CC2FEFF08B504498A6B02438A63896B9D
:102320000140009108BD00000010024008B50449BA
:102330004A6B02434A63496B0140009108BD0000AB
:102340000010024070B5094E044671182039049DF2
:102350000C34CE7F0830102D03D03250C87F03518B
:1023600070BD3251C97F0B5070BD00009050000805
:10237000044A51182039C97F425801231A43425058
:102380007047000090500008044A51182039C97F56
:10239000425802231A4342507047000090500008F0
:1023A000044A51182039C97F425808231A43425021
:1023B0007047000090500008054B10B5591820399F
:1023C000C97F435803242403A3431343435010BD40
:1023D00068500008054B59182039C97F001D0B585B
:1023E0001B0C1B0413430B50704700009050000857
:1023F000054B10B559182039C97F4358034C234069
:102400001343435010BD000068500008EFBFFFFFAA
:10241000054B10B559182039C97F43588024A34370
:102420001343435010BD000068500008054B10B521
:1024300059182039C97F43580324A402A3431343E6
:10244000435010BD68500008054B10B5591820398D
:10245000C97F43582024A3431343435010BD0000B9
:1024600068500008054B10B559182039C97F4358EA
:102470004024A3431343435010BD0000685000089C
:1024800010B589000F24091F8C408030836A8A4070
:10249000A3431343836210BD054B10B5591820396F
:1024A000C97F435803242402A3431343435010BD60
:1024B00068500008FEB505460520002700070E46B7
:1024C000854212D0584885420FD0584885420CD0DA
:1024D0005748854209D05748854206D0564885421C
:1024E00003D0A32155A002F09CFA30686149401E38
:1024F000884203D9A42151A002F093FA7068002801
:1025000009D0012807D0022805D0032803D0A5212F
:102510004AA002F086FA3069002807D001287ED050
:1025200002287CD0A62145A002F07BFA77E00120AA
:10253000B840044072D07068012801D0022826D12A
:10254000B068002809D0012807D0022805D0032848
:1025500003D0B72139A002F064FAB268A968204616
:1025600060434300C318994350430143A960F06896
:10257000002805D0012803D0BD2130A002F051FA77
:102580003168F0686A688A4341430A436A60326985
:10259000E968204660434300C318009099435043C4
:1025A00001930143E960706802282FD17069002807
:1025B00011D001280FD002280DD003280BD00428F9
:1025C00009D0052807D0062805D0072803D0C9213F
:1025D0001AA002F026FAFF2C0BD871692A6A00981B
:1025E0006043604303011B1A9A43484302432A6233
:1025F0000CE0200A01464143414341430801431A8C
:102600007269686A514398430843686270682B682E
:10261000019A0099934341430B432B607F1C34681C
:102620002046F84083D1FEBD000400500008005051
:10263000000C005000100050001C00502E2E2F44A3
:102640007269766572732F53544D33324C307878FB
:102650005F48414C5F4472697665722F5372632FF5
:1026600073746D33326C3078785F6C6C5F6770694F
:102670006F2E6300FEFF00000069814301D000203F
:10268000704701207047000008B50449CA6A024338
:10269000CA62C96A0140009108BD000000100240F2
:1026A00008B50449CA6A0243CA62C96A0140009176
:1026B00008BD00000010024010B5044601F0D0FD36
:1026C000206001F0A7FD606001F0B2FDA0606068CD
:1026D00001F0BAFDE06010BDF8B5224D01270024DD
:1026E000AE00FF03032816D00C2804D0FC211EA046
:1026F00002F097F931E000F057F8294940182ED040
:10270000042819D0082823D001F0AAFD01F082FD89
:1027100001F08EFD0EE000F047F8224940181ED06F
:10272000012809D0022813D001F09AFD01F072FDB2
:1027300001F08AFD044610E000F03EF800280CD0BD
:1027400000F042F8002801D02C4606E0344604E0B0
:1027500000F042F8002800D03C462046F8BD01F0C9
:102760007FFDE7E700093D002E2E2F447269766554
:1027700072732F53544D33324C3078785F48414C4C
:102780005F4472697665722F5372632F73746D3371
:10279000326C3078785F6C6C5F7263632E6300001C
:1027A000FCFFF3FFFFFFFCFF0249C9680140000482
:1027B0000843704740100240024800684007C00FBD
:1027C000704700000010024002480068C006C00FB9
:1027D0007047000000100240024800698005C00FE9
:1027E000704700004010024010B5029C49032406C7
:1027F000240A1B0621431B0C1943D2B21143426821
:10280000024B1A400A43426010BD0000C00000FFA6
:10281000F8B505465848012714460E46854204D0AF
:10282000FF21723155A002F0FCF8002E5AD0012E83
:1028300004D0FF21733151A002F0F3F8E0780A22AE
:10284000010900075143000F0818C0B2632804D9DA
:10285000FF21813149A002F0E4F860780A220109E1
:1028600000075143000F0818C0B2401E0B2804D9BE
:10287000FF21823141A002F0D4F8A0780A22010998
:1028800000075143000F0818C0B2401E1E2804D98B
:10289000FF21833139A002F0C4F82078012810D03C
:1028A00002280ED003280CD004280AD0052808D00E
:1028B000062806D0072804D0FF2185312FA002F07A
:1028C000B0F8CA20686253206862284600F072F8A7
:1028D000012848D0E078002E23D000906378A278B9
:1028E000217835E06078C10603D5EF2108400A3031
:1028F0006070E078632804D9FF217B311FA002F0CB
:1029000090F86078401E0B2804D9FF217C311BA071
:1029100002F087F8A078401E1E28BED9FF217D3125
:10292000B8E70A21FDF7E6FB00010843C7B260786B
:102930000A21FDF7DFFB00010843C6B2A0780A2197
:10294000FDF7D8FB0001084300972178C2B2334657
:102950002846FFF749FF8020C043E860A86880064A
:10296000C00F04D00027FF2068623846F8BD284613
:1029700000F0D4F90746F6E7002800402E2E2F4439
:102980007269766572732F53544D33324C307878B8
:102990005F48414C5F4472697665722F5372632FB2
:1029A00073746D33326C3078785F6C6C5F72746303
:1029B0002E63000038B504467D20C0000090144806
:1029C0000025844204D01721490112A002F029F801
:1029D000E0684006C00F0AD1401EE060E068009940
:1029E0004006C00F002902D01849002801D028460F
:1029F00038BD0869C003C00F02D00098401E009087
:102A0000E068009A4006C00F002AEED10125EEE7EB
:102A1000002800402E2E2F447269766572732F5362
:102A2000544D33324C3078785F48414C5F44726982
:102A30007665722F5372632F73746D33326C3078F6
:102A4000785F6C6C5F7274632E63000000E000E0DE
:102A500070B50446224801260D46844203D0CF219A
:102A600020A001F0DEFF2868002805D0402803D010
:102A7000D0211CA001F0D5FF68687F2803D9D1219F
:102A800018A001F0CEFF2549A868884203D9D221B9
:102A900014A001F0C6FFCA20606253206062204685
:102AA000FFF788FF012817D02968A06840229043CB
:102AB0000843A060A8682169C90BC90301432161CB
:102AC000A98820697F2212049043090408432061E9
:102AD0008020C043E0600026FF206062304670BD69
:102AE000002800402E2E2F447269766572732F5392
:102AF000544D33324C3078785F48414C5F447269B2
:102B00007665722F5372632F73746D33326C307825
:102B1000785F6C6C5F7274632E630000FF7F00004F
:102B20001206120A10B50A431906090C029C0A4340
:102B3000E1B20A430168024B19401143016010BD24
:102B4000808080FFF8B505466548012714460E468B
:102B5000854204D0FF210B3162A001F062FF002EFC
:102B600024D0012E04D0FF210C315EA001F059FFCA
:102B7000A8684021084248D020790A2201090007AC
:102B80005143000F0818C0B2401E0B2804D9FF2182
:102B9000213154A001F045FF2068002846D00121D2
:102BA0008905884242D0FF2122313CE0A8684021BB
:102BB000084212D02079401E0B2804D9FF2112317F
:102BC00048A001F02EFF2068002810D001218905BF
:102BD00088420CD0FF21133106E0002020602079CC
:102BE000172804D9FF2118313EA001F01AFF60799F
:102BF0003B2804D9FF211A313AA001F012FFA07935
:102C00003B2831D9FF211B312BE0002020602079A7
:102C10000A22010900075143000F0818C0B2172803
:102C200004D9FF2127312FA001F0FBFE60790A2291
:102C3000010900075143000F0818C0B23B2804D90E
:102C4000FF21293127A001F0ECFEA0790A22010919
:102C500000075143000F0818C0B23B2804D9FF21D8
:102C60002A3120A001F0DDFECA206862532068628C
:102C70002846FFF79FFE012829D0A079002E04D016
:102C8000009063792279216816E00A21FDF732FA73
:102C900000010843C7B260790A21FDF72BFA000151
:102CA0000843C6B220790A21FDF724FA000108433F
:102CB00000972168C2B233462846FFF731FF8020D3
:102CC000C043E860A8688006C00F04D00027FF203A
:102CD00068623846F8BD284600F020F80746F6E757
:102CE000002800402E2E2F447269766572732F5390
:102CF000544D33324C3078785F48414C5F447269B0
:102D00007665722F5372632F73746D33326C307823
:102D1000785F6C6C5F7274632E630000F8B50446D4
:102D20007D26F6001E4800250096844203D01D49EA
:102D30001DA001F076FEE06880210840A138E06027
:102D4000E068009A8006C00F2549002A0CD10DE0EA
:102D50000869C003C00F01D0501E0090E068009ABF
:102D60008006C00F002A19D00028F1D1002D13D100
:102D70000096E0688006C00F0CE00869C003C00F31
:102D800002D00098401E0090E068009A8006C00FB4
:102D9000002A03D00028F0D02846F8BD0125FBE723
:102DA00000280040270300002E2E2F44726976650C
:102DB00072732F53544D33324C3078785F48414C06
:102DC0005F4472697665722F5372632F73746D332B
:102DD000326C3078785F6C6C5F7274632E630000C5
:102DE00000E000E001490860704700000C0000208E
:102DF000006A814301D00020704701207047000025
:102E000010B5012917D0102917D0CB1FF93B10D0CE
:102E100006210B4B18305B5C18180368084C0E3405
:102E2000615C03248C40120CA3438A40134303606B
:102E300010BD0421EDE70021EBE70221E9E70000E6
:102E40004C50000810B5012917D0102917D0CB1FFE
:102E5000F93B10D006210B4B18305B5C1818036847
:102E6000084C0E34615CF0248C40120CA3438A4061
:102E70001343036010BD0421EDE70021EBE70221BD
:102E8000E9E700004C50000810B5012911D01029C5
:102E900011D0CB1FF93B0AD00623016A074CE35C33
:102EA0000A249C40A1439A401143016210BD0423AF
:102EB000F3E70023F1E70223EFE700006150000889
:102EC00010B5012917D0102917D0CB1FF93B10D00E
:102ED00006210B4B18305B5C18180368084C0E3445
:102EE000615C0C248C40120CA3438A4013430360A2
:102EF00010BD0421EDE70021EBE70221E9E7000026
:102F00004C500008F8B50446012080072D4E2E4F86
:102F10000D46844210D0B4420ED02C4884420BD0CF
:102F20002B48844208D0BC4206D02A48844203D0B1
:102F3000E42129A001F075FD686800280BD0102855
:102F400009D0402807D0202805D0602803D0E521EB
:102F500021A001F066FDE86800280AD0C11FF939F8
:102F600007D0C11FFF39FA3903D0E6211AA001F0BA
:102F700058FD2068012189078C4206D0B44204D054
:102F8000BC4202D0134A944203D1702290436A6833
:102F900010438C4206D0B44204D0BC4202D00D494A
:102FA0008C4204D1032109028843E9680843206068
:102FB000A868E0622888A062606901210843606116
:102FC0000020F8BD0004004000080140001000404F
:102FD00000140040001401402E2E2F4472697665C3
:102FE00072732F53544D33324C3078785F48414CD4
:102FF0005F4472697665722F5372632F73746D33F9
:10300000326C3078785F6C6C5F74696D2E63000091
:10301000034610B5012001290DD0102910D0FF3929
:10302000491E12D00F242402A14203D11146184692
:1030300001F03EF810BD1146184600F0C5FE10BD67
:103040001146184600F03EFF10BD1146184600F02C
:10305000B9FF10BD8268024B1A400A438260704774
:10306000F8BFFFFF426870239A430A4342607047EB
:10307000F0B504466748012685B00D4684420CD061
:103080006548844209D06548844206D06448844239
:1030900003D0C42163A001F0C4FC714928688842B0
:1030A00003D9C5215FA001F0BCFC012109076868B4
:1030B0000F14884207D0002805D0B84203D0C6219B
:1030C00058A001F0AEFC39460327A8683F038842A8
:1030D0000BD0002809D0B84207D00121490388420B
:1030E00003D0C7214FA001F09CFCE86800280BD05A
:1030F00001218902884207D003214902884203D076
:10310000C82148A001F08DFC2869002809D00428B6
:1031100007D0082805D00C2803D0C92141A001F010
:1031200080FC686900280ED0C11FF9390BD0C11F7F
:10313000FF39FA3907D003210902884203D0CA2196
:1031400038A001F06EFCA869002807D00121C9034E
:10315000884203D0CB2133A001F063FC2068C00774
:10316000C00F53D1E9686868AA6908432969114307
:10317000084321683B4A114008432060A968606801
:10318000B843084360606969A06803221202904353
:103190000843A0601F48844201D1032003E01E4879
:1031A000844203D10C20FFF797FA09E01B488442C0
:1031B00002D01B48844229D16846FFF77DFA029865
:1031C000002823D02968002920D00123AA690026DD
:1031D000DB039A420CD140004A088018FCF78AFFB2
:1031E00081B2214808400907490F0143E16005E029
:1031F0004A081018FCF77EFF80B2E060E0681028F3
:1032000004D2FF21213107A001F00BFC304605B0AC
:10321000F0BD00000038014000440040004C004078
:10322000005000402E2E2F447269766572732F5322
:10323000544D33324C3078785F48414C5F4472696A
:103240007665722F5372632F73746D33326C3078DE
:10325000785F6C6C5F75736172742E6300000000A0
:1032600000093D00F369FFEFF0FF000008B50649D3
:103270000A690092421C00D0401C0A69D20300D5A2
:10328000401E0028F9D108BD00E000E030B5214C17
:10329000226852043CD42268120539D40A68D20745
:1032A000D20F35D101231C4A9B0393622368D502B8
:1032B0002B4323601301936122681B021A4322608F
:1032C000042305221207936223682D012B432360F8
:1032D00023688025AB4323602368AD022B43236022
:1032E0000223936222681B039A4322600B4B142231
:1032F0001A600C4B0A4A1A606422C26200F070FF26
:1033000020686910084320602068C91108432060C4
:1033100030BD0000380000200008005040000020B0
:10332000181500004400002070B5204C226852049B
:103330003BD42268D20438D40A68D207D20F34D1E1
:1033400001231B4A9B0393622368D5022B4323600E
:103350001501956122682B021A432260042305227D
:10336000120793622368EE023343236023688026AA
:10337000B34323602368AE00334323600223936189
:1033800022681B031A4322600A4B14221A600B4B5B
:10339000094A1A606422C26200F022FF20682843B2
:1033A00020602068E9110843206070BD38000020CB
:1033B00000080050400000201815000044000020C4
:1033C00070B51F4A12680124A4031E4B142A2FD87B
:1033D0001A68A2431A601A6880252A431A601A687C
:1033E0006500AA431A601A68A600B2431A601A68F8
:1033F000E600B2431A601A68A611B2431A601A684E
:103400006611B2431A60042205263607B2611A68B3
:103410002603B2431A6000F0C1FE0B4884611968AC
:10342000C202914319608562186851008843186090
:103430001868000602D418682043186070BD0000A8
:1034400040000020380000200008005070B590B007
:1034500014216846FCF76BFE002505950695079537
:10346000182109A80895FCF762FE2F480121426B3C
:1034700049020A434263426B0A400F92C26A012129
:103480000A43C262C06A0E4608400F9003200A90A9
:103490000991052009A90D950007FFF70BF8234CAA
:1034A000A06A3043A0620095019502950395694694
:1034B00020460495FEF788FE6069C008C000606180
:1034C0002069400840002061E16804208143E160F8
:1034D000174A1168C30599431160616881436160AF
:1034E0006068082188436060C806059006950795C6
:1034F00005A908952046FEF7E5FDA0680D4908409E
:10350000012109070843A0600C480B490068FCF73B
:10351000F1FD0A214843FCF7EDFD00E0401E0028C4
:10352000FCD110B070BD000000100240002401402A
:1035300008270140E8FFFF7F400D03000C0000203A
:1035400008B50A480121026B0A430263006B084078
:10355000074900900868FF22120490430122D20517
:103560001043086003495013086008BD0010024072
:1035700008E400E000E100E0F0B587B018216846FB
:10358000FCF7D5FD0420FFF77FF88020FFF77CF8DB
:103590000120FFF779F80220FFF776F8012186482D
:1035A00049038162480084498862400088620220A1
:1035B00005263607B0620420B0620820B0621020F1
:1035C000B0624020B0628020B0627C4F0220B862BE
:1035D0000420B8624002B0624000B062C000B06235
:1035E0004020B8628020B8624000B8624000B862F3
:1035F000002400010125009002940394694601957E
:1036000004946D48FEF756FFA803009002940394BB
:103610006946019504946848FEF74CFFE803009062
:10362000029403946946019504946348FEF742FFAF
:1036300002200090032002900195039469460494AF
:103640003046FEF737FF04200090032002900195DA
:103650000394694604943046FEF72CFF082000903E
:103660000320029001950394694604943046FEF7C6
:1036700021FF102000900294039469460195049460
:103680003046FEF717FF40200090029403946946ED
:10369000019504943046FEF70DFF802000900294BF
:1036A00003946946019504943046FEF703FF022017
:1036B0000090029403946946019504943846FEF7FD
:1036C000F9FE042000900294039469460195049445
:1036D0003846FEF7EFFE28030090694604950194F2
:1036E0003846FEF7E7FE68030090694604950194AA
:1036F0003846FEF7DFFEA803009069460495019462
:103700003846FEF7D7FEE803009069460495019419
:103710003846FEF7CFFE28020090019469460494D3
:103720003046FEF7C7FEE802009002940394694613
:10373000019504943046FEF7BDFE280300900294E4
:1037400003946946019504943046FEF7B3FEE803FE
:103750000090029403946946019504943046FEF764
:10376000A9FE4020009002940394694601950494B8
:103770003846FEF79FFE802000900294039469462D
:10378000019504943846FEF795FE280200900294B5
:1037900003946946019504943846FEF78BFE68024F
:1037A0000090029403946946019504943846FEF70C
:1037B00081FE07B0F0BD000000080050000400507A
:1037C00070B586B0002418480394009401940294C4
:1037D0000169012292041143016114490868FF2222
:1037E00013049843086001251149042008607F20D4
:1037F000104E049003A905923046FFF729F9694657
:103800000C714C718C716A4600213046FFF79AF9B1
:1038100069460D724D728D72CC7202AA002130463B
:10382000FEF7F6FF06B070BD4010024000E400E075
:1038300000E100E00028004010B50F480D4901608C
:10384000FF210531416000218160C1600122426198
:10385000016152028261016218224162C261816289
:103860000721C162FDF77CFF002801D0FDF72EFB88
:1038700010BD000000300140940000207FB50024FE
:1038800000940194029404200394FEF74FFD02215A
:10389000142001F073F8142001F058F81F20694635
:1038A0000880019403940A200A4C02902046FFF7F6
:1038B00029FB206880252843206000212046FFF74F
:1038C000C9FB00212046FFF7CDFBA068A843A060FC
:1038D0007FBD0000000801407FB5002400940194E2
:1038E000029420200394FEF721FD0021162001F010
:1038F00045F8162001F02AF81F2069460880019437
:1039000003940A200A4C02902046FFF7FBFA206835
:1039100080252843206000212046FFF79BFB0021E3
:103920002046FFF79FFBA068A843A0607FBD000072
:103930000014014030B58BB000240694079408941D
:10394000182168460994FCF7F2FB0120FEF7E2FC1F
:103950000120FEF7A5FE0220FEF7A2FE2020009027
:10396000052002250590029403940195049469466C
:103970000007FEF79FFD68020595009002940394EE
:103980000195694604943148FEF794FD00210F200B
:1039900000F0F4FF0F2000F0D9FF2D48694608839E
:1039A0002C480794099408906C0706A92046FFF755
:1039B000A9FA20688025A843206000212046FFF74F
:1039C00049FBA0685021702290430843A060A16881
:1039D0000420C908C9000143A1600022012120463A
:1039E000FFF730FA002201212046FFF74DFAE06888
:1039F00040218843E060E06809028843E0600021DC
:103A00002046FFF72FFBA068A843A060A213012166
:103A10002046FFF7F5F9002201212046FFF750FA72
:103A2000621310212046FFF7EBF9002210212046F7
:103A3000FFF746FA002210212046FFF703FA022280
:103A400010212046FFF720FA0BB030BD00040050D3
:103A50007F0C0000FFFF0000F0B591B000240C9433
:103A60000D940E940F94019402940394182105A8C8
:103A70000494FCF75CFB0220FEF74CFC0320694633
:103A800008862448244E0E900D940CA90F943046BD
:103A9000FFF738FA316880208143316000213046D9
:103AA000FFF7D8FA1D48B11502791B4818301518D0
:103AB00028681A4AD21D137908229A4010432860B8
:103AC000602002270190029401AA049703943046D3
:103AD000FFF79EFA29681148C01D02790420904022
:103AE0008143296000213046FFF7BCFAB06880218D
:103AF0008843B0600220FEF7D3FD01200A970590AD
:103B000007940894069705A909940548FEF7D2FC86
:103B100011B0F0BDCF070000000400404C50000879
:103B2000000400507FB500240094019402941020FA
:103B30000394FEF7EFFB0121112000F01FFF11207D
:103B400000F004FF0A4869460880019409480A4CBD
:103B500002902046FFF7D6F9206880252843206090
:103B600000212046FFF77EFAA068A843A0607FBD31
:103B7000FF7C0000F6200000001000407FB500240C
:103B800000940194029420200394FEF7C3FB0121CA
:103B9000122000F0F3FE122000F0D8FE0B48694618
:103BA00008807D200194C000094C02902046FFF758
:103BB000A9F9206880252843206000212046FFF7CE
:103BC00051FAA068A843A0607FBD0000FF7C000000
:103BD00000140040F0B58FB01C2106A8FCF7A7FA2E
:103BE00018216846FCF7A3FA51480121426B89036A
:103BF0000A434263426B0A400D92C26A01210A43A2
:103C0000C262C06A002408400D90480204270225C1
:103C1000032603946A460597049461C20520694609
:103C20000007FEF747FC680203946A460597049470
:103C300061C2052069460007FEF73CFC3D4D0322AA
:103C400011462846FEF71CFC002203212846FEF7F9
:103C5000CFFBAE14324603212846FEF7ADFB00220F
:103C600003212846FEF7F0FB002203212846FEF739
:103C7000F9FB802203212846FEF7CAFB002203211C
:103C80002846FEF709FC002203212846FEF7CEFB5A
:103C9000032202212846FEF7F3FB102202212846C8
:103CA000FEF7A6FB324602212846FEF785FB0022DE
:103CB00002212846FEF7C8FB002202212846FEF713
:103CC000D1FB802202212846FEF7A2FB002202211E
:103CD0002846FEF7E1FB002202212846FEF7A6FB5C
:103CE000154801680902090A02071143016001250C
:103CF000124910090860E1204002069007940894D8
:103D000009940B940C940C200D4C0A9006A92046A3
:103D1000FFF7AEF960680921C90288436060A068B6
:103D20002A218843A0602068284320600FB0F0BD9E
:103D3000001002400000024018E400E000E100E052
:103D40000038014070B51A4C064620680D46000543
:103D500017D53046FFF734FB2068400610D52946BA
:103D6000304600F01BFA2068402188432060124949
:103D7000104808601149142008601149002008709B
:103D800070BD2868C007C00FFAD110684008400015
:103D900010607D20C000FFF769FA29463046FFF722
:103DA00075FA2068012149020843206070BD0000B7
:103DB0003800002048BE08003C00002040000020E1
:103DC000480000207047000070B5044601208007BD
:103DD0000D4684420DD02A4884420AD029488442A4
:103DE00007D02948844204D0FF21E43127A000F005
:103DF00018FE2868002812D0102810D020280ED0D5
:103E000030280CD040280AD0502808D0602806D08E
:103E1000702804D0FF21E5311CA000F002FE686884
:103E2000002806D0012804D0FF21E63117A000F0B9
:103E3000F8FDE868002806D0022804D0FF21E73109
:103E400012A000F0EEFD206A400840002062206AC7
:103E50006268A16970238908890099432B68194316
:103E600002239843EB68184340086B6840001843EE
:103E70006260A161A96861632062002070BD0000DA
:103E80000004004000080140001401402E2E2F4481
:103E90007269766572732F53544D33324C30787893
:103EA0005F48414C5F4472697665722F5372632F8D
:103EB00073746D33326C3078785F6C6C5F74696DDD
:103EC0002E63000070B50446012080070D46844231
:103ED0000CD02A48844209D02948844206D0294877
:103EE000844203D0284929A000F09BFD28680028BF
:103EF00012D0102810D020280ED030280CD0402806
:103F00000AD0502808D0602806D0702804D01E4956
:103F10001EA0491C00F085FD6868002806D0012815
:103F200004D01121490119A000F07BFDE8680028A8
:103F300006D0022804D0144914A0C91C00F071FD59
:103F4000206A102188432062206A6368A269732670
:103F50003602B2432E68360232432026B043EE6862
:103F60003601304388436968636009010843A261F0
:103F7000A968A1632062002070BD00000004004019
:103F800000080140001401401E0200002E2E2F44A4
:103F90007269766572732F53544D33324C30787892
:103FA0005F48414C5F4472697665722F5372632F8C
:103FB00073746D33326C3078785F6C6C5F74696DDC
:103FC0002E63000070B50446012080070D46844230
:103FD00006D02748844203D0264927A000F021FDBF
:103FE0002868002812D0102810D020280ED03028A1
:103FF0000CD040280AD0502808D0602806D070285D
:1040000004D01C491CA0491C00F00BFD6868002866
:1040100006D0012804D0174917A0891C00F001FD23
:10402000E868002806D0022804D09721890012A051
:1040300000F0F7FC206AFF22013290432062206AE0
:104040006368E169702689088900B1432E683143AD
:104050005600B043EE683602304390436A686360AE
:1040600012021043E161A968E1632062002070BD83
:1040700000040040590200002E2E2F44726976651C
:1040800072732F53544D33324C3078785F48414C23
:104090005F4472697665722F5372632F73746D3348
:1040A000326C3078785F6C6C5F74696D2E630000E1
:1040B00070B50446012080070D46844207D027488A
:1040C000844204D0A521890025A000F0AAFC28681C
:1040D000002811D010280FD020280DD030280BD068
:1040E000402809D0502807D0602805D0702803D078
:1040F00029491BA000F095FC6868002806D001281B
:1041000004D0254916A0491C00F08BFCE868002863
:1041100006D0022804D0204911A0891C00F081FC9F
:10412000206A0122120390432062206A6368E169D9
:1041300073263602B1432E68360231435600B0432F
:10414000EE683603304390436A686360120310439D
:10415000E161A96821642062002070BD0004004074
:104160002E2E2F447269766572732F53544D33325D
:104170004C3078785F48414C5F4472697665722FA5
:104180005372632F73746D33326C3078785F6C6C5C
:104190005F74696D2E630000950200000268D2070B
:1041A000D20F03D002685208520002600868C007AC
:1041B000C00F05D008684008400008600548C86284
:1041C00005480078322804D304480168402211438E
:1041D00001607047A86100004800002038000020FE
:1041E00010B502680122D2430261046801231C4316
:1041F00004600868904307D10A61086818430860A2
:1042000002490878401C087010BD000048000020DA
:10421000704700000449C968F0221140034A0909A7
:10422000515CC84070470000001002406F50000809
:104230000349C968034A4905490F515CC8407047A2
:1042400000100240885000080349C968034A8904E5
:10425000490F515CC8407047001002408850000868
:1042600010B50F49CA680C2002400E4805D0042A38
:1042700009D0082A0FD00C2A0FD049680904490F29
:10428000491C884010BDFEF79FFA002801D006485F
:1042900010BD064810BD064810BD00F00BF810BD5B
:1042A000001002400080000000093D000024F400DE
:1042B00000127A0010B50E4CE06801210904084292
:1042C00005D1FEF781FA00280FD00A4A00E00A4A19
:1042D000E0680002810FE068084B8002000F185C64
:1042E000491C5043FBF706FF10BD054AF0E70000EC
:1042F0000010024000093D0000127A007F500008C3
:104300000024F4000548C168C905C90F05D0C1687B
:1043100080221140FF398239C16070470028004077
:104320007CB50D00044601D0202D01D900207CBDB4
:1043300000F0FEFDA0006946401C08700024114EEC
:104340004020B0620A2301220F48FDF72DFCED0842
:104350000A232A4601A90C48FDF758FB4020B0610A
:10436000002101A808E06A1A1218203AD27FCB0077
:104370009A401419491CC9B28D42F4D800F0EFFDDF
:1043800020467CBD0004005094000020F8B504468F
:104390004368FF26012005368002B3420AD1A36894
:1043A0004501AB4201D0834204D123681D684027F8
:1043B000BD431D6063682025B34210D1A3688342CA
:1043C0000DD000920B4600228021204600F03CF8E0
:1043D000002803D0606D284360650320F8BD00927B
:1043E0000B4600220121F0E7F8B5044615480E46B9
:1043F000154613490068FBF77DFE7D21C90048433F
:1044000000906068C11FFD390ED133460022802123
:104410002046009500F018F800280FD0606D20218C
:10442000084360650320F8BD0098002806D0401EB0
:10443000009020688068C0430006F5D50020F8BDD4
:1044400000366E010C000020FFB581B01E46044608
:104450000A9DFDF765F8401B351AFDF761F8074620
:10446000264800684001000D684339E0701C38D0D0
:10447000FDF756F8C01BA84205D2002D03D00098C6
:1044800000282BD02BE020684168E0229143416056
:104490006068C11FFD390CD10121A068C9038842A1
:1044A00002D04911884204D120680168402291431A
:1044B00001600120A16A4003814207D121680A6896
:1044C00082430A6021680A6802430A60012040347E
:1044D000607400202074032005B0F0BD0025401E4C
:1044E0000090206881680298884305D000210398D5
:1044F0008142BBD10020EFE70121F8E70C0000204A
:10450000704700007D22D200511A89B2054B4A1E25
:104510009A4202D84900491E01E0002900D1C16336
:1045200070470000E70300007047000010B5FDF77A
:104530007FFD0120124C4003A061FDF78FFD01209B
:104540008003A0610F480168E20291430160D1112C
:10455000A16101685200114301600220FCF73AFAA0
:104560000948816B02041143816300F03DFD00F0B6
:10457000F1FA00F045FDFCF703FB00F0F9FB10BD7C
:1045800000080050380000200010024030B50169DA
:10459000C907C90F30D00121C9430161184B186800
:1045A0000521840400220907164D17481B68002CBA
:1045B00011DADB040DD44B6908221C461440240494
:1045C0009A4314438C610168002915D00168491E83
:1045D00011E0026012E00D4C1B050ED44B6908225D
:1045E0001D4615402D049A4315438D610168A14273
:1045F00002D20168491C016030BD04602A7030BDE0
:1046000038000020480000203C00002048BE080080
:1046100070B50125214E2D0329463046FEF72CF8B2
:10462000014668101E4C0129216825D08143216074
:10463000012149033046FEF71FF8012820681DD0EC
:10464000A8432060012189033046FEF715F8014692
:104650000120400701292168216811D08143216090
:104660000121C9033046FEF707F801218907012817
:10467000206820680BD00EE00143D8E72843E0E72C
:10468000014321602068042188432060E8E7084353
:104690002060206808218843206070BD000400501D
:1046A0003800002010B5FCF741FF10BD70B544483C
:1046B000012102688A430A4302600168C907C90FE1
:1046C000FBD0404901220868D2020323DB02984351
:1046D000104308603C48026801231B041A4302602F
:1046E00002689203D20FFBD00368012213430360D8
:1046F00003685B07DB0FFBD043681F242402A3433E
:1047000001242403234343602F4C40342369134383
:10471000236122699207D20FFBD00A68FF2301337D
:104720001A430A60216903231B0401221940520421
:1047300091420AD0256991000D43256125698D4379
:104740002561216999431143216121690122920464
:1047500011432161C168FD22120491439122120488
:104760001143C16001680122120611430160016812
:104770008901C90FFBD0C168F0229143C160C168B3
:10478000072212029143C160C168D2009143C16007
:10479000C26803218A430A43C2600C22C1681140E7
:1047A0000C29FBD10948FEF71DFB0120FCF7DAFEBE
:1047B000E0680221800880000843E06070BD0000CE
:1047C0000020024000700040001002400048E80154
:1047D00010480168821511430160C1680E4A1140FA
:1047E000C16001680D4A11400160816849084900B3
:1047F000816001680122920491430160C168FD2239
:1048000012049143C160002101610549C003886021
:1048100070470000001002400C40FF88F6FFF6FED3
:1048200000ED00E010B502490248FBF775FF10BD2E
:10483000001401400008014010B50248FFF7A6FE31
:1048400010BD00000014014010B501208007FCF7E6
:104850001BFB10BD10B505480169C907C90F04D07D
:104860000121C943016100F0A1FA10BD0010004010
:1048700070477047704700007CB516460C0005462F
:1048800027D0202C25D800F053FBA80069460870DB
:104890000020E50801A907E0C200131932469A403A
:1048A000120E0A54401CC0B28542F5D8094C402073
:1048B000A0620A23012269460748FDF775F90A2319
:1048C0002A4601A90448FDF76FF94020A06100F0D5
:1048D00046FB7CBD00040050940000202021020C07
:1048E00001D010211046020A01D0104608390209F1
:1048F00001D01046091F820801D01046891E4208C7
:1049000001D0881E7047081A70470000002809DB94
:10491000C106C90E0120884003490860BFF34F8FCC
:10492000BFF36F8F7047000080E100E0002809DBD3
:10493000C106C90E0120884003490860BFF34F8FAC
:10494000BFF36F8F7047000080E100E0002805DBB7
:10495000C106C90E01208840014908607047000067
:1049600000E100E0002805DBC106C90E01208840F7
:10497000014908607047000000E100E08307FF2262
:10498000DB0E9A408907090E9940002808DB83084E
:1049900009489B001B18186890430843186070472B
:1049A0000007000F0838830804489B001B18D869CB
:1049B00090430843D861704700E400E000ED00E058
:1049C0008307FF22DB0E9A408907090E99400028D1
:1049D00008DB830809489B001B18186890430843AC
:1049E000186070470007000F0838830804489B00D0
:1049F0001B18D86990430843D861704700E400E071
:104A000000ED00E002E008C8121F08C1002AFAD138
:104A100070477047002001E001C1121F002AFBD13E
:104A20007047704770B5174C2068800229D5012166
:104A30001548890381612168C20291432160010107
:104A40008162206809028843206010490020C86004
:104A500088800F4D01462846FFF754FD0F20FFF7D1
:104A600065FF286AA915884328623220FEF7FEFBFD
:104A7000084802218162042181622068C9048843B8
:104A8000206070BD38000020000800504C0000205D
:104A90000004004000040050F8B5284908680025CB
:104AA00082022748274C002A18DB274B02149A62FF
:104AB0000A68060332430A60C2139A610B68460310
:104AC00033430B60214B1A60026A83151A4302625A
:104AD00008685A0310430860E560F8BDA188FFF735
:104AE00011FD1B4EE06831787D27FF00884207D218
:104AF000A088B84204D2C01CA0800120FEF7B6FBFB
:104B00003178E068884205D1A088401CA08001204F
:104B1000FEF7ACFB3178E068884207D9A08800280E
:104B200009D0801EA0800120FEF7A0FBA0880028ED
:104B300001D0B842D1D9E560A580F8BD3800002089
:104B4000000400404C0000200008005000E100E09C
:104B50003100002010B51148016801242143016093
:104B60000021FFF7CFFC0F20FFF7E0FEA007C16890
:104B700002221143C160016A21430162C16804221B
:104B80001143C160026A10210A4302620168214395
:104B90000160C1682143C16010BD000000040040F5
:104BA0001B4802691B49002A06D10A78052A03D945
:104BB0000A78521E0A7005E00269002A06D00269CE
:104BC000052A03D80169491C016170470269052A59
:104BD00005D902690F2A02D80A78052A12D8026973
:104BE0000F2A09D90A780F2A06D90269521C0261D4
:104BF00008780A380870704702690F2AFBD90A78CA
:104C0000052AF8D90269521C02610878401EF1E7B2
:104C10004C000020310000201B4802691B49002A7B
:104C200006D10A78322A03D20A78521C0A7005E0AB
:104C30000269002A06D00269032A03D80169491CC7
:104C4000016170470269032A05D902690F2A02D857
:104C50000A78322A12D302690F2A09D90A78282A37
:104C600006D20269521C026108780A300870704747
:104C700002690F2AFBD90A78322AF8D20269521C3B
:104C800002610878401CF1E74C0000203100002050
:104C900010B50D4AC1018C180B4A7F3289180022C9
:104CA0000AE00B78002B04D090082021081A80B26B
:104CB00010BD521C92B2491EA142F2D2012100F055
:104CC0000BF8012010BD000080FFFF070149C00163
:104CD0004018704780FFFF0738B5084A00230C468C
:104CE0001360FFF7F3FF9460506069460348009338
:104CF000FCF786F902490120488038BD34010020C4
:104D000090000020C00189004018074910B54318E1
:104D1000002001465A181278CC00A240491C1043CA
:104D2000C9B20429F6D310BD7CFFFF0770B50F4C44
:104D3000064660880D46401C60806088202803D9A4
:104D400001212846FFF7C8FF01200AE02846FFF7A7
:104D5000BDFF61883246890041180220091FFCF717
:104D6000E7F9607060780028F0D170BD90000020F5
:104D700070B5FCF72FFA0B4C60700125AD02284688
:104D8000FFF786FF608061882846FFF7BBFF410080
:104D9000090E01D0044908602078012108432070E1
:104DA00070BD00009000002078000020F8B5514D43
:104DB000514E0424600041194978285CFFF7B0FA8D
:104DC000A10089198039641CE4B20867082CF1D36A
:104DD000308800B2FBF74AFB0022484BFBF766FA2B
:104DE000FBF798FB464CE060308900B2FBF73EFBD6
:104DF000444A454BFBF75AFAFBF78CFB054620610A
:104E0000F068FBF747FB414A414BFBF74FFAFBF7D2
:104E100081FB0121C9053F4A3F4F404EA0618D42B1
:104E20001ADB3178FD231940317031784908490087
:104E30003170616891422FDAFBF758FB384A394BE1
:104E4000FBF734FA05460E466068FBF74FFB2A462F
:104E50003346FBF71CFA1CE033498D4227D33178E7
:104E60004908490031703178022319433170616873
:104E7000914211DAFBF73AFB294A2A4BFBF716FA63
:104E800005460E466068FBF731FB2A463346FBF7C2
:104E900059F9FBF73FFB60603878C00724D06068A1
:104EA000FCF7ACF801218902FFF740FF1CE03878DD
:104EB000C00719D03078C00716D16069884213D373
:104EC0006800000E10D1194860606068FCF796F821
:104ED00001218902FFF72AFF307801210843307051
:104EE0003078FD2108403070FBF74EFC206960618E
:104EF000F8BD0000AE500008240100200000094069
:104F000074000020333333333333D33FB81E85EB83
:104F100051B8AE3F0024F449900000204900002021
:104F20008BFDCDDA5933633F000080800050434849
:104F300010B50220FFF7EAFC0A20FFF7E7FC0F207C
:104F4000FFF7E4FC0F20FFF7E1FC1420FFF7DEFC85
:104F50001620FFF7DBFC1B20FFF7D8FC10BD10B5B7
:104F60000220FFF7FFFC0A20FFF7FCFC0F20FFF7F1
:104F7000F9FC0F20FFF7F6FC1420FFF7F3FC1620D6
:104F8000FFF7F0FC1B20FFF7EDFC10BDFCF7D6FA95
:104F9000FFF78CFBFEF7F0FAFEF712FCFEF7D0FAF3
:104FA000FEF7C8FCFEF758FDFEF7BCFDFEF7E6FD78
:104FB000FEF764FCFEF790FCFEF70CFEFEF746FAE7
:104FC000FEF73AFCFFF7B2FA054D064CFBF70EFC74
:104FD000FBF7A2FCFFF71CFBFBF794FD2560F5E750
:104FE000AAAA00000030004000B5FBF771FEFBF7F5
:104FF000BDFEFBF7FDFDFBF785FEFBF707FE00BDE1
:1050000010B50E48C16801221143C160C168114347
:10501000C1600B49CB681343CB600A4AFEF7D0F955
:10502000FBF7CEFC0848016801229203914301601E
:10503000016840221143016010BD000000080140DA
:10504000001401400014004038000020000000005F
:105050000400040000080000000800000800000030
:10506000080000040008000C081C3044586C800044
:105070000000000000000001020304060708090305
:105080000406080C10182030000000000102030480
:10509000081C3044586C802053797374656D0D542E
:1050A00072616E73706F72746174696F6E2000103C
:1050B00001100210041005100610071008180B103C
:1050C0000C100D100E100F10101011103E103F108C
:1050D000F05000080000002094000000044A00087E
:1050E0008451000894000020AC040000144A000819
:1050F000010000000400000000000000000020008B
:1051000053797374656D20000000000000000000FA
:10511000205472616E73706F72746174696F6E0D7A
:105120000028000000000000000000000000000057
:105130004605000014000000000000000000000010
:10514000000000000000000000000000000000005F
:10515000000000000000000000000000000000004F
:10516000000000000000000000000000000000003F
:10517000000000000000000000000000000000002F
:04518000000001002A
:04000005080000C12E
:00000001FF
