:020000040800F2
:1000000000050020A1010008A7120008BD08000893
:10001000A51200080D020008E91600080000000003
:1000200000000000000000000000000005140008AF
:10003000350500080000000041130008A515000860
:10004000BB0100083F130008BB010008BB0100080A
:10005000BB010008BD130008BB010008BB0100087C
:10006000BB010008BB010008BB010008BB01000880
:10007000BB010008BB010008FD02000809030008DD
:10008000BB010008BB010008BB010008BB01000860
:10009000BB010008BB010008BB010008BB01000850
:1000A000BB010008BB010008BB010008BB01000840
:1000B000691600088116000800000000BB01000856
:1000C000BB0100080000000000000000BB010008A8
:1000D00000000000BB010008BB010008BB010008D4
:1000E000BB010008BB010008000000000000000088
:1000F0000000000000000000000000000000000000
:1001000000000000000000000000000000000000EF
:100110000000000000000000BD160008BB01000840
:1001200000000000000000000000000000000000CF
:1001300000000000000000000000000000000000BF
:10014000BB010008BB01000800000000BB01000863
:10015000BB010008BB010008BB010008BB0100088F
:10016000BB010008BB010008000000000000000007
:10017000000000000000000000000000000000007F
:1001800000000000BB010008DFF810D000F02CF8E0
:1001900000480047B5190008AFF3008000050020B3
:1001A0000648804706480047FEE7FEE7FEE7FEE711
:1001B000FEE7FEE7FEE7FEE7FEE7FEE7591600086A
:1001C00089010008D2B201E000F8012B491EFBD2E0
:1001D00070470022F6E710B513460A460446194652
:1001E000FFF7F0FF204610BD064C074D06E0E06823
:1001F00040F0010394E8070098471034AC42F6D36E
:10020000FFF7C6FF70F4000890F40008FEE7000056
:1002100070B50D4B00210322197059709970002898
:1002200011D00A24B0FBF4F504FB1505C1F1020658
:100230009D55B0FBF4F0491C521EC9B2D2B2002841
:1002400001D0002AEED170BD2D00002010B5184A53
:1002500018480021435C545CA34227D1491CC9B211
:100260000629F7D9124A0021D21D43181B7C545C81
:10027000A3421BD1491CC9B20F29F6D9C17A0E4A33
:100280001170017B0D4A1170417B0D4A1170817A0A
:10029000C27901EB0261027A437A120402EB032273
:1002A0001144084A1160807B0749087010BD0000A6
:1002B00056F40008DC000020CE000020CC00002016
:1002C000CD000020D0000020D80000200849086898
:1002D000020E0848C2730A68120C02740A68120AF5
:1002E00042740968817404490978C1757047000037
:1002F000D4000020AC00002028000020014800F0BD
:10030000EFB8000000000240014800F0E9B800002A
:100310000000024010B500F047F800F089F8BDE891
:1003200010404FF47A7000F055BD000005484FF4BE
:10033000002141604910416049104160491041600D
:10034000704700000000024038B5144CE069C0F36B
:1003500080100028FAD0206820F00100206000F012
:1003600067F882200D490F4D009020230C4A24315C
:10037000284600F0D3F809490831086840F04000E9
:100380000860086820F080000860286840F00100DC
:100390002860206840F00100206038BD003801402E
:1003A000DC00002058000240034801684FF6FE724E
:1003B0001140016000F04EB85800024005484FF46B
:1003C0000041416049104160491041608114416021
:1003D000704700000000024038B5124C206820F041
:1003E00001002060FFF7E0FF92200E490F4D0090C2
:1003F00020230D4A2831284600F090F80949083199
:10040000086840F080000860086820F0400008603C
:10041000286840F001002860206840F0010020605A
:1004200038BD000000380140AC000020440002400C
:10043000034801684FF6FE721140016000F00AB8EF
:100440004400024000B5FFF77FFF5DF804EBFFF7C3
:100450003DBF000001684FF6FE72114001600021AF
:10046000016041608160C1601C491C4A08399042AA
:1004700003D1486840F00F0006E0184A1432904259
:1004800004D1486840F0F00048607047134A2832B1
:10049000904203D1486840F47060F5E70F4A3C325F
:1004A000904203D1486840F47040EDE70B4A503267
:1004B000904203D1486840F47020E5E7074A64326F
:1004C000904203D1486840F47000DDE7034A783277
:1004D0009042DAD1486840F07060D5E708000240E9
:1004E0000168C1F3403121B14FF400514160FFF781
:1004F000A9BF0168C1F3404121B14FF4003141600F
:10050000FFF7A4BE0168C1F3C03121B90068C0F390
:10051000C040002801D0FFF7FDBE704770B50468E9
:10052000049D47F6FE76B4432C4343608160C2606D
:10053000046070BD704700000648416841F0010149
:100540004160416841F002014160416841F00401AD
:1005500041607047002004E02DE9F84F0546AA48A5
:10056000894693460168A94C490514D5207840076F
:1005700071D4A7480090A74800210378A6480278C4
:10058000084601F0A5F9207840F00400207020789A
:1005900020F0020016E000684006207817D580079A
:1005A00059D49E4800909E48002103789D480278C7
:1005B000084601F08DF9207840F002002070207884
:1005C00020F004002070207820F0010074E0C007C3
:1005D0004FF6FF7640D02846FFF71AFE8B4C641C7E
:1005E000A07804F1570757F820000090A17804F193
:1005F0002F0858F82100A178037804F1070A5AF867
:100600002100752102780C2001F062F9092D7DD9B5
:10061000607857F820000090617858F821006178E0
:1006200003785AF8210075210278272001F050F94B
:10063000632D44D9207857F820000090217858F88D
:100640002100217803785AF8210075210278422090
:1006500001F03EF93AE030E000219F237F22084676
:10066000009601F011F970480090704874210378E9
:100670006F480278642001F02BF96E4800906E48B4
:10068000392103786D480278462001F021F96C4841
:1006900000906C48072103786B480278462001F0EF
:1006A00017F9207820F004002070207820F0020054
:1006B0002070207840F001002070BDE8F88F922370
:1006C0005B2275214220009601F0DEF84846FFF7D4
:1006D0009FFD6178B94657F82100009060786178F5
:1006E000474658F8200003785AF82100D0463E21AA
:1006F0000278272001F0ECF8A17859F82100009049
:10070000A078A17857F82000037800E038E058F886
:1007100021003E2102780C2001F0DAF85846FFF75C
:1007200077FD617859F8210000906078617857F87A
:100730002000037858F8210007210278272001F0D3
:10074000C7F8A17859F821000090A078A17857F84F
:100750002000037858F82100072102780C2001F0CE
:10076000B7F83A480078800710D5394800903948E2
:100770007821037838480278682001F0A9F89CE7CE
:10078000B0235B227521272000969DE705EB4500ED
:100790006424C7000F2D11D9B7FBF4F07830C1B233
:1007A0008F2371226820009601F06EF8B7FBF4F0F9
:1007B0007730C3B246F2DC5000901FE06D1F4FF45B
:1007C00078480A2D10D8B7FBF4F07830C1B28F23E7
:1007D00071226820009601F057F8B7FBF4F07730EB
:1007E000C3B2CDF8008009E08F23712279216820FF
:1007F000009601F049F87823CDF800807122782125
:10080000682001F041F858E7D00000202C000020BB
:1008100055520008250000202400002055A20008A1
:100820002700002026000020733A00081D00002049
:100830001C0000200D3D00081F0000201E000020AD
:10084000A54800082100002020000020D80000203A
:10085000655100082300002022000020144910B533
:100860002020886200F0B0FF00F0E4FF012000F0DB
:10087000B1FA00F0D3FF00F0A7FF282001F08CF8B8
:1008800000F0D2FF0B48016841F0040101600A4802
:10089000016841F001010160016841F0020101605D
:1008A000016841F004010160BFF34F8F30BF10BDFC
:1008B0000004004810ED00E00070004000F098F8DF
:1008C0004FF090474FF40065BD61114C1020A061BE
:1008D0004601A6614FF4FA68786925EA000100F440
:1008E000006041EA0040B86160691021814300F076
:1008F000100041EA0040A061606926EA000100F4AE
:10090000007041EA0040A061404600F063FAE3E76E
:1009100000040048044908B54A6902434A6149692C
:100920000140009108BD000000100240044908B5D4
:10093000CA690243CA61C9690140009108BD00004B
:1009400000100240044B194411F8011C435823F4D1
:100950004053134343507047DC1B0008054B10B550
:10096000194411F8011C435844F21004A3431343E3
:10097000435010BDDC1B0008044B194411F8011C46
:10098000435823F08003134343507047DC1B000897
:10099000044B194411F8011C435823F440631343DA
:1009A00043507047DC1B0008044B194411F8011C2C
:1009B000435823F02003134343507047DC1B0008C7
:1009C000044B194411F8011C435823F0400313430E
:1009D00043507047DC1B0008044B194411F8011CFC
:1009E000435823F44073134343507047DC1B000803
:1009F00010494FF0FC5008600020091D0860091DD7
:100A00000860091D0860091D08600A4A0A49143275
:100A10001160084A811E20321160111D0860091DF5
:100A20000860091D0860091D08600320091D086091
:100A30000020704700040140FFFF7F00F0B50A6806
:100A40000F2692FAA2F2B2FA82F303248EE0012575
:100A50009D402A407ED04D68012D01D0022D20D12D
:100A60008D68876892FAA2FCBCFA8CFC4FEA4C0CA9
:100A700004FA0CFC27EA0C0792FAA2FCBCFA8CFCE4
:100A80004FEA4C0C05FA0CF52F438760CF680D68D0
:100A9000D0F804C02CEA050C7D434CEA050CC0F8E4
:100AA00004C00F69D0F80CC092FAA2F5B5FA85F52A
:100AB0004FEA450E04FA0EF52CEA050C92FAA2F55F
:100AC000B5FA85F56D00AF404CEA070CC0F80CC0D4
:100AD0004D68022D33D192FAA2F5B5FA85F5082DAD
:100AE00015D2D1F814C0056A92FAA2F7B7FA87F7BF
:100AF000BF0006FA07F7BD4392FAA2F7B7FA87F7E5
:100B0000BF000CFA07FC45EA0C05056217E0D1F8B6
:100B100014E0476A150A95FAA5FCBCFA8CFC4FEA6A
:100B20008C0C06FA0CFC95FAA5F5B5FA85F5AD0026
:100B300027EA0C070EFA05FE47EA0E0747624D68E2
:100B4000076892FAA2FCBCFA8CFC4FEA4C0C04FA3F
:100B50000CFE00E009E092FAA2F2B2FA82F2520030
:100B600027EA0E0795402F4307605B1C0A6832FA9C
:100B700003F57FF46CAF0020F0BD0069814301D024
:100B800000207047012070474FF47A71B0FBF1F1FB
:100B90004FF0E020491E4161002181610521016182
:100BA000704700B5034600F0F7FB186000F0CAFB81
:100BB000586000F0D5FB9860586800F0DFFBD86003
:100BC00000BD000000B501004FF000001BD112492C
:100BD0000A6B02F00302012A0BD0022A14D0032A66
:100BE0000BD000F0D9FB00F0ADFB5DF804EB00F09A
:100BF000B7BB5DF804EB00F0CFBB0968C1F340015F
:100C0000002900D0054800BD096AC1F34001002950
:100C1000F9D04FF4004000BD0010024000127A00ED
:100C200010B503680122C3F3801373BBD1E900231D
:100C30001A43D1E9033423431A434B691A438B699E
:100C40001A43CB691A430B6A1A4303684FF6BF7401
:100C5000A3431A430260426840F604739A434B6907
:100C600042EA13428B681A4342608A68B2F5006F09
:100C700003D2426842F4805242600A6AB2F5005FD1
:100C800002D1898C89B201610022104610BD00009A
:100C9000014908607047000004000020F0B50268B8
:100CA0001A4B1B4F4FF0804C984203D0604501D047
:100CB000B84203D14C6822F070022243154C164D05
:100CC000164E984209D0604507D0B84205D0A042E0
:100CD00003D0A84201D0B04203D1CF6822F44072C1
:100CE0003A4302608A68C2620A888262984205D0EA
:100CF000A04203D0A84201D0B04201D109690163EA
:100D0000416941F0010141610020F0BD002C01402A
:100D10000004004000400140004401400048014000
:100D20007FB5044600680D46012610F0010F37D14B
:100D3000E9686868AA69084329691143084321687A
:100D4000204A114008432060A868616821F440519E
:100D5000014361606869A16821F440710143A160A9
:100D60001948844204D10020FFF72CFF014609E016
:100D70001648844202D01648844211D16846FFF7D3
:100D800010FF029961B1286850B1AA690026B2F536
:100D9000004F08D001EB5001B1FBF0F080B2E060F1
:100DA00004B0304670BD490001EB5001B1FBF0F0DA
:100DB00081B24FF6F07201EA0200C1F3420108432A
:100DC000EDE70000F369FFEF003801400044004008
:100DD0000048004008B54FF0E0210A690092421C2B
:100DE00000D0401C0A69D20300D5401E0028F9D16A
:100DF00008BD00000E4808B5416941F0400141615D
:100E0000406900F0400000900A48816821F06001CC
:100E10008160816821F080018160074941618168BA
:100E200021F0180181604FF0FF31016108BD000021
:100E30000010024000300240B71DC10438B514480C
:100E4000416941F0010141614069124C00F001002B
:100E5000009020680022C0F30220114600F03DFA05
:100E600001460E2000F080FC0E2000F04BFC2068B4
:100E70000022C0F30220114600F02FFA01460F2095
:100E800000F072FCBDE838400F2000F03BBC0000D1
:100E9000001002400CED00E02DE9F04387B018216E
:100EA0006846FFF796F94FF40020FFF733FD4FF443
:100EB0008000FFF72FFD4FF40030FFF72BFD4FF4BC
:100EC0008020FFF727FD20484FF4004181624FF05A
:100ED000904748F64606BE62DFF8709040F2F77819
:100EE000C9F82880009101250024CDE9015403941C
:100EF00069460494FFF7A2FD41F21910CDE9000400
:100F0000694638460494FFF799FD0096CDE90154EF
:100F10000394694638460494FFF790FDCDF80080AD
:100F2000CDE901540394694648460494FFF786FDD1
:100F30004FF47840CDE90004694648460494FFF731
:100F40007DFD07B0BDE8F0830008004800040048BC
:100F500010B592B028216846FFF73BF918210AA87E
:100F6000FFF737F92148816941F480518161816936
:100F700001F480511091416941F4003141614069AF
:100F8000002400F400301090A0200A9002200B9062
:100F90000320CDE90C040520CDE90E400AA94FF04D
:100FA0009040FFF74BFD4FF4404000904FF48270AB
:100FB00001904FF40060CDE902048010CDE90440B7
:100FC0000820CDE906040720CDE90840084C694611
:100FD0002046FFF725FE606820F010006060606822
:100FE00020F00800606012B010BD00000010024048
:100FF0000030014010B586B014216846FFF7E9F8CB
:101000000120FFF793FC184800680022C0F302207B
:10101000012100F07BF901461C2000F0B5FB1C20EB
:1010200000F07DFB40F2CF20ADF8000000204FF42F
:10103000FA61CDE901014FF08044039069462046F2
:10104000FFF72CFE206840F080002060A068074970
:101050000840A060606820F070006060A06820F028
:101060008000A06006B010BD0CED00E0F8BFFEFFF0
:1010700010B586B014216846FFF7ABF80220FFF7E1
:1010800055FC184800680022C0F30220012100F03E
:101090003DF901461D2000F077FB1D2000F03FFBCD
:1010A00041F61F40ADF80000102001904FF6FF7090
:1010B000029000200C4C039069462046FFF7EEFD9D
:1010C000206840F080002060A06808490840A060C7
:1010D000606820F070006060A06820F08000A06070
:1010E00006B010BD0CED00E000040040F8BFFEFFAC
:1010F00010B586B014216846FFF76BF81020FFF793
:1011000015FC154800680022C0F30220012100F000
:10111000FDF80146362000F037FB362000F0FFFADC
:101120004FF6FF70ADF800000020019064200B4CDA
:10113000029069462046FFF7B1FD206840F080002C
:101140002060606820F070006060A06820F080007F
:10115000A06006B010BD00000CED00E000100040E3
:1011600070B58EB01C216846FFF733F8182107A828
:10117000FFF72FF84848816941F480418161816916
:1011800001F480410D91416941F4003141614069B0
:10119000002400F400300D904FF4C060079002204E
:1011A00008900320CDE909040720CDE90B4007A9E9
:1011B0004FF09040FFF742FC384D002205212846B1
:1011C000FFF7CCFBAE14324605212846FFF7BAFBE9
:1011D000002205212846FFF7E7FB002205212846CB
:1011E000FFF7EEFB802205212846FFF7C5FB002212
:1011F00005212846FFF7F0FB002205212846FFF7CE
:10120000C7FB102204212846FFF7A8FB3246042121
:101210002846FFF797FB002204212846FFF7C4FB6E
:10122000002204212846FFF7CBFB80220421284618
:10123000FFF7A2FB002204212846FFF7CDFB002286
:1012400004212846FFF7A4FB4FF4E130CDE9000468
:101250000C200294CDE9034005940694104C694695
:101260002046FFF75DFD04F1080000BF50E8001FB5
:1012700021F4806140E80012002AF7D1606820F470
:1012800090406060A06820F02A00A060206840F0D4
:10129000010020600EB070BD00100240000002404E
:1012A00000380140FEE7FEE730B500F00703C3F168
:1012B0000704042C00D90424181D072801D2002398
:1012C00000E0DB1E012505FA04F0401E08409840AE
:1012D0009D406D1E1540284330BD30B500F007031A
:1012E000C3F10704042C00D90424181D072801D2D7
:1012F000002300E0DB1E012505FA04F0401E084033
:1013000098409D406D1E1540284330BD30B500F01B
:101310000703C3F10704042C00D90424181D07286F
:1013200001D2002300E0DB1E012505FA04F0401E77
:10133000084098409D406D1E1540284330BD7047C1
:101340007047000004494968044A01F0F0010909A6
:10135000515CC8407047000000100240E31B0008C9
:1013600004494968044A01F4E06102EB112109785B
:10137000C840704700100240F31B00080449496848
:10138000044A01F4605102EBD1210978C84070474A
:1013900000100240F31B00080648406810F00C01E2
:1013A000054805D0042903D0082901D100F008B868
:1013B000704700000010024000127A0070470000E1
:1013C0000E49486810F480320D4803D0B2F5803FD2
:1013D00000D14000CA6A496802F00F02521CB0FBFB
:1013E000F2F04FF4701292FAA2F201F47011B2FA14
:1013F00082F2D140891C484370470000001002402F
:1014000000093D00704700002DE9F0474FF4805A75
:101410004FF0904751463846FFF7AFFB424C01284A
:10142000404E20684FF6FF7553D020F00200206038
:1014300001213846FFF7A1FB012820684ED020F09B
:1014400001002060DFF8E4804FF400514046FFF7D0
:1014500094FB0128206846D020F008002060082175
:10146000B9463846FFF789FB0128206840D020F0B4
:1014700004002060514647464046FFF77EFB0128A6
:1014800020683AD020F02000206010214846FFF765
:1014900074FB0128206835D020F01000C4F800004B
:1014A0004FF400413846FFF768FB012820682ED032
:1014B00020F08050C4F800004FF400613846FFF778
:1014C0005CFB0128206827D020F000602060BDE888
:1014D000F08740F0020020607562A9E740F001004B
:1014E00020607562AEE740F0080020607562B6E7E4
:1014F00040F0040020607562BCE740F020002060EE
:101500007562C2E740F0100020607562C8E740F0E5
:10151000805020607562CFE740F000602060756207
:10152000D5E7000000040040D4000020000400487B
:1015300010B5FFF701F81748C16941F08051C1614A
:101540001548416841F4007141604FF08040C16826
:1015500041F00101C160016841F0010101600F48E3
:1015600047F6F87181624FF6FF71C1624162C1684E
:1015700041F00101C160016841F0010101600848CA
:10158000C16841F00101C16000F0CEFABDE8104031
:1015900000F0BEBA0010024000700040000400409D
:1015A000001000407047000070B52848016821F025
:1015B000070141F002010160016801F00701022901
:1015C000FAD1234C206840F4803020602068C0F3BA
:1015D00040400028FAD061684FF4803021F4741143
:1015E00041F4E8116160E16A60F30301E16220689F
:1015F00040F0807020602068C0F340600028FAD07E
:10160000606820F0F0006060606820F4E06040F402
:1016100080606060606820F460506060606820F006
:10162000030040F002006060606800F00C000828D1
:10163000FAD1084D2846FFF7A7FA2846FFF728FBFE
:10164000206B20F00300206370BD000000200240EA
:101650000010024000A24A040248016841F47001EF
:101660000160704788ED00E04FF08040016911F0A3
:10167000010F04D06FF001010161FEF7ADBE7047AC
:1016800010B50C4C206910F0010F0ED06FF0010066
:1016900020610948417849B1002141700A20FFF7D3
:1016A00099FBFFF7DBF80A20606210BD0121417051
:1016B00010BD00000004004000000020084801693F
:1016C00011F0010F0BD06FF00101016105480178A5
:1016D000491C017001780B2901D301210170704769
:1016E0000010004000000020FEE7002809DB00F0A9
:1016F0001F02012191404009800000F1E020C0F864
:1017000000117047002809DB00F01F020121914001
:101710004009800000F1E020C0F800117047002867
:1017200009DB00F01F02012191404009800000F117
:10173000E020C0F80011704702480068C0F30220A2
:10174000704700000CED00E00907090E002804DBDB
:1017500000F1E02080F80014704700F00F0000F165
:10176000E02080F8141D70470907090E002804DBEB
:1017700000F1E02080F80014704700F00F0000F145
:10178000E02080F8141D70470907090E002804DBCB
:1017900000F1E02080F80014704700F00F0000F125
:1017A000E02080F8141D704702E008C8121F08C12D
:1017B000002AFAD170477047002001E001C1121FD2
:1017C000002AFBD17047000004490020486004480B
:1017D00040684A688242FCD370470000001000E075
:1017E0002C0000200A490A6842F080720A60094908
:1017F0000A6842F001020A6000EBC00101EB001030
:1018000040F25B11B0FBF1F0034948607047000003
:10181000FCED00E0001000E02C00002001498020D9
:101820008862704700040048014980208861704741
:10183000000400484FF090414FF400408861704729
:1018400070B5044615460E462A2000F0A5F8002083
:1018500000F0A8F8204600F0A5F8002000F0A2F85B
:10186000284600F09FF82B2000F096F8002000F0AA
:1018700099F8304600F096F8002000F093F8BDE8A3
:101880007040184600F08EB82DE9F0431D4616460C
:101890000C468146079FFFF7D3FF2C2000F07CF811
:1018A0006D1C4FEA1728761C0DE04B4607E04046BA
:1018B00000F078F8F8B200F075F85B1CDBB2B342C8
:1018C000F5D3641CE4B2AC42EFD3BDE8F083000072
:1018D00070B514465A181E46521ED3B22218521E14
:1018E000D2B2C9B2C0B2049DFFF7AAFF2C2000F00B
:1018F00053F86D1E04FB06557443A4B2074E09E06D
:101900002878002136F81020084600F033F8641ECD
:10191000A4B26D1E002CF3D170BD000056F2000879
:1019200010B5FFF751FF4FF090414FF40040886130
:101930000120FFF74FFA0E4980208862FFF744FF2D
:10194000112000F029F80120FFF744FA3A2000F0B6
:1019500023F8052000F026F8362000F01DF81C20A2
:1019600000F020F8BDE81040292000F015B8000074
:101970000004004800B51346100A00F013F8D8B26E
:101980005DF804EB00F00EB802498A689207FCD5B6
:10199000C86070470030014000B572B6FFF7F4FF31
:1019A00062B600BD00B572B640F48070FFF7ECFF80
:1019B00062B600BD504808B5816941F001018161FE
:1019C000816901F001010091C16941F08051C1615B
:1019D000C0694A4900F08050009008684FF6FF0245
:1019E0001040474A40F4407010430860FFF7A4FEDF
:1019F00000220121FFF758FC01466FF00B00FFF7B2
:101A0000A3FEFFF799FE00220121FFF74DFC0146DE
:101A10006FF00A00FFF798FEFFF78EFE002201210B
:101A2000FFF742FC01466FF00900FFF78DFEFFF75C
:101A300083FE00220121FFF737FC01466FF004000E
:101A4000FFF782FEFFF778FE00220121FFF72CFC52
:101A500001466FF00300FFF777FEFFF76DFE0022EF
:101A60000121FFF721FC01466FF00100FFF76CFE3A
:101A7000FFF762FE00220121FFF716FC01464FF03E
:101A8000FF30FFF761FEFFF757FE00220121FFF74D
:101A90000BFC01460120FFF757FE0120FFF725FE52
:101AA000FFF74AFE00220121FFF7FEFB0146052059
:101AB000FFF74AFE0520FFF718FEFFF775FDFFF759
:101AC000EBF9FFF7BBF9FFF795FAFFF7D1FAFFF74C
:101AD00047FBFFF70DFBFFF73BFAFFF78BF9FFF72B
:101AE00027FD084C084D094EFFF78EFC2278297817
:101AF0003078FEF731FDF7E7001002400CED00E012
:101B00000000FA05CC000020CD000020CE0000200F
:101B100000B5FEF749FCFEF78BFCFEF707FC5DF80D
:101B200004EBFEF74BBC000038B5214C8020A061CF
:101B30002048016841F04001016040F2FF11C1609E
:101B4000FFF7EEFE4FF47A70FFF74CFE2020A06105
:101B50004FF09041800188611020A0614001A06198
:101B60004FF6FF70002100909F237F220846FFF769
:101B70008BFE1148009011487521037810480278B7
:101B80006420FFF7A5FE0F4800900F483921037825
:101B90000E4802784620FFF79BFE0D4800900D4846
:101BA000072103780C4802784620FFF791FE38BDE4
:101BB0000004004800300140733A00081D00002076
:101BC0001C0000200D3D00081F0000201E0000200A
:101BD000A54800082100002020000020081C3044F7
:101BE000586C8000000000000000000102030406A1
:101BF0000708090000000001020304FFFFFFFFFFC8
:101C0000FFFFFFFFFFFFDFBB9B77777B9BBBDFFF08
:101C1000FFFFFFFFFFFFFFFFFFFFFFFFFFFFBB77A0
:101C20007777777777777777779BDFFFFFFFFFFF10
:101C3000FFFFFFFFFFFFDF7777777777777777779C
:101C40007777777777BBFFFFFFFFFFFFFFFFFFDBB4
:101C50007777777777777777777777777777777714
:101C6000DFFFFFFFFFFFFFFFDB7777777777777780
:101C70007777777777777777777777FFFFFFFFFF4C
:101C8000FFDF77777777777777BBFFFFFFDF7777B0
:101C90007777777777DBFFFFFFFFFF9B77777777A4
:101CA0007777BBFFFFFFFFFFDF7777777777779B4C
:101CB000FFFFFFFFDB7777777777779BFFFFFFFFEC
:101CC000FFFFFF77777777777777FFFFFFFF7777EC
:101CD0007777777777DFFFFFFFFFFFFFFF77777774
:101CE00077777777FFFFFFDF7777777777779BFFD8
:101CF000FFFFFFFFFFFFFF77777777777777DFFFCC
:101D0000FF9B777777777777DBFFFFFFFFFFFFFF9B
:101D1000FF77777777777777DFFFFF777777777753
:101D20007777FFFFFFFFFFFFFFFFFF77777777777B
:101D30007777DFFFBB7777777777777BFFFFFFFFDB
:101D4000FFFFFFFFFF77777777777777DFFF9B7767
:101D50007777777777BBFFFFFFFFFFFFFFFFDF7727
:101D6000777777777777FFFF77777777777777DF8B
:101D7000FFFFFFFFFFFFFFFFDB777777777777774F
:101D8000FFFF77777777777777DFFFFFFFFFFFFF3B
:101D9000FFFFBB7777777777779BFFDF777777776B
:101DA000777777FFFFFFFFFFFFFFFFFF7B777777F7
:101DB000777777BBFFDF77777777777777FFFFFFE7
:101DC000FFFFFFFFFFFF77777777777777DFFFDB1F
:101DD0007777777777779BFFFFFFFFFFFFFFFFDFC7
:101DE00077777777777777FFFFDB7777777777770F
:101DF0009BFFFFFFFFFFFFFFFFBB777777777777CB
:101E0000BBFFFFDF777777777777BBFFFFFFFFFFBA
:101E1000FFFFFF77777777777777DFFFFFDF7777DA
:101E2000777777779BFFFFFFFFFFFFFFDF777777FE
:101E30007777779BFFFFFFFF7777777777779BFF42
:101E4000FFFFFFFFFFFF77777777777777DFFFFF7A
:101E5000FFFF77777777777777FFFFFFFFFFFF9BAE
:101E60007777777777779BFFFFFFFFFFBB777777F2
:101E70007777779BDFFFFFDF9B77777777777777CA
:101E8000FFFFFFFFFFFFFF7777777777777777772A
:101E9000777777777777777777DFFFFFFFFFFFFF3A
:101EA000FFBB7777777777777777777777777777F6
:101EB0007777DFFFFFFFFFFFFFFFFFFFBB7777773E
:101EC000777777777777777777777BFFFFFFFFFFF6
:101ED000FFFFFFFFFFFFFFDF777777777777777772
:101EE000777777BBFFFFFFFFFFFFFFFFFFFFFFFFDE
:101EF000FFFFFFDFBB9B7777779BBBDFFFFFFFFF1A
:101F0000FFFFFFFFFFFFFFFFFFFFFFFFFFFFFFFFE1
:101F1000FFFFFFFFFFFFFFFFFFFFFFFFFFFFFFFFD1
:101F2000FFFFFFFFFFFFFFFFFFFFFFDFDBBB9B7B31
:101F300077777777777777FFFFFFFFFFFFFFFFFF69
:101F4000FFFFFF7777777777777777777777777789
:101F50009BFFFFFFFFFFFFFFFFFFFFFFDF777777AD
:101F600077777777777777777777BBFFFFFFFFFF15
:101F7000FFFFFFFFFFFFDB7777777777777777775D
:101F800077777777DFFFFFFFFFFFFFFFFFFFFFFFA1
:101F9000BB77777777777777777777777777FFFF7D
:101FA000FFFFFFFFFFFFFFFFFFFF9B9BBBDBDFFF91
:101FB000FF77777777777777FFFFFFFFFFFFFFFFE9
:101FC000FFFFFFFFFFFFFFFFFFFFFF7777777777C9
:101FD000779BFFFFFFFFFFFFFFFFFFFFFFFFFFFFFD
:101FE000FFFFFFFFDF777777777777BBFFFFFFFF95
:101FF000FFFFFFFFFFFFFFFFFFFFFFFFFFFFBB77BD
:102000007777777777DBFFFFFFFFFFFFFFFFFFFFAC
:10201000FFFFFFFFFFFFFFFF9B777777777777DF84
:10202000FFFFFFFFFFFFFFFFFFFFFFFFFFFFFFFFC0
:10203000FFFF77777777777777FFFFFFFFFFFFFF68
:10204000FFFFFFFFFFFFFFFFFFFFFFFF77777777C0
:10205000777777FFFFFFFFFFFFFFFFFFFFFFFFFF28
:10206000FFFFFFFFFFDF777777777777BBFFFFFF14
:10207000FFFFFFFFFFFFFFFFFFFFFFFFFFFFFFBBB4
:10208000777777777777DBFFFFFFFFFFFFFFFFFFB4
:10209000FFFFFFFFFFFFFFFFFF9B777777777777E4
:1020A000DFFFFFFFFFFFFFFFFFFFFFFFFFFFFFFF60
:1020B000FFFFFF77777777777777FFFFFFFFFFFFE8
:1020C000FFFFFFFFFFFFFFFFFFFFFFFFFF777777B8
:1020D00077777777FFFFFFFFFFFFFFFFFFFFFFFF30
:1020E000FFFFFFFFFFFFDF7777777777779BFFFFB4
:1020F000FFFFFFFFFFFFFFFFFFFFFFFFFFFFFFFFF0
:10210000DB777777777777BBFFFFFFFFFFFFFFFF77
:10211000FFFFFFFFFFFFFFFFFFFFBB7777777777BB
:1021200077DFFFFFFFFFFFFFFFFFFFFFFFFFFFFF67
:10213000FFFFFFFF77777777777777FFFFFFFFFF67
:10214000FFFFFFFFFFFFFFFFFFFFFFFFFFFF7777AF
:102150007777777777FFFFFFFFFFFFFFFFFFFFFF37
:10216000FFFFFFFFFFFFFFDF7777777777779BFF33
:10217000FFFFFFFFFFFFFFFFFFFFFFFFFFFFFFFF6F
:10218000FFDB777777777777BBFFFFFFFFFFFFFFF7
:10219000FFFFFFFFDF777777777777777777777747
:1021A000777777777777777777FFFFFFFFFFBB77D3
:1021B00077777777777777777777777777777777AF
:1021C00077779BFFFFFFFFFF9B77777777777777AF
:1021D000777777777777777777777777BBFFFFFFB3
:1021E000FFFF77777777777777777777777777776F
:1021F000777777777777DFFFFFFFFFFF777777775F
:10220000777777777777777777777777777777775E
:10221000FFFFFFFFFFFFFFFFFFFFFFFFFFDFBBBB76
:102220009B7B77779B9BBBDFFFFFFFFFFFFFFFFFE2
:10223000FFFFFFFFBB9B77777777777777777777A6
:1022400077777BDFFFFFFFFFFFFFFFFFDF7777770A
:102250007777777777777777777777777777BBFF42
:10226000FFFFFFFFFFFFDB7777777777777777776A
:10227000777777777777777777DBFFFFFFFFFFFF5A
:10228000BB7777777777777777777777777777779A
:1022900077777777FFFFFFFFFFFF777777779BDB16
:1022A000FFFFFFFFFFBB7777777777777777DFFFE2
:1022B000FFFFFFFF7777BBFFFFFFFFFFFFFFFFFF82
:1022C000BB77777777777777DBFFFFFFFFDFDBFF82
:1022D000FFFFFFFFFFFFFFFFFFFFFF7777777777B6
:1022E0007777BBFFFFFFFFFFFFFFFFFFFFFFFFFF52
:1022F000FFFFFFFFFF77777777777777DFFFFFFFC6
:10230000FFFFFFFFFFFFFFFFFFFFFFFFFFFFFF7765
:10231000777777777777FFFFFFFFFFFFFFFFFFFFFD
:10232000FFFFFFFFFFFFFFFFBB7777777777777BB5
:10233000FFFFFFFFFFFFFFFFFFFFFFFFFFFFFFFFAD
:10234000FFFF77777777777777DFFFFFFFFFFFFF75
:10235000FFFFFFFFFFFFFFFFFFFFFF9B7777777711
:1023600077779BFFFFFFFFFFFFFFFFFFFFFFFFFFF1
:10237000FFFFFFFF9B7777777777779BFFFFFFFF65
:10238000FFFFFFFFFFFFFFFFFFFFFFFFFF9B7777D1
:10239000777777779BFFFFFFFFFFFFFFFFFFFFFFD1
:1023A000FFFFFFFFFFDF777777777777779BFFFF79
:1023B000FFFFFFFFFFFFFFFFFFFFFFFFFFFFBB77F9
:1023C000777777777777BBFFFFFFFFFFFFFFFFFF91
:1023D000FFFFFFFFFFFFFF9B77777777777777DB4D
:1023E000FFFFFFFFFFFFFFFFFFFFFFFFFFFFFFFFFD
:1023F0009B7777777777777BFFFFFFFFFFFFFFFF05
:10240000FFFFFFFFFFFFFFFFDF77777777777777B4
:102410009BFFFFFFFFFFFFFFFFFFFFFFFFFFFFFF30
:10242000FFBB77777777777777DBFFFFFFFFFFFFDC
:10243000FFFFFFFFFFFFFFFFFFFF9B7777777777B8
:10244000777BFFFFFFFFFFFFFFFFFFFFFFFFFFFFA8
:10245000FFFFDF777777777777779BFFFFFFFFFFC8
:10246000FFFFFFFFFFFFFFFFFFFFFFBB77777777E0
:10247000777777DBFFFFFFFFFFFFFFFFFFFFFFFF28
:10248000FFFFFFFFBB777777777777777777777778
:10249000777777777777777777DFFFFFFFFF9B7720
:1024A00077777777777777777777777777777777BC
:1024B000777777FFFFFFFFFF777777777777777704
:1024C00077777777777777777777777777FFFFFF04
:1024D000FFFF77777777777777777777777777777C
:1024E0007777777777777BFFFFFFFFDF77777777F0
:1024F000777777777777777777777777777777776C
:10250000BBFFFFFFFFBB77777777777777777777B3
:1025100077777777777777777777BBFFFFFFFFFF5F
:10252000FFFFFFFFFFFFFFDFDFBB9B9B9B77777703
:102530009B9BBBDFFFFFFFFFFFFFFFFFFFFFFFDFF7
:10254000777777777777777777777777777777BBD7
:10255000FFFFFFFFFFFFFFFFFFBB777777777777FF
:10256000777777777777777777779BFFFFFFFFFF2F
:10257000FFFFFF9B7777777777777777777777772F
:102580007777777777BBFFFFFFFFFFFFFF777777DF
:1025900077777777777777777777777777777777CB
:1025A000FFFFFFFFFFFFFF77779BDBDFFFFFFFFFF3
:1025B000FFBB7777777777777777DFFFFFFFFFFFCF
:1025C000DFBBFFFFFFFFFFFFFFFFFFFFDF77777737
:1025D00077777777DFFFFFFFFFFFFFFFFFFFFFFF4B
:1025E000FFFFFFFFFFFFFF77777777777777DFFFD3
:1025F000FFFFFFFFFFFFFFFFFFFFFFFFFFFFFFFFEB
:10260000FF77777777777777FFFFFFFFFFFFFFFF92
:10261000FFFFFFFFFFFFFFFFFFFFDF777777777792
:10262000779BFFFFFFFFFFFFFFFFFFFFFFFFFFFFA6
:10263000FFFFFFFF77777777777777FFFFFFFFFF62
:10264000FFFFFFFFFFFFFFFFFFFFFFDFBB77777796
:1026500077777777DFFFFFFFFFFFFFFFFFFFFF9B2E
:102660007777777777777777777777779BFFFFFF3E
:10267000FFFFFFFFFFFFFFFFFF7777777777777722
:1026800077777777BBDFFFFFFFFFFFFFFFFFFFFFDE
:10269000FFFFFF777777777777777777777777BBEE
:1026A000FFFFFFFFFFFFFFFFFFFFFFFFDF777777F2
:1026B000777777777777777777779BFFFFFFFFFFDE
:1026C000FFFFFFFFFFFFBB77777777777777777726
:1026D0007777777777BBFFFFFFFFFFFFFFFFFFFFF6
:1026E000FFFFFFFFFFFFDF9B7777777777777777BE
:1026F000FFFFFFFFFFFFFFFFFFFFFFFFFFFFFFFFEA
:10270000FFFFBB77777777777777DFFFFFFFFFFFF5
:10271000FFFFFFFFFFFFFFFFFFFFFFFFFF77777761
:1027200077777777DBFFFFFFFFFFFFFFFFFFFFFFFD
:10273000FFFFFFFFFFFFFF9B777777777777DFFF5D
:10274000FFFFFFFFFFFFFFFFFFFFFFFFFFFFFFFF99
:10275000FF77777777777777DFFFFFFFFFFFFFFF61
:10276000FFFFFFFFFFFFFFFFFFFFDF777777777741
:102770007777FFFFFFFF9BDFFFFFFFFFFFFFFFFFFD
:10278000FFFFFFDF77777777777777BBFFFFFFFF75
:10279000777777BBDFFFFFFFFFFFFFDF9B77777761
:1027A0007777777777FFFFFFFFDF77777777777731
:1027B0007777777777777777777777777777DBFFBD
:1027C000FFFFFFDB7777777777777777777777779D
:1027D00077777777777777DBFFFFFFFFFFBB777739
:1027E0007777777777777777777777777777779B55
:1027F000DFFFFFFFFFFFFF9B7777777777777777AD
:10280000777777777777779BDFFFFFFFFFFFFFFF14
:10281000FFFFDFDFBBBB9B9B9B77777B9B9BBBDF7C
:10282000FFFFFFFFFFFFFFFFFFFFFFFFFFFFFFFFB8
:10283000FFFFFFFFFFFFFFFFFFFFFFFFFFFFFFFFA8
:10284000FFFFFFFFFFFFFFFFFFFFFFFFFFFFFFFF98
:10285000FFFFFFFFFF7777777777777777BBFFFF0C
:10286000FFFFFFFFFFFFFFFFFFFFFFFFFFFF9B7764
:1028700077777777777777DBFFFFFFFFFFFFFFFF44
:10288000FFFFFFFFFFFFFF9B7777777777777777FC
:1028900077DFFFFFFFFFFFFFFFFFFFFFFFFFFFFFF0
:1028A0009B77777777777777777777FFFFFFFFFFEC
:1028B000FFFFFFFFFFFFFFFFFFBB7777777777779C
:1028C0007777777777FFFFFFFFFFFFFFFFFFFFFFC0
:1028D000FFFFBB7777777777777777777777BBFF68
:1028E000FFFFFFFFFFFFFFFFFFFFFFDB777777773C
:1028F000779B777777777777DBFFFFFFFFFFFFFF28
:10290000FFFFFFFFDF7777777777DF9B7777777743
:102910007777DFFFFFFFFFFFFFFFFFFFFFDF777727
:10292000777777DBFF77777777777777FFFFFFFF2B
:10293000FFFFFFFFFFFFFF7777777777BBFFFF771B
:10294000777777777777FFFFFFFFFFFFFFFFFFFFC7
:102950007777777777BBFFFFDF777777777777BB07
:10296000FFFFFFFFFFFFFFFFFF9B777777779BFF5F
:10297000FFFFBB777777777777DBFFFFFFFFFFFFFF
:10298000FFFF9B777777779BFFFFFFFF9B7777773B
:10299000777777DFFFFFFFFFFFFFFF9B7777777783
:1029A0007BFFFFFFFFFF77777777777777FFFFFF73
:1029B000FFFFFFFFBB7777777777FFFFFFFFFFFF13
:1029C0007777777777777BFFFFFFFFFFFFBB77771F
:1029D000777777DFFFFFFFFFFFDF7777777777770F
:1029E000BBFFFFFFFFFFDB7777777777DFFFFFFF27
:1029F000FFFFFFBB777777777777DBFFFFFFFFFF7F
:102A00007B77777777DBFFFFFFFFFFFFFF9B777712
:102A100077777777DFFFFFFFFFFF77777777777736
:102A20007777777777777777777777777777777736
:102A30007777FFDF77777777777777777777777736
:102A4000777777777777777777777777FFDB77772A
:102A50007777777777777777777777777777777706
:102A600077777777779BFFBB777777777777777706
:102A7000777777777777777777777777777777BBA2
:102A8000FF7777777777777777777777777777774E
:102A9000777777777777777777DFFFFFFFFFFFFF2E
:102AA000FFFFFFFFFFFFFFFF77777777777777FFEE
:102AB000FFFFFFFFFFFFFFFFFFFFFFFFFFFFFFFF26
:102AC000FFFF77777777777777FFFFFFFFFFFFFFCE
:102AD000FFFFFFFFFFFFFFFFFFFFFFDF7777777746
:102AE00077779BFFFFFFFFFFFFFFFFFFFFFFFFFF6A
:102AF000FFFFFFFFFFDB777777777777BBFFFFFF7E
:102B0000FFFFFFFFFFFFFFFFFFFFFFFFFFFFFFBB19
:102B1000777777777777DFFFFFFFFFFFFFFFFFFF15
:102B2000FFFFFFFFFFFFFFFFFF9B77777777777749
:102B3000FFFFFFFFFFFFFFFFFFFFFFFFFFFFFFFFA5
:102B4000FFFFFFFFFFFFFFFFFFFFFFFFFFFFFFFF95
:102B5000FFFFFFFFFFFFFFFF7777777777777777C5
:102B600077777777777777777777BBFFFFFFFFFF09
:102B7000FFFF7777777777777777777777777777D5
:102B800077777777DFFFFFFFFFFFFFDF77777777D5
:102B90007777777777777777777777777777DFFFD5
:102BA000FFFFFFFFFFBB77777777777777777777C9
:102BB0007777777777777777FFFFFFFFFFFFFF9BC9
:102BC0007777777777777777777777777777777795
:102BD0007777FFFFFFFFFFFFFF77777777777777CD
:102BE00077777777777777777777779BFFFFFFFF31
:102BF000FFFFFF77777777779BFFFFFFFFFFFFFFF1
:102C0000FFFFFFFFFFFFFFFFFFFFFFFFDF7777778C
:102C10007777BBFFFFFFFFFFFFFFFFFFFFFFFFFF18
:102C2000FFFFFFFFFFFFBB7777777777DFFFFFFFC0
:102C3000FFFFFFFFFFFFFFFFFFFFFFFFFFFFFFFFA4
:102C40009B7777777777BB9B9B77779BBBDBFFFF88
:102C5000FFFFFFFFFFFFFFFFFFFF777777777777B4
:102C6000777777777777777777BBFFFFFFFFFFFF80
:102C7000FFFFFFFF777777777777777777777777C4
:102C80007777777777FFFFFFFFFFFFFFFFDF77772C
:102C900077777777777777777777777777777777C4
:102CA000FFFFFFFFFFFFFFBB7777777777777777B8
:102CB00077777777777777777777BBFFFFFFFFFFB8
:102CC000FF9B7777BBDFFFFFFFFFFFBB7777777750
:102CD0007777777777FFFFFFFFFFFFBBDFFFFFFF10
:102CE000FFFFFFFFFFFFFF7777777777777777FF34
:102CF000FFFFFFFFFFFFFFFFFFFFFFFFFFFFFFFFE4
:102D0000FFDF77777777777777FFFFFFFFFFFFFFAB
:102D1000FFFFFFFFFFFFFFFFFFFFFFFF77777777E3
:102D2000777777FFFFFFFFFFFFFFFFFFFFFFFFFF4B
:102D3000FFFFFFFFFFFF77777777777777FFFFFF5B
:102D4000FFFFFFFFFFFFFFFFFFFFFFFFFFFFFFDFB3
:102D500077777777777777FFFFFFFFFFFFFFFFFF3B
:102D6000FFFFFFFFFFFFFFFFFFBB777777777777E7
:102D7000BBFFFFFFDFDFFFFFFFFFFFFFFFFFFFFFE7
:102D8000FFFFFF77777777777777DFFFFFFFBB77F7
:102D90009BDFFFFFFFFFFFFFFFFFFFFF77777777E7
:102DA0007777779BFFFFFFFF9B7777779BDBFFFFB3
:102DB000FFFFFFDFBB7777777777777777FFFFFFC7
:102DC000FFFF777777777777777777777777777783
:102DD000777777777777DFFFFFFFFFFF7777777773
:102DE000777777777777777777777777777777DB0F
:102DF000FFFFFFFFFFDF7777777777777777777753
:102E0000777777777777779BFFFFFFFFFFFFFFFFEE
:102E1000DF9B777777777777777777777777779B92
:102E2000DFFFFFFFFFFFFFFFFFFFFFFFFFDFBBBB7A
:102E30009B7777779B9BBBDFFFFFFFFFFFFFFFFFCA
:102E4000FFFFFFFFFFFFFFFFFFFFFFFFFFFFFFFF92
:102E5000DFBB9B9B77779B9BBBFFFFFFFFFFFFFFCA
:102E6000FFFFFFFFFFFFFFFFBB777777777777776E
:102E7000777777779BDFFFFFFFFFFFFFFFFFFFFF06
:102E8000BB7777777777777777777777777777778E
:102E9000DFFFFFFFFFFFFFFFDF777777777777773A
:102EA00077777777777777777777FFFFFFFFFFFF82
:102EB000FFDF7777777777777777777777777777B2
:102EC0007777779BFFFFFFFFFFFFDF7777777777D6
:102ED00077779BDBFFFFFFFFFFDFBB7777BBFFFF52
:102EE000FFFFFFFF7B777777777777DBFFFFFFFFCA
:102EF000FFFFFFFFFFFFDBDFFFFFFFFFFFBB77777A
:102F000077777777DFFFFFFFFFFFFFFFFFFFFFFF11
:102F1000FFFFFFFFFFFFDF777777777777BBFFFF55
:102F2000FFFFFFFFFFFFFFFFFFFFFFFFFFFFFFFFB1
:102F30009B777777777777FFFFFFFFFFFFFFFFFF35
:102F4000FFFFFFFFFFFFFFFFFFFF777777777777C1
:102F5000BBFFFFDFBB9B77779BBBFFFFFFFFFFFF45
:102F6000FFFFFFBB777777777777DBBB777777776D
:102F700077777777779BFFFFFFFFFFFFFF77777705
:102F800077777777777777777777777777777777D1
:102F90009BFFFFFFFFFFFF7777777777777777776D
:102FA00077777777777777777777779BFFFFFFFF6D
:102FB000DB7777777777777777777777777777773D
:102FC000777777777777DFFFFFFFBB77777777774D
:102FD00077777777DFFFFFFFBB777777777777773D
:102FE000BBFFFFFF9B777777777777777BFFFFFFD5
:102FF000FFFFFF9B77777777777777FFFFFF7B7709
:10300000777777777777DFFFFFFFFFFFFFDF777750
:103010007777777777FFFFFF777777777777779B84
:10302000FFFFFFFFFFFFFFFF77777777777777FF68
:10303000FFFF77777777777777BBFFFFFFFFFFFF9C
:10304000FFFF7777777777779BFFFFFF7B77777740
:10305000777777DFFFFFFFFFFFFFFFDF7777777778
:103060007777BBFFFFFF9B777777777777DFFFFF78
:10307000FFFFFFFFFFBB777777777777DFFFFFFFF4
:10308000BB777777777777DBFFFFFFFFFFFFFF7770
:10309000777777777777FFFFFFFFDF777777777738
:1030A000779BFFFFFFFFFFFF9B777777777777BBF4
:1030B000FFFFFFFFFF777777777777779BFFFFFF3C
:1030C000DF9B77777777777777FFFFFFFFFFFFDB70
:1030D0007777777777777777777777777777777780
:1030E0007777DFFFFFFFFFFFFFFF9B77777777772C
:1030F0007777777777777777777777DFFFFFFFFFD8
:10310000FFFFFFFFFF9B7777777777777777777783
:1031100077777777DFFFFFFFFFFFFFFFFFFFFFFFFF
:10312000DB7777777777777777777777BBFFFFFFEF
:10313000FFFFFFFFFFFFFFFFFFFFFFFFDFBB9B7BEB
:10314000779B9BBBDFFFFFFFFFFFFFFFFFFFFFFF43
:10315000FFFFFFFFFFFFFFFFFFFFFFFFFFFFFFFF7F
:10316000FFFFFFFFFFFFFFFFFFFFFFFFDF77777727
:1031700077777777777777777777777777777777DF
:103180007777BBFFFFFFDF7777777777777777778B
:10319000777777777777777777777777DFFFFFFFBF
:1031A000BB7777777777777777777777777777776B
:1031B000777777777777FFFFFFFF9B77777777775B
:1031C000777777777777777777777777777777778F
:1031D000FFFFFFFF7777777777777777777777775F
:1031E000777777777777777777BBFFFFFFFF77770B
:1031F000777777777777777777777777777777775F
:10320000777777FFFFFFFFFFFFFFFFFFFFFFFFFF66
:10321000FFFFFFFFFF9B777777777777DFFFFFFF72
:10322000FFFFFFFFFFFFFFFFFFFFFFFFFFFFDF7756
:103230007777777777BBFFFFFFFFFFFFFFFFFFFF8A
:10324000FFFFFFFFFFFFFFFF77777777777777FF46
:10325000FFFFFFFFFFFFFFFFFFFFFFFFFFFFFFFF7E
:10326000FF9B777777777777DFFFFFFFFFFFFFFF22
:10327000FFFFFFFFFFFFFFFFFFFFDF777777777726
:10328000779BFFFFFFFFFFFFFFFFFFFFFFFFFFFF3A
:10329000FFFFFFFF77777777777777FFFFFFFFFFF6
:1032A000FFFFFFFFFFFFFFFFFFFFFFFFFF9B7777A2
:1032B00077777777DFFFFFFFFFFFFFFFFFFFFFFF5E
:1032C000FFFFFFFFFFFFDF7777777777779BFFFFC2
:1032D000FFFFFFFFFFFFFFFFFFFFFFFFFFFFFFFFFE
:1032E00077777777777777FFFFFFFFFFFFFFFFFFA6
:1032F000FFFFFFFFFFFFFFFFFF9B77777777777772
:10330000DFFFFFFFFFFFFFFFFFFFFFFFFFFFFFFFED
:10331000FFFFDF7777777777779BFFFFFFFFFFFF71
:10332000FFFFFFFFFFFFFFFFFFFFFFFF77777777CD
:10333000777777FFFFFFFFFFFFFFFFFFFFFFFFFF35
:10334000FFFFFFFFFF9B777777777777DBFFFFFF45
:10335000FFFFFFFFFFFFFFFFFFFFFFFFFFFFDB7729
:1033600077777777779BFFFFFFFFFFFFFFFFFFFF79
:10337000FFFFFFFFFFFFFFFF77777777777777FF15
:10338000FFFFFFFFFFFFFFFFFFFFFFFFFFFFFFFF4D
:10339000FF9B777777777777BBFFFFFFFFFFFFFF15
:1033A000FFFFFFFFFFFFFFFFFFFFDB7777777777F9
:1033B000779BFFFFFFFFFFFFFFFFFFFFFFFFFFFF09
:1033C000FFFFFFFF77777777777777FFFFFFFFFFC5
:1033D000FFFFFFFFFFFFFFFFFFFFFFFFFF9B777771
:1033E00077777777BBFFFFFFFFFFFFFFFFFFFFFF51
:1033F000FFFFFFFFFFFFDB7777777777779BFFFF95
:10340000FFFFFFFFFFFFFFFFFFFFFFFFFFFFFFFFCC
:1034100077777777777777FFFFFFFFFFFFFFFFFF74
:10342000FFFFFFFFFFFFFFFFFF9B77777777777740
:10343000BBFFFFFFFFFFFFFFFFFFFFFFFFFFFFFFE0
:10344000FFFFDB7777777777779BFFFFFFFFFFFF44
:10345000FFFFFFFFFFFFFFFFFFFFFFFFFFFFFFFF7C
:10346000FFFFFFFFFFDFBB9B9B7777779B9BBBDF5C
:10347000FFFFFFFFFFFFFFFFFFFFFFFFFFBB7777B0
:10348000777777777777777777777BDFFFFFFFFF40
:10349000FFFFFFFFFFDB77777777777777777777B0
:1034A000777777777777BBFFFFFFFFFFFFFFBB776C
:1034B000777777777777777777777777777777779C
:1034C00077DFFFFFFFFFFFDF777777777777777714
:1034D000777777777777777777777777FFFFFFFF5C
:1034E000FF9B77777777777777BBFFFFFFDF9B7758
:1034F000777777777777FFFFFFFFFF7777777777B4
:103500007777DBFFFFFFFFFFFF77777777777777B7
:10351000DFFFFFFFDF7777777777779BFFFFFFFF8F
:10352000FFFFFF7B777777777777DFFFFFFFDB772B
:103530007777777777BBFFFFFFFFFFFFFF9B7777FB
:1035400077777777FFFFFFFFDF777777777777BB3F
:10355000FFFFFFFFFFFFFF7777777777779BFFFF0F
:10356000FFFFFF7777777777777BFFFFFFFFFFFF1F
:10357000BB777777777777FFFFFFFFFFFF9B777743
:10358000777777779BFFFFFFFF9B77777777777763
:10359000DBFFFFFFFFFFFFFF7B777777777777779B
:1035A000777777777777777777DFFFFFFFFFFFFF13
:1035B000FFFFFF9B777777777777777777777777DF
:1035C00077BBFFFFFFFFFFFFFFFFFFFFFFFF9B77C3
:1035D0007777777777777777777BFFFFFFFFFFFF47
:1035E000FFFFFFFFFFDF9B77777777777777777737
:1035F0007777777777BBFFFFFFFFFFFFFFFFBB7793
:10360000777777777777777777777777777777774A
:103610009BFFFFFFFFFFFF9B7777777777779BDF36
:10362000FFFFFFDF77777777777777DFFFFFFFFFA2
:10363000BB777777777777BBFFFFFFFFFFFFDF77FA
:1036400077777777779BFFFFFFDF777777777777E6
:10365000BBFFFFFFFFFFFFFFFF9B77777777777752
:10366000FFFFFFBB777777777777DFFFFFFFFFFFFE
:10367000FFFFFF9B777777777777FFFFFF77777786
:1036800077777777FFFFFFFFFFFFFFFFFF77777702
:1036900077777777FFFFFF77777777777777FFFF12
:1036A000FFFFFFFFFFFFDF77777777777777FFFF02
:1036B000FF77777777777777BBFFFFFFFFFFFFDF36
:1036C00077777777777777BBFFFFFF7B77777777AA
:1036D000777777BBFFFFFFFFBB77777777777777D2
:1036E00077FFFFFFFFBB7777777777777777777706
:1036F00077777777777777777777BBFFFFFFFFFF6E
:103700007B77777777777777777777777777777745
:10371000777777BBFFFFFFFFFFFFFF7B7777777739
:10372000777777777777777777777777DBFFFFFF2D
:10373000FFFFFFFFFFFFBB777777777777777777A5
:1037400077777777BBFFFFFFFFFFFFFFFFFFFFFFED
:10375000FFFFDFBB9B7B77777B9BBBBBDFFFFFFF65
:10376000FFFFFFFFFFFFFFFFFFFFFFFFFFFFFFFF69
:10377000FFDFBB9B9B77779BBBDFFFFFFFFFFFFF5D
:10378000FFFFFFFFFFFFFFFFFFBB777777777777BD
:103790007777777777BBFFFFFFFFFFFFFFFFFFFF25
:1037A000FFFF777777777777777777777777777799
:1037B0009BFFFFFFFFFFFFFFFFFFDF777777777745
:1037C00077777777777777777777779BFFFFFFFF45
:1037D000FFFFFFFF77777777777777777777777759
:1037E000777777777777BBFFFFFFFFFFFF777777F5
:1037F000777777779BDFFFFFFFBB777777777777F1
:1038000077FFFFFFFFFFBB7777777777779BFFFF28
:10381000FFFFFFFF9B777777777777DFFFFFFFFF6C
:1038200077777777777777FFFFFFFFFFFFFFDB770C
:103830007777777777BBFFFFFFDF777777777777D4
:10384000BBFFFFFFFFFFFFFFDF7777777777779B80
:10385000FFFFFFBB777777777777DFFFFFFFFFFF0C
:10386000FFFFDF77777777777777FFFFFF9B7777B4
:1038700077777777FFFFFFFFFFFFFFFFBB77777754
:1038800077777777FFFFFF9B777777777777FFFFFC
:10389000FFFFFFFFFFFF9B77777777777777FFFF54
:1038A000FF7B777777777777DFFFFFFFFFFFFFDF1C
:1038B0007777777777777777FFFFFF9B77777777DC
:1038C00077779BFFFFFFFFFFFF7B77777777777730
:1038D000779BFFFFFFBB77777777777777BBFFFF24
:1038E000FFDF7777777777777777779BFFFFFFDF54
:1038F0007777777777777777777777777777777758
:103900007777777777BBFFFFFFFF9B7777777777BF
:10391000777777777777777777777777777777DFCF
:10392000FFFFFFFFFF9B777777777777777777775B
:10393000777777777777777777FFFFFFFFFFFFFF5F
:10394000BB777777777777777777BBDB777777771B
:103950007777BBFFFFFFFFFFFFFFFFFFBB9B777783
:103960009B9BDBFFFFBB777777777777DFFFFFFFE7
:10397000FFFFFFFFFFFFFFFFFFFFFFFFFFFFFF77DF
:1039800077777777779BFFFFFFFFFFFFFFFFFFFF53
:10399000FFFFFFFFFFFFFFFFBB777777777777DFCB
:1039A000FFFFFFFFFFFFFFFFFFFFFFFFFFFFFFFF27
:1039B000FFDF7777777777779BFFFFFFFFFFDFBB2F
:1039C000FFFFFFFFFFFFFFFFFFFFDB7777777777D3
:1039D0007777FFFFFFFFFFFFBB7777BBDFFFFFFFBF
:1039E000FFFFDB9B77777777777777DFFFFFFFFF47
:1039F000FFFF9B7777777777777777777777777723
:103A000077777777DFFFFFFFFFFFFFFF7777777726
:103A100077777777777777777777777777DFFFFFBE
:103A2000FFFFFFFFFFFF77777777777777777777F6
:103A300077777777779BFFFFFFFFFFFFFFFFFFFFA2
:103A4000DF9B77777777777777777777779BDFFF66
:103A5000FFFFFFFFFFFFFFFFFFFFFFFFFFBB9B9B82
:103A600077777B9BBBDFFFFFFFFFFFFFFFFFFFFFC2
:103A7000FFFFFFFFFFFFFFDF7777777777777777B6
:103A8000DFFFFFFFFFFFFFFFFFBB777777777777DA
:103A90007777BBFFFFFFFFFFFFFFFFBB77777777EE
:103AA00077777777BBFFFFFFFFFFFFFFFFBB7777DE
:103AB000777777777777BBFFFFFFFFFFFFFFFFDFAA
:103AC000BFBFBFBFBFBFBFBFDFFFFFFFFFFFDFDF66
:103AD000BBBBBBBBBBBBBBBBBBBBBBBBDFDFFFDF86
:103AE0009B77777777777777777777777777779B1E
:103AF000DFBF7777777777777777777777777777A6
:103B00007777BFBF7777DFFFFFFFFFFFFFFFFFFF85
:103B1000FFDF7777BFBF7777FFFFFFFFFFFFFFFF75
:103B2000FFFFFFFF7777BFBF7777FFFFFFFFFFFF45
:103B3000FFFFFFFFFFDF7777BFBF7777FFFFFFFF55
:103B4000FFFFFFFFFFFFFFDF7777BFBF7777FFFF45
:103B5000FFFFFFFFFFFFFFFFFFFF7777BFBF777715
:103B6000FFFFFFFFFFFFFFFFFFFFFFFF7777BFBFF5
:103B70007777FFFFFFFFFFFFFFFFFFFFFFDF777795
:103B8000BFBF7777FFFFFFFFFFFFFFFFFFFFFFDFF5
:103B90007777BFBF7777FFFFFFFFFFFFFFFFFFFFD5
:103BA000FFFF7777BFBF7777FFFFFFFFFFFFFFFFC5
:103BB000FFFFFFFF7777BFBF7777FFFFFFFFFFFFB5
:103BC000FFFFFFFFFFFF7777BFBF7777FFFFFFFFA5
:103BD000FFFFFFFFFFFFFFFF7777BFBF7777FFFF95
:103BE000FFFFFFFFFFFFFFFFFFFF7777BFBF777785
:103BF000FFFFFFFFFFFFFFFFFFFFFFFF7777BFBF65
:103C00007777DFFFFFFFFFFFFFFFFFFFFFFF777704
:103C1000BFBF7777DFFFFFFFFFFFFFFFFFFFFFFF64
:103C20007777BFBF7777FFFFFFFFFFFFFFFFFFFF44
:103C3000FFDF7777BFBF7777FFFFFFFFFFFFFFFF54
:103C4000FFFFFFFF7777BFBF7777FFFFFFFFFFFF24
:103C5000FFFFFFFFFFFF7777BFBF7777FFFFFFFF14
:103C6000FFFFFFFFFFFFFFFF7777BFBF7777FFFF04
:103C7000FFFFFFFFFFFFFFFFFFFF7777BFBF7777F4
:103C8000FFFFFFFFFFFFFFFFFFFFFFFF7777BFBFD4
:103C90007777FFFFFFFFFFFFFFFFFFFFFFFF777754
:103CA000BFBF7777FFFFFFFFFFFFFFFFFFFFFFFFB4
:103CB0007777BFBF7777FFFFFFFFFFFFFFFFFFFFB4
:103CC000FFFF7777BFBF7777DFDFDFDFDFDFDFDFA4
:103CD000DFDFDFDF7777BFBF777777777777777744
:103CE0007777777777777777BFDF9B777777777790
:103CF0007777777777777777779BDFFFDFBFBFBF00
:103D0000BFBFBFBFBFBFBFBFBFBFBFDFFFFFFFFFA3
:103D1000FFFFFFFFFFFFFFFFFFFFFFFFFFFFFFFFB3
:103D2000FFFFFFFFFFFFFFFFFFFFFFFFFFFFFFFFA3
:103D3000FFFFFFFFFAD5D6FAFFFFFFFFFFFFFFFFF0
:103D4000FFFFFFFFFFFFFFFFFFFFFFFFFFFFFFFF83
:103D5000FFFFFFFFFFFFFFFFFFFFFFFFFFFFFFFF73
:103D6000FFFFFFFFFFFFFFFFFFFFFAD5D0D0D0D04E
:103D7000D5FFFFFFFFFFFFFFFFFFFFFFFFFFFFFF7D
:103D8000FFFFFFFFFFFFFFFFFFFFFFFFFFFFFFFF43
:103D9000FFFFFFFFFFFFFFFFFFFFFFFFFFFFFFFF33
:103DA000FFFAD0D0D0D0D0D0D0D5FFFFFFFFFFFF9B
:103DB000FFFFFFFFFFFFFFFFFFFFFFFFFFFFFFFF13
:103DC000FFFFFFFFFFFFFFFFFFFFFFFFFFFFFFFF03
:103DD000FFFFFFFFFFFFFFFFFFD5D0D0D0D0D0D037
:103DE000D0D0FAFFFFFFFFFFFFFFFFFFFFFFFFFF46
:103DF000FFFFFFFFFFFFFFFFFFFFFFFFFFFFFFFFD3
:103E0000FFFFFFFFFFFFFFFFFFFFFFFFFFFFFFFFC2
:103E1000FBD0D0D0D0D0D0D0D0D0D5FFFFFFFFFF87
:103E2000FFFFFFFFFFFFFFFFFFFFFFFFFFFFFFFFA2
:103E3000FFFFFFFFFFFFFFFFFFFFFFFFFFFFFFFF92
:103E4000FFFFFFFFFFFFFFFFFAD0D0D0D0D0D0D0D0
:103E5000D0D0D0FFFFFFFFFFFFFFFFFFFFFFFFFFFF
:103E6000FFFFFFFFFFFFFFFFFFFFFFFFFFFFFFFF62
:103E7000FFFFFFFFFFFFFFFFFFFFFFFFFFFFFFFF52
:103E8000FBD0D0D0D0D0D0D0D0D0D5FFFFFFFFFF17
:103E9000FFFFFFFFFFFFFFFFFFFFFFFFFFFFFFFF32
:103EA000FFFFFFFFFFFFFFFFFFFFFFFFFFFFFFFF22
:103EB000FFFFFFFFFFFFFFFFFFD5D0D0D0D0D0D056
:103EC000D0D0FAFFFFFFFFFFFFFFFFFFFFFFFFFF65
:103ED000FFFFFFFFFFFFFFFFFFFFFFFFFFFFFFFFF2
:103EE000FFFFFFFFFFFFFFFFFFFFFFFFFFFFFFFFE2
:103EF000FFFAD0D0D0D0D0D0D0D5FFFFFFFFFFFF4A
:103F0000FFFFFFFFFFFFFFFFFFFFFFFFBB9B9B9B31
:103F10009B9B9B9B9B9B9B9B9B9B9B9B9B9B9B9BF1
:103F20009B9B9B9B9B9BBBFFFFFFFAD4D0D0D0D029
:103F3000D5FFFFFFFFFFFFFFFFFFFFFFFFFFFFFFBB
:103F4000FFFFFFFF9B9B9B9B9B9B9B9B9B9B9B9B31
:103F50009B9B9B9B9B9B9B9B9B9B9B9B9B9B9BFF4D
:103F6000FFFFFFFBFAD6D6FAFFFFFFFFFFFFFFFFC1
:103F7000FFFFFFFFFFFFFFFFFFFFFFFF9B9B9B9BE1
:103F80009B9B9B9B9B9B9B9B9B9B9B9B9B9B9B9B81
:103F90009B9B9B9B9B9BBBFFFFFFFFFFFFFFFFFFCD
:103FA000FFFFFFFFFFFFFFFFFFFFFFFFFFFFFFFF21
:103FB000FFFFFFFFFFDFDFDFDFDFDFDFDFDFDFDF71
:103FC000DFDFDFDFDFDFDFDFDFDFDFDFDFDFFFFFC1
:103FD000FFFFFAD5D0D0D0FAFFFFFFFFFFFFFFFFB2
:103FE000FFFFFFFFFFFFFFFFFFFFFFFFFFFFFFFFE1
:103FF000FFFFFFFFFFFFFFFFFFFFFFFFFFFFFFFFD1
:10400000FFFFFFFFFFFFFFFBD5D5D0D0D0D0D0D42E
:10401000FAFFFFFFFFFFFFFFFFFFFFFFFFFFFFFFB5
:10402000FFFFFFFFFFFFFFFFFFFFFFFFFFFFFFFFA0
:10403000FFFFFFFFFFFFFFFFFFFFFFFFFFFFD6D0E8
:10404000D0D0D0D0D0D0D0D0D0FFFFFFFFFFFFFF27
:10405000FFFFFFFFFFFFFFFFFFFFDFDFDFDFDFDF30
:10406000DFDFDFDFDFDFDFDFDFDFDFDFDFDFFFFF20
:10407000FFFFFFFFFFD5D0D0D0D0D0D0D0D0D0D050
:10408000D0FBFFFFFFFFFFFFFFFFFFFFFFFFFFFF73
:10409000BB9B9B9B9B9B9B9B9B9B9B9B9B9B9B9B50
:1040A0009B9B9B9B9B9B9BFFFFFFFFFBD4D0D0D098
:1040B000D4D5D0D0D0D0D0D0D0FAFFFFFFFFFFFFB3
:1040C000FFFFFFFFFFFFFFFF9B9B9B9B9B9B9B9B20
:1040D0009B9B9B9B9B9B9B9B9B9B9B9B9B9B9BDFEC
:1040E000FFFFFFD5D0D0D4D5FFFAD0D0D0D0D0D0DC
:1040F000D0FAFFFFFFFFFFFFFFFFFFFFFFFFFFFF04
:10410000BB9B9B9B9B9B9B9B9B9B9B9B9B9B9B9BDF
:104110009B9B9B9B9B9B9BFFFFFFD5D0D0D0FAFF27
:10412000FFFAD0D0D0D0D0D0D0D5FFFFFFFFFFFF17
:10413000FFFFFFFFFFFFFFFFFFFFFFFFFFFFFFFF8F
:10414000FFFFFFFFFFFFFFFFFFFFFFFFFFFFFFFF7F
:10415000FFFFD0D0D0D5FFFFFFFAD0D0D0D0D0D045
:10416000D0D0D5FBFFFFFFFFFFFFFFFFFFFFFFFFEB
:10417000FFFFFFFFFFFFFFFFFFFFFFFFFFFFFFFF4F
:10418000FFFFFFFFFFFFFFFFFFFAD0D0D5FFFFFFCC
:10419000FFFAD0D0D0D0D0D0D0D0D0D0D6FBFFFF37
:1041A000FFFFFFFFFFFFFFFFFFFFFFFFFFFFFFFF1F
:1041B000FFFFFFFFFFFFFFFFFFFFFFFFFFFFFFFF0F
:1041C000FFD5D0D0D5FFFFFFFFD6D0D0D0D0D0D0F4
:1041D000D0D0D0D0D0D4D5D5D5D5D5D5FFFFFFDF21
:1041E000DFDFDFDFDFDFDFDFDFDFDFDFDFDFDFDFDF
:1041F000DFDFDFDFDFFFFFFFFFD5D0D0FAFFFFFFFC
:10420000FFD5D0D0D0D0D0D0D0D5D4D0D0D0D0D071
:10421000D0D0D0D0FFFF9B9B9B9B9B9B9B9B9B9B52
:104220009B9B9B9B9B9B9B9B9B9B9B9B9BDFFFFFD2
:10423000FFD5D0D0FAFFFFFFFFD5D0D0D0D0D0D05F
:10424000D0FFFFD5D5D4D0D0D0D0D0D5FFFF9B9B09
:104250009B9B9B9B9B9B9B9B9B9B9B9B9B9B9B9BAE
:104260009B9B9B9B9BBBFFFFFFD5D0D0FAFFFFFF23
:10427000FBD4D0D0D0D0D0D0D5FFFFFFFFFBFAFACF
:10428000FAFAFAFFFFFF9B9B9B9B9B9B9B9B9B9B35
:104290009B9B9B9B9B9B9B9B9B9B9B9B9BDFFFFF62
:1042A000FFD5D0D0FAFFFFFFD5D0D0D0D0D0D0D01E
:1042B000D6FFFFFFFFFFFFFFFFFFFFFFFFFFFFFF37
:1042C000DFDFDFDFDFDFDFDFDFDFDFDFDFDFDFDFFE
:1042D000DFDFDFDFFFFFFFFFFFFFD6FAFFFFFFFAA1
:1042E000D0D0D0D0D0D0D0D4FAFFFFFFFFFFFFFF57
:1042F000FFFFFFFFFFFFFFFFFFFFFFFFFFFFFFFFCE
:10430000FFFFFFFFFFFFFFFFFFFFFFFFFFFFFFFFBD
:10431000FFFFFFFFFFFFFFD5D0D0D0D0D0D0D0D54A
:10432000FFFFFFFFFFFFFFFFFFFFFFFFFFFFFFFF9D
:10433000FFFFFFFFFFFFFFFFFFFFFFFFFFFFFFFF8D
:10434000FFFFFFFFFFFFFFFFFFFFFFFFFFFFFFD5A7
:10435000D0D0D0D0D0D0D0F6FFFFFFFFFFFFFFFFBF
:10436000FFFFFFFFFFFFFFFFFFFFDFDFDFDFDFDF1D
:10437000DFDFDFDFDFDFDFDFDFDFDFDFDFDFDFDF4D
:10438000FFFFFFFFFFFFFFD5D0D0D0D0D0D0D0D5DA
:10439000FFFFFFFFFFFFFFFFFFFFFFFFFFFFFFFF2D
:1043A000FFBB9B9B9B9B9B9B9B9B9B9B9B9B9B9BD9
:1043B0009B9B9B9B9B9B9B9BBBFFFFFFFFFFFFD59B
:1043C000D0D0D0D0D0D0D0D0D5FBFFFFFFFFFFFFA3
:1043D000FFFFFFFFFFFFFFFFFF9B9B9B9B9B9B9BA9
:1043E0009B9B9B9B9B9B9B9B9B9B9B9B9B9B9B9B1D
:1043F0009BFFFFFFFFFFFAD0D0D0D0D0D0D0D0D0DD
:10440000D0D5FBFFFFFFFFFFFFFFFFFFFFFFFFFF19
:10441000FFBF9B9B9B9B9B9B9B9B9B9B9B9B9B9B64
:104420009B9B9B9B9B9B9B9BBBFFFFFFFFFFD5D059
:10443000D0D0D0D0D0D0D0D0D0D0D5FFFFFFFFFF8C
:10444000FFFFFFFFFFFFFFFFFFFFFFFFFFFFFFFF7C
:10445000FFFFFFFFFFFFFFFFFFFFFFFFFFFFFFFF6C
:10446000FFFFFFFFFFD6D0D0D0D0D0D5D5D0D0D051
:10447000D0D0D0D5FFFFFFFFFFFFFFFFFFFFFFFF03
:10448000FFFFFFFFFFFFFFFFFFFFFFFFFFFFFFFF3C
:10449000FFFFFFFFFFFFFFFFFFFFFFFFFAD4D0D0BA
:1044A000D0D0D0FFFFD6D0D0D0D0D0D4FAFFFFFFED
:1044B000FFFFFFFFFFFFFFFFFFFFFFFFFFFFFFFF0C
:1044C000FFFFFFFFFFFFFFFFFFFFFFFFFFFFFFFFFC
:1044D000FFFFFFFAD4D0D0D0D0D0F6FFFFFFF6D444
:1044E000D0D0D0D0D5FFFFFFFFFFFFFFFFFFFFFFC2
:1044F000FFFFFFFFFFFFFFFFFFFFFFFFFFFFFFFFCC
:10450000FFFFFFFFFFFFFFFFFFFFD6D0D0D0D0D0CF
:10451000D0D5FFFFFFFFFFD5D0D0D0D0D0FBFFFF1D
:10452000FFFFFFFFFFFFFFFFFFFFFFFFFFFFFFFF9B
:10453000FFFFFFFFFFFFFFFFFFFFFFFFFFFFFFFF8B
:10454000D6D5D0D0D0D0D0D0D5FBFFFFFFFFFFFF16
:10455000D0D0D0D0D0D6FFFFFFFFFFFFFFFFFFFF7F
:10456000FFFFFFFFFFFFFFFFFFFFFFFFFFFFFFFF5B
:10457000FFFFFBFAFAF6D5D0D0D0D0D0D0D0D0D033
:10458000FAFFFFFFFFFFFFFFD5D0D0D0D0D5FFFF50
:10459000FFFFFFFFFFFFFFFFFFFFFFFFFFFFFFFF2B
:1045A000FFFFFFFFFFFFFFD5D5D4D4D4D0D0D0D0AC
:1045B000D0D0D0D0D0D0D5FAFFFFFFFFFFFFFFFF54
:1045C000FAD0D0D0D0D5FFFFFFFFFFFFFFFFFFFFE6
:1045D000FFFFFFFFFFFFFFFFFFFFFFFFFFFFD5D044
:1045E000D0D0D0D0D0D0D0D0D0D0D0D0D0D5FFFF68
:1045F000FFFFFFFFFFFFFFFFFAD0D0D0D0D5FFFFB6
:10460000FFFFFFFFFFFFFFFFFFFFFFFFFFFFFFFFBA
:10461000FFFFFFFFFFFFD5D0D0D0D0D0D0D0D0D07B
:10462000D0D0D0D5F6FFFFFFFFFFFFFFFFFFFFFF5A
:10463000FAD0D0D0D0D5FFFFFFFFFFFFFFFFFFFF75
:10464000FFFFFFFFFFFFFFFFFFFFFFFFFFFFD5D0D3
:10465000D0D0D0D0D0D0D0D0D0D5FAFFFFFFFFFF40
:10466000FFFFFFFFFFFFFFFFFAD0D0D0D0D5FFFF45
:10467000FFFFFFFFFFFFFFFFFFFFFFFFFFFFFFFF4A
:10468000FFFFFFFFFFFFFFD5D0D0D0D0D5D5D5D6C7
:10469000FBFFFFFFFFFFFFFFFFFFFFFFFFFFFFFF2E
:1046A000FAD0D0D0D0D5FFFFFFFFFFFFFFFFFFFF05
:1046B000FFFFFFFFFFFFFFFFFFFFFFFFFFFFFFFF0A
:1046C000FBFBFFFFFFFFFFFFFFFFFFFFFFFFFFFF02
:1046D000FFFFFFFFFFFFFFFFFAD0D0D0D0D5FFFFD5
:1046E000FFFFFFFFFFFFFFFFFFFFFFFFFFFFFFFFDA
:1046F000FFFFFFFFFFFFFFFFFFFFFFFFFFFFFFFFCA
:10470000FFFFFFFFFFFFFFFFFFFFFFFFFFFFFFFFB9
:10471000F6D0D0D0D0D5FFFFFFFFFFFFFFFFFFFF98
:10472000FFFFFFFFFFFFFFFFFFFFFFFFFFFFFFFF99
:10473000FFFFFFFFFFFFFFFFFFFFFFFFFFFFFFFF89
:10474000FFFFFFFFFFFFFFFFD5D0D0D0D0D5FFFF89
:10475000FFFFFFFFFFFFFFFFFFFFFFFFFFFFFFFF69
:10476000FFFFFFFFFFFFFFFFFFFFFFFFFFFFFFFF59
:10477000FFFFFFFFFFFFFFFFFFFFFFFFFFFFFFFF49
:10478000D0D0D0D0D0D6FFFFFFFFFFFFFFFFFFFF4D
:10479000FFFFFFFFFFFFFFFFFFFFFFFFFFFFFFFF29
:1047A000FFFFFFFFFFFFFFFFFFFFFFFFFFFFFFFF19
:1047B000FFFFFFFFFFFFFFFBD0D0D0D0D0FAFFFFFD
:1047C000FFFFFFFFFFFFFFFFFFFFFFFFFFFFFFFFF9
:1047D000FFFFFFFFFFFFFFFFFFFFFFFFFFFFFFFFE9
:1047E000FFFFFFFFFFFFFFFFFFFFFFFFFFFFFFFADE
:1047F000D0D0D0D0D0FFFFFFFFFFFFFFFFFFFFFFB4
:10480000FFFFFFFFFFFFFFFFFFFFFFFFFFFFFFFFB8
:10481000FFFFFFFFFFFFFFFFFFFFFFFFFFFFFFFFA8
:10482000FFFFFFFFFFFFFFFAD0D0D0D0D5FFFFFF83
:10483000FFFFFFFFFFFFFFFFFFFFFFFFFFFFFFFF88
:10484000FFFFFFFFFFFFFFFFFFFFFFFFFFFFFFFF78
:10485000FFFFFFFFFFFFFFFFFFFFFFFFFFFFFFFF68
:10486000D5D0D0D5FBFFFFFFFFFFFFFFFFFFFFFF0E
:10487000FFFFFFFFFFFFFFFFFFFFFFFFFFFFFFFF48
:10488000FFFFFFFFFFFFFFFFFFFFFFFFFFFFFFFF38
:10489000FFFFFFFFFFFFFFFFFFFAFAFFFFFFFFFF32
:1048A000FFFFFFFFFFFFFFFFFFFAD6FFFFFFFFFF46
:1048B000FFFFFFFFFFFFFFFFFFFFFFFFFFFFFFFF08
:1048C000FFFFFFFFFFFFFFFFFFFFFFFFFFFFFFFFF8
:1048D000FFFFFFFFFFFFFAD5FFFFFFFFFFFFFFFF17
:1048E000FBD0D0FAFFFFFFFFFFFFFFFFFFFFFFFF3F
:1048F000FFFFFFFFFFFFFFFFFFFFFFFFFFFFFFFFC8
:10490000FFFFFFFFFFFFFFFFFFFFFFFFFFFFD5D010
:10491000D5FFFFFFFFFFFAFFFAD0D0FAFFFFFFFF3E
:10492000FFFFFFFFFFFFFFFFFFFFFFFFFFFFFFFF97
:10493000FFFFFFFFFFFFFFFFFFFFFFFFFFFFFFFF87
:10494000FFFFFFFFFFFFD4D0D0FFFBFFFFD5D0D587
:10495000FAD0D0FAFFFFFFFFFFFFFFFFFFFFFFFFCF
:10496000FFFFFFFFFFFFFFFFFFFFFFFFFFFFFFFF57
:10497000FFFFFFFFFFFFFFFFFFFFFFFFFFFFD4D0A1
:10498000D4FBD0D0FFD0D0D4FAD0D0FAFFFFFFFFB5
:10499000FFFFFFFFFFFFFFFFFFFFFFFFFFFFFFFF27
:1049A000FFFFFFFFFFFFFFFFFFFFFFFFFFFFFFFF17
:1049B000FFFFFFFFFFFFD4D0D4FAD0D0FBD0D0D47C
:1049C000FAD0D0FAFFFFFFFFFFFFFFD6D5D5FFFFDC
:1049D000FFFFFFFFFFFFFFFFFFFFFFFFFFFFFFFFE7
:1049E000FFFFFFFBD5D5FBFFFFFFFFFFFFFFD4D08D
:1049F000D4FAD0D0FBD0D0D4FAD0D0FAFFFFFFFF4A
:104A0000FFFFF6D0D0D0D6FFFFFFFFFFFFFFFFFF75
:104A1000FFFFFFFFFFFFFFFFFFFFFFD4D0D0D5FF59
:104A2000FFFFFFFFFFFFD4D0D4FAD0D0FBD0D0D40B
:104A3000FAD0D0D5FBFBFBFBFBFAD4D0D0D0D5FB12
:104A4000FBFBFBFBFBFBFBFBFBFBFBFBFBFBFBFBB6
:104A5000FBFBFAD0D0D0D0F6FBFBFBFBFBFAD4D0AB
:104A6000D4FAD0D0FBD0D0D4FAD0D0D0D0D0D0D0BF
:104A7000D0D0D0D0D0D0D0D0D0D0D0D0D0D0D0D036
:104A8000D0D0D0D0D0D0D0D0D0D0D0D0D0D0D0D026
:104A9000D0D0D0D0D0D0D0D0D4FAD0D0FBD0D0D4B9
:104AA000FAD0D0D5D5D5D5D5D5D4D0D0D0D0D5D5B0
:104AB000D5D5D5D5D5D5D5D5D5D5D5D5D5D5D5D5A6
:104AC000D5D5D5D5D0D0D0D0D5D5D5D5D5D5D0D0B4
:104AD000D4FAD0D0FBD0D0D4FAD0D0F6FFFFFFFF6D
:104AE000FFD5D0D0D0D5FFFFFFFFFFFFFFFFFFFFB7
:104AF000FFFFFFFFFFFFFFFFFFFFFFFAD0D0D0D087
:104B0000FBFFFFFFFFFFD4D0D4FAD0D0FBD0D0D42E
:104B1000FAD0D0FAFFFFFFFFFFD0D0D0D0D6FFFFF2
:104B2000FFFFFFFFFFFFFFFFFFFFFFFFFFFFFFFF95
:104B3000FFFFFFFFD0D0D0D0FAFFFFFFFFFFD4D0A0
:104B4000D4FAD0D0FBD0D0D4FAD0D0FAFFFFFFFFF8
:104B5000FFD0D0D0D0D6FFFFFFFFFFFFFFFFFBD578
:104B6000D5D5FAFFFFFFFFFFFFFFFFFFD0D0D0D06A
:104B7000FAFFFFFFFFFFD4D0D4FAD0D0FBD4D0D4BB
:104B8000FAD0D0FAFFFFFFFFFFD0D0D0D0D6FFFF82
:104B9000FFFFFFFFFFD5D0D0D0D0D0D4FAFFFFFF6A
:104BA000FFFFFFFFD0D0D0D0FAFFFFFFFFFFD4D030
:104BB000D4FAD0D0FBFAD5FAFAD0D0FAFFFFFFFF33
:104BC000FFD5D0D0D0D5FFFFFFFFFFFFD5D0D0D08D
:104BD000D0D0D0D0D0FAFFFFFFFFFFFFD0D0D0D091
:104BE000FBFFFFFFFFFFD4D0D0FFD5D5FFFFFFFFB6
:104BF000FAD0D0FAFFFFFFFFFFD5D0D0D0D5FFFF0E
:104C0000FFFFFFD6D0D0D0D0D0D0D0D0D0D0FFFFB3
:104C1000FFFFFFFAD0D0D0D4FFFFFFFFFFFFD4D0BB
:104C2000D4FFFFFFFFFFFFFFFFD0D0FBFFFFFFFF21
:104C3000FFFAD0D0D0D0FFFFFFFFFFD5D0D0D0D02B
:104C4000D0D0D0D0D0D0D6FFFFFFFFD5D0D0D0D499
:104C5000FFFFFFFFFFFFD5D0D6FFFFFFFFFFFFFFE6
:104C6000FFFFFFFFFFFFFFFFFFFFD4D0D0D0FAFF11
:104C7000FFFFFFD0D0D0D0D0D0D0D0D0D0D0D5FF73
:104C8000FFFFFFD5D0D0D0D5FFFFFFFFFFFFFFFF15
:104C9000FFFFFFFFFFFFFFFFFFFFFFFFFFFFFFFF24
:104CA000FFFFD5D0D0D0D5FFFFFFFFD0D0D0D0D0E0
:104CB000D0D0D0D0D0D0D5FFFFFFFBD0D0D0D0FA0D
:104CC000FFFFFFFFFFFFFFFFFFFFFFFFFFFFFFFFF4
:104CD000FFFFFFFFFFFFFFFFFFFFFAD0D0D0D0FAAA
:104CE000FFFFFFD4D0D0D0D0D0D0D0D0D0D0D5FFFF
:104CF000FFFFD5D0D0D0D5FFFFFFFFFFFFFFFFFFA5
:104D0000FFFFFFFFFFFFFFFFFFFFFFFFFFFFFFFFB3
:104D1000FFFFFFD5D0D0D0D4FFFFFFD5D0D0D0D06B
:104D2000D0D0D0D0D0D0FBFFFFFAD0D0D0D0D6FF9B
:104D3000FFFFFFFFFFFFFFFFFFFFFFFFFFFFFFFF83
:104D4000FFFFFFFFFFFFFFFFFFFFFFD6D0D0D0D058
:104D5000D5FFFFFBD0D0D0D0D0D0D0D0D0D5FFFF62
:104D6000FBD0D0D0D0D4FFFFFFFFFFFFFFFFFFFF3E
:104D7000FFFFFFFFFFFFFFFFFFFFFFFFFFFFFFFF43
:104D8000FFFFFFFFD5D0D0D0D0D5FFFFFAD4D0D0D1
:104D9000D0D0D0D0D5FFFFFBD5D0D0D0D0FAFFFFF8
:104DA000FFFFFFFFFFFFFFFFFFFFFFFFFFFFFFFF13
:104DB000FFFFFFFFFFFFFFFFFFFFFFFFFAD0D0D095
:104DC000D0D0D5FFFFFFD5D0D0D0D0FAFFFFFAD496
:104DD000D0D0D0D0D5FFFFFFFFFFFFFFFFFFFFFFC9
:104DE000FFFFFFFFFFFFFFFFFFFFFFFFFFFFFFFFD3
:104DF000FFFFFFFFFFFAD0D0D0D0D0D0D6FFFFFF0B
:104E0000FFFFFFFFFAD5D0D0D0D0D0D5FFFFFFFFF6
:104E1000FFFFFFFFFFFFFFFFFFFFFFFFFFFFFFFFA2
:104E2000FFFFFFFFFFFFFFFFFFFFFFFFFFFFFAD4C2
:104E3000D0D0D0D0D0D4D4D5D5D5D5D4D0D0D0D052
:104E4000D0D0D5FFFFFFFFFFFFFFFFFFFFFFFFFFFA
:104E5000FFFFFFFFFFFFFFFFFFFFFFFFFFFFFFFF62
:104E6000FFFFFFFFFFFFFFFFD5D0D0D0D0D0D0D0C5
:104E7000D0D0D0D0D0D0D0D0D4FAFFFFFFFFFFFFEA
:104E8000FFFFFFFFFFFFFFFFFFFFFFFFFFFFFFFF32
:104E9000FFFFFFFFFFFFFFFFFFFFFFFFFFFFFFFF22
:104EA000FFD0D0D0D0D0D0D0D0D0D0D0D0D0D0D0D3
:104EB000FAFFFFFFFFFFFFFFFFFFFFFFFFFFFFFF07
:104EC000FFFFFFFFFFFFFFFFFFFFFFFFFFFFFFFFF2
:104ED000FFFFFFFFFFFFFFFFFFD0D0D0D0D0D0D02B
:104EE000D0D0D0D0D0D0D0D0FAFFFFFFFFFFFFFF4F
:104EF000FFFFFFFFFFFFFFFFFFFFFFFFFFFFFFFFC2
:104F0000FFFFFFFFFFFFFFFFFFFFFFFFFFFFFFFFB1
:104F1000FFD0D0D0D0D0D0D0D0D0D0D0D0D0D0D062
:104F2000FAFFFFFFFFFFFFFFFFFFFFFFFFFFFFFF96
:104F3000FFFFFFFFFFFFFFFFFFFFFFFFFFFFFFFF81
:104F4000FFFFFFFFFFFFFFFFFFD0D0D0D0D0D0D0BA
:104F5000D0D0D0D0D0D0D0D0FAFFFFFFFFFFFFFFDE
:104F6000FFFFFFFFFFFFFFFFFFFFFFFFFFFFFFFF51
:104F7000FFFFFFFFFFFFFFFFFFFFFFFFFFFFFFFF41
:104F8000FFD0D0D0D0D0D0D0D0D0D0D0D0D0D0D0F2
:104F9000FAFFFFFFFFFFFFFFFFFFFFFFFFFFFFFF26
:104FA000FFFFFFFFFFFFFFFFFFFFFFFFFFFFFFFF11
:104FB000FFFFFFFFFFFFFFFFFFD0D0D0D0D0D0D04A
:104FC000D0D0D0D0D0D0D0D0FAFFFFFFFFFFFFFF6E
:104FD000FFFFFFFFFFFFFFFFFFFFFFFFFFFFFFFFE1
:104FE000FFFFFFFFFFFFFFFFFFFFFFFFFFFFFFFFD1
:104FF000FFD0D0D0D0D0D0D0D0D0D4D0D0D0D0D07E
:10500000FAFFFFFFFFFFFFFFFFFFFFFFFFFFFFFFB5
:10501000FFFFFFFFFFFFFFFFFFFFFFFFFFFFFFFFA0
:10502000FFFFFFFFFFFFFFFFFFD0D0D0D0D0D0D0D9
:10503000D0D0D0D0D0D0D0D0FAFFFFFFFFFFFFFFFD
:10504000FFFFFFFFFFFFFFFFFFFFFFFFFFFFFFFF70
:10505000FFFFFFFFFFFFFFFFFFFFFFFFFFFFFFFF60
:10506000FFD0D0D0D0D0D0D0D0D0D0D0D0D0D0D011
:10507000FAFFFFFFFFFFFFFFFFFFFFFFFFFFFFFF45
:10508000FFFFFFFFFFFFFFFFFFFFFFFFFFFFFFFF30
:10509000FFFFFFFFFFFFFFFFFFD0D0D0D0D0D0D069
:1050A000D0D0D0D0D0D0D0D0FAFFFFFFFFFFFFFF8D
:1050B000FFFFFFFFFFFFFFFFFFFFFFFFFFFFFFFF00
:1050C000FFFFFFFFFFFFFFFFFFFFFFFFFFFFFFFFF0
:1050D000FFD0D0D0D0D0D0D0D0D0D0D0D0D0D0D0A1
:1050E000FAFFFFFFFFFFFFFFFFFFFFFFFFFFFFFFD5
:1050F000FFFFFFFFFFFFFFFFFFFFFFFFFFFFFFFFC0
:10510000FFFFFFFFFFFFFFFFFFD0D0D0D0D0D0D0F8
:10511000D0D0D0D0D0D0D0D0FAFFFFFFFFFFFFFF1C
:10512000FFFFFFFFFFFFFFFFFFFFFFFFFFFFFFFF8F
:10513000FFFFFFFFFFFFFFFFFFFFFFFFFFFFFFFF7F
:10514000FFF6FAFAFAFAFAFAFAFAFAFAFAFAFAFABE
:10515000FBFFFFFFFFFFFFFFFFFFFFFFFFFFFFFF63
:10516000FFFFFFFFFF777777777777779D9D7777DB
:105170007777777777779D9D777777777777779D4D
:105180009D777777777777779D9D9D777777777717
:1051900077779D9D777777777777779D9D9D7777E1
:1051A000777777779D9D9D9D7777777777779D9DAB
:1051B0009D7777777777779D9D9D9D7777777777C1
:1051C000779D9D9D9D77777777779D9D9D9D9D9DF3
:1051D0009D9D9D9D9D9D9D9D9D9D9D9D9D9D9D9DFF
:1051E0009D9D9D9D9D9D9D9D9D9D9D9D9D9D9D9DEF
:1051F00077777777779D9D9D9D7777777777779D81
:105200009D9D9D7777777777779D9D9D777777774A
:1052100077779D9D9D9D7777777777779D9D9D7714
:105220007777777777779D9D777777777777779D9C
:105230009D9D777777777777779D9D777777777766
:1052400077779D9D77777777777777779D9D777756
:105250007777777777E0E0E0E0E0E0E0E0E0E0E05B
:10526000E0E0E0E0E0E0E0E0E0E0E0E0E0E0E0E03E
:10527000E0E0E0E0E0E0E0E0E0E0E0E0E0E0E0E02E
:10528000E0E0E0E0E0E0E0E0E0E0E0E0E0E0E0E01E
:10529000E0E0E0E0E0E0E0E0E0E0E0E0E0E0E0E00E
:10555000E0E0E0E0E0E0E0E0E0E0E0E0E0FFFFFFEE
:10556000FFFFFFFFFFFFE0E0FFFFFFFFFFE0E0E0E6
:10557000E0E0FFFFFFFFFFE0E0EDFFFFFFFFFFFFC9
:10558000FFFFFFE0E0FFFFFFFFFFFFFFFFE4E0E0C2
:10559000E0E0E0E0FFFFFFFFFFFFE9E0E0E0E0FF29
:1055A000FFFFFFFFFFFFFFFFE4E0FFFFFFFFE0E083
:1055B000E0E4FFFFFFE0E0E0E0E4FFFFFFFFFFFFCC
:1055C000E0E0E0FFFFFFFFE0E0E0E0FFFFFFFFE0E3
:1055D000E0E0E0E0E0E0E0E0E0E0E0E0E0FFFFFF6E
:1055E000FFFFFFFFFFFFE0E0FFFFFFFFFFF6E0E050
:1055F000E0E0FFFFFFFFFFE0E0EDFFFFFFFFFFFF49
:10560000FFFFFFE0E0FFFFFFFFFFFFFFFFFFFBE00B
:10561000E0E0E0FFFFFFFFFFFFFFFFE4E0E0E0FF6F
:10562000FFFFFFFFFFFFFFFFE4E0FFFFFFFFE4E0FE
:10563000E0E4FFFFFFE0E0E0E4FFFFFFFFFFFFFF2C
:10564000FFE0E0F6FFFFFFE0E0E0E0FFFFFFE9E062
:10565000E0E0E0E0E0E0E0E0E0E0E0E0E0FFFFFFED
:10566000FFFFFFFFFFFFE0E0FFFFFFFFFFFFE0E0C6
:10567000E0E5FFFFFFFFFFE0E0EDFFFFFFFFFFFFC3
:10568000FFFFFFE0E0FFFFFFFFFFFFFFFFFFFFE483
:10569000E0E0E5FFFFFFFFF2FFFFFFFFE0E0E0FFDC
:1056A000FFFFFFFFFFFFFFFFE4E0FFFFFFFFFFE063
:1056B000E0E4FFFFFFE0E0E0FFFFFFFFE9FFFFFFA7
:1056C000FFE9E0E0FFFFFFFBE0E0F6FFFFFFE0E0C7
:1056D000E0E0E0E0E0E0E0E0E0E0E0E0E0FFFFFF6D
:1056E000E0E0E0E0E0E0E0E0FFFFFFFFFFFFE0E000
:1056F000E0FBFFFFFFFFFFE0E0EDFFFFFFE0E0E08A
:10570000E0E0E0E0E0FFFFFFE0E0E0E4FFFFFFE0DB
:10571000E0E0FFFFFFFFE0E0E0FFFFFFE0E0E0FF91
:10572000FFFFE0E0E0E0E0E0E0E0FFFFFFFFFFE49C
:10573000E0E4FFFFFFE0E0E4FFFFFFE4E0E0FFFF65
:10574000FFFFE0E0FFFFFFFFE0E0FFFFFFF6E0E02C
:10575000E0E0E0E0E0E0E0E0E0E0E0E0E0FFFFFFEC
:10576000E0E0E0E0E0E0E0E0FFFFFFE9FFFFE0E095
:10577000E0FFFFFFFFFFFFE0E0EDFFFFFFE0E0E005
:10578000E0E0E0E0E0FFFFFFE0E0E0E0FFFFFFE55A
:10579000E0E0FFFFFFE0E0E0E0FFFFFFE9E0E0FF27
:1057A000FFFFE0E0E0E0E0E0E0E0FFFFFFFFFFEE12
:1057B000E0E4FFFFFFE0E0FFFFFFFFE0E0E0F2FFDB
:1057C000FFFFE0E0E0FFFFFFE0E0FFFFFFE0E0E0E1
:1057D000E0E0E0E0E0E0E0E0E0E0E0E0E0FFFFFF6C
:1057E000E0E0E0E0E0E0E0E0FFFFFFE9FFFFE4E011
:1057F000E0FFFFFFFFFFFFE0E0EDFFFFFFE0E0E085
:10580000E0E0E0E0E0FFFFFFE0E0E0E0FFFFFFE4DA
:10581000E0E0FFFFFFE4E0E0E0E0E0E0E0E0E0FF08
:10582000FFFFE0E0E0E0E0E0E0E0FFFFFFFFFFFF80
:10583000E0E4FFFFFFE0E0FFFFFFFBE0E0E0E9FF67
:10584000FFFFE0E0E0FFFFFFEDFFFFFFFFE0E0E034
:10585000E0E0E0E0E0E0E0E0E0E0E0E0E0FFFFFFEB
:10586000E0E0E0E0E0E0E0E0FFFFFFE9FFFFFBE079
:10587000E0FFFFE4FFFFFFE0E0EDFFFFFFE0E0E01F
:10588000E0E0E0E0E0FFFFFFE0E0E0E0FFFFFFE05E
:10589000E0E4FFFFFFE0E0E0E0E0E0E0E0E0E0FF88
:1058A000FFFFE0E0E0E0E0E0E0E0FFFFFFF6FFFF09
:1058B000E0E4FFFFFFE0E0FFFFFFF6E0E0E0E0E014
:1058C000E0E0E0E0E0F2FFFFFFFFFFFFE0E0E0E00C
:1058D000E0E0E0E0E0E0E0E0E0E0E0E0E0FFFFFF6B
:1058E000FFFFFFFFFFFFE0E0FFFFFFE9FFFFFFE03B
:1058F000E0FFFFE0FFFFFFE0E0EDFFFFFFFFFFFF46
:10590000FFFFFFE0E0FFFFFFF6F6FFFFFFFFFFE016
:10591000E0E4FFFFFFE0E0E0E0E0E0E0E0E0E0FF07
:10592000FFFFFFFFFFFFFFFFE0E0FFFFFFE4FFFFE0
:10593000FBE4FFFFFFE0E0FFFFFFF2E0E0E0E0E07C
:10594000E0E0E0E0E0E0FFFFFFFFFFFFE0E0E0E09D
:10595000E0E0E0E0E0E0E0E0E0E0E0E0E0FFFFFFEA
:10596000FFFFFFFFFFFFE0E0FFFFFFE9E9FFFFE0D0
:10597000F6FFFFE0FFFFFFE0E0EDFFFFFFFFFFFFAF
:10598000FFFFFFE0E0FFFFFFFFFFFFFFFFE4E0E0BE
:10599000E0E4FFFFFFE0E0FFFFFFFFFFFFE0E0FFCD
:1059A000FFFFFFFFFFFFFFFFE0E0FFFFFFE0FFFF64
:1059B000FFE4FFFFFFE0E0FFFFFFF2E0E0E0E0E0F8
:1059C000E0E0E0E0E0E0F6FFFFFFFFEDE0E0E0E038
:1059D000E0E0E0E0E0E0E0E0E0E0E0E0E0FFFFFF6A
:1059E000FFFFFFFFFFFFE0E0FFFFFFE9E0FFFFE059
:1059F000FFFFFFE0FFFFFFE0E0EDFFFFFFFFFFFF26
:105A0000FFFFFFE0E0FFFFFFFFFFFFFFFFFFFBE007
:105A1000E0E4FFFFFFE0E0FFFFFFFFFFFFE0E0FF4C
:105A2000FFFFFFFFFFFFFFFFE0E0FFFFFFE0E9FFF9
:105A3000FFE0FFFFFFE0E0FFFFFFF2E0E0E0E0E07B
:105A4000E0E0E0E0E0E0E0FFFFFFFFE0E0E0E0E0DA
:105A5000E0E0E0E0E0E0E0E0E0E0E0E0E0FFFFFFE9
:105A6000E0E0E0E0E0E0E0E0FFFFFFE9E0FFFFE989
:105A7000FFFFF2E0FFFFFFE0E0EDFFFFFFE0E0E00F
:105A8000E0E0E0E0E0FFFFFFE0E0E0F2FFFFFFE04A
:105A9000E0E4FFFFFFE0E0E4E4FFFFFFFFE0E0FF02
:105AA000FFFFE0E0E0E0E0E0E0E0FFFFFFE0E4FF38
:105AB000FFF2FFFFFFE0E0FFFFFFF2E0E0E0E0F2D7
:105AC000F2F2E0E0E0E0E0FFFFFFFFE0E0E0E0E036
:105AD000E0E0E0E0E0E0E0E0E0E0E0E0E0FFFFFF69
:105AE000E0E0E0E0E0E0E0E0FFFFFFE9E0FFFFFFF3
:105AF000FFFFE0E0FFFFFFE0E0EDFFFFFFE0E0E0A1
:105B0000E0E0E0E0E0FFFFFFE0E0E0E0FFFFFFE0DB
:105B1000E0E0FFFFFFE4E0E0E0FFFFFFFFE0E0FF89
:105B2000FFFFE0E0E0E0E0E0E0E0FFFFFFE0E0FFBB
:105B3000FFFFFFFFFFE0E0FFFFFFFBE0E0E0E4FF2F
:105B4000FFFFE4E0E0E0E0FFFFFFFFE0E0E0E0E097
:105B5000E0E0E0E0E0E0E0E0E0E0E0E0E0FFFFFFE8
:105B6000E0E0E0E0E0E0E0E0FFFFFFE9E0FFFFFF72
:105B7000FFFFE0E0FFFFFFE0E0EDFFFFFFE0E0E020
:105B8000E0E0E0E0E0FFFFFFE0E0E0E0FFFFFFE05B
:105B9000E0E0FFFFFFE0E0E0E0FFFFFFFFE0E0FF0D
:105BA000FFFFE0E0E0E0E0E0E0E0FFFFFFE0E0E05A
:105BB000FFFFFFFFFFE0E0FFFFFFFFE0E0E0EDFFA2
:105BC000FFFFE0E0E0E0E0FFFFFFFFE0E0E0E0E01B
:105BD000E0E0E0E0E0E0E0E0E0E0E0E0E0FFFFFF68
:105BE000E0E0E0E0E0E0E0E0FFFFFFE9E0E9FFFF08
:105BF000FFFFE0E0FFFFFFE0E0EDFFFFFFE0E0E0A0
:105C0000E0E0E0E0E0FFFFFFE0E0E0E0FFFFFFE0DA
:105C1000E0E0FFFFFFFFE0E0E0FFFFFFFFE0E0FF6D
:105C2000FFFFE0E0E0E0E0E0E0E0FFFFFFE0E0E0D9
:105C3000FFFFFFFFFFE0E0E9FFFFFFE0E0E0FFFF25
:105C4000FFFFE0E0E0E0E0FFFFFFFFE0E0E0E0E09A
:105C5000E0E0E0E0E0E0E0E0E0E0E0E0E0FFFFFFE7
:105C6000FFFFFFFFFFFFF6E0FFFFFFE9E0E0FFFFC0
:105C7000FFFBE0E0FFFFFFE0E0EDFFFFFFFFFFFFC6
:105C8000FFFFFFE0E0FFFFFFE0E0E0E0FFFFFFE4F9
:105C9000E0E0FFFFFFFFEDE0FFFFFFFFFFE0E0FFC1
:105CA000FFFFFFFFFFFFFFFFE5E0FFFFFFE0E0E09A
:105CB000FFFFFFFFFFE0E0E0FFFFFFFFE0E9FFFF86
:105CC000FFEDE0E0E0E0E0FFFFFFFFE0E0E0E0E02C
:105CD000E0E0E0E0E0E0E0E0E0E0E0E0E0FFFFFF67
:105CE000FFFFFFFFFFFFF6E0FFFFFFE9E0E0FFFF40
:105CF000FFE0E0E0FFFFFFE0E0EDFFFFFFFFFFFF61
:105D0000FFFFFFE0E0FFFFFFE0E0E0E0FFFFFFE973
:105D1000E0E0E0FFFFFFFFFFFFFFFFFFFFE0E0FF2E
:105D2000FFFFFFFFFFFFFFFFE5E0FFFFFFE0E0E019
:105D3000E0FFFFFFFFE0E0E0E9FFFFFFFFFFFFFF05
:105D4000FFE0E0E0E0E0E0FFFFFFFFE0E0E0E0E0B8
:105D5000E0E0E0E0E0E0E0E0E0E0E0E0E0FFFFFFE6
:105D6000FFFFFFFFFFFFF6E0FFFFFFE9E0E0FFFFBF
:105D7000FFE4E0E0FFFFFFE0E0EDFFFFFFFFFFFFDC
:105D8000FFFFFFE0E0FFFFFFE0E0E0E0FFFFFFFFDD
