:020000040800F2
:1000000070050020A1010008D3170008E1090008CD
:10001000D117000863020008291D00080000000035
:10002000000000000000000000000000311900087E
:1000300089050008000000006D180008351C000844
:10004000BB0100086B180008BB010008BB010008D9
:10005000BB010008E9180008BB010008BB0100084B
:10006000BB010008BB010008BB010008BB01000880
:10007000BB010008BB010008510300085D03000834
:10008000BB010008BB010008BB010008BB01000860
:10009000BB010008BB010008BB010008BB01000850
:1000A000091D0008BB010008BB010008BB010008D6
:1000B0000D1D0008251D000800000000BB01000800
:1000C000BB0100080000000000000000BB010008A8
:1000D00000000000BB010008BB010008BB010008D4
:1000E000BB010008BB010008000000000000000088
:1000F0000000000000000000000000000000000000
:1001000000000000000000000000000000000000EF
:100110000000000000000000BB010008BB01000857
:1001200000000000000000000000000000000000CF
:1001300000000000000000000000000000000000BF
:10014000BB010008BB01000800000000BB01000863
:10015000BB010008BB010008BB010008BB0100088F
:10016000BB010008BB010008000000000000000007
:10017000000000000000000000000000000000007F
:1001800000000000BB010008DFF810D000F02CF8E0
:1001900000480047F51F0008AFF3008070050020FD
:1001A0000648804706480047FEE7FEE7FEE7FEE711
:1001B000FEE7FEE7FEE7FEE7FEE7FEE7F91C0008C4
:1001C00089010008D2B201E000F8012B491EFBD2E0
:1001D00070470022F6E710B513460A460446194652
:1001E000FFF7F0FF204610BD064C074D06E0E06823
:1001F00040F0010394E8070098471034AC42F6D36E
:10020000FFF7C6FF78D0000898D0000870B58C18AA
:1002100010F8015B15F0070301D110F8013B2A111A
:1002200006D110F8012B03E010F8016B01F8016B07
:100230005B1EF9D12B0705D40023521E0DD401F803
:10024000013BFAE710F8013BCB1A921C03E013F8CC
:10025000015B01F8015B521EF9D5A142D8D3002001
:1002600070BDFEE770B50D4B002103221970597067
:100270009970002811D00A24B0FBF4F504FB150591
:10028000C1F102069D55B0FBF4F0491C521EC9B2E3
:10029000D2B2002801D0002AEED170BD2B00002080
:1002A00010B5184A18480021435C545CA34227D17A
:1002B000491CC9B20629F7D9124A0021D21D431898
:1002C0001B7C545CA3421BD1491CC9B20F29F6D92F
:1002D000C17A0E4A1170017B0D4A1170417B0D4AA3
:1002E0001170817AC27901EB0261027A437A1204B9
:1002F00002EB03221144084A1160807B0749087011
:1003000010BD000046D000084C010020CE000020A7
:10031000CC000020CD000020D0000020D80000201C
:1003200008490868020E0848C2730A68120C027471
:100330000A68120A42740968817404490978C1750F
:1003400070470000D4000020AC00002022000020F4
:10035000014800F0EFB8000000000240014800F042
:10036000E9B800000000024010B500F047F800F0C6
:1003700089F8BDE810404FF47A7000F037BF0000F4
:1003800005484FF400214160491041604910416027
:1003900049104160704700000000024038B5144C1D
:1003A000E069C0F380100028FAD0206820F0010036
:1003B000206000F067F882200D490F4D0090202347
:1003C0000C4A2431284600F0D3F80949083108685E
:1003D00040F040000860086820F08000086028684D
:1003E00040F001002860206840F00100206038BD26
:1003F000003801404C0100205800024003480168C9
:100400004FF6FE721140016000F04EB858000240F5
:1004100005484FF400414160491041604910416076
:1004200081144160704700000000024038B5124C52
:10043000206820F001002060FFF7E0FF92200E49C5
:100440000F4D009020230D4A2831284600F090F8E7
:1004500009490831086840F080000860086820F009
:1004600040000860286840F001002860206840F0E3
:100470000100206038BD000000380140AC000020C1
:1004800044000240034801684FF6FE7211400160CB
:1004900000F00AB84400024000B5FFF77FFF5DF8A6
:1004A00004EBFFF73DBF000001684FF6FE721140FC
:1004B00001600021016041608160C1601C491C4AEB
:1004C0000839904203D1486840F00F0006E0184A0E
:1004D0001432904204D1486840F0F0004860704700
:1004E000134A2832904203D1486840F47060F5E71F
:1004F0000F4A3C32904203D1486840F47040EDE727
:100500000B4A5032904203D1486840F47020E5E72E
:10051000074A6432904203D1486840F47000DDE736
:10052000034A78329042DAD1486840F07060D5E7EB
:10053000080002400168C1F3403121B14FF400517D
:100540004160FFF7A9BF0168C1F3404121B14FF4F9
:1005500000314160FFF7A4BE0168C1F3C03121B989
:100560000068C0F3C040002801D0FFF7FDBE70470F
:1005700070B50468049D47F6FE76B4432C4343608F
:100580008160C260046070BD7047000070B51B4B95
:100590001C6865051A4C06D5207805280DD000F09A
:1005A000C7F9052008E01B685B0607D520780328FB
:1005B00003D000F0A1F90320207070BD114B5D6ADB
:1005C000114B142D0BD11D78AD0708D40A2806D87D
:1005D00020780728F1D000F01BF80720ECE72578F9
:1005E000072D03D0BDE8704000F03CB80748007804
:1005F00010B918788007E0D5FF20DDE7D000002093
:100600002800002000400140D800002023000020E6
:1006100008B54FF6FF70002100909F237F22084607
:1006200001F052FC0A4800900A48332103780A4836
:100630000278032001F06CFC08488178002906D17B
:1006400001218170BDE80840054801F06FBA08BD7E
:10065000DBB200082100002020000020280000203C
:10066000420100202DE9F74FDFF85092064682B094
:1006700099F800004FF0000B4FF6FF7701282CD0BF
:1006800000219F237F220846009701F01DFC8C4823
:1006900000908C48742103788B480278642001F024
:1006A00037FC8A4800908A483921037889480278C3
:1006B000462001F02DFC88480090884807210378E7
:1006C00087480278462001F023FC012189F80010B8
:1006D00089F802B005B0BDE8F08F3046FFF7C2FDE3
:1006E000764CE41CA07804F1590555F820000090E0
:1006F000A17804F1310858F82100A178037804F1B9
:10070000090A5AF82100752102780C2001F000FC3A
:10071000092E7DD9607855F820000090617858F84E
:100720002100617803785AF821007521027827208A
:1007300001F0EEFB632E10D9207855F820000090D0
:10074000217858F82100217803785AF82100752182
:100750000278422001F0DCFB06E092235B22752147
:100760004220009701F0B0FB0398FFF77BFD607813
:1007700055F820000090617858F8210061780378DE
:100780005AF821003E210278272001F0C1FBA07811
:1007900055F820000090A17858F82100A17803783E
:1007A0005AF821003E2102780C2001F0B1FB049898
:1007B000FFF758FD607855F820000090617858F8F0
:1007C0002100617803785AF8210007210278272058
:1007D00001F09EFBA07855F820000090A17858F811
:1007E0002100A17803785AF82100072102780C2013
:1007F00001F08EFB3B48007880071FD599F8011067
:10080000484600297FF466AF01214170364800E078
:100810000EE000903548782103783548027868204A
:1008200001F076FB05B03348BDE8F04F01F07EB92A
:10083000B0235B2275212720009793E789F801B048
:1008400006EB46006424C5000F2E11D9B5FBF4F069
:100850007830C1B28F2371226820009701F034FBF9
:10086000B5FBF4F07730C3B246F2DC5000901FE0E5
:10087000761F4FF478480A2E10D8B5FBF4F0783084
:10088000C1B28F2371226820009701F01DFBB5FBD8
:10089000F4F07730C3B2CDF8008009E08F237122E5
:1008A00079216820009701F00FFB7823CDF80080B4
:1008B00071227821682001F007FB0BE72800002057
:1008C000D540000815000020140000206F430008E8
:1008D0001700002016000020074F00081900002014
:1008E00018000020D8000020C75700081B00002077
:1008F0001A0000203E01002008B540F27F300021A0
:1009000000909F237F22084601F0DEFA0548009000
:1009100005484521037805480278052001F0F8FADA
:1009200008BD0000B7A800081F0000201E0000201E
:1009300008B505480090054800210378044802786E
:10094000084601F0E5FA08BDB75800081D00002070
:100950001C00002070B51E4C606840F400706060A0
:100960001C4D45F2555028600620686040F6FF7027
:10097000A86028610020286017492020886201F0C3
:1009800043FA01F077FA012000F030FC01F066FA3A
:1009900001F03AFA282001F01FFB01F065FA4AF64F
:1009A000AA2028600D48016841F004010160206818
:1009B00040F001002060206840F0020020602068C4
:1009C00040F004002060BFF34F8F30BF70BD0000C7
:1009D00000700040003000400004004810ED00E0CE
:1009E00000F098F84FF090474FF40065BD61114C4E
:1009F0001020A0614601A6614FF4FA68786925EAE3
:100A0000000100F4006041EA0040B8616069102113
:100A1000814300F0100041EA0040A061606926EACD
:100A2000000100F4007041EA0040A061404600F07F
:100A3000DDFBE3E700040048044908B54A690243C6
:100A40004A6149690140009108BD00000010024060
:100A5000044908B5CA690243CA61C96901400091E5
:100A600008BD000000100240044B194411F8011C9D
:100A7000435823F440531343435070475622000811
:100A8000054B10B5194411F8011C435844F21004E9
:100A9000A3431343435010BD56220008044B19448E
:100AA00011F8011C435823F080031343435070474F
:100AB00056220008044B194411F8011C435823F432
:100AC000406313434350704756220008044B1944B7
:100AD00011F8011C435823F020031343435070477F
:100AE00056220008044B194411F8011C435823F006
:100AF000400313434350704756220008044B1944E7
:100B000011F8011C435823F44073134343507047BA
:100B10005622000810494FF0FC5008600020091DC3
:100B20000860091D0860091D0860091D08600A4A5F
:100B30000A4914321160084A811E20321160111DC9
:100B40000860091D0860091D0860091D0860032070
:100B5000091D08600020704700040140FFFF7F006E
:100B6000F0B50A680F2692FAA2F2B2FA82F30324D1
:100B70008EE001259D402A407ED04D68012D01D098
:100B8000022D20D18D68876892FAA2FCBCFA8CFCF9
:100B90004FEA4C0C04FA0CFC27EA0C0792FAA2FC70
:100BA000BCFA8CFC4FEA4C0C05FA0CF52F4387601D
:100BB000CF680D68D0F804C02CEA050C7D434CEAE0
:100BC000050CC0F804C00F69D0F80CC092FAA2F569
:100BD000B5FA85F54FEA450E04FA0EF52CEA050C38
:100BE00092FAA2F5B5FA85F56D00AF404CEA070C14
:100BF000C0F80CC04D68022D33D192FAA2F5B5FAB7
:100C000085F5082D15D2D1F814C0056A92FAA2F71D
:100C1000B7FA87F7BF0006FA07F7BD4392FAA2F7C3
:100C2000B7FA87F7BF000CFA07FC45EA0C05056226
:100C300017E0D1F814E0476A150A95FAA5FCBCFA4A
:100C40008CFC4FEA8C0C06FA0CFC95FAA5F5B5FA6B
:100C500085F5AD0027EA0C070EFA05FE47EA0E07F8
:100C600047624D68076892FAA2FCBCFA8CFC4FEA16
:100C70004C0C04FA0CFE00E009E092FAA2F2B2FA7F
:100C800082F2520027EA0E0795402F4307605B1C53
:100C90000A6832FA03F57FF46CAF0020F0BD0069FA
:100CA000814301D000207047012070474FF47A71D2
:100CB000B0FBF1F14FF0E020491E4161002181615C
:100CC00005210161704700B5034600F0FBFD186087
:100CD00000F0CEFD586000F0D9FD9860586800F033
:100CE000E3FDD86000BD000000B501004FF000003A
:100CF0001BD112490A6B02F00302012A0BD0022A0F
:100D000014D0032A0BD000F0DDFD00F0B1FD5DF83A
:100D100004EB00F0BBBD5DF804EB00F0D3BD096847
:100D2000C1F34001002900D0054800BD096AC1F3A4
:100D300040010029F9D04FF4004000BD00100240EE
:100D400000127A0010B503680122C3F3801373BB4D
:100D5000D1E900231A43D1E9033423431A434B69F1
:100D60001A438B691A43CB691A430B6A1A43036807
:100D70004FF6BF74A3431A430260426840F60473FF
:100D80009A434B6942EA13428B681A4342608A686D
:100D9000B2F5006F03D2426842F4805242600A6AA0
:100DA000B2F5005F02D1898C89B201610022104640
:100DB00010BD000001490860704700004801002094
:100DC000F0B502681A4B1B4F4FF0804C984203D08D
:100DD000604501D0B84203D14C6822F07002224332
:100DE000154C164D164E984209D0604507D0B842B2
:100DF00005D0A04203D0A84201D0B04203D1CF68B1
:100E000022F440723A4302608A68C2620A888262AF
:100E1000984205D0A04203D0A84201D0B04201D1EF
:100E200009690163416941F0010141610020F0BDA0
:100E3000002C0140000400400040014000440140FB
:100E4000004801402DE9F047DFF8D8C20023B64C36
:100E5000B64DB74EB74F4FF001084FEA3C69B1F5B8
:100E6000805F7DD007DC01290CD0102948D0B1F576
:100E7000807F76D18CE0B1F5803F73D0B1F5801FD3
:100E80006FD121E1016A21F001010162D0F820A0B7
:100E90004168D0F81880A04228F0030808EA0C083E
:100EA000D2F800C048EA0C09D2F810802AF0020CEF
:100EB0004CEA080CD2F804802CF0010C4CEA080C27
:100EC00005D0A84203D0B04201D0B84212D1556932
:100ED0002CF0080444EA8504956824F0040444EAEC
:100EE000850C946921F480712143D46921F4007147
:100EF00041EA44014160C0F81890D16841630EE1B5
:100F0000016A21F010010162D0F820A0D0F804C0DD
:100F10008169D2F8008021F4407101EA090141EAB7
:100F20000829D2F810802AF0200141EA0811D2F8ED
:100F3000048021F0100141EA0811A04205D0A84226
:100F400003D0B04201D0B84217D1546921F08001DA
:100F500041EA8411946821F0400141EA841102E0E1
:100F600055E012E083E095692CF4806444EA85043E
:100F7000D56924F4006444EAC50CC0F804C0C0F884
:100F80001890D2688263016298464046BDE8F087B7
:100F9000016A21F480710162D0F820904168D0F894
:100FA0001C80A04228F0030808EA0C08D2F800C010
:100FB00048EA0C0AD2F8108029F4007C4CEA082C8C
:100FC000D2F804802CF4807C4CEA082C05D0A8428E
:100FD00003D0B04201D0B84213D155692CF400645B
:100FE00044EA8524956824F4806444EA852C946955
:100FF00021F4805141EA0411D46921F4005141EAFD
:1010000044114160C0F81CA0D168C16387E0016A47
:1010100021F480510162D0F820A04168D0F81CC0B2
:10102000D2F800802CF4407C0CEA090C4CEA082928
:10103000D2F810802AF4005C4CEA083CD2F8048014
:101040002CF4805C4CEA083CA04205D0A84203D0B6
:10105000B04201D0B84204D1946921F4804141EA00
:1010600084114160C0F81C90D168016457E0016AA6
:1010700021F480310162D0F82080416DA04201EA64
:101080000C01D2F800C041EA0C0128F4003CB2F88F
:1010900010804CEA084CB2F804802CF4803C4CEAF6
:1010A000084C05D0A84203D0B04201D0B84206D1C6
:1010B0004468956924F4803444EA05244460416519
:1010C000D168826D81652AE0016A21F48011016294
:1010D000D0F820C0416DD2F8008001EA090141EA50
:1010E0000821B2F810802CF4001C4CEA085CB2F81D
:1010F00004802CF4801C4CEA085CA04205D0A84275
:1011000003D0B04201D0B84206D14468956924F4B6
:10111000802444EA852444604165D168C165C0F8F3
:1011200020C031E78FFFFEFF002C0140004001404E
:1011300000440140004801407FB5044600680D4668
:10114000012610F0010F37D1E9686868AA690843E1
:101150002969114308432168204A1140084320604F
:10116000A868616821F44051014361606869A16821
:1011700021F440710143A1601948844204D1002048
:10118000FFF7B2FD014609E01648844202D0164836
:10119000844211D16846FFF796FD029961B1286833
:1011A00050B1AA690026B2F5004F08D001EB5001FA
:1011B000B1FBF0F080B2E06004B0304670BD490091
:1011C00001EB5001B1FBF0F081B24FF6F07201EA91
:1011D0000200C1F342010843EDE70000F369FFEFAD
:1011E00000380140004400400048004008B54FF07E
:1011F000E0210A690092421C00D0401C0A69D20317
:1012000000D5401E0028F9D108BD00000E4808B5E1
:10121000416941F040014161406900F040000090A7
:101220000A48816821F060018160816821F08001B5
:10123000816007494161816821F0180181604FF0A8
:10124000FF31016108BD0000001002400030024083
:10125000B71DC10438B51448416941F0010141612D
:101260004069124C00F00100009020680022C0F399
:101270000220114600F0C7FA01460E2000F094FD4E
:101280000E2000F05FFD20680022C0F3022011460E
:1012900000F0B9FA01460F2000F086FDBDE83840A5
:1012A0000F2000F04FBD0000001002400CED00E0E8
:1012B000F0B587B018216846FEF78BFF4FF4002089
:1012C000FFF7BAFB4FF48000FFF7B6FB4FF4003096
:1012D000FFF7B2FB4FF48020FFF7AEFB2A484FF434
:1012E000004181624FF0904648F60602B262274FF5
:1012F00040F2F772BA62009101250024CDE9015451
:10130000039469460494FFF72BFC41F21910CDE9D0
:101310000004694630460494FFF722FC48F20600B8
:101320000090CDE901540394694630460494FFF7D8
:1013300017FC40F2E7500090CDE901540394694650
:1013400038460494FFF70CFC4FF47840CDE90004D4
:10135000694638460494FFF703FCE802CDE900052E
:10136000CDE90245694630460495FFF7F9FB4FF495
:101370000470CDE90005CDE902456946384604957B
:10138000FFF7EEFB07B0F0BD00080048000400487E
:1013900008494CF6CC40086045F2555008600520DD
:1013A000486040F221108860CA685207FCD1086189
:1013B000704700000030004010B592B02821684608
:1013C000FEF707FF18210AA8FEF703FF21488169ED
:1013D00041F480518161816901F48051109141692A
:1013E00041F4003141614069002400F40030109064
:1013F000A0200A9002200B900320CDE90C040520C8
:10140000CDE90E400AA94FF09040FFF7A9FB4FF439
:10141000404000904FF4827001904FF40060CDE99D
:1014200002048010CDE904400820CDE9060407201D
:10143000CDE90840084C69462046FFF783FC606808
:1014400020F010006060606820F00800606012B05A
:1014500010BD0000001002400030014010B586B001
:1014600014216846FEF7B5FE2248816941F48031B7
:101470008161806900F4803005901F480068002277
:10148000C0F30220114600F0D7F90146182000F001
:101490009BFC182000F063FC3220ADF80000002017
:1014A0001E21CDE90101154C0390049069462046A8
:1014B000FFF786FC206820F080002060A06820F004
:1014C0007000A060A0680E49084040F00700A060CE
:1014D000E06820F04000E060E06820F48040E060D8
:1014E000606820F070006060A06820F08000A0605C
:1014F00006B010BD001002400CED00E000400140BD
:10150000F8BFFEFF10B586B014216846FEF761FEF5
:101510000120FFF79DFA194800680022C0F302205D
:10152000012100F089F901461C2000F04DFC1C202F
:1015300000F015FC40F2CF20ADF8000000204FF481
:10154000FA61CDE901014FF08044039069462046DD
:10155000FFF736FC206840F080002060A068084952
:101560000840A060606820F0700040F020006060DB
:10157000A06840F08000A06006B010BD0CED00E057
:10158000F8BFFEFF2DE9F04196B0142110A8FEF738
:1015900020FE202101A8FEF71CFE182109A8FEF755
:1015A00018FE0220FFF754FA334800680022C0F307
:1015B0000220012100F040F901461D2000F004FC4A
:1015C0001D2000F0CCFB40F26710ADF84000002475
:1015D0000227CDE91147294D10A928461394FFF79A
:1015E000EFFB286840F080002860A8682449084084
:1015F000A86024480178214818300E183068DFF8B8
:101600008480082108F1090898F8002091400843D7
:1016100030606020CDE901040394049401AA012103
:1016200028460594FFF70EFC306898F80020042146
:10163000914088433060686820F070006860A86856
:1016400020F08000A8601048416941F400314161F8
:1016500040690C9400F4003000904020CDE90A74F9
:101660000990CDE90D4709A94FF09040FFF778FAAE
:1016700016B0BDE8F08100000CED00E00004004071
:10168000F8BFFEFF442200080010024070B58EB083
:101690001C216846FEF79DFD182107A8FEF799FD5D
:1016A0004848816941F480418161816901F4804148
:1016B0000D91416941F4003141614069002400F419
:1016C00000300D904FF4C060079002200890032076
:1016D000CDE909040720CDE90B4007A94FF0904060
:1016E000FFF73EFA384D002205212846FFF7C8F9DA
:1016F000AE14324605212846FFF7B6F9002205212F
:101700002846FFF7E3F9002205212846FFF7EAF90A
:10171000802205212846FFF7C1F90022052128462D
:10172000FFF7ECF9002205212846FFF7C3F9102244
:1017300004212846FFF7A4F9324604212846FFF782
:1017400093F9002204212846FFF7C0F90022042162
:101750002846FFF7C7F9802204212846FFF79EF9A3
:10176000002204212846FFF7C9F900220421284657
:10177000FFF7A0F94FF4E130CDE900040C2002940A
:10178000CDE9034005940694104C69462046FFF7C6
:10179000D3FC04F1080000BF50E8001F21F4806171
:1017A00040E80012002AF7D1606820F490406060A1
:1017B000A06820F02A00A060206840F001002060AE
:1017C0000EB070BD00100240000002400038014021
:1017D000FEE7FEE730B500F00703C3F10704042C71
:1017E00000D90424181D072801D2002300E0DB1EC5
:1017F000012505FA04F0401E084098409D406D1EEA
:101800001540284330BD30B500F00703C3F107048D
:10181000042C00D90424181D072801D2002300E05D
:10182000DB1E012505FA04F0401E084098409D404B
:101830006D1E1540284330BD30B500F00703C3F1DD
:101840000704042C00D90424181D072801D2002302
:1018500000E0DB1E012505FA04F0401E0840984018
:101860009D406D1E1540284330BD704770470000F5
:1018700004494968044A01F0F0010909515CC84073
:1018800070470000001002405DD00008044949681C
:10189000044A01F4E06102EB11210978C840704765
:1018A000001002406DD0000804494968044A01F460
:1018B000605102EBD1210978C84070470010024006
:1018C0006DD000080648406810F00C01054805D0AE
:1018D000042903D0082901D100F008B8704700009E
:1018E0000010024000127A00704700000E4948685C
:1018F00010F480320D4803D0B2F5803F00D1400093
:10190000CA6A496802F00F02521CB0FBF2F04FF4B1
:10191000701292FAA2F201F47011B2FA82F2D1407E
:10192000891C4843704700000010024000093D0038
:10193000704700002DE9F0414FF480584FF0904679
:1019400041463046FFF7ABF9434D00270128434C91
:10195000287802D002280BD00FE070B9206840F040
:1019600002002060022028703D4800F0DFF804E00B
:10197000206820F0020020602F7001213046FFF720
:101980008EF90128287802D001280BD00FE070B919
:10199000206840F00100206001202870314800F0EC
:1019A000C5F804E0206820F0010020602F702E4D63
:1019B0004FF400512846FFF772F90128206838D00B
:1019C00020F00800206008213046FFF768F9012860
:1019D000206831D020F0040020604FF400412846F8
:1019E000FFF75DF90128206829D020F02000206051
:1019F0004FF400612846FFF752F90128206821D0F2
:101A000020F01000206041462846FFF748F90128E1
:101A100020681AD020F08050206010213046FFF757
:101A20003EF90128206813D020F000602060BDE856
:101A3000F08140F00800C5E740F00400CCE740F03A
:101A40002000D4E740F01000DCE740F08050E3E7EE
:101A500040F00060EAE7000022000020D4000020EF
:101A60003801002032010020000400480448416889
:101A7000C90702D0042101607047FEF76BBF000068
:101A8000007000401049086910F0010F1BD06FF082
:101A9000010008610D488368002B14D04268521C75
:101AA00042609A420FD9002242600A6822F0010285
:101AB0000A60CA6822F00102CA600A6A22F00102C2
:101AC0000A6201210170704700040040DC00002020
:101AD00070B5134A134C4FF4616505280BD9124BAE
:101AE000166AB3FBF0F346F0010616625E08566311
:101AF000D362594304E0C820D06241434FF47A7066
:101B00004143B1FBF5F0A060D06840F00100D06027
:101B1000106840F0010010600220207070BD0000CD
:101B200000040040DC000020400D030005490A7855
:101B3000002A06D101220A7002780A610278CA607E
:101B400048617047DC00002010B5124C2178002954
:101B50001AD02178022917D0E168B1B12269511A4F
:101B600001444878C008608012D004F1180232F8AD
:101B70001000497801F00701072900D31E21FFF763
:101B8000A7FFE068401EE06010BD0020207010BD7F
:101B90000120EEE7DC00002010B50C4C206910F0AD
:101BA000010F0ED06FF0010020610948417849B162
:101BB000002141700A20FFF719FBFEF7CBFE0A2037
:101BC000606210BD0121417010BD00000040014065
:101BD00023000020144810B545F25551016005213D
:101BE000416040F2211181600161002101600F48D4
:101BF000C16941F08051C1618004C16841F00101B7
:101C0000C160016841F0010101600948C16841F00B
:101C10000101C160016841F00101016000F0B8FA02
:101C2000BDE8104000F0A8BA0030004000100240AB
:101C3000004001407047000070B52C48016821F059
:101C4000070141F002010160016801F0070102296A
:101C5000FAD1274C206840F4803020602068C0F31F
:101C600040400028FAD0606A40F001006062606A7B
:101C7000C0F340000028FAD061684FF4803021F4AE
:101C8000741141F4E8116160E16A60F30301E162FB
:101C9000206840F0807020602068C0F34060002819
:101CA000FAD0606820F0F0006060606820F4E060C6
:101CB00040F480606060606820F46050606060683C
:101CC00020F0030040F002006060606800F00C004B
:101CD0000828FAD1074D2846FEF7E8FF2846FFF707
:101CE00069F8206B20F00300206370BD00200240E3
:101CF0000010024000A24A040248016841F4700149
:101D00000160704788ED00E0FFF746BF4FF080406C
:101D1000016911F0010F04D06FF001010161FEF7BC
:101D200085BB7047FFF7AEBEFEE7002809DB00F079
:101D30001F02012191404009800000F1E020C0F81D
:101D400000117047002809DB00F01F0201219140BB
:101D50004009800000F1E020C0F800117047002821
:101D600009DB00F01F02012191404009800000F1D1
:101D7000E020C0F80011704702480068C0F302205C
:101D8000704700000CED00E00907090E002804DB95
:101D900000F1E02080F80014704700F00F0000F11F
:101DA000E02080F8141D70470907090E002804DBA5
:101DB00000F1E02080F80014704700F00F0000F1FF
:101DC000E02080F8141D70470907090E002804DB85
:101DD00000F1E02080F80014704700F00F0000F1DF
:101DE000E02080F8141D704702E008C8121F08C1E7
:101DF000002AFAD170477047002001E001C1121F8C
:101E0000002AFBD1704700000449002048600448C4
:101E100080684A688242FCD370470000001000E0EE
:101E2000280000200A490A6842F080720A600949C5
:101E30000A6842F001020A6000EBC00101EB0010E9
:101E400040F25B11B0FBF1F003498860704700007D
:101E5000FCED00E0001000E0280000200149802097
:101E600088627047000400480149802088617047FB
:101E7000000400484FF090414FF4004088617047E3
:101E800070B5044615460E462A2000F0A5F800203D
:101E900000F0A8F8204600F0A5F8002000F0A2F815
:101EA000284600F09FF82B2000F096F8002000F064
:101EB00099F8304600F096F8002000F093F8BDE85D
:101EC0007040184600F08EB82DE9F0431D461646C6
:101ED0000C468146079FFFF7D3FF2C2000F07CF8CB
:101EE0006D1C4FEA1728761C0DE04B4607E0404674
:101EF00000F078F8F8B200F075F85B1CDBB2B34282
:101F0000F5D3641CE4B2AC42EFD3BDE8F08300002B
:101F100070B514465A181E46521ED3B22218521ECD
:101F2000D2B2C9B2C0B2049DFFF7AAFF2C2000F0C4
:101F300053F86D1E04FB06557443A4B2074E09E026
:101F40002878002136F81020084600F033F8641E87
:101F5000A4B26D1E002CF3D170BD000046CE000867
:101F600010B5FFF751FF4FF090414FF400408861EA
:101F70000120FFF73BF90E4980208862FFF744FFFC
:101F8000112000F029F80120FFF730F93A2000F085
:101F900023F8052000F026F8362000F01DF81C205C
:101FA00000F020F8BDE81040292000F015B800002E
:101FB0000004004800B51346100A00F013F8D8B228
:101FC0005DF804EB00F00EB802498A689207FCD570
:101FD000C86070470030014000B572B6FFF7F4FFEB
:101FE00062B600BD00B572B640F48070FFF7ECFF3A
:101FF00062B600BD584808B5816941F001018161B0
:10200000816901F001010091C16941F08051C16114
:10201000C069524900F08050009008684FF6FF02F6
:1020200010404F4A40F4407010430860FFF7A4FE90
:1020300000220121FFF7CEFB01466FF00B00FFF7F6
:10204000A3FEFFF799FE00220121FFF7C3FB014623
:102050006FF00A00FFF798FEFFF78EFE00220121C5
:10206000FFF7B8FB01466FF00900FFF78DFEFFF7A1
:1020700083FE00220121FFF7ADFB01466FF0040053
:10208000FFF782FEFFF778FE00220121FFF7A2FB97
:1020900001466FF00300FFF777FEFFF76DFE0022A9
:1020A0000121FFF797FB01466FF00100FFF76CFE7F
:1020B000FFF762FE00220121FFF78CFB01464FF083
:1020C000FF30FFF761FEFFF757FE00220121FFF707
:1020D00081FB01460120FFF757FE0120FFF725FE97
:1020E000FFF74AFE00220121FFF774FB014605209D
:1020F000FFF74AFE0520FFF718FEFFF79DFDFFF7EB
:10210000D7F8FFF7A7F8FFF7FDF9FFF73BFAFFF75E
:10211000BDFAFFF751F9FFF779F8FFF739F9FFF743
:102120009DF9FFF7A3FCFFF755FD0E4C0E4D0F4E2A
:102130000F4FDFF840904AF6AA2800BFFFF7FAFBDE
:10214000227829783078FEF721FA3868FFF7FCFC0E
:10215000C9F80080F2E70000001002400CED00E03A
:102160000000FA05CC000020CD000020CE000020A9
:10217000F00000200030004000B5FEF73FF9FEF708
:1021800081F9FEF7FDF85DF804EBFEF741B90000B8
:1021900038B5214C8020A0612048016841F0400101
:1021A000016040F2FF11C160FFF7DAFE4FF47A7070
:1021B000FFF738FE2020A0614FF090418001886138
:1021C0001020A0614001A0614FF6FF700021009037
:1021D0009F237F220846FFF777FE114800901148A1
:1021E00075210378104802786420FFF791FE0F48AC
:1021F00000900F48392103780E4802784620FFF7F7
:1022000087FE0D4800900D48072103780C4802789E
:102210004620FFF77DFE38BD000400480030014035
:10222000D540000815000020140000206F4300086E
:102230001700002016000020074F0008190000209A
:1022400018000020000000000404043C3C000008CA
:10225000000000080008081C3044586C80FFFFFF95
:10226000FFFFFFFFFFFFFFFFDFBB9B77777B9BBB82
:10227000DFFFFFFFFFFFFFFFFFFFFFFFFFFFFFFF8E
:10228000BB777777777777777777779BDFFFFFFF76
:10229000FFFFFFFFFFFFFFFFDF7777777777777726
:1022A00077777777777777BBFFFFFFFFFFFFFFFF3A
:1022B000FFDB7777777777777777777777777777C2
:1022C0007777DFFFFFFFFFFFFFFFDB77777777771A
:1022D00077777777777777777777777777FFFFFFF6
:1022E000FFFFFFDF77777777777777BBFFFFFFDF3A
:1022F00077777777777777DBFFFFFFFFFF9B77773E
:1023000077777777BBFFFFFFFFFFDF777777777709
:10231000779BFFFFFFFFDB7777777777779BFFFF71
:10232000FFFFFFFFFF77777777777777FFFFFFFF75
:1023300077777777777777DFFFFFFFFFFFFFFF770D
:10234000777777777777FFFFFFDF7777777777771D
:102350009BFFFFFFFFFFFFFFFF77777777777777A9
:10236000DFFFFF9B777777777777DBFFFFFFFFFF55
:10237000FFFFFF77777777777777DFFFFF777777DD
:1023800077777777FFFFFFFFFFFFFFFFFF77777715
:1023900077777777DFFFBB7777777777777BFFFF85
:1023A000FFFFFFFFFFFFFF77777777777777DFFF15
:1023B0009B777777777777BBFFFFFFFFFFFFFFFF05
:1023C000DF77777777777777FFFF77777777777725
:1023D00077DFFFFFFFFFFFFFFFFFDB777777777781
:1023E0007777FFFF77777777777777DFFFFFFFFFE5
:1023F000FFFFFFFFBB7777777777779BFFDF7777F5
:102400007777777777FFFFFFFFFFFFFFFFFF7B7790
:102410007777777777BBFFDF77777777777777FF90
:10242000FFFFFFFFFFFFFFFF77777777777777DF94
:10243000FFDB7777777777779BFFFFFFFFFFFFFF64
:10244000FFDF77777777777777FFFFDB77777777B8
:1024500077779BFFFFFFFFFFFFFFFFBB7777777764
:102460007777BBFFFFDF777777777777BBFFFFFF64
:10247000FFFFFFFFFF77777777777777DFFFFFDF64
:102480007777777777779BFFFFFFFFFFFFFFDF7798
:1024900077777777779BFFFFFFFF77777777777788
:1024A0009BFFFFFFFFFFFFFF77777777777777DF78
:1024B000FFFFFFFF77777777777777FFFFFFFFFFE4
:1024C000FF9B7777777777779BFFFFFFFFFFBB77E0
:1024D00077777777779BDFFFFFDF9B777777777764
:1024E0007777FFFFFFFFFFFFFF77777777777777C4
:1024F0007777777777777777777777DFFFFFFFFFE4
:10250000FFFFFFBB7777777777777777777777777F
:1025100077777777DFFFFFFFFFFFFFFFFFFFBB77D7
:102520007777777777777777777777777BFFFFFF9F
:10253000FFFFFFFFFFFFFFFFFFDF777777777777FB
:102540007777777777BBFFFFFFFFFFFFFFFFFFFF87
:10255000FFFFFFFFFFDFBB9B7777779BBBDFFFFFB3
:10256000FFFFFFFFFFFFFFFFFFFFFFFFFFFFFFFF7B
:10257000FFFFFFFFFFFFFFFFFFFFFFFFFFFFFFFF6B
:10258000FFFFFFFFFFFFFFFFFFFFFFFFFFDFDBBBE3
:102590009B7B77777777777777FFFFFFFFFFFFFFEB
:1025A000FFFFFFFFFF777777777777777777777713
:1025B00077779BFFFFFFFFFFFFFFFFFFFFFFDF7747
:1025C000777777777777777777777777BBFFFFFFBF
:1025D000FFFFFFFFFFFFFFFFDB77777777777777E7
:1025E000777777777777DFFFFFFFFFFFFFFFFFFF4B
:1025F000FFFFBB7777777777777777777777777717
:10260000FFFFFFFFFFFFFFFFFFFFFFFF9B9BBBDB0A
:10261000DFFFFF77777777777777FFFFFFFFFFFFA2
:10262000FFFFFFFFFFFFFFFFFFFFFFFFFF77777752
:102630007777779BFFFFFFFFFFFFFFFFFFFFFFFFA6
:10264000FFFFFFFFFFFFDF777777777777BBFFFF2E
:10265000FFFFFFFFFFFFFFFFFFFFFFFFFFFFFFFF8A
:10266000BB777777777777DBFFFFFFFFFFFFFFFF12
:10267000FFFFFFFFFFFFFFFFFFFF9B777777777776
:1026800077DFFFFFFFFFFFFFFFFFFFFFFFFFFFFF02
:10269000FFFFFFFF77777777777777FFFFFFFFFF02
:1026A000FFFFFFFFFFFFFFFFFFFFFFFFFFFF77774A
:1026B0007777777777FFFFFFFFFFFFFFFFFFFFFFD2
:1026C000FFFFFFFFFFFFFFDF777777777777BBFFAE
:1026D000FFFFFFFFFFFFFFFFFFFFFFFFFFFFFFFF0A
:1026E000FFBB777777777777DBFFFFFFFFFFFFFF92
:1026F000FFFFFFFFFFFFFFFFFFFFFF9B777777776E
:102700007777DFFFFFFFFFFFFFFFFFFFFFFFFFFF09
:10271000FFFFFFFFFF77777777777777FFFFFFFF81
:10272000FFFFFFFFFFFFFFFFFFFFFFFFFFFFFF7741
:10273000777777777777FFFFFFFFFFFFFFFFFFFFD9
:10274000FFFFFFFFFFFFFFFFDF7777777777779B4D
:10275000FFFFFFFFFFFFFFFFFFFFFFFFFFFFFFFF89
:10276000FFFFDB777777777777BBFFFFFFFFFFFF11
:10277000FFFFFFFFFFFFFFFFFFFFFFFFBB77777745
:10278000777777DFFFFFFFFFFFFFFFFFFFFFFFFF11
:10279000FFFFFFFFFFFF77777777777777FFFFFF01
:1027A000FFFFFFFFFFFFFFFFFFFFFFFFFFFFFFFF39
:1027B00077777777777777FFFFFFFFFFFFFFFFFFE1
:1027C000FFFFFFFFFFFFFFFFFFDF77777777777769
:1027D0009BFFFFFFFFFFFFFFFFFFFFFFFFFFFFFF6D
:1027E000FFFFFFDB777777777777BBFFFFFFFFFF91
:1027F000FFFFFFFFFFFFDF777777777777777777D1
:102800007777777777777777777777FFFFFFFFFFB0
:10281000BB77777777777777777777777777777704
:10282000777777779BFFFFFFFFFF9B777777777748
:102830007777777777777777777777777777BBFF5C
:10284000FFFFFFFF777777777777777777777777F8
:102850007777777777777777DFFFFFFFFFFF7777F8
:1028600077777777777777777777777777777777F8
:102870007777FFFFFFFFFFFFFFFFFFFFFFFFFFDF98
:10288000BBBB9B7B77779B9BBBDFFFFFFFFFFFFF04
:10289000FFFFFFFFFFFFBB9B777777777777777730
:1028A000777777777BDFFFFFFFFFFFFFFFFFDF77A4
:1028B00077777777777777777777777777777777A8
:1028C000BBFFFFFFFFFFFFFFDB7777777777777738
:1028D0007777777777777777777777DBFFFFFFFF04
:1028E000FFFFBB7777777777777777777777777724
:1028F000777777777777FFFFFFFFFFFF7777777738
:102900009BDBFFFFFFFFFFBB7777777777777777E3
:10291000DFFFFFFFFFFF7777BBFFFFFFFFFFFFFF3B
:10292000FFFFBB77777777777777DBFFFFFFFFDFF7
:10293000DBFFFFFFFFFFFFFFFFFFFFFFFF77777763
:1029400077777777BBFFFFFFFFFFFFFFFFFFFFFFFB
:10295000FFFFFFFFFFFFFF77777777777777DFFF5F
:10296000FFFFFFFFFFFFFFFFFFFFFFFFFFFFFFFF77
:10297000FF77777777777777FFFFFFFFFFFFFFFF1F
:10298000FFFFFFFFFFFFFFFFFFFFBB777777777743
:10299000777BFFFFFFFFFFFFFFFFFFFFFFFFFFFF53
:1029A000FFFFFFFF77777777777777DFFFFFFFFF0F
:1029B000FFFFFFFFFFFFFFFFFFFFFFFFFF9B77779B
:1029C000777777779BFFFFFFFFFFFFFFFFFFFFFF9B
:1029D000FFFFFFFFFFFF9B7777777777779BFFFFFF
:1029E000FFFFFFFFFFFFFFFFFFFFFFFFFFFFFF9B5B
:1029F0007777777777779BFFFFFFFFFFFFFFFFFF7B
:102A0000FFFFFFFFFFFFFFDF777777777777779B12
:102A1000FFFFFFFFFFFFFFFFFFFFFFFFFFFFFFFFC6
:102A2000BB77777777777777BBFFFFFFFFFFFFFFF6
:102A3000FFFFFFFFFFFFFFFFFF9B7777777777773A
:102A400077DBFFFFFFFFFFFFFFFFFFFFFFFFFFFF42
:102A5000FFFF9B7777777777777BFFFFFFFFFFFF9E
:102A6000FFFFFFFFFFFFFFFFFFFFDF77777777773E
:102A700077779BFFFFFFFFFFFFFFFFFFFFFFFFFFDA
:102A8000FFFFFFBB77777777777777DBFFFFFFFF76
:102A9000FFFFFFFFFFFFFFFFFFFFFFFF9B77777742
:102AA0007777777BFFFFFFFFFFFFFFFFFFFFFFFF52
:102AB000FFFFFFFFDF777777777777779BFFFFFF62
:102AC000FFFFFFFFFFFFFFFFFFFFFFFFFFBB77776A
:102AD0007777777777DBFFFFFFFFFFFFFFFFFFFFD2
:102AE000FFFFFFFFFFFFBB77777777777777777702
:102AF0007777777777777777777777DFFFFFFFFFDE
:102B00009B77777777777777777777777777777731
:102B10007777777777FFFFFFFFFF7777777777779D
:102B2000777777777777777777777777777777FFAD
:102B3000FFFFFFFF77777777777777777777777705
:102B400077777777777777777BFFFFFFFFDF777789
:102B50007777777777777777777777777777777705
:102B60007777BBFFFFFFFFBB77777777777777774D
:102B7000777777777777777777777777BBFFFFFF09
:102B8000FFFFFFFFFFFFFFFFFFDFDFBB9B9B9B778D
:102B900077779B9BBBDFFFFFFFFFFFFFFFFFFFFF81
:102BA000FFDF7777777777777777777777777777C5
:102BB00077BBFFFFFFFFFFFFFFFFFFBB7777777755
:102BC0007777777777777777777777779BFFFFFFD9
:102BD000FFFFFFFFFF9B77777777777777777777B9
:102BE00077777777777777BBFFFFFFFFFFFFFF7779
:102BF0007777777777777777777777777777777765
:102C00007777FFFFFFFFFFFFFF77779BDBDFFFFF9C
:102C1000FFFFFFBB7777777777777777DFFFFFFF68
:102C2000FFFFDFBBFFFFFFFFFFFFFFFFFFFFDF77C0
:102C3000777777777777DFFFFFFFFFFFFFFFFFFFF4
:102C4000FFFFFFFFFFFFFFFFFF777777777777774C
:102C5000DFFFFFFFFFFFFFFFFFFFFFFFFFFFFFFFA4
:102C6000FFFFFF77777777777777FFFFFFFFFFFF2C
:102C7000FFFFFFFFFFFFFFFFFFFFFFFFDF7777771C
:102C80007777779BFFFFFFFFFFFFFFFFFFFFFFFF50
:102C9000FFFFFFFFFFFF77777777777777FFFFFFFC
:102CA000FFFFFFFFFFFFFFFFFFFFFFFFFFDFBB7720
:102CB000777777777777DFFFFFFFFFFFFFFFFFFF74
:102CC000FF9B7777777777777777777777779BFF3C
:102CD000FFFFFFFFFFFFFFFFFFFFFF7777777777AC
:102CE000777777777777BBDFFFFFFFFFFFFFFFFF88
:102CF000FFFFFFFFFF7777777777777777777777BC
:102D000077BBFFFFFFFFFFFFFFFFFFFFFFFFDF7747
:102D10007777777777777777777777779BFFFFFF87
:102D2000FFFFFFFFFFFFFFFFBB77777777777777AF
:102D300077777777777777BBFFFFFFFFFFFFFFFF9F
:102D4000FFFFFFFFFFFFFFFFDF9B77777777777747
:102D50007777FFFFFFFFFFFFFFFFFFFFFFFFFFFF93
:102D6000FFFFFFFFBB77777777777777DFFFFFFF8F
:102D7000FFFFFFFFFFFFFFFFFFFFFFFFFFFFFF77EB
:102D8000777777777777DBFFFFFFFFFFFFFFFFFFA7
:102D9000FFFFFFFFFFFFFFFFFF9B777777777777D7
:102DA000DFFFFFFFFFFFFFFFFFFFFFFFFFFFFFFF53
:102DB000FFFFFF77777777777777DFFFFFFFFFFFFB
:102DC000FFFFFFFFFFFFFFFFFFFFFFFFDF777777CB
:102DD00077777777FFFFFFFF9BDFFFFFFFFFFFFFA7
:102DE000FFFFFFFFFFDF77777777777777BBFFFF0F
:102DF000FFFF777777BBDFFFFFFFFFFFFFDF9B77EB
:102E000077777777777777FFFFFFFFDF77777777CA
:102E10007777777777777777777777777777777742
:102E2000DBFFFFFFFFDB777777777777777777774A
:102E3000777777777777777777DBFFFFFFFFFFBBD2
:102E40007777777777777777777777777777777712
:102E5000779BDFFFFFFFFFFFFF9B77777777777722
:102E60007777777777777777779BDFFFFFFFFFFFBE
:102E7000FFFFFFFFDFDFBBBB9B9B9B77777B9B9BB2
:102E8000BBDFFFFFFFFFFFFFFFFFFFFFFFFFFFFFB6
:102E9000FFFFFFFFFFFFFFFFFFFFFFFFFFFFFFFF42
:102EA000FFFFFFFFFFFFFFFFFFFFFFFFFFFFFFFF32
:102EB000FFFFFFFFFFFFFF7777777777777777BBA6
:102EC000FFFFFFFFFFFFFFFFFFFFFFFFFFFFFFFF12
:102ED0009B7777777777777777DBFFFFFFFFFFFFCA
:102EE000FFFFFFFFFFFFFFFFFF9B77777777777786
:102EF000777777DFFFFFFFFFFFFFFFFFFFFFFFFF9A
:102F0000FFFF9B77777777777777777777FFFFFF85
:102F1000FFFFFFFFFFFFFFFFFFFFFFBB7777777725
:102F200077777777777777FFFFFFFFFFFFFFFFFF69
:102F3000FFFFFFFFBB7777777777777777777777BD
:102F4000BBFFFFFFFFFFFFFFFFFFFFFFFFDB777709
:102F50007777779B777777777777DBFFFFFFFFFFD1
:102F6000FFFFFFFFFFFFDF7777777777DF9B7777CD
:102F700077777777DFFFFFFFFFFFFFFFFFFFFFDFC1
:102F80007777777777DBFF77777777777777FFFFD5
:102F9000FFFFFFFFFFFFFFFFFF7777777777BBFF2D
:102FA000FF77777777777777FFFFFFFFFFFFFFFFE9
:102FB000FFFF7777777777BBFFFFDF7777777777D5
:102FC00077BBFFFFFFFFFFFFFFFFFF9B7777777761
:102FD0009BFFFFFFBB777777777777DBFFFFFFFFFD
:102FE000FFFFFFFF9B777777779BFFFFFFFF9B77C5
:102FF0007777777777DFFFFFFFFFFFFFFF9B77771D
:1030000077777BFFFFFFFFFF77777777777777FF1C
:10301000FFFFFFFFFFFFBB7777777777FFFFFFFFAC
:10302000FFFF7777777777777BFFFFFFFFFFFFBBA8
:103030007777777777DFFFFFFFFFFFDF77777777A8
:103040007777BBFFFFFFFFFFDB7777777777DFFFD0
:10305000FFFFFFFFFFBB777777777777DBFFFFFF18
:10306000FFFF7B77777777DBFFFFFFFFFFFFFF9B9C
:10307000777777777777DFFFFFFFFFFF77777777D0
:1030800077777777777777777777777777777777D0
:1030900077777777FFDF77777777777777777777D0
:1030A0007777777777777777777777777777FFDBC4
:1030B00077777777777777777777777777777777A0
:1030C000777777777777779BFFBB777777777777A0
:1030D0007777777777777777777777777777777780
:1030E00077BBFF77777777777777777777777777A4
:1030F0007777777777777777777777DFFFFFFFFFD8
:10310000FFFFFFFFFFFFFFFFFFFF777777777777FF
:1031100077FFFFFFFFFFFFFFFFFFFFFFFFFFFFFF47
:10312000FFFFFFFF77777777777777FFFFFFFFFF67
:10313000FFFFFFFFFFFFFFFFFFFFFFFFFFDF7777CF
:10314000777777779BFFFFFFFFFFFFFFFFFFFFFF13
:10315000FFFFFFFFFFFFFFDB777777777777BBFF17
:10316000FFFFFFFFFFFFFFFFFFFFFFFFFFFFFFFF6F
:10317000FFBB777777777777DFFFFFFFFFFFFFFFF3
:10318000FFFFFFFFFFFFFFFFFFFFFF9B77777777D3
:103190007777FFFFFFFFFFFFFFFFFFFFFFFFFFFF4F
:1031A000FFFFFFFFFFFFFFFFFFFFFFFFFFFFFFFF2F
:1031B000FFFFFFFFFFFFFFFFFFFF7777777777774F
:1031C000777777777777777777777777BBFFFFFFB3
:1031D000FFFFFFFF7777777777777777777777775F
:1031E000777777777777DFFFFFFFFFFFFFDF77776F
:1031F000777777777777777777777777777777775F
:10320000DFFFFFFFFFFFFFBB777777777777777772
:1032100077777777777777777777FFFFFFFFFFFF0E
:10322000FF9B777777777777777777777777777782
:1032300077777777FFFFFFFFFFFFFF777777777766
:10324000777777777777777777777777779BFFFFDA
:10325000FFFFFFFFFF77777777779BFFFFFFFFFF8A
:10326000FFFFFFFFFFFFFFFFFFFFFFFFFFFFDF7716
:1032700077777777BBFFFFFFFFFFFFFFFFFFFFFFC2
:10328000FFFFFFFFFFFFFFFFBB7777777777DFFF5A
:10329000FFFFFFFFFFFFFFFFFFFFFFFFFFFFFFFF3E
:1032A000FFFF9B7777777777BB9B9B77779BBBDB22
:1032B000FFFFFFFFFFFFFFFFFFFFFFFF777777773E
:1032C0007777777777777777777777BBFFFFFFFF2A
:1032D000FFFFFFFFFFFF777777777777777777774E
:1032E00077777777777777FFFFFFFFFFFFFFFFDFC6
:1032F000777777777777777777777777777777775E
:103300007777FFFFFFFFFFFFFFBB77777777777751
:10331000777777777777777777777777BBFFFFFF61
:10332000FFFFFF9B7777BBDFFFFFFFFFFFBB7777D9
:1033300077777777777777FFFFFFFFFFFFBBDFFFB9
:10334000FFFFFFFFFFFFFFFFFF7777777777777745
:1033500077FFFFFFFFFFFFFFFFFFFFFFFFFFFFFF05
:10336000FFFFFFDF77777777777777FFFFFFFFFF45
:10337000FFFFFFFFFFFFFFFFFFFFFFFFFFFF77776D
:103380007777777777FFFFFFFFFFFFFFFFFFFFFFF5
:10339000FFFFFFFFFFFFFFFF77777777777777FFF5
:1033A000FFFFFFFFFFFFFFFFFFFFFFFFFFFFFFFF2D
:1033B000FFDF77777777777777FFFFFFFFFFFFFFF5
:1033C000FFFFFFFFFFFFFFFFFFFFFFBB7777777771
:1033D0007777BBFFFFFFDFDFFFFFFFFFFFFFFFFF91
:1033E000FFFFFFFFFF77777777777777DFFFFFFFC5
:1033F000BB779BDFFFFFFFFFFFFFFFFFFFFF77773D
:1034000077777777779BFFFFFFFF9B7777779BDB5C
:10341000FFFFFFFFFFDFBB7777777777777777FF60
:10342000FFFFFFFF7777777777777777777777770C
:103430007777777777777777DFFFFFFFFFFF77770C
:10344000777777777777777777777777777777770C
:1034500077DBFFFFFFFFFFDF777777777777777788
:103460007777777777777777779BFFFFFFFFFFFF98
:10347000FFFFDF9B77777777777777777777777740
:10348000779BDFFFFFFFFFFFFFFFFFFFFFFFFFDF78
:10349000BBBB9B7777779B9BBBDFFFFFFFFFFFFFEC
:1034A000FFFFFFFFFFFFFFFFFFFFFFFFFFFFFFFF2C
:1034B000FFFFDFBB9B9B77779B9BBBFFFFFFFFFF64
:1034C000FFFFFFFFFFFFFFFFFFFFBB7777777777F8
:1034D0007777777777779BDFFFFFFFFFFFFFFFFFB0
:1034E000FFFFBB7777777777777777777777777718
:1034F0007777DFFFFFFFFFFFFFFFDF7777777777D4
:10350000777777777777777777777777FFFFFFFF2B
:10351000FFFFFFDF7777777777777777777777773B
:1035200077777777779BFFFFFFFFFFFFDF7777776F
:10353000777777779BDBFFFFFFFFFFDFBB7777BBFB
:10354000FFFFFFFFFFFF7B777777777777DBFFFF63
:10355000FFFFFFFFFFFFFFFFDBDFFFFFFFFFFFBB03
:10356000777777777777DFFFFFFFFFFFFFFFFFFFBB
:10357000FFFFFFFFFFFFFFFFDF777777777777BBEF
:10358000FFFFFFFFFFFFFFFFFFFFFFFFFFFFFFFF4B
:10359000FFFF9B777777777777FFFFFFFFFFFFFFCF
:1035A000FFFFFFFFFFFFFFFFFFFFFFFF777777774B
:1035B0007777BBFFFFDFBB9B77779BBBFFFFFFFFEF
:1035C000FFFFFFFFFFBB777777777777DBBB7777F7
:1035D000777777777777779BFFFFFFFFFFFFFF779F
:1035E000777777777777777777777777777777776B
:1035F00077779BFFFFFFFFFFFF7777777777777707
:10360000777777777777777777777777779BFFFF16
:10361000FFFFDB77777777777777777777777777C6
:103620007777777777777777DFFFFFFFBB777777E6
:10363000777777777777DFFFFFFFBB7777777777D6
:103640007777BBFFFFFF9B777777777777777BFF7E
:10365000FFFFFFFFFF9B77777777777777FFFFFF96
:103660007B77777777777777DFFFFFFFFFFFFFDFE6
:1036700077777777777777FFFFFF77777777777742
:10368000779BFFFFFFFFFFFFFFFF77777777777766
:1036900077FFFFFF77777777777777BBFFFFFFFFBE
:1036A000FFFFFFFF7777777777779BFFFFFF7B77CA
:1036B0007777777777DFFFFFFFFFFFFFFFDF777712
:1036C00077777777BBFFFFFF9B777777777777DF22
:1036D000FFFFFFFFFFFFFFBB777777777777DFFF8E
:1036E000FFFFBB777777777777DBFFFFFFFFFFFF82
:1036F000FF77777777777777FFFFFFFFDF7777774A
:103700007777779BFFFFFFFFFFFF9B7777777777D1
:1037100077BBFFFFFFFFFF777777777777779BFFA1
:10372000FFFFDF9B77777777777777FFFFFFFFFFE5
:10373000FFDB77777777777777777777777777772D
:1037400077777777DFFFFFFFFFFFFFFF9B777777C5
:1037500077777777777777777777777777DFFFFF81
:10376000FFFFFFFFFFFFFF9B77777777777777770D
:10377000777777777777DFFFFFFFFFFFFFFFFFFFA9
:10378000FFFFDB7777777777777777777777BBFF89
:10379000FFFFFFFFFFFFFFFFFFFFFFFFFFFFDFBB9D
:1037A0009B7B779B9BBBDFFFFFFFFFFFFFFFFFFFC5
:1037B000FFFFFFFFFFFFFFFFFFFFFFFFFFFFFFFF19
:1037C000FFFFFFFFFFFFFFFFFFFFFFFFFFFFDF77B1
:1037D0007777777777777777777777777777777779
:1037E00077777777BBFFFFFFDF7777777777777725
:1037F0007777777777777777777777777777DFFF69
:10380000FFFFBB77777777777777777777777777F4
:103810007777777777777777FFFFFFFF9B777777F4
:103820007777777777777777777777777777777728
:103830007777FFFFFFFF77777777777777777777F8
:103840007777777777777777777777BBFFFFFFFFA4
:1038500077777777777777777777777777777777F8
:103860007777777777FFFFFFFFFFFFFFFFFFFFFF10
:10387000FFFFFFFFFFFFFF9B777777777777DFFF0C
:10388000FFFFFFFFFFFFFFFFFFFFFFFFFFFFFFFF48
:10389000DF777777777777BBFFFFFFFFFFFFFFFFCC
:1038A000FFFFFFFFFFFFFFFFFFFF77777777777758
:1038B00077FFFFFFFFFFFFFFFFFFFFFFFFFFFFFFA0
:1038C000FFFFFF9B777777777777DFFFFFFFFFFFBC
:1038D000FFFFFFFFFFFFFFFFFFFFFFFFDF777777B0
:1038E0007777779BFFFFFFFFFFFFFFFFFFFFFFFFE4
:1038F000FFFFFFFFFFFF77777777777777FFFFFF90
:10390000FFFFFFFFFFFFFFFFFFFFFFFFFFFFFF9B2B
:10391000777777777777DFFFFFFFFFFFFFFFFFFF07
:10392000FFFFFFFFFFFFFFFFDF7777777777779B5B
:10393000FFFFFFFFFFFFFFFFFFFFFFFFFFFFFFFF97
:10394000FFFF77777777777777FFFFFFFFFFFFFF3F
:10395000FFFFFFFFFFFFFFFFFFFFFF9B77777777FB
:103960007777DFFFFFFFFFFFFFFFFFFFFFFFFFFF97
:10397000FFFFFFFFDF7777777777779BFFFFFFFF0B
:10398000FFFFFFFFFFFFFFFFFFFFFFFFFFFF777757
:103990007777777777FFFFFFFFFFFFFFFFFFFFFFDF
:1039A000FFFFFFFFFFFFFF9B777777777777DBFFDF
:1039B000FFFFFFFFFFFFFFFFFFFFFFFFFFFFFFFF17
:1039C000DB7777777777779BFFFFFFFFFFFFFFFFBF
:1039D000FFFFFFFFFFFFFFFFFFFF77777777777727
:1039E00077FFFFFFFFFFFFFFFFFFFFFFFFFFFFFF6F
:1039F000FFFFFF9B777777777777BBFFFFFFFFFFAF
:103A0000FFFFFFFFFFFFFFFFFFFFFFFFDB77777782
:103A10007777779BFFFFFFFFFFFFFFFFFFFFFFFFB2
:103A2000FFFFFFFFFFFF77777777777777FFFFFF5E
:103A3000FFFFFFFFFFFFFFFFFFFFFFFFFFFFFF9BFA
:103A4000777777777777BBFFFFFFFFFFFFFFFFFFFA
:103A5000FFFFFFFFFFFFFFFFDB7777777777779B2E
:103A6000FFFFFFFFFFFFFFFFFFFFFFFFFFFFFFFF66
:103A7000FFFF77777777777777FFFFFFFFFFFFFF0E
:103A8000FFFFFFFFFFFFFFFFFFFFFF9B77777777CA
:103A90007777BBFFFFFFFFFFFFFFFFFFFFFFFFFF8A
:103AA000FFFFFFFFDB7777777777779BFFFFFFFFDE
:103AB000FFFFFFFFFFFFFFFFFFFFFFFFFFFFFFFF16
:103AC000FFFFFFFFFFFFFFDFBB9B9B7777779B9B92
:103AD000BBDFFFFFFFFFFFFFFFFFFFFFFFFFFFBB9E
:103AE0007777777777777777777777777BDFFFFFEA
:103AF000FFFFFFFFFFFFFFDB77777777777777773A
:103B00007777777777777777BBFFFFFFFFFFFFFF49
:103B1000BB777777777777777777777777777777F1
:103B2000777777DFFFFFFFFFFFDF777777777777AD
:103B30007777777777777777777777777777FFFF05
:103B4000FFFFFF9B77777777777777BBFFFFFFDF05
:103B50009B77777777777777FFFFFFFFFF77777729
:103B600077777777DBFFFFFFFFFFFF777777777751
:103B70007777DFFFFFFFDF7777777777779BFFFF39
:103B8000FFFFFFFFFF7B777777777777DFFFFFFF19
:103B9000DB777777777777BBFFFFFFFFFFFFFF9B31
:103BA000777777777777FFFFFFFFDF77777777771D
:103BB00077BBFFFFFFFFFFFFFF7777777777779B75
:103BC000FFFFFFFFFF7777777777777BFFFFFFFFB9
:103BD000FFFFBB777777777777FFFFFFFFFFFF9BCD
:103BE0007777777777779BFFFFFFFF9B77777777FD
:103BF0007777DBFFFFFFFFFFFFFF7B777777777735
:103C00007777777777777777777777DFFFFFFFFFBC
:103C1000FFFFFFFFFF9B7777777777777777777768
:103C2000777777BBFFFFFFFFFFFFFFFFFFFFFFFF80
:103C30009B777777777777777777777BFFFFFFFFCC
:103C4000FFFFFFFFFFFFFFDF9B77777777777777C0
:103C500077777777777777BBFFFFFFFFFFFFFFFF70
:103C6000BB777777777777777777777777777777A0
:103C700077779BFFFFFFFFFFFF9B7777777777775C
:103C80009BDFFFFFFFDF77777777777777DFFFFFC0
:103C9000FFFFBB777777777777BBFFFFFFFFFFFFEC
:103CA000DF7777777777779BFFFFFFDF7777777718
:103CB0007777BBFFFFFFFFFFFFFFFF9B77777777EC
:103CC0007777FFFFFFBB777777777777DFFFFFFFA8
:103CD000FFFFFFFFFF9B777777777777FFFFFF7710
:103CE000777777777777FFFFFFFFFFFFFFFFFF779C
:103CF000777777777777FFFFFF77777777777777BC
:103D0000FFFFFFFFFFFFFFFFDF777777777777779B
:103D1000FFFFFF77777777777777BBFFFFFFFFFFAF
:103D2000FFDF77777777777777BBFFFFFF7B777753
:103D30007777777777BBFFFFFFFFBB77777777776B
:103D4000777777FFFFFFFFBB77777777777777779F
:103D5000777777777777777777777777BBFFFFFF17
:103D6000FFFF7B77777777777777777777777777CF
:103D70007777777777BBFFFFFFFFFFFFFF7B7777D3
:103D80007777777777777777777777777777DBFFD7
:103D9000FFFFFFFFFFFFFFFFBB777777777777772F
:103DA000777777777777BBFFFFFFFFFFFFFFFFFF97
:103DB000FFFFFFFFDFBB9B7B77777B9BBBBBDFFFFF
:103DC000FFFFFFFFFFFFFFFFFFFFFFFFFFFFFFFF03
:103DD000FFFFFFDFBB9B9B77779BBBDFFFFFFFFFF7
:103DE000FFFFFFFFFFFFFFFFFFFFFFBB7777777747
:103DF00077777777777777BBFFFFFFFFFFFFFFFFCF
:103E0000FFFFFFFF77777777777777777777777722
:103E100077779BFFFFFFFFFFFFFFFFFFDF777777DE
:103E2000777777777777777777777777779BFFFFEE
:103E3000FFFFFFFFFFFF77777777777777777777E2
:103E40007777777777777777BBFFFFFFFFFFFF778E
:103E50007777777777779BDFFFFFFFBB777777778A
:103E6000777777FFFFFFFFFFBB7777777777779BD2
:103E7000FFFFFFFFFFFF9B777777777777DFFFFF06
:103E8000FFFF77777777777777FFFFFFFFFFFFFFFA
:103E9000DB777777777777BBFFFFFFDF777777770A
:103EA0007777BBFFFFFFFFFFFFFFDF77777777773E
:103EB000779BFFFFFFBB777777777777DFFFFFFF92
:103EC000FFFFFFFFDF77777777777777FFFFFF9B3E
:103ED000777777777777FFFFFFFFFFFFFFFFBB77EE
:103EE000777777777777FFFFFF9B777777777777A6
:103EF000FFFFFFFFFFFFFFFF9B77777777777777EE
:103F0000FFFFFF7B777777777777DFFFFFFFFFFF95
:103F1000FFDF7777777777777777FFFFFF9B777785
:103F2000777777779BFFFFFFFFFFFF7B77777777C9
:103F30007777779BFFFFFFBB77777777777777BBCD
:103F4000FFFFFFDF7777777777777777779BFFFFCD
:103F5000FFDF777777777777777777777777777701
:103F600077777777777777BBFFFFFFFF9B77777759
:103F700077777777777777777777777777777777D1
:103F800077DFFFFFFFFFFF9B77777777777777778D
:103F90007777777777777777777777FFFFFFFFFF09
:103FA000FFFFBB777777777777777777BBDB7777A5
:103FB00077777777BBFFFFFFFFFFFFFFFFFFBB9B1D
:103FC00077779B9BDBFFFFBB777777777777DFFF91
:103FD000FFFFFFFFFFFFFFFFFFFFFFFFFFFFFFFFF1
:103FE000FF7777777777779BFFFFFFFFFFFFFFFF75
:103FF000FFFFFFFFFFFFFFFFFFFFBB7777777777BD
:1040000077DFFFFFFFFFFFFFFFFFFFFFFFFFFFFF68
:10401000FFFFFFDF7777777777779BFFFFFFFFFF64
:10402000DFBBFFFFFFFFFFFFFFFFFFFFDB777777C0
:1040300077777777FFFFFFFFFFFFBB7777BBDFFF68
:10404000FFFFFFFFDB9B77777777777777DFFFFFE0
:10405000FFFFFFFF9B7777777777777777777777AC
:10406000777777777777DFFFFFFFFFFFFFFF7777C0
:10407000777777777777777777777777777777DF68
:10408000FFFFFFFFFFFFFFFF777777777777777780
:10409000777777777777779BFFFFFFFFFFFFFFFF4C
:1040A000FFFFDF9B77777777777777777777779BE0
:1040B000DFFFFFFFFFFFFFFFFFFFFFFFFFFFFFBB74
:1040C0009B9B77777B9BBBDFFFFFFFFFFFFFFFFF24
:1040D000FFFFFFFFFFFFFFFFFFDF77777777777740
:1040E0007777DFFFFFFFFFFFFFFFFFBB7777777774
:1040F00077777777BBFFFFFFFFFFFFFFFFBB777788
:10410000777777777777BBFFFFFFFFFFFFFFFFBB77
:104110007777777777777777BBFFFFFFFFFFFFFF33
:10412000FFDFBFBFBFBFBFBFBFBFDFFFFFFFFFFFDF
:10413000DFDFBBBBBBBBBBBBBBBBBBBBBBBBDFDF3F
:10414000FFDF9B77777777777777777777777777EB
:10415000779BDFBF7777777777777777777777771B
:1041600077777777BFBF7777DFFFFFFFFFFFFFFF2F
:10417000FFFFFFDF7777BFBF7777FFFFFFFFFFFF0F
:10418000FFFFFFFFFFFF7777BFBF7777FFFFFFFFDF
:10419000FFFFFFFFFFFFFFDF7777BFBF7777FFFFEF
:1041A000FFFFFFFFFFFFFFFFFFDF7777BFBF7777DF
:1041B000FFFFFFFFFFFFFFFFFFFFFFFF7777BFBF9F
:1041C0007777FFFFFFFFFFFFFFFFFFFFFFFF77771F
:1041D000BFBF7777FFFFFFFFFFFFFFFFFFFFFFDF9F
:1041E0007777BFBF7777FFFFFFFFFFFFFFFFFFFF7F
:1041F000FFDF7777BFBF7777FFFFFFFFFFFFFFFF8F
:10420000FFFFFFFF7777BFBF7777FFFFFFFFFFFF5E
:10421000FFFFFFFFFFFF7777BFBF7777FFFFFFFF4E
:10422000FFFFFFFFFFFFFFFF7777BFBF7777FFFF3E
:10423000FFFFFFFFFFFFFFFFFFFF7777BFBF77772E
:10424000FFFFFFFFFFFFFFFFFFFFFFFF7777BFBF0E
:104250007777FFFFFFFFFFFFFFFFFFFFFFFF77778E
:10426000BFBF7777DFFFFFFFFFFFFFFFFFFFFFFF0E
:104270007777BFBF7777DFFFFFFFFFFFFFFFFFFF0E
:10428000FFFF7777BFBF7777FFFFFFFFFFFFFFFFDE
:10429000FFFFFFDF7777BFBF7777FFFFFFFFFFFFEE
:1042A000FFFFFFFFFFFF7777BFBF7777FFFFFFFFBE
:1042B000FFFFFFFFFFFFFFFF7777BFBF7777FFFFAE
:1042C000FFFFFFFFFFFFFFFFFFFF7777BFBF77779E
:1042D000FFFFFFFFFFFFFFFFFFFFFFFF7777BFBF7E
:1042E0007777FFFFFFFFFFFFFFFFFFFFFFFF7777FE
:1042F000BFBF7777FFFFFFFFFFFFFFFFFFFFFFFF5E
:104300007777BFBF7777FFFFFFFFFFFFFFFFFFFF5D
:10431000FFFF7777BFBF7777FFFFFFFFFFFFFFFF4D
:10432000FFFFFFFF7777BFBF7777DFDFDFDFDFDFFD
:10433000DFDFDFDFDFDF7777BFBF7777777777770D
:1043400077777777777777777777BFDF9B77777729
:1043500077777777777777777777779BDFFFDFBF29
:10436000BFBFBFBFBFBFBFBFBFBFBFBFBFDFFFFFBD
:10437000FFFFFFFFFFFFFFFFFFFFFFFFFFFFFFFF4D
:10438000FFFFFFFFFFFFFFFFFFFFFFFFFFFFFFFF3D
:10439000FFFFFFFFFFFFFAD5D6FAFFFFFFFFFFFF8A
:1043A000FFFFFFFFFFFFFFFFFFFFFFFFFFFFFFFF1D
:1043B000FFFFFFFFFFFFFFFFFFFFFFFFFFFFFFFF0D
:1043C000FFFFFFFFFFFFFFFFFFFFFFFFFAD5D0D08A
:1043D000D0D0D5FFFFFFFFFFFFFFFFFFFFFFFFFF75
:1043E000FFFFFFFFFFFFFFFFFFFFFFFFFFFFFFFFDD
:1043F000FFFFFFFFFFFFFFFFFFFFFFFFFFFFFFFFCD
:10440000FFFFFFFAD0D0D0D0D0D0D0D5FFFFFFFF34
:10441000FFFFFFFFFFFFFFFFFFFFFFFFFFFFFFFFAC
:10442000FFFFFFFFFFFFFFFFFFFFFFFFFFFFFFFF9C
:10443000FFFFFFFFFFFFFFFFFFFFFFD5D0D0D0D072
:10444000D0D0D0D0FAFFFFFFFFFFFFFFFFFFFFFF3D
:10445000FFFFFFFFFFFFFFFFFFFFFFFFFFFFFFFF6C
:10446000FFFFFFFFFFFFFFFFFFFFFFFFFFFFFFFF5C
:10447000FFFFFBD0D0D0D0D0D0D0D0D0D5FFFFFF21
:10448000FFFFFFFFFFFFFFFFFFFFFFFFFFFFFFFF3C
:10449000FFFFFFFFFFFFFFFFFFFFFFFFFFFFFFFF2C
:1044A000FFFFFFFFFFFFFFFFFFFFFAD0D0D0D0D00C
:1044B000D0D0D0D0D0FFFFFFFFFFFFFFFFFFFFFFF7
:1044C000FFFFFFFFFFFFFFFFFFFFFFFFFFFFFFFFFC
:1044D000FFFFFFFFFFFFFFFFFFFFFFFFFFFFFFFFEC
:1044E000FFFFFBD0D0D0D0D0D0D0D0D0D5FFFFFFB1
:1044F000FFFFFFFFFFFFFFFFFFFFFFFFFFFFFFFFCC
:10450000FFFFFFFFFFFFFFFFFFFFFFFFFFFFFFFFBB
:10451000FFFFFFFFFFFFFFFFFFFFFFD5D0D0D0D091
:10452000D0D0D0D0FAFFFFFFFFFFFFFFFFFFFFFF5C
:10453000FFFFFFFFFFFFFFFFFFFFFFFFFFFFFFFF8B
:10454000FFFFFFFFFFFFFFFFFFFFFFFFFFFFFFFF7B
:10455000FFFFFFFAD0D0D0D0D0D0D0D5FFFFFFFFE3
:10456000FFFFFFFFFFFFFFFFFFFFFFFFFFFFBB9B03
:104570009B9B9B9B9B9B9B9B9B9B9B9B9B9B9B9B8B
:104580009B9B9B9B9B9B9B9BBBFFFFFFFAD4D0D02D
:10459000D0D0D5FFFFFFFFFFFFFFFFFFFFFFFFFFB3
:1045A000FFFFFFFFFFFF9B9B9B9B9B9B9B9B9B9B03
:1045B0009B9B9B9B9B9B9B9B9B9B9B9B9B9B9B9B4B
:1045C0009BFFFFFFFFFBFAD6D6FAFFFFFFFFFFFFBF
:1045D000FFFFFFFFFFFFFFFFFFFFFFFFFFFF9B9BB3
:1045E0009B9B9B9B9B9B9B9B9B9B9B9B9B9B9B9B1B
:1045F0009B9B9B9B9B9B9B9BBBFFFFFFFFFFFFFF2F
:10460000FFFFFFFFFFFFFFFFFFFFFFFFFFFFFFFFBA
:10461000FFFFFFFFFFFFFFDFDFDFDFDFDFDFDFDFCA
:10462000DFDFDFDFDFDFDFDFDFDFDFDFDFDFDFDF9A
:10463000FFFFFFFFFAD5D0D0D0FAFFFFFFFFFFFF4B
:10464000FFFFFFFFFFFFFFFFFFFFFFFFFFFFFFFF7A
:10465000FFFFFFFFFFFFFFFFFFFFFFFFFFFFFFFF6A
:10466000FFFFFFFFFFFFFFFFFFFBD5D5D0D0D0D06E
:10467000D0D4FAFFFFFFFFFFFFFFFFFFFFFFFFFFA9
:10468000FFFFFFFFFFFFFFFFFFFFFFFFFFFFFFFF3A
:10469000FFFFFFFFFFFFFFFFFFFFFFFFFFFFFFFF2A
:1046A000D6D0D0D0D0D0D0D0D0D0D0FFFFFFFFFF19
:1046B000FFFFFFFFFFFFFFFFFFFFFFFFDFDFDFDF8A
:1046C000DFDFDFDFDFDFDFDFDFDFDFDFDFDFDFDFFA
:1046D000FFFFFFFFFFFFFFD5D0D0D0D0D0D0D0D08C
:1046E000D0D0D0FBFFFFFFFFFFFFFFFFFFFFFFFF6B
:1046F000FFFFBB9B9B9B9B9B9B9B9B9B9B9B9B9B22
:104700009B9B9B9B9B9B9B9B9BFFFFFFFFFBD4D09B
:10471000D0D0D4D5D0D0D0D0D0D0D0FAFFFFFFFFAA
:10472000FFFFFFFFFFFFFFFFFFFF9B9B9B9B9B9BF1
:104730009B9B9B9B9B9B9B9B9B9B9B9B9B9B9B9BC9
:104740009BDFFFFFFFD5D0D0D4D5FFFAD0D0D0D09B
:10475000D0D0D0FAFFFFFFFFFFFFFFFFFFFFFFFFFB
:10476000FFFFBB9B9B9B9B9B9B9B9B9B9B9B9B9BB1
:104770009B9B9B9B9B9B9B9B9BFFFFFFD5D0D0D084
:10478000FAFFFFFAD0D0D0D0D0D0D0D5FFFFFFFFB6
:10479000FFFFFFFFFFFFFFFFFFFFFFFFFFFFFFFF29
:1047A000FFFFFFFFFFFFFFFFFFFFFFFFFFFFFFFF19
:1047B000FFFFFFFFD0D0D0D5FFFFFFFAD0D0D0D081
:1047C000D0D0D0D0D5FBFFFFFFFFFFFFFFFFFFFFE3
:1047D000FFFFFFFFFFFFFFFFFFFFFFFFFFFFFFFFE9
:1047E000FFFFFFFFFFFFFFFFFFFFFFFAD0D0D5FF66
:1047F000FFFFFFFAD0D0D0D0D0D0D0D0D0D0D6FBD1
:10480000FFFFFFFFFFFFFFFFFFFFFFFFFFFFFFFFB8
:10481000FFFFFFFFFFFFFFFFFFFFFFFFFFFFFFFFA8
:10482000FFFFFFD5D0D0D5FFFFFFFFD6D0D0D0D02F
:10483000D0D0D0D0D0D0D0D4D5D5D5D5D5D5FFFFF8
:10484000FFDFDFDFDFDFDFDFDFDFDFDFDFDFDFDF58
:10485000DFDFDFDFDFDFDFFFFFFFFFD5D0D0FAFFD5
:10486000FFFFFFD5D0D0D0D0D0D0D0D5D4D0D0D0AD
:10487000D0D0D0D0D0D0FFFF9B9B9B9B9B9B9B9B82
:104880009B9B9B9B9B9B9B9B9B9B9B9B9B9B9BDF34
:10489000FFFFFFD5D0D0FAFFFFFFFFD5D0D0D0D09B
:1048A000D0D0D0FFFFD5D5D4D0D0D0D0D0D5FFFF39
:1048B0009B9B9B9B9B9B9B9B9B9B9B9B9B9B9B9B48
:1048C0009B9B9B9B9B9B9BBBFFFFFFD5D0D0FAFF85
:1048D000FFFFFBD4D0D0D0D0D0D0D5FFFFFFFFFB5F
:1048E000FAFAFAFAFAFFFFFF9B9B9B9B9B9B9B9B11
:1048F0009B9B9B9B9B9B9B9B9B9B9B9B9B9B9BDFC4
:10490000FFFFFFD5D0D0FAFFFFFFD5D0D0D0D0D059
:10491000D0D0D6FFFFFFFFFFFFFFFFFFFFFFFFFF2E
:10492000FFFFDFDFDFDFDFDFDFDFDFDFDFDFDFDF57
:10493000DFDFDFDFDFDFFFFFFFFFFFFFD6FAFFFF75
:10494000FFFAD0D0D0D0D0D0D0D4FAFFFFFFFFFFF5
:10495000FFFFFFFFFFFFFFFFFFFFFFFFFFFFFFFF67
:10496000FFFFFFFFFFFFFFFFFFFFFFFFFFFFFFFF57
:10497000FFFFFFFFFFFFFFFFFFD5D0D0D0D0D0D08B
:10498000D0D5FFFFFFFFFFFFFFFFFFFFFFFFFFFF90
:10499000FFFFFFFFFFFFFFFFFFFFFFFFFFFFFFFF27
:1049A000FFFFFFFFFFFFFFFFFFFFFFFFFFFFFFFF17
:1049B000FFD5D0D0D0D0D0D0D0F6FFFFFFFFFFFF83
:1049C000FFFFFFFFFFFFFFFFFFFFFFFFDFDFDFDF77
:1049D000DFDFDFDFDFDFDFDFDFDFDFDFDFDFDFDFE7
:1049E000DFDFFFFFFFFFFFFFFFD5D0D0D0D0D0D05B
:1049F000D0D5FFFFFFFFFFFFFFFFFFFFFFFFFFFF20
:104A0000FFFFFFBB9B9B9B9B9B9B9B9B9B9B9B9BAA
:104A10009B9B9B9B9B9B9B9B9B9BBBFFFFFFFFFFD2
:104A2000FFD5D0D0D0D0D0D0D0D0D5FBFFFFFFFF66
:104A3000FFFFFFFFFFFFFFFFFFFFFF9B9B9B9B9B7A
:104A40009B9B9B9B9B9B9B9B9B9B9B9B9B9B9B9BB6
:104A50009B9B9BFFFFFFFFFFFAD0D0D0D0D0D0D0E0
:104A6000D0D0D0D5FBFFFFFFFFFFFFFFFFFFFFFF11
:104A7000FFFFFFBF9B9B9B9B9B9B9B9B9B9B9B9B36
:104A80009B9B9B9B9B9B9B9B9B9BBBFFFFFFFFFF62
:104A9000D5D0D0D0D0D0D0D0D0D0D0D0D5FFFFFF7F
:104AA000FFFFFFFFFFFFFFFFFFFFFFFFFFFFFFFF16
:104AB000FFFFFFFFFFFFFFFFFFFFFFFFFFFFFFFF06
:104AC000FFFFFFFFFFFFFFD6D0D0D0D0D0D5D5D08D
:104AD000D0D0D0D0D0D5FFFFFFFFFFFFFFFFFFFFFB
:104AE000FFFFFFFFFFFFFFFFFFFFFFFFFFFFFFFFD6
:104AF000FFFFFFFFFFFFFFFFFFFFFFFFFFFFFAD4F6
:104B0000D0D0D0D0D0FFFFD6D0D0D0D0D0D4FAFFE4
:104B1000FFFFFFFFFFFFFFFFFFFFFFFFFFFFFFFFA5
:104B2000FFFFFFFFFFFFFFFFFFFFFFFFFFFFFFFF95
:104B3000FFFFFFFFFFFAD4D0D0D0D0D0F6FFFFFFA9
:104B4000F6D4D0D0D0D0D5FFFFFFFFFFFFFFFFFF8F
:104B5000FFFFFFFFFFFFFFFFFFFFFFFFFFFFFFFF65
:104B6000FFFFFFFFFFFFFFFFFFFFFFFFD6D0D0D00B
:104B7000D0D0D0D5FFFFFFFFFFD5D0D0D0D0D0FB15
:104B8000FFFFFFFFFFFFFFFFFFFFFFFFFFFFFFFF35
:104B9000FFFFFFFFFFFFFFFFFFFFFFFFFFFFFFFF25
:104BA000FFFFD6D5D0D0D0D0D0D0D5FBFFFFFFFFB0
:104BB000FFFFD0D0D0D0D0D6FFFFFFFFFFFFFFFF19
:104BC000FFFFFFFFFFFFFFFFFFFFFFFFFFFFFFFFF5
:104BD000FFFFFFFFFBFAFAF6D5D0D0D0D0D0D0D06F
:104BE000D0D0FAFFFFFFFFFFFFFFD5D0D0D0D0D548
:104BF000FFFFFFFFFFFFFFFFFFFFFFFFFFFFFFFFC5
:104C0000FFFFFFFFFFFFFFFFFFD5D5D4D4D4D0D0E7
:104C1000D0D0D0D0D0D0D0D0D5FAFFFFFFFFFFFF4B
:104C2000FFFFFAD0D0D0D0D5FFFFFFFFFFFFFFFF7F
:104C3000FFFFFFFFFFFFFFFFFFFFFFFFFFFFFFFF84
:104C4000D5D0D0D0D0D0D0D0D0D0D0D0D0D0D0D55A
:104C5000FFFFFFFFFFFFFFFFFFFFFAD0D0D0D0D54F
:104C6000FFFFFFFFFFFFFFFFFFFFFFFFFFFFFFFF54
:104C7000FFFFFFFFFFFFFFFFD5D0D0D0D0D0D0D0B7
:104C8000D0D0D0D0D0D5F6FFFFFFFFFFFFFFFFFF52
:104C9000FFFFFAD0D0D0D0D5FFFFFFFFFFFFFFFF0F
:104CA000FFFFFFFFFFFFFFFFFFFFFFFFFFFFFFFF14
:104CB000D5D0D0D0D0D0D0D0D0D0D0D5FAFFFFFF33
:104CC000FFFFFFFFFFFFFFFFFFFFFAD0D0D0D0D5DF
:104CD000FFFFFFFFFFFFFFFFFFFFFFFFFFFFFFFFE4
:104CE000FFFFFFFFFFFFFFFFFFD5D0D0D0D0D5D50E
:104CF000D5D6FBFFFFFFFFFFFFFFFFFFFFFFFFFF1B
:104D0000FFFFFAD0D0D0D0D5FFFFFFFFFFFFFFFF9E
:104D1000FFFFFFFFFFFFFFFFFFFFFFFFFFFFFFFFA3
:104D2000FFFFFBFBFFFFFFFFFFFFFFFFFFFFFFFF9B
:104D3000FFFFFFFFFFFFFFFFFFFFFAD0D0D0D0D56E
:104D4000FFFFFFFFFFFFFFFFFFFFFFFFFFFFFFFF73
:104D5000FFFFFFFFFFFFFFFFFFFFFFFFFFFFFFFF63
:104D6000FFFFFFFFFFFFFFFFFFFFFFFFFFFFFFFF53
:104D7000FFFFF6D0D0D0D0D5FFFFFFFFFFFFFFFF32
:104D8000FFFFFFFFFFFFFFFFFFFFFFFFFFFFFFFF33
:104D9000FFFFFFFFFFFFFFFFFFFFFFFFFFFFFFFF23
:104DA000FFFFFFFFFFFFFFFFFFFFD5D0D0D0D0D523
:104DB000FFFFFFFFFFFFFFFFFFFFFFFFFFFFFFFF03
:104DC000FFFFFFFFFFFFFFFFFFFFFFFFFFFFFFFFF3
:104DD000FFFFFFFFFFFFFFFFFFFFFFFFFFFFFFFFE3
:104DE000FFFFD0D0D0D0D0D6FFFFFFFFFFFFFFFFE7
:104DF000FFFFFFFFFFFFFFFFFFFFFFFFFFFFFFFFC3
:104E0000FFFFFFFFFFFFFFFFFFFFFFFFFFFFFFFFB2
:104E1000FFFFFFFFFFFFFFFFFFFBD0D0D0D0D0FA96
:104E2000FFFFFFFFFFFFFFFFFFFFFFFFFFFFFFFF92
:104E3000FFFFFFFFFFFFFFFFFFFFFFFFFFFFFFFF82
:104E4000FFFFFFFFFFFFFFFFFFFFFFFFFFFFFFFF72
:104E5000FFFAD0D0D0D0D0FFFFFFFFFFFFFFFFFF52
:104E6000FFFFFFFFFFFFFFFFFFFFFFFFFFFFFFFF52
:104E7000FFFFFFFFFFFFFFFFFFFFFFFFFFFFFFFF42
:104E8000FFFFFFFFFFFFFFFFFFFAD0D0D0D0D5FF1D
:104E9000FFFFFFFFFFFFFFFFFFFFFFFFFFFFFFFF22
:104EA000FFFFFFFFFFFFFFFFFFFFFFFFFFFFFFFF12
:104EB000FFFFFFFFFFFFFFFFFFFFFFFFFFFFFFFF02
:104EC000FFFFD5D0D0D5FBFFFFFFFFFFFFFFFFFFA8
:104ED000FFFFFFFFFFFFFFFFFFFFFFFFFFFFFFFFE2
:104EE000FFFFFFFFFFFFFFFFFFFFFFFFFFFFFFFFD2
:104EF000FFFFFFFFFFFFFFFFFFFFFFFAFAFFFFFFCC
:104F0000FFFFFFFFFFFFFFFFFFFFFFFAD6FFFFFFDF
:104F1000FFFFFFFFFFFFFFFFFFFFFFFFFFFFFFFFA1
:104F2000FFFFFFFFFFFFFFFFFFFFFFFFFFFFFFFF91
:104F3000FFFFFFFFFFFFFFFFFAD5FFFFFFFFFFFFB0
:104F4000FFFFFBD0D0FAFFFFFFFFFFFFFFFFFFFFD8
:104F5000FFFFFFFFFFFFFFFFFFFFFFFFFFFFFFFF61
:104F6000FFFFFFFFFFFFFFFFFFFFFFFFFFFFFFFF51
:104F7000D5D0D5FFFFFFFFFFFAFFFAD0D0FAFFFF31
:104F8000FFFFFFFFFFFFFFFFFFFFFFFFFFFFFFFF31
:104F9000FFFFFFFFFFFFFFFFFFFFFFFFFFFFFFFF21
:104FA000FFFFFFFFFFFFFFFFD4D0D0FFFBFFFFD5C8
:104FB000D0D5FAD0D0FAFFFFFFFFFFFFFFFFFFFFC2
:104FC000FFFFFFFFFFFFFFFFFFFFFFFFFFFFFFFFF1
:104FD000FFFFFFFFFFFFFFFFFFFFFFFFFFFFFFFFE1
:104FE000D4D0D4FBD0D0FFD0D0D4FAD0D0FAFFFFA9
:104FF000FFFFFFFFFFFFFFFFFFFFFFFFFFFFFFFFC1
:10500000FFFFFFFFFFFFFFFFFFFFFFFFFFFFFFFFB0
:10501000FFFFFFFFFFFFFFFFD4D0D4FAD0D0FBD0BB
:10502000D0D4FAD0D0FAFFFFFFFFFFFFFFD6D5D5CF
:10503000FFFFFFFFFFFFFFFFFFFFFFFFFFFFFFFF80
:10504000FFFFFFFFFFFBD5D5FBFFFFFFFFFFFFFFCC
:10505000D4D0D4FAD0D0FBD0D0D4FAD0D0FAFFFF3D
:10506000FFFFFFFFF6D0D0D0D6FFFFFFFFFFFFFF0F
:10507000FFFFFFFFFFFFFFFFFFFFFFFFFFD4D0D0C9
:10508000D5FFFFFFFFFFFFFFD4D0D4FAD0D0FBD075
:10509000D0D4FAD0D0D5FBFBFBFBFBFAD4D0D0D0D8
:1050A000D5FBFBFBFBFBFBFBFBFBFBFBFBFBFBFB76
:1050B000FBFBFBFBFAD0D0D0D0F6FBFBFBFBFBFAF3
:1050C000D4D0D4FAD0D0FBD0D0D4FAD0D0D0D0D055
:1050D000D0D0D0D0D0D0D0D0D0D0D0D0D0D0D0D0D0
:1050E000D0D0D0D0D0D0D0D0D0D0D0D0D0D0D0D0C0
:1050F000D0D0D0D0D0D0D0D0D0D0D4FAD0D0FBD057
:10510000D0D4FAD0D0D5D5D5D5D5D5D4D0D0D0D04F
:10511000D5D5D5D5D5D5D5D5D5D5D5D5D5D5D5D53F
:10512000D5D5D5D5D5D5D0D0D0D0D5D5D5D5D5D543
:10513000D0D0D4FAD0D0FBD0D0D4FAD0D0F6FFFF64
:10514000FFFFFFD5D0D0D0D5FFFFFFFFFFFFFFFF50
:10515000FFFFFFFFFFFFFFFFFFFFFFFFFFFAD0D0C2
:10516000D0D0FBFFFFFFFFFFD4D0D4FAD0D0FBD0CC
:10517000D0D4FAD0D0FAFFFFFFFFFFD0D0D0D0D6E6
:10518000FFFFFFFFFFFFFFFFFFFFFFFFFFFFFFFF2F
:10519000FFFFFFFFFFFFD0D0D0D0FAFFFFFFFFFFE0
:1051A000D4D0D4FAD0D0FBD0D0D4FAD0D0FAFFFFEC
:1051B000FFFFFFD0D0D0D0D6FFFFFFFFFFFFFFFFE4
:1051C000FBD5D5D5FAFFFFFFFFFFFFFFFFFFD0D0D4
:1051D000D0D0FAFFFFFFFFFFD4D0D4FAD0D0FBD459
:1051E000D0D4FAD0D0FAFFFFFFFFFFD0D0D0D0D676
:1051F000FFFFFFFFFFFFFFD5D0D0D0D0D0D4FAFF04
:10520000FFFFFFFFFFFFD0D0D0D0FAFFFFFFFFFF6F
:10521000D4D0D4FAD0D0FBFAD5FAFAD0D0FAFFFF26
:10522000FFFFFFD5D0D0D0D5FFFFFFFFFFFFD5D0C8
:10523000D0D0D0D0D0D0D0FAFFFFFFFFFFFFD0D02A
:10524000D0D0FBFFFFFFFFFFD4D0D0FFD5D5FFFFAD
:10525000FFFFFAD0D0FAFFFFFFFFFFD5D0D0D0D5A7
:10526000FFFFFFFFFFD6D0D0D0D0D0D0D0D0D0D04D
:10527000FFFFFFFFFFFAD0D0D0D4FFFFFFFFFFFFFB
:10528000D4D0D4FFFFFFFFFFFFFFFFD0D0FBFFFF15
:10529000FFFFFFFAD0D0D0D0FFFFFFFFFFD5D0D067
:1052A000D0D0D0D0D0D0D0D0D6FFFFFFFFD5D0D037
:1052B000D0D4FFFFFFFFFFFFD5D0D6FFFFFFFFFFDA
:1052C000FFFFFFFFFFFFFFFFFFFFFFFFD4D0D0D0A6
:1052D000FAFFFFFFFFD0D0D0D0D0D0D0D0D0D0D0E8
:1052E000D5FFFFFFFFD5D0D0D0D5FFFFFFFFFFFFD9
:1052F000FFFFFFFFFFFFFFFFFFFFFFFFFFFFFFFFBE
:10530000FFFFFFFFD5D0D0D0D5FFFFFFFFD0D0D01B
:10531000D0D0D0D0D0D0D0D0D5FFFFFFFBD0D0D0D0
:10532000D0FAFFFFFFFFFFFFFFFFFFFFFFFFFFFFC1
:10533000FFFFFFFFFFFFFFFFFFFFFFFFFAD0D0D00F
:10534000D0FAFFFFFFD4D0D0D0D0D0D0D0D0D0D0A2
:10535000D5FFFFFFD5D0D0D0D5FFFFFFFFFFFFFF68
:10536000FFFFFFFFFFFFFFFFFFFFFFFFFFFFFFFF4D
:10537000FFFFFFFFFFD5D0D0D0D4FFFFFFD5D0D0A7
:10538000D0D0D0D0D0D0D0D0FBFFFFFAD0D0D0D06A
:10539000D6FFFFFFFFFFFFFFFFFFFFFFFFFFFFFF46
:1053A000FFFFFFFFFFFFFFFFFFFFFFFFFFD6D0D094
:1053B000D0D0D5FFFFFBD0D0D0D0D0D0D0D0D0D55A
:1053C000FFFFFBD0D0D0D0D4FFFFFFFFFFFFFFFFD8
:1053D000FFFFFFFFFFFFFFFFFFFFFFFFFFFFFFFFDD
:1053E000FFFFFFFFFFFFD5D0D0D0D0D5FFFFFAD40D
:1053F000D0D0D0D0D0D0D5FFFFFBD5D0D0D0D0FAF0
:10540000FFFFFFFFFFFFFFFFFFFFFFFFFFFFFFFFAC
:10541000FFFFFFFFFFFFFFFFFFFFFFFFFFFFFAD0D0
:10542000D0D0D0D0D5FFFFFFD5D0D0D0D0FAFFFF5D
:10543000FAD4D0D0D0D0D5FFFFFFFFFFFFFFFFFF92
:10544000FFFFFFFFFFFFFFFFFFFFFFFFFFFFFFFF6C
:10545000FFFFFFFFFFFFFFFAD0D0D0D0D0D0D6FFA4
:10546000FFFFFFFFFFFFFAD5D0D0D0D0D0D5FFFF90
:10547000FFFFFFFFFFFFFFFFFFFFFFFFFFFFFFFF3C
:10548000FFFFFFFFFFFFFFFFFFFFFFFFFFFFFFFF2C
:10549000FAD4D0D0D0D0D0D4D4D5D5D5D5D4D0D0BE
:1054A000D0D0D0D0D5FFFFFFFFFFFFFFFFFFFFFFF2
:1054B000FFFFFFFFFFFFFFFFFFFFFFFFFFFFFFFFFC
:1054C000FFFFFFFFFFFFFFFFFFFFD5D0D0D0D0D001
:1054D000D0D0D0D0D0D0D0D0D0D0D4FAFFFFFFFFE2
:1054E000FFFFFFFFFFFFFFFFFFFFFFFFFFFFFFFFCC
:1054F000FFFFFFFFFFFFFFFFFFFFFFFFFFFFFFFFBC
:10550000FFFFFFD0D0D0D0D0D0D0D0D0D0D0D0D00E
:10551000D0D0FAFFFFFFFFFFFFFFFFFFFFFFFFFFFE
:10552000FFFFFFFFFFFFFFFFFFFFFFFFFFFFFFFF8B
:10553000FFFFFFFFFFFFFFFFFFFFFFD0D0D0D0D066
:10554000D0D0D0D0D0D0D0D0D0D0FAFFFFFFFFFF46
:10555000FFFFFFFFFFFFFFFFFFFFFFFFFFFFFFFF5B
:10556000FFFFFFFFFFFFFFFFFFFFFFFFFFFFFFFF4B
:10557000FFFFFFD0D0D0D0D0D0D0D0D0D0D0D0D09E
:10558000D0D0FAFFFFFFFFFFFFFFFFFFFFFFFFFF8E
:10559000FFFFFFFFFFFFFFFFFFFFFFFFFFFFFFFF1B
:1055A000FFFFFFFFFFFFFFFFFFFFFFD0D0D0D0D0F6
:1055B000D0D0D0D0D0D0D0D0D0D0FAFFFFFFFFFFD6
:1055C000FFFFFFFFFFFFFFFFFFFFFFFFFFFFFFFFEB
:1055D000FFFFFFFFFFFFFFFFFFFFFFFFFFFFFFFFDB
:1055E000FFFFFFD0D0D0D0D0D0D0D0D0D0D0D0D02E
:1055F000D0D0FAFFFFFFFFFFFFFFFFFFFFFFFFFF1E
:10560000FFFFFFFFFFFFFFFFFFFFFFFFFFFFFFFFAA
:10561000FFFFFFFFFFFFFFFFFFFFFFD0D0D0D0D085
:10562000D0D0D0D0D0D0D0D0D0D0FAFFFFFFFFFF65
:10563000FFFFFFFFFFFFFFFFFFFFFFFFFFFFFFFF7A
:10564000FFFFFFFFFFFFFFFFFFFFFFFFFFFFFFFF6A
:10565000FFFFFFD0D0D0D0D0D0D0D0D0D4D0D0D0B9
:10566000D0D0FAFFFFFFFFFFFFFFFFFFFFFFFFFFAD
:10567000FFFFFFFFFFFFFFFFFFFFFFFFFFFFFFFF3A
:10568000FFFFFFFFFFFFFFFFFFFFFFD0D0D0D0D015
:10569000D0D0D0D0D0D0D0D0D0D0FAFFFFFFFFFFF5
:1056A000FFFFFFFFFFFFFFFFFFFFFFFFFFFFFFFF0A
:1056B000FFFFFFFFFFFFFFFFFFFFFFFFFFFFFFFFFA
:1056C000FFFFFFD0D0D0D0D0D0D0D0D0D0D0D0D04D
:1056D000D0D0FAFFFFFFFFFFFFFFFFFFFFFFFFFF3D
:1056E000FFFFFFFFFFFFFFFFFFFFFFFFFFFFFFFFCA
:1056F000FFFFFFFFFFFFFFFFFFFFFFD0D0D0D0D0A5
:10570000D0D0D0D0D0D0D0D0D0D0FAFFFFFFFFFF84
:10571000FFFFFFFFFFFFFFFFFFFFFFFFFFFFFFFF99
:10572000FFFFFFFFFFFFFFFFFFFFFFFFFFFFFFFF89
:10573000FFFFFFD0D0D0D0D0D0D0D0D0D0D0D0D0DC
:10574000D0D0FAFFFFFFFFFFFFFFFFFFFFFFFFFFCC
:10575000FFFFFFFFFFFFFFFFFFFFFFFFFFFFFFFF59
:10576000FFFFFFFFFFFFFFFFFFFFFFD0D0D0D0D034
:10577000D0D0D0D0D0D0D0D0D0D0FAFFFFFFFFFF14
:10578000FFFFFFFFFFFFFFFFFFFFFFFFFFFFFFFF29
:10579000FFFFFFFFFFFFFFFFFFFFFFFFFFFFFFFF19
:1057A000FFFFFFF6FAFAFAFAFAFAFAFAFAFAFAFA4E
:1057B000FAFAFBFFFFFFFFFFFFFFFFFFFFFFFFFF07
:1057C000FFFFFFFFFFFFFF777777777777779D9D65
:1057D00077777777777777779D9D7777777777770D
:1057E000779D9D777777777777779D9D9D7777778B
:1057F000777777779D9D777777777777779D9D9D7B
:105800007777777777779D9D9D9D77777777777790
:105810009D9D9D7777777777779D9D9D9D7777770E
:105820007777779D9D9D9D77777777779D9D9D9DD8
:105830009D9D9D9D9D9D9D9D9D9D9D9D9D9D9D9D98
:105840009D9D9D9D9D9D9D9D9D9D9D9D9D9D9D9D88
:105850009D9D77777777779D9D9D9D7777777777F4
:10586000779D9D9D9D7777777777779D9D9D7777BE
:10587000777777779D9D9D9D7777777777779D9DD4
:105880009D777777777777779D9D77777777777736
:10589000779D9D9D777777777777779D9D777777DA
:1058A000777777779D9D77777777777777779D9DF0
:1058B00077777777777777E0E0E0E0E0E0E0E0E0C7
:1058C000E0E0E0E0E0E0E0E0E0E0E0E0E0E0E0E0D8
:1058D000E0E0E0E0E0E0E0E0E0E0E0E0E0E0E0E0C8
:1058E000E0E0E0E0E0E0E0E0E0E0E0E0E0E0E0E0B8
:1058F000E0E0E0E0E0E0E0E0E0E0E0E0E0E0E0E0A8
:105BB000E0E0E0E0E0E0E0E0E0E0E0E0E0E0E0FFC6
:105BC000FFFFFFFFFFFFFFFFE0E0FFFFFFFFFFE042
:105BD000E0E0E0E0FFFFFFFFFFE0E0EDFFFFFFFFA1
:105BE000FFFFFFFFFFE0E0FFFFFFFFFFFFFFFFE41E
:105BF000E0E0E0E0E0E0FFFFFFFFFFFFE9E0E0E0E2
:105C0000E0FFFFFFFFFFFFFFFFFFE4E0FFFFFFFFFD
:105C1000E0E0E0E4FFFFFFE0E0E0E0E4FFFFFFFFA3
:105C2000FFFFE0E0E0FFFFFFFFE0E0E0E0FFFFFF5D
:105C3000FFE0E0E0E0E0E0E0E0E0E0E0E0E0E0FF26
:105C4000FFFFFFFFFFFFFFFFE0E0FFFFFFFFFFF6AB
:105C5000E0E0E0E0FFFFFFFFFFE0E0EDFFFFFFFF20
:105C6000FFFFFFFFFFE0E0FFFFFFFFFFFFFFFFFF82
:105C7000FBE0E0E0E0FFFFFFFFFFFFFFFFE4E0E00D
:105C8000E0FFFFFFFFFFFFFFFFFFE4E0FFFFFFFF7D
:105C9000E4E0E0E4FFFFFFE0E0E0E4FFFFFFFFFF00
:105CA000FFFFFFE0E0F6FFFFFFE0E0E0E0FFFFFFC7
:105CB000E9E0E0E0E0E0E0E0E0E0E0E0E0E0E0FFBC
:105CC000FFFFFFFFFFFFFFFFE0E0FFFFFFFFFFFF22
:105CD000E0E0E0E5FFFFFFFFFFE0E0EDFFFFFFFF9B
:105CE000FFFFFFFFFFE0E0FFFFFFFFFFFFFFFFFF02
:105CF000FFE4E0E0E5FFFFFFFFF2FFFFFFFFE0E072
:105D0000E0FFFFFFFFFFFFFFFFFFE4E0FFFFFFFFFC
:105D1000FFE0E0E4FFFFFFE0E0E0FFFFFFFFE9FF5F
:105D2000FFFFFFE9E0E0FFFFFFFBE0E0F6FFFFFF22
:105D3000E0E0E0E0E0E0E0E0E0E0E0E0E0E0E0FF44
:105D4000FFFFE0E0E0E0E0E0E0E0FFFFFFFFFFFF5B
:105D5000E0E0E0FBFFFFFFFFFFE0E0EDFFFFFFE023
:105D6000E0E0E0E0E0E0E0FFFFFFE0E0E0E4FFFF94
:105D7000FFE0E0E0FFFFFFFFE0E0E0FFFFFFE0E02B
:105D8000E0FFFFFFE0E0E0E0E0E0E0E0FFFFFFFF3A
