:020000040800F2
:10000000B8050020D9000008C9370008691F00089A
:1000100000000000000000000000000000000000E0
:10002000000000000000000000000000DD3A0008B1
:100030000000000000000000CB370008953C0008DD
:10004000EB000008EB000008EB000008EB000008E4
:10005000EB000008EB000008EB000008EB000008D4
:10006000EB000008EB000008EB000008EB000008C4
:10007000EB000008EB000008EB000008FD3D000865
:10008000EB000008093E0008EB000008000000003B
:10009000D93D0008EB000008ED3D0008EB0000082A
:1000A000EB00000825390008EB000008293E000895
:1000B000EB000008EB00000800000000EB00000867
:1000C0000448854600F004FB00480047114600083C
:1000D000C046C046B8050020044880470448004791
:1000E000FEE7FEE7FEE7FEE7FEE7FEE7853D0008E8
:1000F000C100000830B50B46014600202022012433
:1001000009E00D46D5409D4205D31D469540491B4B
:100110002546954040191546521E002DF1DC30BD94
:10012000F0B507460846584087B0C00F0490480015
:100130000E46590040084908BC1A884105D2384685
:1001400031461E4617460B460246580040081043EB
:100150004DD0300D039040055900400D490D0590DC
:10016000401A0290402873DA18030121000B090598
:100170000843019004980092002806D01146019A85
:1001800049420020904100910190029840210A1AB2
:100190000199009800F0C8F905460C466B4607CB5C
:1001A00000F0E3F9C0197141039A0E0D0023D7172F
:1001B00056401A467A40164344D0049A002A2DD05D
:1001C000029A012A039A15DC1205C01A91410126F0
:1001D0003605001C7141D20F059ED2070093019293
:1001E00002962A46234600F021FA07B0F0BD3846B1
:1001F0003146FAE71605234A0F46B218C01AB7412E
:1002000001210905001C4F4100187F4111461818B3
:100210007941E20F10436D19644113E0E2076D0864
:1002200015436408C2071443039A01261205C01A35
:1002300091413605001C7141CE0740083043490802
:10024000C01851412A46234600F0E3F9CDE7FFE705
:10025000049801224000C117121A00238B41049810
:100260003146C417381AA141EEE730B40124E4073F
:10027000634030BC54E730B40124E407614030BC33
:100280004EE700000000E0FFF0B51FB488B00B9906
:100290000998002448400999C00F4900490809916C
:1002A000C0070B990090490049080B9109990898DB
:1002B000A64608431CD00B990A98084318D0099801
:1002C00001244000420D4800410D09982405000317
:1002D000000B204309900B980003000B20430B9068
:1002E00050181C494018002201901446104605E0A1
:1002F000002001460DB0F0BD032801DA034600E0FE
:1003000003239C46C11A0AAE0AE05F0008ADED5B0C
:100310004F00F75B7D430027AA187C41491C5B1EF8
:100320006145F2DD410004AB5A522104120C0A432C
:10033000240C401C0828DFDB0198029000997046CD
:1003400001910090059B049A0799069800F06EF9B8
:10035000D0E700000DFCFFFFF0B50C465C4085B017
:10036000E40FE40703944C00002664085900944607
:10037000490802460296224321D062460A431ED013
:100380006200570D4A000E032303550D0124024657
:100390002C492405781B1B0B360B4018234326439E
:1003A000614600901C46501AB44103D30098401C8B
:1003B000009002E0921800985B41002803DA0020C8
:1003C000014605B0F0BD002001210905074686461B
:1003D00011E064461D46141BB54106D36546521B09
:1003E000B341744607430C43A646CD07400849086D
:1003F000284392185B4105460D43EAD11046184345
:1004000013D06046194650407140084306D06046FC
:10041000101AB34106D20122002306E00022012374
:10042000DB0702E00122D243531000987446010515
:10043000381C6141029C039D0019694100F0E9F8F4
:10044000BFE70000FD0300000EB5C217C10F50400A
:10045000CA0740180021054B0293019200910A46F9
:100460000B4600F0E3F803B000BD000033040000C9
:100470000EB505490291002100910A460B460191F3
:1004800000F0D4F803B000BD330400004A000903B3
:100490000123090B1B051943094B10B5520D9A4254
:1004A00001DA002010BD064B34339A4203DC9A1A5D
:1004B00000F04AF810BD03495118884010BD0000F3
:1004C000FF030000CDFBFFFFC20FD2074000400832
:1004D0000BD0C10D0723DB01C91840020905400AF2
:1004E0001143C2084007114370470020014670477E
:1004F000CB0FDB07490010B5490802460A4307D075
:100500000A0D07240903E401090B121B002A01DC70
:10051000002010BDC900440F0C43C100E018D205F3
:10052000801800F035F810BD10B5202A04DB014614
:10053000203A9140002010BD914020239C1A034690
:10054000E3401943904010BD10B5202A04DB084653
:10055000203AD040002110BD0B46D340D04020248B
:10056000A21A91400843194610BD10B5202A06DB97
:10057000CB170846203A1041C1170B4306E00B4643
:100580001341D0402024A21A91400843194610BDBF
:10059000002904DA401C490001D14008400070479E
:1005A00070B40024050C05D11024000402D10029E8
:1005B00021D01124050E01D100020834050F01D10C
:1005C0000001241D850F01D18000A41C002801DB3F
:1005D0004000641C002908D020252E1B0D46F54044
:1005E000A14000D001212943084301061B1B000A3A
:1005F000DB1D02D5002070BC7047DB051818801881
:100600000029F8DA401C4900F5D170BC40084000D0
:10061000704710B5002B08DA0024401C6141921885
:100620005B411A4301D14008400010BDF0B51FB432
:1006300082B005460C0003D0084603F04BFC02E0F4
:1006400003F048FC20300246009021462846FFF780
:100650006BFF049B059A04460F4618431143084359
:1006600014D0184610431BD0009840210A1A18468F
:100670000599FFF769FF05460E46009A059904980B
:10068000FFF752FF084305D0012004E02046394619
:1006900007B0F0BD0020C11705430E432C4337437C
:1006A00000990E986305401A7905E40A00220C436C
:1006B000FD0A0A3002D500200146E9E701051019BC
:1006C00069410C9C0D9D00196941FFF7A2FFDFE70E
:1006D000064C0125064E05E0E36807CC2B430C3C95
:1006E00098471034B442F7D3FFF7EEFCE84800080F
:1006F0000849000870B50D460169C943C90726D1EC
:10070000891E0161124C2068FFF7B2FE02460B46BB
:1007100000201049FFF720FEFFF7B8FEE8622168CD
:100720000D48142905D90168490402D52068401EE6
:100730000CE02168094A1268914208D20168C90593
:1007400002D40068800502D52068401C206070BD7E
:100750004000002080841E4138000020440000201A
:1007600070B5124C61681248124D814216DA616808
:100770000122D205914211DB6068FFF7A5FE0E4A07
:100780000E4BFFF781FD00220D4BFFF7C9FCFFF771
:100790007DFE411EA060632906D970BD616881425B
:1007A00001DB642000E00120287070BD880000207B
:1007B0000050434832000020FCA9F1D24D62403F76
:1007C0000000F03FF8B5AD4801680268C907C90FDD
:1007D0009207D20F891802685207D20F891802684F
:1007E0001207D20F89180268D206D20F8918026840
:1007F0009206D20F891802681201D20F8918026876
:100800009F4DD200D20F89182A689201D20F891801
:100810002A685206D20F89182A68D201D20F891885
:100820002A68984C5205D20F8918617061780129A5
:100830002ED1217809292BD001680268C907C90F78
:100840009207D20F5200891802685207D20F530044
:10085000D218891802681207D20F9200891802680C
:10086000D206D20F9300D2188A180168062389068F
:10087000C90F59435118026800681201D20FD30002
:100880009A1A8918C000C00FC000081820700AE02A
:100890006178002000290ED06178012901D9092151
:1008A0002170794908602378052000077749784A44
:1008B000012B02D010E02070F3E70B78022B0BD055
:1008C0001378052B08D9296801221143296080215A
:1008D000816103F004F9C9E02378022B08D02B686A
:1008E0006C4F6D4E9B000FD42378032B09D00BE087
:1008F00029680222114329604021816103F0EFF849
:10090000B4E06368002B06D02B685B001DD423780D
:10091000042B17D019E02868400735D42868012136
:100920004905084328605D488761286889000843B5
:1009300028605B49022088616660286804210843BA
:100940002860F8BD6368002B07D02B68554F1B0546
:1009500035D42378052B1DD031E02868000713D447
:10096000286801214905084328604C4887612868A8
:100970008900084328604A49042088616660286825
:10098000082108432860F8BD7D20C000606003F0A6
:100990000FFB6BE00B78022B11D01378052B0ED9CF
:1009A00028681021084328602868800402D4286839
:1009B000B84328603C493D4802F00CF956E02B68EA
:1009C000DB0417D42378062B14D10978022911D01F
:1009D000117805290ED92868202108432860286845
:1009E000800402D52868B84328602F492F4802F0B8
:1009F0006BF93BE02178072902D16168002903D017
:100A00002178082908D00AE003F0E8FB28684000B4
:100A100040082860666029E0616800290BD02968D9
:100A2000490610D5296849050DD4214A1E491F4899
:100A300002F070FE1AE003F08DFB286840004008C9
:100A40002860666012E0616800290FD18021816210
:100A500040218162286817490840286001229207D6
:100A60001149124802F0A6F903F05CFA6068002808
:100A700089D06068401E6060F8BD0000340000202E
:100A8000380000204C0000206400002049000020B5
:100A900032000020008000001027000000080050F5
:100AA0000004005000400000001401400008014014
:100AB00000140040C0FFFFE770B50125064601287D
:100AC00011DB094C0220A0610420A061142002F077
:100AD0006FF80220A0620420A062642002F068F88F
:100AE0006D1CB542EEDD70BD0004005010B5174816
:100AF0008168174A1140091D81600168C9430907CF
:100B0000FBD408210160006C124C80B21249208095
:100B100048431249FFF7EEFA80B27D21E080C90018
:100B20004843FA21FFF7E6FAA060E1684A09891A0A
:100B30000818E06040090A492061884205D909483F
:100B400001680122D2071143016010BD0024014059
:100B5000E8FFFF7F74000020E40C0000FF0F00009E
:100B6000B80B0000380000200C4881681722914320
:100B70004205114381608168CA43094905D48A88C6
:100B8000521C8A808268D243F9D58268054B1A408C
:100B9000521C826000204880704700000024014001
:100BA00074000020E8FFFF7F0169C943C9070AD02C
:100BB0000169C9438A070A4908D4426B0A800221A5
:100BC000C943016170470121C943FAE70269D24371
:100BD0005207F7D4826B4A800421C94301617047F0
:100BE000540000207047000010B4214A0020916991
:100BF000CB05204904D54869022318434861901564
:100C000093699B0505D54B69012423434B6163021E
:100C1000184393695B0505D54B69082423434B6151
:100C2000E301184393691B0505D54B69042423434D
:100C30004B616302184393699B0405D54B691024EB
:100C400023434B616302184393699B0304D54C69AA
:100C500020231C434C6118439369DB0305D54B6982
:100C6000402423434B61A1020843906110BC7047AC
:100C7000002002400001002070B5044600F004FB93
:100C8000194D0646A869C0070DD0601C08D0002C7D
:100C900004D000F0F9FA801BA04201D9032070BDF6
:100CA000A869C007F1D1A869800701D50220A86111
:100CB000A869C00511D4A86980050ED4A8694005AB
:100CC0000BD4A869000508D4A869800405D4A869D4
:100CD000800302D4A869C00303D5FFF785FF012074
:100CE00070BD002070BD000000200240704770B54C
:100CF0000024014620314A79022A03D00421C1632D
:100D0000012418E0026813680E25AB4313600268E3
:100D100013685B085B001360436C1C2213400122C4
:100D200015469D40036C5D604A7100220A71816B1B
:100D3000002900D08847204670BD0000F3B5054665
:100D40003F4881B0017C012908D0012101743D4850
:100D5000FFF792FF0090002803D06BE0022003B061
:100D6000F0BD00210298C9430160A868364F0028F1
:100D700004D0B98F0904490B884203D9BC2133A0A0
:100D800003F0CEF82868002803D0BD212FA003F07F
:100D9000C7F801246868E406A04205D3B98F0904A6
:100DA00089090919884203D3BE2128A003F0B8F8A5
:100DB0006868A968C009C001C9014018401EA04266
:100DC00005D3B98F090489090919884203D3BF21C2
:100DD0001EA003F0A5F8A8686C68C0010019A04225
:100DE00028D92A4E08271649002048617168012237
:100DF000520211437160716839437160E109C901A0
:100E000008601048FFF738FF00907068B8437060C2
:100E1000716801204002814371600098002802D06F
:100E20000298046006E0A8686968C0014018803430
:100E3000A042D8D8024900200874009803B0F0BD41
:100E40000001002050C300004000F81F2E2E2F4448
:100E50007269766572732F53544D33324C30787803
:100E60005F48414C5F4472697665722F5372632FFD
:100E700073746D33326C3078785F68616C5F666C68
:100E80006173685F65782E630000000000200240F7
:100E9000F8B5164C0D46217C174601291DD00121BD
:100EA0002174022803D0EF2111A003F039F80120AA
:100EB000C006854206D31D49898F0904890908188F
:100EC000A84203D8F0210AA003F02AF81848FFF737
:100ED000D3FE0026002802D006E00220F8BD66619D
:100EE0002F601348FFF7C8FE2674F8BD00010020EC
:100EF0002E2E2F447269766572732F53544D333200
:100F00004C3078785F48414C5F4472697665722F47
:100F10005372632F73746D33326C3078785F68610D
:100F20006C5F666C6173682E630000004000F81F00
:100F300050C3000011484168C9070BD0EFF310817E
:100F400072B60F4AC2600F4AC26081F310884168CE
:100F5000C9070ED1416889070DD5EFF3108172B62C
:100F6000094A0261094A026181F3108840688007DA
:100F700001D501207047002070470000002002408A
:100F8000EFCDAB8905040302BFAE9D8C161514137B
:100F9000F8B50446486800260D46002825D00128EB
:100FA00023D0112821D002281FD012281DD01121B2
:100FB0000904884219D021210904884215D0312121
:100FC0000904884211D00921490488420DD0112119
:100FD0004904884209D019214904884205D00328D0
:100FE00003D0A32190A002F09BFF052000079D4F96
:100FF000844206D128680104090C15D0000C35D0B4
:1010000030E09948844206D128680104090C15D0C3
:10101000000C2BD026E0BC4206D128680104090C44
:1010200016D0000C22D013E09048844206D12868E4
:101030000104090C16D0000C18D013E08C4884422F
:1010400006D128680104090C0CD0000C0ED009E070
:101050008848844206D188492868084202D0C9439A
:10106000084203D0A42170A002F05AFF286800288B
:101070007ED00120B0402F680090074079D02879B9
:101080008007800F012801D002281ED1E8680028BF
:1010900009D0012807D0022805D0032803D0B421A5
:1010A00061A002F03DFFA1687200032090408143DF
:1010B000E86890400843A0606068009988432979F7
:1010C000C906C90FB140014361602879C043800758
:1010D00013D0A868002807D0012805D0022803D023
:1010E000C52151A002F01CFFE0687200032191406D
:1010F0008843A96891400143E16028798007800F07
:1011000002282AD105200007844212D05648844282
:101110000FD0544884420CD05448844209D05448DB
:10112000844206D05348844203D0D2213EA002F02C
:10113000F7FE2869072803D9D3213BA002F0F0FE6F
:10114000F00880000319186A7107CA0E0F21914038
:101150008843296991400143196220687100032284
:101160008A4090432A799207920F8A40024301E015
:1011700059E053E0226068688003800F4ED03F48FA
:10118000416B012211434163B1083D4889000B18AE
:101190009868B1070A0F0F2191408843052109077C
:1011A0008C4201D1002119E02F498C4201D101214B
:1011B00014E02C498C4201D102210FE02B498C42D2
:1011C00001D103210AE02A498C4201D1042105E022
:1011D00028498C4201D1052100E0062191400143BC
:1011E0009960284801686A68B943D20300D5394339
:1011F000016041686A68B943920300D53943416090
:1012000081686A68B943D20200D539438160C168F8
:101210006A68B943920200D53943C1602868761CD8
:10122000F04000D025E7F8BD2E2E2F447269766578
:1012300072732F53544D33324C3078785F48414CA1
:101240005F4472697665722F5372632F73746D33C6
:10125000326C3078785F68616C5F6770696F2E639D
:10126000000000000008005000040050000C005076
:1012700000100050001C0050030600000010024047
:1012800000000140000401400148806870470000F0
:101290000000002002488168027889188160704748
:1012A0000000002010B508480024016840221143C6
:1012B0000160022000F00AF8002801D0012401E0BA
:1012C00000F026F8204610BD0020024070B504460C
:1012D0000D4D7D202978C000FEF70CFF01460B481C
:1012E0000068FEF707FF00F021FE002809D1042C5A
:1012F00007D200222146401E00F05EF800206C60FC
:1013000070BD012070BD0000000000200C00002016
:1013100010B582B000240F4800940194416B012263
:1013200011434163816B0204114381630221224610
:10133000C81F00F041F802210022081F00F03CF80D
:1013400000946846019400F081F800F005F902B0BD
:1013500010BD00000010024010B5040003D5972115
:1013600005A002F0DDFD002C05DBE106C90E012021
:1013700088401049086010BD2E2E2F447269766592
:1013800072732F53544D33324C3078785F48414C50
:101390005F4472697665722F5372632F73746D3375
:1013A000326C3078785F68616C5F636F72746578F7
:1013B0002E63000000E100E070B50D4604461029E0
:1013C00003D3872110A002F0ABFDA007C20EFF20BF
:1013D0009040A907090E9140002C08DBA308194A88
:1013E0009B009B181A6882430A431A6070BD22074B
:1013F000120F083A9308144A9B009B18DA6982433B
:101400000A43DA6170BD00002E2E2F4472697665A2
:1014100072732F53544D33324C3078785F48414CBF
:101420005F4472697665722F5372632F73746D33E4
:10143000326C3078785F68616C5F636F7274657866
:101440002E63000000E400E000ED00E010B504466B
:101450000068002812D0202810D040280ED0602824
:101460000CD080280AD0A02808D0C02806D0E028B8
:1014700004D0FF21683126A002F052FD3249606895
:10148000884215D0491C884212D0491C88420FD08E
:101490002E4988420CD0491C884209D0491C8842F8
:1014A00006D0002804D0FF21693119A002F038FDD0
:1014B00027490868E02290432268104308602549C4
:1014C0004A680120000482434A600A6882430A6035
:1014D000CA688243CA608A6882438A606268D203AB
:1014E00002D50A6802430A606268920302D54A681C
:1014F00002434A602279D20702D08A6802438A6096
:101500002279920702D5CA680243CA6010BD000062
:101510002E2E2F447269766572732F53544D3332D9
:101520004C3078785F48414C5F4472697665722F21
:101530005372632F73746D33326C3078785F6861E7
:101540006C5F7077722E63000100010001000200E1
:10155000007000400004014002480168102211435D
:10156000016070470070004070470000F8B50168E6
:1015700004464A688868C043430608D5C30706D1B5
:10158000D3435B0603D4216C20468847F8BD83070C
:1015900006D4D3431B0603D4616C20468847F8BDAC
:1015A000830603D5430601D5C305F8D4D3439B0670
:1015B000F5D4234645064033002D09DB5D7C032D21
:1015C00048D0656D042635436565CD688D68009506
:1015D000860601274025002E07DB666D3E436665C3
:1015E0008E6800960E68AE430E60C00506D4606D2E
:1015F000082108436065206880680090606D0028BD
:10160000CDD020684168E026B14341605F74900707
:1016100001D4D00722D02068416889088900416040
:10162000E06C104E002808D08663E06CFFF75FFB8B
:10163000002802D0606D28436065A06C0028AED001
:101640008663A06CFFF753FB0028A8D0606D284389
:101650006065F8BDC86888680090F8BD2046FFF74F
:1016600083FFF8BD35390008002801D101207047FB
:10167000F8B5044600688049884207D07F4988420F
:1016800004D0FF214B317EA002F04AFCFF276068A6
:101690000537002806D0B84204D0FF214C3178A08D
:1016A00002F03EFCA06800280BD00121890288428C
:1016B00007D04901884204D0FF214D3170A002F0CB
:1016C0002FFC0121E068C902884206D0002804D01E
:1016D000FF214E316AA002F023FCA069C11FFF392F
:1016E000FA390AD0002808D001218904884204D0A0
:1016F000FF214F3162A002F013FCE069002812D0F4
:10170000082810D010280ED018280CD020280AD075
:10171000282808D0302806D0382804D0FF2150319E
:1017200057A002F0FDFB206A002806D0802804D0D4
:10173000FF21513152A002F0F3FB606A002500281E
:1017400028D0102807D0FF2152314DA002F0E8FB2D
:10175000606A00281ED0E069002812D0082810D046
:1017600010280ED018280CD020280AD0282808D0FD
:10177000302806D0382804D0FF21643140A002F080
:10178000CFFB2561656126464036A562707C002846
:1017900030D033E02069002806D0022804D0FF2191
:1017A000553137A002F0BCFB6069002806D0012843
:1017B00004D0FF21563132A002F0B2FB6068B8427B
:1017C00016D1E0690028DED00828DCD01028DAD055
:1017D0001828D8D02028D6D02828D4D03028D2D045
:1017E0003828D0D0FF215A3125A002F099FBCAE752
:1017F000E561C8E73574204600F05EF80221717497
:101800002068026840239A4302602123A26860682E
:101810009B021A4038401043E3688A021340184381
:1018200023690B40217D1843C907C90F0843A169EB
:10183000931019400843E169382319400843216A8D
:10184000802319400843A16A930019400843216886
:101850000860A0690421000C0840616A1023194047
:101860000843216848602068C1699143C16165658A
:10187000012070740020F8BD0030014000380040A5
:101880002E2E2F447269766572732F53544D333266
:101890004C3078785F48414C5F4472697665722FAE
:1018A0005372632F73746D33326C3078785F686174
:1018B0006C5F7370692E630000B587B000210091E2
:1018C00001910291039104910068114988421CD151
:1018D0001048416B821411434163C26A02210A43DA
:1018E000C262C06A01910840059038200090032030
:1018F000039069460848FFF74BFB0022022119209C
:10190000FFF75AFD1920FFF727FD07B000BD0000C3
:10191000003001400010024000040050FFB50446B2
:1019200081B000200090E0681D46002806D0029893
:10193000C00703D0564957A002F0F2FAFF2126460D
:10194000606805314036884202D1A06800280DD079
:10195000307C012815D001203074FFF795FC074634
:10196000707C012810D00220009089E0042070745F
:10197000029A009511462046039B00F0A3F905B09A
:10198000F0BD022005B0F0BD0298002874D0039885
:10199000002871D004207074002060650299A16352
:1019A0000399A1870399E1872063A086E0862064DC
:1019B00060640122A068D2034021904208D12268CD
:1019C000106888431060206802680B029A43026026
:1019D00020680268520602D402680A430260E06886
:1019E0000028E08F0FD000283AD020688168C9070E
:1019F00029D0C068A16B0880A06B801CA063E08F19
:101A0000401EE08729E000282AD020688168C907A5
:101A100009D0007BA16B0870A06B401CA063E08F15
:101A2000401EE08709E0FFF72FFCC01BA84202D34D
:101A3000681C23D101E0002D20D0E08F0028E4D1E4
:101A40000EE000901CE0FFF71FFCC01BA84202D371
:101A5000681C13D101E0002D10D0E08F0028C4D104
:101A60003A462946204601F06DFF002801D020208B
:101A70006065606D002803D00120E2E70320E0E705
:101A80000120707400203074009805B0F0BD000093
:101A9000C30300002E2E2F447269766572732F5394
:101AA000544D33324C3078785F48414C5F44726912
:101AB0007665722F5372632F73746D33326C307886
:101AC000785F68616C5F7370692E6300FFB50446D0
:101AD00083B000200090E0681D46002806D00498DE
:101AE000C00703D0674968A002F01AFAA06800286E
:101AF00007D00121C903884203D0714962A002F0D6
:101B00000FFA26464036307C01280BD00120307475
:101B1000FFF7BAFB0746707C0599012805D0022023
:101B20000090A7E0022007B0F0BD049800287BD009
:101B3000002979D00320707400206065049A226324
:101B4000059AA286059AE286A063A087E087606472
:101B500020640120A268C003824209D12068026883
:101B600040239A430260206802681B021A43026005
:101B700020680268520603D4026840231A430260B8
:101B80000122E068D202904260682ED1002801D084
:101B9000012909D1206B21680088C860206B801C56
:101BA0002063E08E401EE086E08E00284AD0206848
:101BB0008168890709D5216B0988C160206B801C69
:101BC0002063E08E401EE08609E0FFF75DFBC01B4E
:101BD000A84202D3681C42D101E0002D3FD0E08E24
:101BE0000028E4D12EE0009044E0002801D0012933
:101BF00009D1206B216800780873206B401C20639A
:101C0000E08E401EE086E08E00281BD020688168B0
:101C100089070AD5216B09780173206B401C20636A
:101C2000E08E401EE0860AE022E0FFF72DFBC01B9D
:101C3000A84202D3681C12D101E0002D0FD0E08E23
:101C40000028E3D13A462946204601F0B9FE002893
:101C500001D020206065A068002802D005E00320A4
:101C6000C1E72068C16880680190606D002801D0DC
:101C70000120B8E70120707400203074009807B08C
:101C8000F0BD0000150300002E2E2F44726976650A
:101C900072732F53544D33324C3078785F48414C37
:101CA0005F4472697665722F5372632F73746D335C
:101CB000326C3078785F68616C5F7370692E630096
:101CC00019030000FFB5044683B000200190E068CE
:101CD00001260C9D00280ED00498C00703D083492C
:101CE00083A002F01DF90598C00704D09321C90014
:101CF0007FA002F015F9A068002803D08A497CA0D3
:101D000002F00EF9204640300090007C012812D0ED
:101D1000009901200874FFF7B7FA07460098407C45
:101D20006268069901280ED0D31FFD3B08D1A26836
:101D3000002A05D102E0022007B0F0BD042802D03D
:101D400002200190C9E0049800282ED005980028B0
:101D50002BD0002929D00098407C042802D000987C
:101D60000522427400206065059AA263069AE28704
:101D7000069AA287049A2263069AE286069AA286A7
:101D80002064606420680268520603D4026840231D
:101D90001A4302600122E068D2029042606843D197
:101DA000002804D0012902D037E001208CE0206B0C
:101DB00021680088C860206B801C2063E08E401E74
:101DC000E0862AE02068816889070ED5E18E002927
:101DD0000BD0012E09D1216B0988C160206B801CBA
:101DE0002063E08E401EE086002620688168C907D7
:101DF0000CD0E18F002909D0C068A16B0880A06BCE
:101E0000801CA063E08F401EE0870126FFF73CFAAC
:101E1000C01BA84201D3681C55D1E08E0028D1D147
:101E2000E08F0028CED142E0002801D0012938D12E
:101E3000206B216800780873206B401C2063E08EC3
:101E4000401EE0862DE02068816889070ED5E18E6E
:101E500000290BD0012E09D1216B09780173206B69
:101E6000401C2063E08E401EE086002620688168CA
:101E7000C9070CD0E18F002909D0C068A16B087098
:101E8000A06B401CA063E08F401EE0870126FFF797
:101E9000FBF9C01BA84202D3681C02D013E0002D3E
:101EA00011D0E08E0028CED1E08F0028CBD13A4669
:101EB0002946204601F084FD002807D0012001902A
:101EC0002020606509E00320019006E0A06800285A
:101ED00003D12068C168806802900099012048748D
:101EE000009900200874019807B0F0BD9704000025
:101EF0002E2E2F447269766572732F53544D3332F0
:101F00004C3078785F48414C5F4472697665722F37
:101F10005372632F73746D33326C3078785F6861FD
:101F20006C5F7370692E63009C0400000B4910B451
:101F3000401E884202D910BC012070470849486100
:101F400008480722C3691B021B0A4C042343C361D0
:101F5000002088610A6110BC70470000FFFFFF008D
:101F600000E000E004ED00E0FF24F5340420FEF77B
:101F7000A3FD204600F01CFEF8E7000070B51749ED
:101F800040208861840122461021002001F05CFF7E
:101F9000192292011021002001F056FF0020104D5F
:101FA00002462870102101F04FFF0E4A1021012037
:101FB00001F04AFF28782246002800D0A200102114
:101FC000022001F041FF02F0D1F907480268012127
:101FD0000A430260C2680A43C26070BD0004005038
:101FE00088000020FFBF00000010004070B50546CB
:101FF0002F4800260C46854204D0FF21E6312DA053
:1020000001F08EFF01212068C90788420CD04908E1
:10201000884209D04942884206D0002804D0FF21D6
:10202000E83124A001F07CFF606800280AD008286D
:1020300008D0102806D0182804D0FF21E9311DA0AF
:1020400001F06EFFA068002806D0202804D0FF21F0
:10205000EA3118A001F064FFE06800280FD00121E8
:10206000890388420BD04900884208D003218903A4
:10207000884204D0FF21EB310EA001F051FFA86887
:10208000C043C00710D0A1686068EA680843E168EF
:10209000164B1A4011430843E86028692168800004
:1020A00080080843286100E00126304670BD00002A
:1020B000002401402E2E2F447269766572732F53CF
:1020C000544D33324C3078785F48414C5F447269EC
:1020D0007665722F5372632F73746D33326C307860
:1020E000785F6C6C5F6164632E630000C73FFFFF25
:1020F00070B505463E4800260C46854204D0912125
:1021000089003CA001F00CFF2168002923D00120A8
:10211000800281421FD01120800181421BD0092002
:10212000C001814217D013208001814213D00520C5
:10213000000281420FD01520800181420BD00B207C
:10214000C001814207D017208001814203D0374966
:1021500028A001F0E5FE6068002807D001210904ED
:10216000884203D0324923A001F0DAFEA06800289B
:1021700007D001214903884203D02E491DA001F058
:10218000CFFEE068002808D0012806D0032804D03C
:102190004921C90017A001F0C3FE2069002807D01B
:1021A00001210903884203D0234912A001F0B8FE9F
:1021B000A068002806D06068002803D01F490DA041
:1021C00001F0AEFEA868C043C0070ED06168206869
:1021D000E2680843A1681143084321690843E9689C
:1021E000174A11400843E86000E00126304670BD00
:1021F000002401402E2E2F447269766572732F538E
:10220000544D33324C3078785F48414C5F447269AA
:102210007665722F5372632F73746D33326C30781E
:10222000785F6C6C5F6164632E63000045020000A0
:102230004602000047020000490200004D02000073
:102240003CC2FEFFF0B5064605200027000783B01C
:102250000D46864212D05A4886420FD059488642CF
:102260000CD05948864209D05848864206D0584872
:10227000864203D0A32157A001F052FE286863498B
:10228000401E884203D9A42152A001F049FE68688B
:10229000002809D0012807D0022805D0032803D040
:1022A000A5214CA001F03CFE2869002807D0012898
:1022B00005D0022803D0A62146A001F031FE2868EF
:1022C00000287AD001202C68B840044071D068689A
:1022D000012801D0022826D1A868002809D00128A9
:1022E00007D0022805D0032803D0B72139A001F078
:1022F00017FEAA68B168204660434300C31899439B
:1023000050430143B160E868002805D0012803D09C
:10231000BD2130A001F004FEEA682868716881439D
:102320005043014371602A69F168204660434300CD
:10233000C31800909943504301930143F1606868CA
:1023400002282ED16869002811D001280FD0022858
:102350000DD003280BD0042809D0052807D0062863
:1023600005D0072803D0C9211AA001F0D9FD6A6958
:10237000FF2C0AD8316A00986043604303011B1A9E
:1023800099435043014331620BE0200A0346434323
:10239000434343431801716AC01A814353431943AD
:1023A000716269683268019B00989A43484302430E
:1023B000326028687F1CF84084D1002003B0F0BD53
:1023C0000004005000080050000C005000100050A5
:1023D000001C00502E2E2F447269766572732F53A5
:1023E000544D33324C3078785F48414C5F447269C9
:1023F0007665722F5372632F73746D33326C30783D
:10240000785F6C6C5F6770696F2E6300FEFF000081
:1024100070B5044601F0DAF90C492060CA68F0236F
:102420001A400B4B12099A5CD0406060CA68520592
:10243000530F084AD55C0346EB40A360C968890482
:10244000490F515CC840E06070BD000000100240C0
:1024500094480008AD480008F8B5364A00249300B7
:10246000F0263549354D032821D00C2804D0FC2115
:1024700033A001F055FD5AE0CF68074003208004E7
:1024800007433D4838182ED0042843D008284AD0A6
:1024900001F09CF9E96831400A093849895CC84073
:1024A000E968374A4905490F515CC8401DE0C868D2
:1024B00003278007800F3F043843FF43C01912D021
:1024C000012814D002281ED001F080F9E9683140BB
:1024D0000A092A49895CC840E968294A8904490FE0
:1024E000515CC84001E001F071F904461FE0286822
:1024F000C04340071BD42868C043C00601D414461B
:1025000015E01C4613E008698005C00F0FD00124B8
:10251000E4030CE02868C043400708D42868C0439F
:10252000C006EED4EBE708698005C00FEFD1204666
:10253000F8BD000000093D004010024000100240BC
:102540002E2E2F447269766572732F53544D333299
:102550004C3078785F48414C5F4472697665722FE1
:102560005372632F73746D33326C3078785F6C6C98
:102570005F7263632E630000FCFFF3FF9448000862
:10258000AD48000801490860704700000C000020B9
:10259000F8B50446012080072D4E2E4F0D4684428B
:1025A00010D0B4420ED02C4884420BD02B48844229
:1025B00008D0BC4206D02A48844203D0E42129A096
:1025C00001F0AEFC686800280BD0102809D0402824
:1025D00007D0202805D0602803D0E52121A001F0F4
:1025E0009FFCE86800280AD0C11FF93907D0C11F35
:1025F000FF39FA3903D0E6211AA001F091FC2068D6
:10260000012189078C4206D0B44204D0BC4202D0DA
:10261000134A944203D1702290436A6810438C425B
:1026200006D0B44204D0BC4202D00D498C4204D141
:10263000032109028843E96808432060A868E06232
:102640002888A06260690121084360610020F8BD0C
:102650000004004000080140001000400014004049
:10266000001401402E2E2F447269766572732F5329
:10267000544D33324C3078785F48414C5F44726936
:102680007665722F5372632F73746D33326C3078AA
:10269000785F6C6C5F74696D2E630000F8B5154649
:1026A000044601270026B807A84AA94B012957D09C
:1026B00010297DD0FF39491E7BD00F231B02994280
:1026C0004CD1844206D0944204D0A5218900A1A017
:1026D00001F026FC2868002811D010280FD02028EF
:1026E0000DD030280BD0402809D0502807D06028C2
:1026F00005D0702803D0A54996A001F011FC6868A8
:10270000002805D0012803D0A14992A001F008FCBF
:10271000E868002805D0022803D09E498DA001F06A
:10272000FFFB206A0122120390432062206A636843
:10273000E16973273F02B9432F683F0239435700CD
:10274000B843EF683F03384390436A6863601203FD
:102750001043E161A9682164206237463846F8BD1C
:1027600084420BD0944209D09C4207D08A488442CC
:1027700004D0FF21E43177A001F0D2FB28680028C3
:1027800012D0102810D020280ED030280CD040288D
:102790000AD0502808D0602806D0702804D0FF2125
:1027A000E5316CA001F0BCFB6868002809D001E0AD
:1027B0002CE07DE0012804D0FF21E63165A001F086
:1027C000AFFBE868002806D0022804D0FF21E731DB
:1027D00060A001F0A5FB206A400840002062216A49
:1027E0006268A06970238008800098432B681843B2
:1027F00002239943EB68194349086B684900194360
:102800006260A061A868606321624FE084420AD0E0
:10281000944208D09C4206D05F48844203D05F496E
:102820004CA001F07DFB2868002811D010280FD0A3
:1028300020280DD030280BD0402809D0502807D0B0
:10284000602805D0702803D0554942A001F068FBEC
:102850006868002806D0012804D0112149013DA054
:1028600001F05EFBE868002805D0022803D04D493E
:1028700038A001F055FB206A102290432062206AA4
:102880006368A16973273F02B9432F683F02394348
:102890002027B843EF683F01384390436A6863607C
:1028A00012011043A161A968A1632062374655E770
:1028B000844205D0944203D03B4926A001F030FB6E
:1028C0002868002811D010280FD020280DD03028DB
:1028D0000BD0402809D0502807D0602805D0702898
:1028E00003D032491BA001F01BFB6868002805D00B
:1028F000012803D02E4917A001F012FBE868002838
:1029000006D0022804D09721890012A001F008FB0C
:10291000206AFF22013290432062206A6368E169E5
:10292000702789088900B9432F6839435700B84395
:10293000EF683F02384390436A68636012021043B5
:10294000E161A968E1632062374607E700040040BF
:10295000000801402E2E2F447269766572732F5342
:10296000544D33324C3078785F48414C5F44726943
:102970007665722F5372632F73746D33326C3078B7
:10298000785F6C6C5F74696D2E63000095020000C7
:102990009602000097020000001401401E02000091
:1029A0001F02000021020000590200005A0200002C
:1029B0005B020000F0B504466748012685B00D466D
:1029C00084420CD06548844209D06548844206D0D0
:1029D0006448844203D0C42163A001F0A1FA714984
:1029E0002868884203D9C5215FA001F099FA012126
:1029F000090768680F14884207D0002805D0B8423C
:102A000003D0C62158A001F08BFA39460327A868E5
:102A10003F0388420BD0002809D0B84207D00121DB
:102A20004903884203D0C7214FA001F079FAE86832
:102A300000280BD001218902884207D003214902D6
:102A4000884203D0C82148A001F06AFA286900280A
:102A500009D0042807D0082805D00C2803D0C921A4
:102A600041A001F05DFA686900280ED0C11FF93954
:102A70000BD0C11FFF39FA3907D003210902884260
:102A800003D0CA2138A001F04BFAA869002807D06A
:102A90000121C903884203D0CB2133A001F040FAC1
:102AA0002068C043C00753D0E9686868AA69084332
:102AB00029691143084321683B4A114008432060BB
:102AC000A9686068B843084360606969A068032228
:102AD000120290430843A0601F48844201D10320A2
:102AE00003E01E48844203D10C20FFF7B5FC09E047
:102AF0001B48844202D01B48844229D16846FFF714
:102B000087FC0298002823D02968002920D00123BF
:102B1000AA690026DB039A420CD140004A088018BB
:102B2000FDF7E8FA81B2214808400907490F01433F
:102B3000E16005E04A081018FDF7DCFA80B2E060B9
:102B4000E068102804D2FF21213107A001F0E8F944
:102B5000304605B0F0BD00000038014000440040A0
:102B6000004C0040005000402E2E2F4472697665C4
:102B700072732F53544D33324C3078785F48414C48
:102B80005F4472697665722F5372632F73746D336D
:102B9000326C3078785F6C6C5F75736172742E6321
:102BA0000000000000093D00F369FFEFF0FF0000A6
:102BB000074981B00A690092421C00D0401C0A6992
:102BC000D20300D5401E0028F9D101B070470000A3
:102BD00000E000E0F8B5334C064620680D460121C0
:102BE00049020843206000F07AFF20682E4B42041F
:102BF0002E482F4945D42268120542D42A68D24370
:102C0000D2073ED02B4A936223684F023B43236096
:102C10008B00936122688B021A4322600422826235
:102C200022684B031A432260226880239A43226061
:102C300022680B011A4322600222826220688843C4
:102C400020601D48142101601D491C480860642053
:102C5000F0623068101F3061326801210A4332602F
:102C60002A68D243D20707D0286128680843286021
:102C700014490878401C08702068012109040843A1
:102C80000DE00D4A1268142A0AD12268520407D5B1
:102C90000222826220688843206020689843206076
:102CA000F8BD000038000020004000000000005087
:102CB000002000000008005040000020181500000F
:102CC0004400002048000020F8B5324C0646206839
:102CD0000D46FF2101310843206000F000FF20680D
:102CE0002D4B42042D482E4944D42268D20441D4AD
:102CF0002A68D243D2073DD02A4A93622368D7027A
:102D00003B4323601301936122681F023A43226010
:102D1000042282622268DF023A432260226880270E
:102D2000BA43226022689F003A43226002228261F5
:102D30002068120310432060142008601B491A48C1
:102D400008606420F06230680120C043306132685E
:102D500001210A4332602A68D243D20707D0286192
:102D600028680843286012490878401C08702068C9
:102D700018430DE0096814290BD12168490408D5CE
:102D8000022181612068090308432060206898437C
:102D90002060F8BD38000020004000000000005016
:102DA00040000020000800501815000044000020DA
:102DB0004800002070B42B4A13681B0650D41468D6
:102DC00001239B031C431460274C2468142C47D810
:102DD000146880252C43146015685C00A5431560B9
:102DE00015689E00B54315601568DE00B543156093
:102DF00015689E11B543156015685E11B5431560E1
:102E0000042505263607B56115681E03B543156010
:102E10000568ED43ED0703D105686D086D00056099
:102E20000868C043C00705D1086840084000086032
:102E30000E48C8620E480078322803D3106840213B
:102E4000084310600B4883611168C502A9431160F3
:102E500084621068690088431060106898431060AD
:102E600070BC70473800002040000020A8610000BE
:102E7000480000200008005070B590B00025029571
:102E80000395049500950195079508950995334894
:102E900006950C950D950E950F950121426B4902F3
:102EA0000A434263426B0A400592C26A01210A4307
:102EB000C262C06A0A910840059003200B900E463A
:102EC00005200AA90007FFF7BDF9254CA06A304389
:102ED000A0620095019502950395694620460495E8
:102EE000FFF706F96069C008C0006061206940080A
:102EF00040002061E16804208143E160194A1168C3
:102F0000C30599431160616881436160606808216D
:102F100088436060C80606900795089506A909953C
:102F20002046FFF763F8A0680F4908400121090710
:102F30000843A0600E480D490068FDF7DBF80A2140
:102F40004843FDF7D7F8002802D00A4A904201D83A
:102F500010B070BD401EFDD110B070BD0010024019
:102F60000024014008270140E8FFFF7F400D0300D7
:102F70000C000020FFFFFF7FF0B587B000249649CA
:102F80000294039404940594C96A0420924A01436C
:102F9000D162D16A01400691D16A80200143D16299
:102FA000D16A01400691D16A01200143D162D06A01
:102FB0001146C007C00F0690C96A02200143D162C2
:102FC000D16A014006910103844881624800834927
:102FD0008862410081488162022005263607B0627E
:102FE0000420B0620820B0621020B0624020B062BD
:102FF0008020B0627A4F0220B8620420B86240029A
:10300000B0624000B062C000B0624020B862802070
:10301000B8624000B8624000B8620001012500902B
:10302000694601956D48FFF70DF9A80300900294D9
:1030300003946946019504946848FFF703F9E8038F
:103040000090029403946946019504946348FFF745
:10305000F9F802200090032002900195039469463C
:1030600004943046FFF7EEF804200090032002900D
:1030700001950394694604943046FFF7E3F808206D
:103080000090032002900195039469460494304611
:10309000FFF7D8F810200090029403946946019538
:1030A00004943046FFF7CEF8402000900294039439
:1030B0006946019504943046FFF7C4F880200090DB
:1030C000029403946946019504943046FFF7BAF8D8
:1030D00002200090029403946946019504943846B6
:1030E000FFF7B0F80420009002940394694601951C
:1030F00004943846FFF7A6F8280300906946049523
:1031000001943846FFF79EF86803009069460495DD
:1031100001943846FFF796F8A80300906946049595
:1031200001943846FFF78EF8E8030090694604954D
:1031300001943846FFF786F828020090019469460A
:1031400004943046FFF77EF8E8020090029403945E
:103150006946019504943046FFF774F828030090FF
:10316000029403946946019504943046FFF76AF887
:10317000E803009002940394694601950494304654
:10318000FFF760F84020009002940394694601958F
:1031900004943846FFF756F8802000900294039478
:1031A0006946019504943846FFF74CF828020090D0
:1031B000029403946946019504943846FFF742F857
:1031C000680200900294039469460195049438467D
:1031D000FFF738F807B0F0BD0010024000080050BB
:1031E00000040050084807490160084901600521B2
:1031F0004160FF2222328260C1684907FCD102612E
:1032000070470000CCCC0000003000405555000055
:1032100010B50F480D490160FF21053141600021C3
:103220008160C160012242610161520282610162DA
:1032300018224162C26181620721C162FEF714FA5D
:10324000002801D0FDF7CEFC10BD00000030014089
:10325000A800002010B586B00020009001900390D7
:1032600015480421426B0A434263406B08400490B6
:10327000124801684022090A0902114301601049FD
:10328000900308601F20694608800A200D4C0290B8
:103290002046FFF77DF92168802001432160A16865
:1032A000094A1140A1606168702291436160A16880
:1032B0008143A16006B010BD0010024014E400E09C
:1032C00000E100E000080140F8BFFFFF10B586B044
:1032D000002000900190039015482021426B0A4382
:1032E0004263406B0840134904900868FF221204AF
:1032F0009043086001201049800508601F2069463E
:1033000008800A200D4C02902046FFF741F9216801
:10331000802001432160A168094A1140A1606168D1
:10332000702291436160A1688143A16006B010BD25
:103330000010024014E400E000E100E0001401404D
:10334000F8BFFFFFF0B58DB0002000900390584902
:1033500001900290089009900A90896B0120014326
:1033600053488163806B5249C007C00F0490C96AFB
:10337000012001434E48C162C06A06A9C007C00FC0
:103380000490202006900220079005200B90000753
:10339000FEF758FF474801680902090A420711432E
:1033A00001604549100C08604448694608800020C7
:1033B0000190434802900020540803902046FFF7F4
:1033C000E7F82068802188432060A0683D490840D4
:1033D000A060A0685021702290430843A060A168BB
:1033E0000420C908C9000143A16037480178374863
:1033F000081802683649F0230D780027AB409A433D
:10340000EBB29F403A430260236A324A0A2516789B
:10341000B540AB430025B5402B432362E36840250C
:10342000AB43E360E3682514AB43E3606368702556
:10343000AB436360A3688025AB43A36003680E7849
:103440000325B540AB430125B5402B43036003681A
:103450000E780C25B540AB433B4303601A48837894
:103460001A48181805688E780323B3409D43022339
:10347000B3401D43056005688E780C23B3409D431F
:103480000023B3401D43056005688E78F021B140EC
:103490008D431D430560216A93780A20984081433B
:1034A000DAB202209040014321620DB0F0BD00006D
:1034B000001002400CE400E000E100E07F0C00009E
:1034C000FFFF0000F8BFFFFF784800081800004029
:1034D000864800088D480008F0B591B00025009599
:1034E00001950395049505950695079508952C4E2D
:1034F00009950A950B950C950D95B16B022001432A
:10350000B163B16B284C01400E91032069460880DD
:10351000244802902046FFF73BF821688020814331
:103520002160A06821490840A0602148A1150279C6
:10353000204810180E9002681F4B1F790823BB40CB
:103540001A430260602002270490059504AA079799
:1035500006952046FFF7A2F80E980168164A1379DF
:1035600004229A4091430160606870218843606042
:10357000A16880208143A160F06A3843F062F06A5C
:103580000D9738400E90012008900A950B950997E9
:1035900008A90C950948FEF755FE11B0F0BD0000D2
:1035A00000100240CF07000000040040F8BFFFFFFA
:1035B00078480008180400407F48000800040050C4
:1035C00010B586B00020009001900390144810219F
:1035D000826B0A438263806B08401249049008683A
:1035E000FF221202904301229203104308600E4909
:1035F000D00008600D48694608800D480D4C0290C7
:103600002046FEF7C5FF20688021084320606068DF
:10361000702290436060A0688843A06006B010BD2F
:103620000010024010E400E000E100E0FF7C000038
:10363000F620000000100040F0B58FB00024069482
:103640000794089409942F480A940B940C940394BB
:1036500004940121426B89030A434263426B0A408E
:103660000D92C26A01210A43C262C06A042708405F
:103670000D90480205970090022503260520694613
:10368000029601950007FEF7DDFD680205970090A0
:103690000520039469460296019504940007FEF7FD
:1036A000D1FD194801680902090A6A07114301603E
:1036B00001251649D0100860E120400206900794C9
:1036C000089409940B940C940C20114C0A9006A9B0
:1036D0002046FFF76FF9A068A1140843A060A06816
:1036E00049008843A06060680921C902884360607E
:1036F000A0682A218843A0602068284320600FB07A
:10370000F0BD00000010024018E400E000E100E01D
:1037100000380140F8B5254C074620680D46244E78
:1037200000052ED53846FFF745FB2068400627D513
:103730003868C043C00703D138684008400038608B
:103740002868C043C00705D12868400840002860A9
:103750001848E862184802784021322A02D32268C9
:103760000A43226022688A4322602168B1432160B3
:10377000134A12491160134A14211160002101708B
:10378000F8BD2868C043C007FAD010684008400060
:1037900010603846FFF71EFA2068012149020843ED
:1037A00020602068B0432060F8BD00003800002091
:1037B00000400000A86100004800002048BE08004A
:1037C0003C000020400000207047704770B51C4846
:1037D000C5680C210D401B4908D01B4A9300042DDD
:1037E0000BD05400082D10D00C2D10D040680004D0
:1037F000420F0846521C904070BD0068C043C0068E
:1038000001D4104670BD184670BD204670BDC16819
:1038100001252D04294205D10168C943C90602D5F5
:103820001A4600E02246C168C0680902890F80027A
:10383000064B000F185C491C5043FCF75BFC70BD45
:10384000001002400080000000093D00A44800086C
:1038500070B5304948888A88904206D10878002897
:1038600001D0087870BD022070BD88884A889042D7
:1038700088884A8802D2801A803000E0801A80B29C
:10388000202845D30878042801D04888C880224BD6
:10389000224A0020CC8804191C5D155CAC420ED075
:1038A000C888401C4006400EC880C8888A8890425C
:1038B00003D1C8884880022070BD042070BD401C20
:1038C000C0B20F28E6D3C8880F304006400EC8802B
:1038D000C888C01C4006400E185CCA889A5C120654
:1038E0008218C888401C4006400E185C0404C88832
:1038F000801C4006400E185C000220181018084A70
:103900001060488820304006400E488000F03AFFA2
:10391000002070BD6800002018010020B548000894
:103920003400002010B50248FDF720FE10BD000055
:10393000A800002010B5806A0021C187C186FDF76C
:1039400013FE10BDF8B504464368FF260120053676
:103950008002B3420AD1A3684501AB4201D0834241
:1039600004D125682B684027BB432B606368202562
:10397000B34214D1A368009283420B4607D00022C1
:103980008021204600F04CF8002811D115E00022DB
:103990000121204600F044F8002809D10DE00B4633
:1039A000009200220121204600F03AF8002804D0BD
:1039B000606D284360650320F8BD0020F8BD00005D
:1039C000F8B5044615480E46154613490068FCF73D
:1039D00091FB7D21C900484300906068C11FFD39FB
:1039E0000ED13346002280212046009500F018F8C1
:1039F00000280FD0606D2021084360650320F8BDCA
:103A00000098002806D0401E009020688068C043BF
:103A10000006F5D50020F8BD00366E010C00002030
:103A2000F0B583B01F460E460446089DFDF72CFCFA
:103A3000401B3D1AFDF728FC019027480068400113
:103A4000000D68430090206881683046884340D16B
:103A5000781C39D0FDF718FC0199401AA84205D20C
:103A6000002D03D0009800282BD02BE0206841685F
:103A7000E022914341606068C11FFD390CD10121F2
:103A8000A068C903884202D04911884204D1206845
:103A900001684022914301600120A16A40038142F4
:103AA00007D121680A6882430A6021680A680243D4
:103AB0000A6001204034607400202074032003B0A9
:103AC000F0BD0025401E0090206881683046884384
:103AD000BED0002003B0F0BD0C000020704770473E
:103AE00010B501200F4C4003A061FEF747FA0120FA
:103AF0008003A0610C480168E20291430160042147
:103B00000522120791610168E2039143016000F010
:103B100013FE00F0FFFA00F083FEFDF725F800F039
:103B2000D1FB10BD00080050380000200169C943D6
:103B3000C9074BD170B40121C94301612449086808
:103B40000522840400231207002C224D22480C6811
:103B50001BDAE4040E68E4177605F617641C761C7D
:103B600034420DD0536908211C460C40240499436B
:103B70000C439461016800291FD00168491E1BE0B5
:103B80000968490519D403601DE02405E6170C688F
:103B90006405E417641C761C2642104C0FD0516952
:103BA00008230D461D402D048B431D43956101687C
:103BB000A14202D20168491C016070BC70470968CB
:103BC0004905FAD404602B7070BC70477047000040
:103BD00038000020480000203C00002048BE0800BB
:103BE00010B424490869244BC043C404234A244820
:103BF00002D404681C4304E05478002C02D1046809
:103C00009C4304600B69DB439C041E4B02D4046894
:103C10001C4304E05478002C02D104689C430460E7
:103C20000B69DB435C04184B02D404681C4304E0BA
:103C30005478002C02D104689C4304600969C9438C
:103C40000B04124902D402680A4304E05278002AA5
:103C500002D102688A430260052109070969C94344
:103C6000CA050B49026801D40A4300E08A43026096
:103C700010BC704700040050000800004C000020F9
:103C8000380000200010000000000020000000406C
:103C90000004000010B5FDF7FDFA10BD10B5344862
:103CA000012102688A430A4302600168C907C90FFB
:103CB000FBD0304901220868D2020323DB0298437B
:103CC000104308602C4801685201114301600168EB
:103CD0008903C90FFBD0016801221143016001680B
:103CE000C9434907FBD441681F231B0299430123A1
:103CF0001B0319434160214C216911432161216952
:103D0000C9438907FBD4C168FD2212049143912263
:103D100012041143C16001680122120611430160BF
:103D200001688901C90FFBD0C168F0229143C160CD
:103D3000C168072212029143C160C168D200914359
:103D4000C160C26803218A430A43C2600C22C16871
:103D500011400C29FBD10A48FEF714FC0220FDF7A4
:103D6000B5FAE0680221800880000843E06010BDD9
:103D7000002002400070004000100240401002404D
:103D80000048E80110480168821511430160C168CC
:103D90000E4A1140C16001680D4A114001608168FE
:103DA0004908490081600168012292049143016041
:103DB000C168FD2212049143C160002101610549DF
:103DC000C003886070470000001002400C40FF886C
:103DD000F6FFF6FE00ED00E010B502490248FCF7E0
:103DE00089FC10BD001401400008014010B50248D4
:103DF000FFF79CFE10BD00000014014010B501202B
:103E00008007FCF7D1FE10BD06480169C943C90708
:103E100006D110B50121C943016100F0A7FA10BD18
:103E2000704700000010004010B500F029FC01228E
:103E3000D202052109074869034613401B04824347
:103E400013438B6110BD0000F0B583B014460D0024
:103E5000064639D0202D37D800F0A6FBB0006946C1
:103E6000EE080870002E1CDDC81C0022F10705D0EA
:103E70002146A940090E41700122401C711010D04A
:103E8000D3005B1927469F403F0E477027460833F3
:103E90009F403B0E8370491E801C921C0906090E30
:103EA000EED10A4C4020A0620A230122694608484C
:103EB000FDF70CFE0A23324601A90548FDF706FE70
:103EC0004020A06100F094FB03B0F0BD000400505E
:103ED000A80000202021020C01D010211046020A67
:103EE00001D010460839020901D01046091F820886
:103EF00001D01046891E420801D0881E7047081A5A
:103F0000704702E008C8121F08C1002AFAD17047A2
:103F10007047002001E001C1121F002AFBD1704749
:103F2000704700001C480168890234D501221B49F2
:103F300092038A610268CB029A4302600A018A6294
:103F40000168120291430160154A0021D16011807D
:103F5000518091801902CA6802239A43CA60CA68D4
:103F600004239A43CA60CA6852085200CA600E49C4
:103F70000C4ACA630A6A8B159A430A620B490222E9
:103F80008A6204228A620168920491430160016896
:103F90005200914301607047380000200008005033
:103FA00054000020CF07000000040040000400502F
:103FB000F8B54D4801687D27C90200264B4DFF002A
:103FC0004B4C002924DB4B490978A9624A4A291441
:103FD00091620168D202114301601102CA68022392
:103FE0001A43CA60CA6804231A43CA60CB68012214
:103FF0001343CB604149E963296811432960296A69
:104000001202114329620168120311430160E66044
:10401000FCF76CFD21883A48FCF76CF8A060A068BA
:10402000384948433849FCF765F8FF21F5318842A3
:1040300000D8E060FFF753FDA088344A381A80B2F8
:10404000411E914202D84000401E01E0002800D1EC
:10405000E863E1682E480278914201D2012100E034
:104060000021A288D21CBA4201D2012200E0002223
:10407000114202D0A088C01C10E0E1680278914291
:1040800001D8012100E00021A288BA4201D2012218
:1040900000E00022114203D0A088401CA080F8BD9F
:1040A000E1680078814201D9012000E00020A18868
:1040B000022901D9012100E000210842A08802D094
:1040C000801EA080F8BD002805D00020A188B9423C
:1040D00003D9012102E00120F8E700210843F1D0D3
:1040E000E660A680F8BD0000380000200004004013
:1040F000540000204A00002000080050CF070000B4
:10410000809698004893000000127A00E7030000B0
:10411000310000200D48026801210A4302600C4A68
:10412000C2630005C26802231A43C260036A0B43DC
:104130000362C26804231A43C260036A1022134355
:10414000036202680A4302607047000000040040F6
:10415000CF0700001F4802691F49002A06D10A78CC
:104160000A2A03D90A78521E0A7005E00269002A59
:1041700006D00269052A03D80169491C016170470C
:104180000269052A0BD902690F2A08D80A780A2A77
:1041900005D90269521C02610878401E0AE00269D2
:1041A0000F2A09D90A78142A06D90269521C026119
:1041B00008780A380870704702690F2AFBD90A7814
:1041C0000A2AF8D90269521C02610878401E087058
:1041D0007047000054000020310000201F48026991
:1041E0001F49002A06D10A78322A03D20A78521CC3
:1041F0000A7005E00269002A06D00269032A03D882
:104200000169491C016170470269032A0BD90269DF
:104210000F2A08D80A78322A05D20269521C026194
:104220000878401C0AE002690F2A09D90A78282A6E
:1042300006D20269521C026108780A300870704781
:1042400002690F2AFBD90A78322AF8D20269521C75
:1042500002610878401C087070470000540000207C
:1042600031000020F8B5144C06466088401C608080
:104270006288C801114901274518202A0AD9104827
:104280000122456000218260016000916946FCF7CF
:1042900055FD67806770607800280BD060883246D3
:1042A000800029180220091FFCF7F2FD6070607879
:1042B0000028F3D1F8BD0000A400002080FFFF0714
:1042C000A8010020F8B5FCF735FE214C60700123F1
:1042D0009B02204F204E2148002101250278002A10
:1042E00004D088082021081A80B213E0491C401E1F
:1042F00089B2B042F2D21A49DB01DB1900224B60CD
:1043000001200A608860694615480092FCF716FD96
:104310006580284660806088012149048000081873
:1043200010494318002001465A181278CE00B240B6
:10433000491C1043C9B20429F6D34100090E03D029
:1043400009490860FCF70CFA207828432070F8BD72
:10435000A400002080FFFF0780FF0108FFFF010885
:10436000A80100207CFFFF078C000020F0B583B07F
:104370000426784970000D5C40184478002C01D068
:10438000202C01D900272BE000F00EF9A800694687
:10439000401C087000277049402088620A230122CF
:1043A00069466E48FDF792FBE5080A232A4601A9F3
:1043B0006A48FDF7B3FA6849402088612C1E0DDD7C
:1043C000002001A92A1A5218203AD27FC3009A402D
:1043D000D719401C641E2406240EF3D100F008F9FE
:1043E000B1005F48761C08188038F6B20767082EBF
:1043F000BFD35B4D288800B2FCF726F80022594B4A
:10440000FBF742FFFCF774F8574CE060288900B2D4
:10441000FCF71AF8554A564BFBF736FFFCF768F8DD
:1044200006462061E868FCF723F8524A524BFBF736
:104430002BFFFCF75DF802460121A061C9054F483A
:104440004F4F504D8E421EDB2978032901D20021A7
:1044500029706168814212DA1046FCF735F84A4A41
:104460004A4BFBF711FF05460E466068FCF72CF837
:104470002A463346FBF7F9FEFCF73AF860603878D5
:10448000C00721D13FE042498E4225D32978032934
:1044900001D2022129706168814212DA1046FCF7CC
:1044A00013F8394A394BFBF7EFFE05460E466068B4
:1044B000FCF70AF82A463346FBF732FEFCF718F8F9
:1044C00060603878C0071ED06068FCF70FFC0121DF
:1044D0008902FFF7C7FE16E03878C00713D02878A6
:1044E000012810D0606988420DD37000000E0AD1F7
:1044F000284860606068FCF7F9FB01218902FFF73A
:10450000B1FE0120287061682248234D814216DAED
:1045100062680121C9058A4211DB6068FBF7D4FF9C
:104520001E4A1F4BFBF7B0FE00221E4BFBF7F8FDA7
:10453000FBF7ACFF411EA060632906D906E0616865
:10454000814201DB642000E0012028702069606165
:1045500003B0F0BDC448000800040050A8000020CB
:1045600098010020000009408800002033333333D5
:104570003333D33FB81E85EB51B8AE3F0024F44926
:10458000A4000020490000208BFDCDDA5933633FA1
:10459000000080800050434832000020FCA9F1D286
:1045A0004D62403F0000F03F01211048C903016007
:1045B000BFF34F8FBFF36F8F89000160BFF34F8F41
:1045C000BFF36F8FC9000160BFF34F8FBFF36F8FD1
:1045D00089000160BFF34F8FBFF36F8F4901016006
:1045E000BFF34F8FBFF36F8F7047000080E100E093
:1045F00001210648C903016089000160C90001600A
:1046000089000160C10401607047000000E100E022
:10461000FCF748FEFFF742FBFEF7AEFCFEF792FE0A
:10462000FEF75AFFFEF7CCFFFEF714FEFEF74EFE34
:10463000FFF702F8FEF720FCFEF7EAFDFEF7D2FDD9
:10464000FFF74EFA0124240305250A4E0A4F2D07D1
:10465000696920460A460240120488430243AA615F
:10466000FFF7BEFAFCF7AEF8FFF7F2F83070034838
:104670000760EDE768000020AAAA000000300040B3
:1046800010B42949C869C043820628481DD402785D
:10469000032A18D082884388521C5206520E496A57
:1046A0009A4206D10178002901D001780AE003215D
:1046B00008E01F4A8388D1548188491C4906490E65
:1046C00081800021017010BC7047CA69D243520634
:1046D00027D40278022AF6D00289202A08D2154A65
:1046E0000389D25C8A620189491C018110BC704730
:1046F00000220281EFF31080012282F310880B6800
:104700004024A3430B6080F31088EFF3108082F302
:1047100010880A6820231A430A6080F3108810BCAE
:104720007047486A10BC704700380140680000209C
:10473000180100201000002010B4EFF310810122B6
:1047400082F310880E48036820242343036081F31A
:104750001088EFF3108182F3108803680824234344
:10476000036081F31088EFF3108182F310880268F0
:1047700004231A43026081F3108810BC70470000C4
:104780000038014010B51D480068810140181C49DF
:10479000FBF7B0FC1B4A401D10701B490868030E54
:1047A0001A48C3710B681B021B0E03720B681B04B3
:1047B0001B0E43720968817215490978C17211781C
:1047C0000173144909784173134909788173EFF330
:1047D0001081012282F31088104803682024A3432B
:1047E000036081F31088EFF3108182F31088026870
:1047F00040231A43026081F3108810BD3C00002062
:1048000048BE0800300000203800002010000020C2
:104810003200002031000020490000200038014013
:1048200010B501220F4811050160890001600E4892
:10483000C1681143C1600D49CB681343CB600C4C78
:10484000226880231A4322600A4AFEF7B3FA2068DE
:1048500001218903884320602068402108432060AB
:1048600010BD000000E100E000080140001401401C
:104870003800002000140040000000000400040084
:104880000008000000080000080000000800000404
:104890000008000C000000000000000001020304FA
:1048A00006070809030406080C1018203000000051
:1048B00000010203045472616E73706F727461744C
:1048C000696F6E2000100110021004100510061010
:1048D000071008180B100C100D100E100F101010F0
:1048E00011103E103F100000084900080000002091
:1048F000A8000000023F0008B0490008A8000020FE
:1049000010050000123F0008010000000400000034
:10491000000000000000200053797374656D2000D2
:104920000000000000000000205472616E73706F80
:1049300072746174696F6E0D002800000000000041
:104940000000000000000000460500001400000008
:104950000000010000000000000000000000000056
:104960000000000000000000000000000000000047
:104970000000000000000000000000000000000037
:104980000000000000000000000000000000000027
:104990000000000000000000000000000000000017
:1049A0000000000000000000000000000000010006
:04000005080000C12E
:00000001FF
