:020000040800F2
:10000000B0050020D9000008D5330008C11E000843
:1000100000000000000000000000000000000000E0
:10002000000000000000000000000000513C00083B
:10003000000000000000000021380008F93D000821
:10004000EB000008EB000008EB000008EB000008E4
:10005000EB000008EB000008EB000008EB000008D4
:10006000EB000008EB000008EB000008EB000008C4
:10007000EB000008EB000008EB000008613F0008FF
:10008000EB0000086D3F0008EB00000800000000D6
:100090003D3F0008EB000008513F0008EB0000085E
:1000A000EB000008BD3A0008EB000008893F00089B
:1000B000EB000008EB00000800000000EB00000867
:1000C0000448854600F016FB004800471147000829
:1000D000C046C046B0050020044880470448004799
:1000E000FEE7FEE7FEE7FEE7FEE7FEE7E93E000883
:1000F000C100000830B50B46014600202022012433
:1001000009E00D46D5409D4205D31D469540491B4B
:100110002546954040191546521E002DF1DC30BD94
:10012000D2B201E00270401C491EFBD2704700228F
:10013000F6E710B513460A4604461946FFF7F0FFE6
:10014000204610BDF0B507460846584087B0C00F9E
:10015000049048000E46590040084908BC1A8841DE
:1001600005D2384631461E4617460B460246580011
:10017000400810434DD0300D039040055900400D0C
:10018000490D0590401A0290402873DA18030121A6
:10019000000B09050843019004980092002806D03E
:1001A0001146019A49420020904100910190029825
:1001B00040210A1A0199009800F0C8F905460C463A
:1001C0006B4607CB00F0E3F9C0197141039A0E0D9D
:1001D0000023D71756401A467A40164344D0049A53
:1001E000002A2DD0029A012A039A15DC1205C01AA2
:1001F000914101263605001C7141D20F059ED207A0
:100200000093019202962A46234600F021FA07B095
:10021000F0BD38463146FAE71605234A0F46B218B4
:10022000C01AB74101210905001C4F4100187F4148
:10023000114618187941E20F10436D19644113E01B
:10024000E2076D0815436408C2071443039A0126A8
:100250001205C01A91413605001C7141CE074008B5
:1002600030434908C01851412A46234600F0E3F9BB
:10027000CDE7FFE7049801224000C117121A0023BE
:100280008B4104983146C417381AA141EEE730B4C7
:100290000124E407634030BC54E730B40124E40790
:1002A000614030BC4EE700000000E0FFF0B51FB435
:1002B00088B00B990998002448400999C00F49005B
:1002C00049080991C0070B990090490049080B9112
:1002D00009990898A64608431CD00B990A98084328
:1002E00018D0099801244000420D4800410D09989A
:1002F00024050003000B204309900B980003000B1A
:1003000020430B9050181C494018002201901446BD
:10031000104605E0002001460DB0F0BD032801DACB
:10032000034600E003239C46C11A0AAE0AE05F00C0
:1003300008ADED5B4F00F75B7D430027AA187C41B9
:10034000491C5B1E6145F2DD410004AB5A52210499
:10035000120C0A43240C401C0828DFDB0198029091
:100360000099704601910090059B049A07990698A0
:1003700000F06EF9D0E700000DFCFFFFF0B50C4671
:100380005C4085B0E40FE40703944C000026640849
:1003900059009446490802460296224321D06246FB
:1003A0000A431ED06200570D4A000E032303550D69
:1003B000012402462C492405781B1B0B360B4018E0
:1003C00023432643614600901C46501AB44103D390
:1003D0000098401C009002E0921800985B410028B1
:1003E00003DA0020014605B0F0BD00200121090517
:1003F0000746864611E064461D46141BB54106D3E8
:100400006546521BB341744607430C43A646CD07CD
:1004100040084908284392185B4105460D43EAD13C
:100420001046184313D060461946504071400843A7
:1004300006D06046101AB34106D20122002306E01E
:1004400000220123DB0702E00122D243531000986F
:1004500074460105381C6141029C039D00196941E5
:1004600000F0E9F8BFE70000FD0300000EB5C21779
:10047000C10F5040CA0740180021054B029301925A
:1004800000910A460B4600F0E3F803B000BD0000FF
:10049000330400000EB505490291002100910A467F
:1004A0000B46019100F0D4F803B000BD3304000006
:1004B0004A0009030123090B1B051943094B10B519
:1004C000520D9A4201DA002010BD064B34339A4295
:1004D00003DC9A1A00F04AF810BD0349511888400D
:1004E00010BD0000FF030000CDFBFFFFC20FD207CD
:1004F000400040080BD0C10D0723DB01C9184002A2
:100500000905400A1143C208400711437047002003
:1005100001467047CB0FDB07490010B5490802467A
:100520000A4307D00A0D07240903E401090B121B33
:10053000002A01DC002010BDC900440F0C43C1009B
:10054000E018D205801800F035F810BD10B5202A4B
:1005500004DB0146203A9140002010BD9140202349
:100560009C1A0346E3401943904010BD10B5202A61
:1005700004DB0846203AD040002110BD0B46D34092
:10058000D0402024A21A91400843194610BD10B54E
:10059000202A06DBCB170846203A1041C1170B432F
:1005A00006E00B461341D0402024A21A9140084394
:1005B000194610BD002904DA401C490001D1400849
:1005C0004000704770B40024050C05D110240004CD
:1005D00002D1002921D01124050E01D100020834D6
:1005E000050F01D10001241D850F01D18000A41C3D
:1005F000002801DB4000641C002908D020252E1BA8
:100600000D46F540A14000D00121294308430106D1
:100610001B1B000ADB1D02D5002070BC7047DB05E8
:10062000181880180029F8DA401C4900F5D170BC70
:1006300040084000704710B5002B08DA0024401C29
:10064000614192185B411A4301D14008400010BD3E
:10065000F0B51FB482B005460C0003D0084603F085
:10066000D5FC02E003F0D2FC203002460090214687
:100670002846FFF76BFF049B059A04460F46184374
:100680001143084314D0184610431BD00098402152
:100690000A1A18460599FFF769FF05460E46009AA3
:1006A00005990498FFF752FF084305D0012004E0A4
:1006B0002046394607B0F0BD0020C11705430E4360
:1006C0002C43374300990E986305401A7905E40AD4
:1006D00000220C43FD0A0A3002D500200146E9E75A
:1006E0000105101969410C9C0D9D00196941FFF726
:1006F000A2FFDFE7064C0125064E05E0E36807CCC4
:100700002B430C3C98471034B442F7D3FFF7DCFC82
:10071000C4490008E449000870B50D460169C907DD
:10072000C90F27D00121C9430161134C2068FFF78D
:10073000B1FE02460B4600201049FFF71FFEFFF7EF
:10074000B7FEE86221680E48142905D901684904FA
:1007500002D52068401E0CE021680A4A12689142C6
:1007600008D20168C90502D40068800502D5206856
:10077000401C206070BD00004000002080841E41AD
:10078000380000204400002070B5124C6168124807
:10079000124D814217DA61680122D205914212DBC3
:1007A0006068FFF7A3FE0E4A0E4BFFF77FFD0022A5
:1007B0000D4BFFF7C7FCFFF77BFE411EA0606329CE
:1007C00000D8287070BD6168814201DB6420F8E7C1
:1007D0000120F6E78400002000504348320000204A
:1007E000FCA9F1D24D62403F0000F03FF8B59148BE
:1007F00001680268C907C90F9207D20F89180268F9
:100800005207D20F891802681207D20F891802689E
:10081000D206D20F891802689206D20F8918026890
:100820001201D20F89180268834CD200D20F8918A6
:1008300022689201D20F891822685206D20F8918B5
:100840002268D201D20F891822687C4D5205D20F3E
:1008500089186970697801292ED1297809292BD046
:1008600001680268C907C90F9207D20F52008918A0
:1008700002685207D20F5300D21889180268120773
:10088000D20F920089180268D206D20F9300D218B4
:100890008A18016806238906C90F5943511802684E
:1008A00000681201D20FD3009A1A8918C000C00F35
:1008B000C000081828700DE069780020002911D0C8
:1008C0006978012901D9092129705D490860A8705A
:1008D00003F03CFC2978052201201207594B01291D
:1008E00002D009E02870F0E71978022904D02168C5
:1008F0000143216080200AE0297802290BD1197870
:10090000022908D02068022108432060402090611D
:1009100003F0B2F9F8BD21684C4E8F004A4905D466
:100920002F78032F02D1AF78002F06D027687F00E1
:1009300015D42F78042F0FD011E0A870206804225E
:1009400010432060424801F003FE002801D102203C
:100950001AE003F043FCF8BDAF78002F09D02068FF
:100960003C4E07053C493D4820D42F78052F10D038
:100970001CE0A8702068082210432060344801F071
:10098000E7FD0028E5D10420B061322002F02AF80A
:10099000DFE71F78022F09D0226810231A43226054
:1009A0002268B243226002F02DF8F8BD2768FF04E8
:1009B0000FD42F78062F0CD11B78022B09D0226878
:1009C00020231A4322602268B243226002F070F8AA
:1009D000F8BD2B780526072B02D1AB78002B03D06E
:1009E0002B78082B03D005E003F0EEFC17E0AB7882
:1009F000002B12D023685B0602D56B78012B14D034
:100A000080239362402393622268154B1A40226030
:100A10000122920702F0A0F8F8BD03F099FC2068CB
:100A2000400040082060AE70F8BD0E4A02F08EFC17
:100A3000F8BD000034000020380000204B000020EA
:100A40006000002049000020000100000004005068
:100A50000004004000400000001401400008014074
:100A6000C0FFFFE70014004070B5064601250A4CA0
:100A70000EE00220A0610420A061142001F0B2FF6A
:100A80000220A0620420A062642001F0ABFF6D1C74
:100A9000B542EEDD70BD00000004005010B51748EF
:100AA0008168174A1140091D816001680907C90F53
:100AB000FBD008210160006C124C80B212492080EA
:100AC00048431249FFF716FB80B27D21E080C90040
:100AD0004843FA21FFF70EFBA060E1684A09891A32
:100AE0000818E06040090A492061884205D9094890
:100AF00001680122D2071143016010BD00240140AA
:100B0000E8FFFF7F70000020E40C0000FF0F0000F2
:100B1000B80B0000380000200E488168172291436E
:100B20004205114381600C4902E08A88521C8A8088
:100B30008268D20FF9D18268084B1A40521C826039
:100B40002020488080B2401E0004000C4880F9D16B
:100B5000704700000024014070000020E8FFFF7F84
:100B60000169C907C90F02D00121C94308E0016921
:100B70008907CA0F084905D0426B0A800221C94380
:100B80000161704702695207D20FFAD0826B4A8026
:100B90000421C943F4E700005000002010B5094CBF
:100BA00021880948FFF7A6FAA060A06807494843D2
:100BB0000749FFF79FFAFF21F531884200D8E0602E
:100BC00010BD00005000002080969800489300005F
:100BD00000127A007047000010B5084900224A61EF
:100BE00007494B684C1523434B604B68082423434B
:100BF0004B60C009C001026010BD0000FC00002075
:100C00000020024010B5214A00219069C305204808
:100C100004D54169022319434161911593699B05EC
:100C200005D5436901242343436163021943936952
:100C30005B0505D54369082423434361E301194358
:100C400093691B0505D5436904242343436163026B
:100C5000194393699B0405D54369102423434361D9
:100C60006302194393699B0304D5446920231C4301
:100C7000446119439369DB0305D543694024234349
:100C80004361A0020143916110BD000000200240B9
:100C9000FC00002070B5054600F0ECFA0646184C42
:100CA0000AE0681C08D0002D04D000F0E3FA801B95
:100CB000A84201D9032070BDA069C007F1D1A06985
:100CC000800701D50220A061A069C00511D4A069E8
:100CD00080050ED4A06940050BD4A069000508D496
:100CE000A069800405D4A069800302D4A069C00370
:100CF00003D5FFF787FF012070BD002070BD000005
:100D000000200240704770B50024014620314A7926
:100D1000022A03D00421C163012418E00268136889
:100D20000E25AB431360026813685B085B00136019
:100D3000436C1C221340012215469D40036C5D60EC
:100D40004A7100220A71816B002900D08847204631
:100D500070BD0000F3B50446364881B0017C01291E
:100D600007D0012101743448FFF794FF060002D038
:100D70005AE00220FEBD00210298C9430160A0682C
:100D80002E4F002804D0B98F0904490B884203D99B
:100D9000BC212BA003F0D9F92068002803D0BD2185
:100DA00027A003F0D2F901256068ED06A84205D31B
:100DB000B98F090489094919884203D3BE2120A0AB
:100DC00003F0C3F96068A168C009C001C9014018F7
:100DD000401EA84205D3B98F0904890949198842E0
:100DE00003D3BF2116A003F0B0F9254F656815E0C5
:100DF0002846FFF7F1FE1048FFF74CFF06467868DB
:100E00000821884378607968012040028143796035
:100E1000002E02D00298056006E08035A068616867
:100E2000C0014018A842E3D80248002101743046AE
:100E3000FEBD0000FC00002050C300004000F81F71
:100E40002E2E2F447269766572732F53544D3332B0
:100E50004C3078785F48414C5F4472697665722FF8
:100E60005372632F73746D33326C3078785F6861BE
:100E70006C5F666C6173685F65782E6300000000CC
:100E800000200240F8B5164C0D46217C174601297A
:100E90001DD001212174022803D0EF2111A003F0FD
:100EA00054F90120C006854206D31D49898F0904E3
:100EB00089090818A84203D8F0210AA003F045F9CF
:100EC0001848FFF7E7FE0026002802D006E00220BF
:100ED000F8BD66612F601348FFF7DCFE2674F8BD8D
:100EE000FC0000202E2E2F447269766572732F53FA
:100EF000544D33324C3078785F48414C5F447269CE
:100F00007665722F5372632F73746D33326C307841
:100F1000785F68616C5F666C6173682E63000000C7
:100F20004000F81F50C3000011484168C9070BD0AA
:100F3000EFF3108172B60F4AC2600F4AC26081F3AC
:100F400010884168C9070ED1416889070DD5EFF3B4
:100F5000108172B6094A0261094A026181F3108860
:100F60004068800701D501207047002070470000CD
:100F700000200240EFCDAB8905040302BFAE9D8C7B
:100F800016151413F8B50446486800270D460028C6
:100F900025D0012823D0112821D002281FD01228C3
:100FA0001DD011210904884219D021210904884249
:100FB00015D031210904884211D009214904884201
:100FC0000DD011214904884209D0192149048842D1
:100FD00005D0032803D0A3218EA003F0B6F8052086
:100FE0000007844204D128680104090C25D109E0D6
:100FF0009748844206D128680104090C0CD0000CE3
:101000002CD009E09348844206D128680104090CD9
:101010000CD0000CF4D009E08F48844206D1286837
:101020000104090C0BD0000CEAD008E08B48844284
:1010300005D128680104090C0CD0000C08E0884890
:10104000844207D187492868084203D0C943084031
:101050000028D5D0A4216FA003F077F8D4E00121B7
:10106000B940064600910E407ED028798007800F57
:10107000012801D002281ED1E868002809D00128E3
:1010800007D0022805D0032803D0B42161A003F0C3
:101090005CF8A2687900032088408243E8688840B1
:1010A0001043A0606068009988432979C906C90F78
:1010B000B940014361602879C043800713D0A86814
:1010C000002807D0012805D0022803D0C52151A04F
:1010D00003F03BF8E0687A00032191408843A96857
:1010E00091400143E16028798007800F02282AD1CE
:1010F00005200007844212D0554884420FD055483D
:1011000084420CD05448844209D05448844206D0CA
:101110005348844203D0D2213EA003F016F8286938
:10112000072803D9D3213BA003F00FF8F80880006B
:101130000319186A7907CA0E0F219140884329695B
:101140009140014319622068790003228A4090434C
:101150002A799207920F8A400243226068688003CE
:10116000800F50D0404800E04DE0416B0122114318
:101170004163B9083D4889000B189868B9070A0F00
:101180000F2191408843052109078C4201D100219C
:1011900019E02F498C4201D1012114E02D498C42E4
:1011A00001D102210FE02C498C4201D103210AE038
:1011B0002A498C4201D1042105E029498C4201D100
:1011C000052100E006219140014399602849086803
:1011D0006A68B043D20300D53043086048686A6843
:1011E000B043920300D53043486088686A68B043D2
:1011F000D20200D530438860C8686A68B043920262
:1012000000D53043C8607F1C2E683046FE4000D0B9
:1012100025E7F8BD2E2E2F447269766572732F5321
:10122000544D33324C3078785F48414C5F4472699A
:101230007665722F5372632F73746D33326C30780E
:10124000785F68616C5F6770696F2E6300000000F3
:101250000004005000080050000C00500010005026
:10126000001C005003060000001002400000014076
:101270000004014001488068704700000000002021
:101280000248816802788918816070470000002058
:1012900010B5084800240168402211430160022073
:1012A00000F00AF8002801D0012401E000F026F83F
:1012B000204610BD0020024070B504460D4D7D2033
:1012C0002978C000FEF716FF01460B480068FEF7BC
:1012D00011FF00F0DDFD002809D1042C07D2002207
:1012E0002146401E00F05CF800206C6070BD0120BB
:1012F00070BD0000000000200C0000201CB5002480
:101300000E4800940194416B012211434163816BAB
:1013100002041143816302212246C81F00F040F8F5
:1013200002210022081F00F03BF800946846019457
:1013300000F062F800F0E6F81CBD0000001002406A
:1013400010B5040003D5972105A002F0FEFE002C85
:1013500005DBE106C90E012088401049086010BD78
:101360002E2E2F447269766572732F53544D33328B
:101370004C3078785F48414C5F4472697665722FD3
:101380005372632F73746D33326C3078785F686199
:101390006C5F636F727465782E63000000E100E09B
:1013A00070B50C460546102903D3872103A002F02F
:1013B000CCFE2146284602F097FE70BD2E2E2F440B
:1013C0007269766572732F53544D33324C3078788E
:1013D0005F48414C5F4472697665722F5372632F88
:1013E00073746D33326C3078785F68616C5F636FF3
:1013F000727465782E63000010B5044600680028FA
:1014000012D0202810D040280ED060280CD0802880
:101410000AD0A02808D0C02806D0E02804D0FF2198
:10142000683126A002F091FE32496068884215D0EA
:10143000491C884212D0491C88420FD02E4988424C
:101440000CD0491C884209D0491C884206D000288B
:1014500004D0FF21693119A002F077FE27490868FE
:10146000E022904322681043086025494A68012021
:10147000000482434A600A6882430A60CA68824361
:10148000CA608A6882438A606268D20302D50A68A9
:1014900002430A606268920302D54A6802434A60C6
:1014A0002279D20702D08A6802438A6022799207A1
:1014B00002D5CA680243CA6010BD00002E2E2F4418
:1014C0007269766572732F53544D33324C3078788D
:1014D0005F48414C5F4472697665722F5372632F87
:1014E00073746D33326C3078785F68616C5F7077DD
:1014F000722E630001000100010002000070004034
:101500000004014002480168102211430160704745
:101510000070004070470000F8B5016804464A6852
:101520008868C043430606D5C30704D1D3435B068E
:1015300001D4216C05E0830706D4D3431B0603D4F2
:10154000616C20468847F8BD830603D5430601D564
:10155000C305F8D4D3439B06F5D423464506403350
:10156000002D09DB5D7C032D48D0656D04263543D5
:101570006565CD688D680095860601274025002E9B
:1015800007DB666D3E4366658E6800960E68AE4367
:101590000E60C00506D4606D0821084360652068B0
:1015A00080680090606D0028CDD020684168E026FA
:1015B000B14341605F74900701D4D00722D0206806
:1015C0004168890889004160E06C104E002808D00D
:1015D0008663E06CFFF797FB002802D0606D28431C
:1015E0006065A06C0028AED08663A06CFFF78BFB13
:1015F0000028A8D0606D28436065F8BDC868886879
:101600000090F8BD2046FFF785FFF8BDCD3A0008F1
:10161000F8B504007ED083492068884207D082490B
:10162000884204D0FF214B3180A002F08EFDFF27BD
:1016300060680537002806D0B84204D0FF214C313D
:101640007AA002F082FDA06800280BD00121890257
:10165000884207D04901884204D0FF214D3173A050
:1016600002F073FD0121E068C902884206D000281B
:1016700004D0FF214E316DA002F067FDA069C11FAB
:10168000FF39FA390AD0002808D00121890488429C
:1016900004D0FF214F3165A002F057FDE06900281A
:1016A00012D0082810D010280ED018280CD02028CE
:1016B0000AD0282808D0302806D0382804D0FF21A6
:1016C00050315AA002F041FD206A002806D080283F
:1016D00004D0FF21513155A002F037FD606A00258A
:1016E00000282CD0102807D0FF2152314FA002F043
:1016F0002CFD606A002822D0E069002814D0082858
:1017000012D0102810D018280ED020280CD028284D
:101710000AD000E011E0302806D0382804D0FF219C
:10172000643142A002F011FD256165612646403614
:10173000A562707C002832D035E00120F8BD206918
:10174000002806D0022804D0FF21553137A002F02E
:10175000FCFC6069002806D0012804D0FF21563126
:1017600032A002F0F2FC6068B84216D1E0690028AD
:10177000DCD00828DAD01028D8D01828D6D02028D5
:10178000D4D02828D2D03028D0D03828CED0FF21AD
:101790005A3126A002F0D9FCC8E7E561C6E73574E6
:1017A000204600F05FF8022171742068026840232F
:1017B0009A4302602123A26860689B021A40384065
:1017C0001043E3688A021340184323690B40217DCC
:1017D0001843C907C90F0843A1699310194008436A
:1017E000E169382319400843216A802319400843DE
:1017F000A16A93001940084321680860A069042188
:10180000000C0840616A10231940084321684860B1
:101810002068C1699143C161656501207074002031
:10182000F8BD000000300140003800402E2E2F444B
:101830007269766572732F53544D33324C30787819
:101840005F48414C5F4472697665722F5372632F13
:1018500073746D33326C3078785F68616C5F73706D
:10186000692E630010B586B0044614216846FEF761
:101870005EFC1349206888421FD11248416B8214D4
:1018800011434163C26A02210A43C262C06A0191E4
:101890000840059038200090002103200291049117
:1018A000039069460848FFF76DFB002202211920CA
:1018B000FFF776FD1920FFF743FD06B010BD0000CD
:1018C000003001400010024000040050FFB5044603
:1018D000C068002781B01D46002806D00298C007C6
:1018E00003D0524952A002F030FCFF212646606826
:1018F00005314036884202D1A06800280CD0307CE7
:10190000012814D001203074FFF7B4FC0090707CE3
:1019100001280ED0022781E004207074029A0095FD
:1019200011462046039B00F083F905B0F0BD02206C
:10193000FBE70298002870D0039800286DD004209F
:101940007074002060650299A1630399A1870399CF
:10195000E1872063A086E086206460640122A0689D
:10196000D2034021904208D1206802688A43026075
:10197000206802680B029A430260206802685206DF
:1019800002D402680A430260E068002819D035E0FA
:1019900020688168C90709D0017BA06B0170A06B2A
:1019A000401CA063E08F401EE0870AE0FFF762FC66
:1019B0000099401AA84202D3681C02D034E0002DDE
:1019C00032D0E08F0028E3D11BE020688168C9078E
:1019D00009D0C068A16B0880A06B801CA063E08F59
:1019E000401EE0870AE0FFF745FC0099401AA84234
:1019F00002D3681C02D017E0002D15D0E08F00281C
:101A0000E3D129462046009A02F068F8002801D068
:101A100020206065606D002800D0012701207074CF
:101A200000203074384680E70327F7E7C30300003F
:101A30002E2E2F447269766572732F53544D3332B4
:101A40004C3078785F48414C5F4472697665722FFC
:101A50005372632F73746D33326C3078785F6861C2
:101A60006C5F7370692E6300FFB50446C068002781
:101A700081B01646002806D00298C00703D05D4901
:101A80005DA002F062FBA068002808D00121C90314
:101A9000884204D0574958A0091D02F056FB25463C
:101AA0004035287C012809D001202874FFF7E2FB8B
:101AB0000090687C012804D0022795E0022005B040
:101AC000F0BD0298002872D0002E70D003206874F8
:101AD0000020606502992163A686E686A063A08740
:101AE000E087606420640120A268C0034021824234
:101AF00008D1206802688A430260206802680B02ED
:101B00001A43026020680268520602D402680A433F
:101B100002600120E168C0028142606826D100288D
:101B200001D0012E1ED1206B21680088C86006E01C
:101B300020688168890709D5216B0988C160206BFD
:101B4000801C2063E08E401EE0860BE0FFF792FBD6
:101B50000099411A0498814202D3401C02D039E016
:101B6000002837D0E08E0028E2D126E0002801D0FE
:101B7000012E1FD1206B21680078087306E02068D1
:101B80008168890709D5216B09780173206B401C96
:101B90002063E08E401EE0860CE0FFF76BFB0099AF
:101BA000411A0498814203D3401C03D012E01AE08A
:101BB00000280FD0E08E0028E1D12046009A049939
:101BC00001F0BAFF002801D020206065A06800283D
:101BD00002D005E0032707E02068C1688068009014
:101BE000606D002800D0012701206874002028744F
:101BF000384664E7150300002E2E2F44726976657F
:101C000072732F53544D33324C3078785F48414CC7
:101C10005F4472697665722F5372632F73746D33EC
:101C2000326C3078785F68616C5F7370692E630026
:101C3000FFB5044683B00120019000200090E068C9
:101C40000C9F1D4600280ED00498C00703D0814980
:101C500081A002F07AFA0598C00704D09321C90048
:101C60007DA002F072FAA068002804D079497AA019
:101C7000491D02F06AFA26464036307C01280FD012
:101C800001203074FFF7F6FA0290707C6168012839
:101C90000DD0CA1FFD3A08D1A168002905D102E084
:101CA000022007B0F0BD042801D00220C2E0049851
:101CB000002828D00598002825D0002D23D0707C3E
:101CC000042801D005207074002060650599A16387
:101CD000E587A58704992163E586A586206460646D
:101CE00020680168490603D401684022114301605D
:101CF0000121E068C9028842606847D1002804D009
:101D0000012D02D03BE0012094E0206B2168008887
:101D1000C860206B801C2063E08E401EE0862EE0B1
:101D200020688168890710D5E18E00290DD00199BE
:101D300001290AD1216B0988C160206B801C2063B6
:101D4000E08E401EE0860020019020688168C9076F
:101D50000DD0E18F00290AD0C068A16B0880A06B6C
:101D6000801CA063E08F401EE08701200190FFF7F8
:101D700081FA0299401AB84201D3781C59D1E08EF9
:101D80000028CDD1E08F0028CAD146E0002801D03C
:101D9000012D3CD1206B216800780873206B401C1A
:101DA0002063E08E401EE08631E02068816889076C
:101DB00010D5E18E00290DD0019901290AD1216B9E
:101DC00009780173206B401C2063E08E401EE08682
:101DD0000020019020688168C9070DD0E18F00299B
:101DE0000AD0C068A16B0870A06B401CA063E08F94
:101DF000401EE08701200190FFF73CFA0299401A4B
:101E0000B84202D3781C02D013E0002F11D0E08E2C
:101E10000028CAD1E08F0028C7D139462046029A4F
:101E200001F08AFE002807D0012000902020606584
:101E300009E00320009006E0A068002803D1206894
:101E4000C16880680190012070740020307400988F
:101E500027E70000970400002E2E2F447269766554
:101E600072732F53544D33324C3078785F48414C65
:101E70005F4472697665722F5372632F73746D338A
:101E8000326C3078785F68616C5F7370692E6300C4
:101E9000094910B5401E884201D9012010BD074CE8
:101EA00060610321081F02F01FF90020A0610720D4
:101EB0002061002010BD0000FFFFFF0000E000E0F7
:101EC000FF24F5340420FEF7CFFD204600F08AFD04
:101ED000F8E7000010B5044908700007020E102151
:101EE000002002F061F810BD840000204008800549
:101EF00010B5020C1021002002F056F810BD0000B1
:101F000010B50648012200781203002800D0920084
:101F10001021022002F048F810BD000084000020CB
:101F200010B50E494020886100F02AF83220FFF7F2
:101F3000DDFF0020FFF7CEFF0F2000F017F8084963
:101F40000848FFF7DDFF02F00BFB0748026801219C
:101F50000A430260C2680A43C26010BD0004005018
:101F60001A410000102700000010004010B5034A7D
:101F70001021012002F018F810BD0000FFBF000082
:101F800010B5012212031021002002F00DF810BD3F
:101F900070B505462F4800260C46854204D0FF2127
:101FA000E6312DA002F0D1F801212068C90788424E
:101FB0000CD04908884209D04942884206D00028FE
:101FC00004D0FF21E83124A002F0BFF860680028A7
:101FD0000AD0082808D0102806D0182804D0FF21DD
:101FE000E9311DA002F0B1F8A068002806D0202831
:101FF00004D0FF21EA3118A002F0A7F8E068002819
:102000000FD00121890388420BD04900884208D0B3
:1020100003218903884204D0FF21EB310EA002F096
:1020200094F8A868C007C00F02D00126304670BDE2
:10203000A1686068EA680843E168154B1A401143DB
:102040000843E86028692168800080080843286107
:10205000ECE70000002401402E2E2F4472697665C3
:1020600072732F53544D33324C3078785F48414C63
:102070005F4472697665722F5372632F73746D3388
:10208000326C3078785F6C6C5F6164632E63000043
:10209000C73FFFFF70B50546404800260C46854205
:1020A00004D0912189003EA002F04FF82168002958
:1020B00023D00120800281421FD011208001814263
:1020C0001BD00920C001814217D01320800181421A
:1020D00013D00520000281420FD0152080018142DB
:1020E0000BD00B20C001814207D017208001814214
:1020F00003D039492AA002F028F86068002808D0E7
:1021000001210904884204D0334925A0491C02F06A
:102110001CF8A068002808D001214903884204D097
:102120002D491FA0891C02F010F8E068002808D093
:10213000012806D0032804D04921C90018A002F0C4
:1021400004F82069002808D001210903884204D03E
:10215000214913A0091D01F0F8FFA068002807D04D
:102160006068002804D01C490DA0083101F0EDFF83
:10217000A868C007C00F02D00126304670BD03CC4E
:1021800062680843216811430843A1680843E9686D
:10219000124A11400843E860EFE7000000240140C4
:1021A0002E2E2F447269766572732F53544D33323D
:1021B0004C3078785F48414C5F4472697665722F85
:1021C0005372632F73746D33326C3078785F6C6C3C
:1021D0005F6164632E630000450200003CC2FEFFA5
:1021E00008B504498A6B02438A63896B01400091F8
:1021F00008BD00000010024008B504494A6B0243C4
:102200004A63496B0140009108BD00000010024084
:10221000FEB505460520002700070E46854212D070
:10222000584885420FD0584885420CD057488542BF
:1022300009D05748854206D05648854203D0A3218D
:1022400055A001F082FF30686149401E884203D9E1
:10225000A42151A001F079FF7068002809D001285D
:1022600007D0022805D0032803D0A5214AA001F0F9
:102270006CFF3069002807D001287ED002287CD06E
:10228000A62145A001F061FF77E00120B84004409D
:1022900072D07068012801D0022826D1B0680028C9
:1022A00009D0012807D0022805D0032803D0B72180
:1022B00039A001F04AFFB268A96820466043430094
:1022C000C318994350430143A960F068002805D022
:1022D000012803D0BD2130A001F037FF3168F0683C
:1022E0006A688A4341430A436A603269E968204662
:1022F00060434300C3180090994350430193014346
:10230000E960706802282FD17069002811D0012877
:102310000FD002280DD003280BD0042809D005289F
:1023200007D0062805D0072803D0C9211AA001F03C
:102330000CFFFF2C0BD871692A6A00986043604338
:1023400003011B1A9A43484302432A620CE0200A05
:1023500001464143414341430801431A7269686A97
:10236000514398430843686270682B68019A00994A
:10237000934341430B432B607F1C34682046F84055
:1023800083D1FEBD0004005000080050000C005036
:1023900000100050001C00502E2E2F4472697665EC
:1023A00072732F53544D33324C3078785F48414C20
:1023B0005F4472697665722F5372632F73746D3345
:1023C000326C3078785F6C6C5F6770696F2E630079
:1023D000FEFF00000069814301D00020704701200A
:1023E0007047000008B50449CA6A0243CA62C96A54
:1023F0000140009108BD00000010024008B50449EA
:10240000CA6A0243CA62C96A0140009108BD00005D
:102410000010024010B5044601F02AFA206001F0D5
:1024200001FA606001F00CFAA060606801F014FA33
:10243000E06010BDF8B5224D01270024AE00FF0377
:10244000032816D00C2804D0FC211EA001F07DFE2C
:1024500031E000F057F8294940182ED0042819D04F
:10246000082823D001F004FA01F0DCF901F0E8F9C2
:102470000EE000F047F8224940181ED0012809D08C
:10248000022813D001F0F4F901F0CCF901F0E4F9DD
:10249000044610E000F03EF800280CD000F042F8AE
:1024A000002801D02C4606E0344604E000F042F853
:1024B000002800D03C462046F8BD01F0D9F9E7E7F6
:1024C00000093D002E2E2F447269766572732F53DA
:1024D000544D33324C3078785F48414C5F447269D8
:1024E0007665722F5372632F73746D33326C30784C
:1024F000785F6C6C5F7263632E630000FCFFF3FF18
:10250000FFFFFCFF0249C96801400004084370470F
:1025100040100240024800684007C00F70470000AA
:102520000010024002480068C006C00F704700005B
:1025300000100240024800698005C00F704700008B
:102540004010024001490860704700000C00002064
:10255000006A814301D000207047012070470000CD
:1025600010B5012917D0102917D0CB1FF93B10D077
:1025700006210B4B18305B5C18180368084C0E34AE
:10258000615C03248C40120CA3438A401343036014
:1025900010BD0421EDE70021EBE70221E9E700008F
:1025A0005449000810B5012917D0102917D0CB1FA6
:1025B000F93B10D006210B4B18305B5C18180368F0
:1025C000084C0E34615CF0248C40120CA3438A400A
:1025D0001343036010BD0421EDE70021EBE7022166
:1025E000E9E700005449000810B5012911D010296D
:1025F00011D0CB1FF93B0AD00623016A074CE35CDC
:102600000A249C40A1439A401143016210BD042357
:10261000F3E70023F1E70223EFE700006949000830
:1026200010B5012917D0102917D0CB1FF93B10D0B6
:1026300006210B4B18305B5C18180368084C0E34ED
:10264000615C0C248C40120CA3438A40134303604A
:1026500010BD0421EDE70021EBE70221E9E70000CE
:1026600054490008F8B50446012080072D4E2E4F2E
:102670000D46844210D0B4420ED02C4884420BD078
:102680002B48844208D0BC4206D02A48844203D05A
:10269000E42129A001F059FD686800280BD010281A
:1026A00009D0402807D0202805D0602803D0E52194
:1026B00021A001F04AFDE86800280AD0C11FF939BD
:1026C00007D0C11FFF39FA3903D0E6211AA001F063
:1026D0003CFD2068012189078C4206D0B44204D019
:1026E000BC4202D0134A944203D1702290436A68DC
:1026F00010438C4206D0B44204D0BC4202D00D49F3
:102700008C4204D1032109028843E9680843206010
:10271000A868E0622888A0626069012108436061BE
:102720000020F8BD000400400008014000100040F7
:1027300000140040001401402E2E2F44726976656B
:1027400072732F53544D33324C3078785F48414C7C
:102750005F4472697665722F5372632F73746D33A1
:10276000326C3078785F6C6C5F74696D2E6300003A
:10277000034610B5012001290DD0102910D0FF39D2
:10278000491E12D00F242402A14203D1114618463B
:1027900000F096FF10BD1146184600F01DFE10BD5A
:1027A0001146184600F096FE10BD1146184600F07E
:1027B00011FF10BD8268024B1A400A4382607047C5
:1027C000F8BFFFFF426870239A430A434260704794
:1027D000EFF31081012282F31088026820231A434C
:1027E000026081F310887047F0B5044667480126FF
:1027F00085B00D4684420CD06548844209D06548B6
:10280000844206D06448844203D0C42163A001F00E
:102810009CFC71492868884203D9C5215FA001F05A
:1028200094FC0121090768680F14884207D000282A
:1028300005D0B84203D0C62158A001F086FC394625
:102840000327A8683F0388420BD0002809D0B8426C
:1028500007D001214903884203D0C7214FA001F0CE
:1028600074FCE86800280BD001218902884207D057
:1028700003214902884203D0C82148A001F065FC29
:102880002869002809D0042807D0082805D00C287A
:1028900003D0C92141A001F058FC686900280ED07E
:1028A000C11FF9390BD0C11FFF39FA3907D00321F5
:1028B0000902884203D0CA2138A001F046FCA86969
:1028C000002807D00121C903884203D0CB2133A0BF
:1028D00001F03BFC2068C007C00F53D1E96868686D
:1028E000AA69084329691143084321683B4A1140FA
:1028F00008432060A9686068B8430843606069695C
:10290000A0680322120290430843A0601F4884423B
:1029100001D1032003E01E48844203D10C20FFF7BD
:1029200089FD09E01B48844202D01B48844229D11A
:102930006846FFF76FFD0298002823D02968002918
:1029400020D00123AA690026DB039A420CD1400063
:102950004A088018FDF7CEFB81B2214808400907DC
:10296000490F0143E16005E04A081018FDF7C2FB7A
:1029700080B2E060E068102804D2FF21213107A076
:1029800001F0E3FB304605B0F0BD00000038014027
:1029900000440040004C0040005000402E2E2F44C8
:1029A0007269766572732F53544D33324C30787898
:1029B0005F48414C5F4472697665722F5372632F92
:1029C00073746D33326C3078785F6C6C5F757361E3
:1029D00072742E630000000000093D00F369FFEFF0
:1029E000F0FF000008B506490A690092421C00D0B9
:1029F000401C0A69D20300D5401E0028F9D108BD49
:102A000000E000E070B5254C064620680D46012127
:102A100049020843206001F02FF9206840043BD4AC
:102A20002068000538D42868C007C00F34D10121C0
:102A30001B48890381622168C202114321600101A0
:102A400081612068090208432060042105200007F5
:102A50008162216812011143216021688022914323
:102A60002160216892021143216002218162206865
:102A70000903884320600B49142008600B490A4869
:102A800008606420F0622946304600F0B1FE2068FC
:102A9000012109040843206070BD000038000020B7
:102AA00000080050400000201815000044000020DD
:102AB000F8B5244C064620680D46FF210131084335
:102AC000206001F0D9F82068400439D42068C0049F
:102AD00036D42868C007C00F32D101211A488903B3
:102AE00081622168C2021143216007018761206869
:102AF00051000843206004210520000781622168FD
:102B000012011143216021688022914321602168D4
:102B10009202114321600221816120680903084368
:102B200020600A49142008600A49094808606420A6
:102B3000F0622946304600F05BFE20683843206092
:102B4000F8BD0000380000200008005040000020C0
:102B5000181500004400002070B51F4B1A681206BB
:102B600038D41A680124A40322431A601B4A12684D
:102B7000142A2FD81A6880252A431A601A6865001B
:102B8000AA431A601A68A600B2431A601A68E600DF
:102B9000B2431A601A68A611B2431A601A68661125
:102BA000B2431A60042205263607B2611A6826036A
:102BB000B2431A6000F0FAFD094884611968C20244
:102BC000914319608562186851008843186018683D
:102BD000A043186070BD00003800002040000020B5
:102BE0000008005070B590B014216846FDF79FFAB8
:102BF0000025059506950795182109A80895FDF764
:102C000096FA2F480121426B49020A434263426B04
:102C10000A400F92C26A01210A43C262C06A0E468C
:102C200008400F9003200A900991052009A90D95ED
:102C30000007FFF7EDFA234CA06A3043A06200952D
:102C4000019502950395694620460495FFF722FAFF
:102C50006069C008C00060612069400840002061D0
:102C6000E16804208143E160174A1168C305994374
:102C70001160616881436160606808218843606019
:102C8000C80605900695079505A908952046FFF703
:102C90007FF9A0680D490840012109070843A06099
:102CA0000C480B490068FDF725FA0A214843FDF757
:102CB00021FA00E0401E0028FCD110B070BD0000D9
:102CC000001002400024014008270140E8FFFF7F78
:102CD000400D03000C000020F0B587B018216846B5
:102CE000FDF725FA0420FFF77DFB8020FFF77AFB34
:102CF0000120FFF777FB0220FFF774FB01218648D4
:102D00004903816248008449886240008862022049
:102D100005263607B0620420B0620820B062102099
:102D2000B0624020B0628020B0627C4F0220B86266
:102D30000420B8624002B0624000B062C000B062DD
:102D40004020B8628020B8624000B8624000B8629B
:102D50000024000101250090029403946946019526
:102D600004946D48FFF754FAA8030090029403946A
:102D70006946019504946848FFF74AFAE803009011
:102D8000029403946946019504946348FFF740FA5E
:102D90000220009003200290019503946946049458
:102DA0003046FFF735FA0420009003200290019589
:102DB0000394694604943046FFF72AFA08200090ED
:102DC0000320029001950394694604943046FFF76E
:102DD0001FFA102000900294039469460195049410
:102DE0003046FFF715FA402000900294039469469C
:102DF000019504943046FFF70BFA8020009002946E
:102E000003946946019504943046FFF701FA0220C5
:102E10000090029403946946019504943846FFF7A4
:102E2000F7F90420009002940394694601950494F4
:102E30003846FFF7EDF928030090694604950194A0
:102E40003846FFF7E5F96803009069460495019458
:102E50003846FFF7DDF9A803009069460495019410
:102E60003846FFF7D5F9E8030090694604950194C8
:102E70003846FFF7CDF92802009001946946049482
:102E80003046FFF7C5F9E8020090029403946946C2
:102E9000019504943046FFF7BBF928030090029493
:102EA00003946946019504943046FFF7B1F9E803AD
:102EB0000090029403946946019504943046FFF70C
:102EC000A7F9402000900294039469460195049468
:102ED0003846FFF79DF980200090029403946946DC
:102EE000019504943846FFF793F928020090029464
:102EF00003946946019504943846FFF789F96802FE
:102F00000090029403946946019504943846FFF7B3
:102F10007FF907B0F0BD0000000800500004005029
:102F20000849074808600848086005204860FF20F5
:102F300022308860CA685207FCD1086170470000DF
:102F4000CCCC0000003000405555000010B50F48B3
:102F50000D490160FF210531416000218160C160A0
:102F600001224261016152028261016218224162C2
:102F7000C26181620721C162FEF74AFB002801D0CD
:102F8000FDF728FE10BD000000300140A400002025
:102F90007FB5002400940194029404200394FFF769
:102FA0002BF90121142001F07DF8142001F056F8CE
:102FB0001F2069460880019403940A200A4C02905D
:102FC0002046FFF74FFB2068802528432060002122
:102FD0002046FFF7EFFB00212046FFF7F3FBA06838
:102FE000A843A0607FBD0000000801407FB5002419
:102FF00000940194029420200394FFF7FDF800212F
:10300000162001F04FF8162001F028F81F2069461D
:103010000880019403940A200A4C02902046FFF78E
:1030200021FB206880252843206000212046FFF7EF
:10303000C1FB00212046FFF7C5FBA068A843A060A4
:103040007FBD00000014014030B58BB00024069411
:1030500007940894182168460994FDF768F8012040
:10306000FFF7BEF80120FFF7C9F9202000900220E9
:10307000019005200590029403940494694600078A
:10308000FFF7C6F802210F2001F00CF80F2000F026
:10309000E5FF2D4869460883079409942B480124CD
:1030A0000890A40706A92046FFF7DCFA20688025CF
:1030B000A843206000212046FFF77CFBA068502138
:1030C000702290430843A060A1680420C908C90089
:1030D0000143A160002201212046FFF763FA00228C
:1030E00001212046FFF780FAE06840218843E06034
:1030F000E06809028843E06000212046FFF762FB98
:10310000A068A843A060A21301212046FFF728FA77
:10311000002201212046FFF783FA62131021204686
:10312000FFF71EFA002210212046FFF779FA00224D
:1031300010212046FFF736FA022210212046FFF721
:1031400053FA0BB030BD00007F0C0000FFFF000001
:10315000F0B591B000240C940D940E940F9401944A
:1031600002940394182105A80494FCF7E0FF0220C0
:10317000FFF736F80320694608862448244E0E904F
:103180000D940CA90F943046FFF76CFA316880203B
:103190008143316000213046FFF70CFB1D48B1151B
:1031A00002791B481830151828681A4AD21D13795D
:1031B00008229A4010432860602002270190029460
:1031C00001AA049703943046FFF7D2FA2968114800
:1031D000C01D0279042090408143296000213046BF
:1031E000FFF7F0FAB06880218843B0600220FFF753
:1031F00005F901200A97059007940894069705A9F8
:1032000009940548FFF704F811B0F0BDCF0700009E
:103210000004004054490008000400507FB5002419
:1032200000940194029410200394FEF7D9FF012129
:10323000112000F037FF112000F010FF0A48694606
:103240000880019409480A4C02902046FFF70AFAC8
:10325000206880252843206000212046FFF7B2FA2D
:10326000A068A843A0607FBDFF7C0000F62000009E
:1032700000100040F0B58FB01C2106A8FCF757FFE6
:1032800018216846FCF753FF2C480121426B890343
:103290000A434263426B0A400D92C26A01210A430B
:1032A000C262C06A002408400D904802042702252B
:1032B000032603946A460597049461C20520694673
:1032C0000007FEF7A5FF680203946A460597049479
:1032D00061C2052069460007FEF79AFF1848016899
:1032E0000902090A6A071143016001251549D01036
:1032F0000860E120400206900794089409940B941A
:103300000C940C20104C0A9006A92046FFF76CFA8A
:10331000A068A1140843A060A06849008843A06089
:1033200060680921C90288436060A0682A21884337
:10333000A0602068284320600FB0F0BD001002405C
:1033400018E400E000E100E000380140F8B51B4C53
:10335000074620680E461A4D00051AD53846FFF775
:10336000FBFB2068400613D53146384600F01EFAB4
:1033700020684021884320602068A84320601249CB
:103380001048086011491420086011490020087095
:10339000F8BD3068C007C00FFAD11068400840007F
:1033A00010603846FFF72EFB2068012149020843D0
:1033B00020602068A8432060F8BD0000380000208D
:1033C0000040000048BE08003C00002040000020F3
:1033D000480000207047000070B5044601208007B7
:1033E0000D4684420DD02A4884420AD0294884429E
:1033F00007D02948844204D0FF21E43127A000F0FF
:10340000A4FE2868002812D0102810D020280ED042
:1034100030280CD040280AD0502808D0602806D088
:10342000702804D0FF21E5311CA000F08EFE6868F2
:10343000002806D0012804D0FF21E63117A000F0B3
:1034400084FEE868002806D0022804D0FF21E73176
:1034500012A000F07AFE206A400840002062206A34
:103460006268A16970238908890099432B68194310
:1034700002239843EB68184340086B6840001843E8
:103480006260A161A96861632062002070BD0000D4
:103490000004004000080140001401402E2E2F447B
:1034A0007269766572732F53544D33324C3078788D
:1034B0005F48414C5F4472697665722F5372632F87
:1034C00073746D33326C3078785F6C6C5F74696DD7
:1034D0002E63000070B50446012080070D4684422B
:1034E0000CD02A48844209D02948844206D0294871
:1034F000844203D0284929A000F027FE286800282C
:1035000012D0102810D020280ED030280CD04028FF
:103510000AD0502808D0602806D0702804D01E4950
:103520001EA0491C00F011FE6868002806D0012882
:1035300004D01121490119A000F007FEE868002815
:1035400006D0022804D0144914A0C91C00F0FDFDC7
:10355000206A102188432062206A6368A26973266A
:103560003602B2432E68360232432026B043EE685C
:103570003601304388436968636009010843A261EA
:10358000A968A1632062002070BD00000004004013
:1035900000080140001401401E0200002E2E2F449E
:1035A0007269766572732F53544D33324C3078788C
:1035B0005F48414C5F4472697665722F5372632F86
:1035C00073746D33326C3078785F6C6C5F74696DD6
:1035D0002E63000070B50446012080070D4684422A
:1035E00006D02748844203D0264927A000F0ADFD2D
:1035F0002868002812D0102810D020280ED030289B
:103600000CD040280AD0502808D0602806D0702856
:1036100004D01C491CA0491C00F097FD68680028D4
:1036200006D0012804D0174917A0891C00F08DFD91
:10363000E868002806D0022804D09721890012A04B
:1036400000F083FD206AFF22013290432062206A4D
:103650006368E169702689088900B1432E683143A7
:103660005600B043EE683602304390436A686360A8
:1036700012021043E161A968E1632062002070BD7D
:1036800000040040590200002E2E2F447269766516
:1036900072732F53544D33324C3078785F48414C1D
:1036A0005F4472697665722F5372632F73746D3342
:1036B000326C3078785F6C6C5F74696D2E630000DB
:1036C00070B50446012080070D46844207D0274884
:1036D000844204D0A521890025A000F036FD286889
:1036E000002811D010280FD020280DD030280BD062
:1036F000402809D0502807D0602805D0702803D072
:1037000029491BA000F021FD6868002806D0012887
:1037100004D0254916A0491C00F017FDE8680028D0
:1037200006D0022804D0204911A0891C00F00DFD0C
:10373000206A0122120390432062206A6368E169D3
:1037400073263602B1432E68360231435600B04329
:10375000EE683603304390436A6863601203104397
:10376000E161A96821642062002070BD000400406E
:103770002E2E2F447269766572732F53544D333257
:103780004C3078785F48414C5F4472697665722F9F
:103790005372632F73746D33326C3078785F6C6C56
:1037A0005F74696D2E630000950200000268D20705
:1037B000D20F03D002685208520002600868C007A6
:1037C000C00F05D008684008400008600548C8627E
:1037D00005480078322804D3044801684022114388
:1037E00001607047A86100004800002038000020F8
:1037F00010B502680122D2430261046801231C4310
:1038000004600868904307D10A610868184308609B
:1038100002490878401C087010BD000048000020D4
:10382000704700000449C968F0221140034A0909A1
:10383000515CC84070470000001002407049000809
:103840000349C968034A4905490F515CC84070479C
:1038500000100240894900080349C968034A8904E5
:10386000490F515CC8407047001002408949000868
:1038700010B50F49CA680C2002400E4805D0042A32
:1038800009D0082A0FD00C2A0FD049680904490F23
:10389000491C884010BDFEF745FE002801D00648AF
:1038A00010BD064810BD064810BD00F00BF810BD55
:1038B000001002400080000000093D000024F400D8
:1038C00000127A0010B50E4CE0680121090408428C
:1038D00005D1FEF727FE00280FD00A4A00E00A4A69
:1038E000E0680002810FE068084B8002000F185C5E
:1038F000491C5043FCF7FEFB10BD054AF0E70000F1
:103900000010024000093D0000127A0080490008C2
:103910000024F4007CB50D00044601D0202D01D90F
:1039200000207CBD00F0D2FEA0006946401C08705B
:103930000024114E4020B0620A2301220F48FEF7F6
:1039400093F8ED080A232A4601A90C48FDF7BEFFAB
:103950004020B061002101A808E06A1A1218203A3C
:10396000D27FCB009A401419491CC9B28D42F4D8B9
:1039700000F0BDFE20467CBD00040050A4000020E5
:1039800006488188428891428188408802D2081A7C
:10399000803000E0081A80B2704700006400002008
:1039A00070B52B4B58889988884206D11878002822
:1039B00001D0187870BD022070BDFFF7E1FF20280C
:1039C00044D31878042801D05888D8802149224A45
:1039D0000020DC8804190C5D155CAC420DD0D88841
:1039E000401C4006400ED880D8889988884202D171
:1039F000D8885880DFE7042070BD401CC0B20F2873
:103A0000E7D3D8880F304006400ED880D888C01C35
:103A10004006400E085CDA888A5C12068218D88854
:103A2000401C4006400E085C0404D888801C4006F8
:103A3000400E085C094900022018101808605888D8
:103A400020304006400E588000F0EEFE002070BD91
:103A50006400002014010020914900083400002077
:103A6000124881884388491C4A06520E10499A42DE
:103A7000496A06D10178002901D0007870470320F7
:103A800070470C4A8388D1548188491C4906490EE5
:103A900081808088002806D107480178002902D05B
:103AA0000178491E0170002070470000640000206A
:103AB00000380140140100204D00002010B50248DC
:103AC000FDF72AFD10BD0000A400002010B5806A9B
:103AD0000021C187C186FDF71DFD10BDF8B5044664
:103AE0004368FF26012005368002B3420AD1A3684D
:103AF0004501AB4201D0834204D123681D684027B1
:103B0000BD431D6063682025B34210D1A368834282
:103B10000DD000920B4600228021204600F03CF898
:103B2000002803D0606D284360650320F8BD009233
:103B30000B4600220121F0E7F8B5044615480E4671
:103B4000154613490068FCF7D5FA7D21C9004843A2
:103B500000906068C11FFD390ED1334600228021DC
:103B60002046009500F018F800280FD0606D202145
:103B7000084360650320F8BD0098002806D0401E69
:103B8000009020688068C0430006F5D50020F8BD8D
:103B900000366E010C000020FFB581B01E460446C1
:103BA0000A9DFDF767FB401B351AFDF763FB0746CF
:103BB000264800684001000D684339E0701C38D089
:103BC000FDF758FBC01BA84205D2002D03D000987A
:103BD00000282BD02BE020684168E022914341600F
:103BE0006068C11FFD390CD10121A068C90388425A
:103BF00002D04911884204D12068016840229143D3
:103C000001600120A16A4003814207D121680A684E
:103C100082430A6021680A6802430A600120403436
:103C2000607400202074032005B0F0BD0025401E04
:103C30000090206881680298884305D0002103988D
:103C40008142BBD10020EFE70121F8E70C00002002
:103C5000704700007D22D200511A89B2054B4A1EDE
:103C60009A4202D84900491E01E0002900D1C163EF
:103C700070470000E70300007047000010B5012006
:103C80000B4C4003A061FEF74BF901208003A061BB
:103C900008480168E2029143016000F08FFD00F0E6
:103CA00037FB00F02DFEFCF737FF00F039FC10BDAC
:103CB000000800503800002070B50169C907C90F1D
:103CC0003ED00121C94301611F49086805228404CF
:103CD00000231207002C1D4D1D480C6818DAE4045F
:103CE0000968E4174905C917491C641C0C420DD02A
:103CF000536908211C460C40240499430C439461E9
:103D0000016800291CD00168491E18E0036019E011
:103D100024050968E6174905C917491C761C0D4C8E
:103D20000E420ED0516908230D461D402D048B43D1
:103D30001D4395610168A14202D20168491C0160DE
:103D400070BD04602B7070BD38000020480000205A
:103D50003C00002048BE080070B50125244E2D030C
:103D600029463046FEF736FB01466810214C0129F2
:103D7000216832D081432160012149033046FEF79A
:103D800029FB012820682AD0A8432060012189034B
:103D90003046FEF71FFB014601204007012921683C
:103DA0001FD0814321600121C9033046FEF712FB79
:103DB000012189070128206815D088432060FF2150
:103DC000052001310007FEF705FB012189020128CA
:103DD00020680AD08843206070BD0143CBE72843A8
:103DE000D3E70143DEE70843E8E70843F3E70000D1
:103DF000000400503800002010B5FDF741FA10BD56
:103E000010B53548012102688A430A4302600168FF
:103E1000C907C90FFBD0314901220868D202032328
:103E2000DB029843104308602D480168520111439A
:103E3000016001688903C90FFBD0026801210A43B0
:103E4000026002685207D20FFBD042681F231B0298
:103E50009A4301231B031A434260214C40342269D8
:103E60000A43226121698907C90FFBD0C168FD227D
:103E700012049143912212041143C160016801228E
:103E800012061143016001688901C90FFBD0C168A6
:103E9000F0229143C160C168072212029143C160C0
:103EA000C168D2009143C160C26803218A430A43BA
:103EB000C2600C22C16811400C29FBD10948FEF7F1
:103EC00041FB0220FDF7F8F9E0680221800880003C
:103ED0000843E06010BD0000002002400070004078
:103EE000001002400048E8011048016882151143A3
:103EF0000160C1680E4A1140C16001680D4A11405D
:103F000001608168490849008160016801229204CA
:103F100091430160C168FD2212049143C1600021F8
:103F200001610549C003886070470000001002402D
:103F30000C40FF88F6FFF6FE00ED00E010B50249E8
:103F40000248FCF7E9FB10BD0014014000080140E5
:103F500010B50248FFF7B0FE10BD0000001401408C
:103F600010B501208007FCF7FBFD10BD10B505481A
:103F70000169C907C90F04D00121C943016100F0DB
:103F8000EFFA10BD0010004010B500F0F9FB01225F
:103F9000D202052109074869034613401B048243E6
:103FA00013438B6110BD00007CB516460C0005461E
:103FB00027D0202C25D800F089FBA800694608707E
:103FC0000020E50801A907E0C200131932469A4013
:103FD000120E0A54401CC0B28542F5D8094C40204C
:103FE000A0620A23012269460748FDF73DFD0A2326
:103FF0002A4601A90448FDF737FD4020A06100F0E2
:1040000076FB7CBD00040050A40000202021020C9F
:1040100001D010211046020A01D0104608390209C9
:1040200001D01046091F820801D01046891E42089F
:1040300001D0881E7047081A70470000002809DB6D
:10404000C106C90E0120884003490860BFF34F8FA5
:10405000BFF36F8F7047000080E100E0002805DBB0
:10406000C106C90E01208840014908607047000060
:1040700000E100E0002805DBC106C90E01208840F0
:10408000014908607047000000E100E0002805DBFE
:10409000C106C90E01208840014908607047000030
:1040A00000E100E08307FF22DB0E9A408907090E3A
:1040B0009940002808DB830809489B001B181868F2
:1040C00090430843186070470007000F08388308C2
:1040D00004489B001B18D86990430843D861704777
:1040E00000E400E000ED00E08307FF22DB0E9A40D1
:1040F0008907090E9940002808DB830809489B00BE
:104100001B18186890430843186070470007000F99
:104110000838830804489B001B18D869904308435B
:10412000D861704700E400E000ED00E002E008C85C
:10413000121F08C1002AFAD170477047002001E021
:1041400001C1121F002AFBD170477047F8B51E4C01
:104150002068800237D501211C48890381612168CC
:10416000C2029143216001018162206809028843F3
:10417000206017490020C8600880488088801002AD
:10418000C1680225A943C160C1680426B143C1606A
:10419000C16849084900C1600E4F00213846FFF749
:1041A00059FD386AE90188433862386840084000A0
:1041B00038603220FEF716FC074885628662206868
:1041C000290588432060F8BD380000200008005011
:1041D000500000200004004000040050F8B5464D97
:1041E0002868464E464C80022DD446480078B0627E
:1041F0004548311481622968C202114329600101D6
:1042000081612868090208432860C801C168022248
:104210001143C160C16804221143C160C168012714
:104220003943C16000213046FFF714FD3068384340
:104230003060306AB115084330622868490308438A
:1042400028600020E060FCF729FCFCF7A7FCFFF7E2
:1042500013FDA1883046FFF7FDFCE0682B490A7882
:10426000904201D2012200E00022A3887D20C000FC
:10427000DB1C834201D2012300E000231A4202D05A
:10428000A088C01C10E0E2680B789A4201D101229C
:1042900000E00022A388834201D2012300E0002332
:1042A0001A4203D0A088401CA080F8BDE2680978BB
:1042B0008A4201D9012100E00021A288022A01D905
:1042C000012200E00022114202D0A088801EEBE70C
:1042D000A188002905D00021A288824203D90120AB
:1042E00002E00121F8E70020014302D00020E06055
:1042F000DAE7A088401DD7E738000020000400401E
:10430000500000204A00002000080050310000202A
:1043100010B50E4801680124214301600021FFF718
:1043200099FCA007C16802221143C160016A2143C0
:104330000162C16804221143C160026A10210A436C
:10434000026201682143016010BD000000040040CA
:104350001B4802691B49002A06D10A780A2A03D998
:104360000A78521E0A7005E00269002A06D0026926
:10437000052A03D80169491C016170470269052AB1
:1043800005D902690F2A02D80A780A2A12D80269C6
:104390000F2A09D90A78142A06D90269521C026127
:1043A00008780A380870704702690F2AFBD90A7822
:1043B0000A2AF8D90269521C02610878401EF1E706
:1043C00050000020310000201B4802691B49002AD0
:1043D00006D10A78322A03D20A78521C0A7005E004
:1043E0000269002A06D00269032A03D80169491C20
:1043F000016170470269032A05D902690F2A02D8B0
:104400000A78322A12D302690F2A09D90A78282A8F
:1044100006D20269521C026108780A30087070479F
:1044200002690F2AFBD90A78322AF8D20269521C93
:1044300002610878401CF1E75000002031000020A4
:1044400010B50D4AC1018C180B4A7F328918002221
:104450000AE00B78002B04D090082021081A80B2C3
:1044600010BD521C92B2491EA142F2D2012100F0AD
:104470000BF8012010BD000080FFFF070149C001BB
:104480004018704780FFFF0738B5084A00230C46E4
:104490001360FFF7F3FF9460506069460348009390
:1044A000FCF758FC02490120488038BDA4010020D7
:1044B000A0000020C00189004018074910B543182A
:1044C000002001465A181278CC00A240491C104323
:1044D000C9B20429F6D310BD7CFFFF0770B50F4C9D
:1044E000064660880D46401C60806088202803D9FD
:1044F00001212846FFF7C8FF01200AE02846FFF700
:10450000BDFF61883246890041180220091FFCF76F
:10451000B9FC607060780028F0D170BDA000002068
:1045200070B5FCF701FD0C4C60700125AD0228460A
:10453000FFF786FF608061882846FFF7BBFF4100D8
:10454000090E03D005490860FCF71EF92078012107
:104550000843207070BD0000A000002088000020EB
:10456000F8B54B4D4B4E0424600041194978285C46
:10457000FFF7D0F9A10089198039641CE4B20867FB
:10458000082CF1D3308800B2FBF770FF0022424BB9
:10459000FBF78CFEFBF7BEFF404CE060308900B2B9
:1045A000FBF764FF3E4A3F4BFBF780FEFBF7B2FF91
:1045B00005462061F068FBF76DFF3B4A3B4BFBF77C
:1045C00075FEFBF7A7FF0121C905394A394F3A4E5D
:1045D000A0618D4217DB3178032901D200213170AF
:1045E000616891422CDAFBF781FF344A344BFBF7C8
:1045F0005DFE05460E466068FBF778FF2A463346A7
:10460000FBF745FE19E02F498D4224D33178032969
:1046100001D2022131706168914211DAFBF766FF25
:10462000264A274BFBF742FE05460E466068FBF71D
:104630005DFF2A463346FBF785FDFBF76BFF6060A5
:104640003878C0071ED06068FCF75CFB0121890246
:10465000FFF744FF16E03878C00713D03078012800
:1046600010D0606988420DD36800000E0AD1164848
:1046700060606068FCF746FB01218902FFF72EFFAE
:1046800001203070FCF780F820696061F8BD0000FF
:10469000A049000894010020000009408400002087
:1046A000333333333333D33FB81E85EB51B8AE3F8A
:1046B0000024F449A0000020490000208BFDCDDA41
:1046C0005933633F000080800050434810B50F20ED
:1046D000FFF7B4FC1120FFF7B1FC1420FFF7AEFC8C
:1046E0001620FFF7ABFC1B20FFF7A8FC10BD10B590
:1046F0000F20FFF7BFFC1120FFF7BCFC1420FFF7D1
:10470000B9FC1620FFF7B6FC1B20FFF7B3FC10BD69
:10471000FCF7BEFDFFF774FBFEF7DEFAFEF794FC34
:10472000FEF716FDFEF77AFDFEF732FCFEF75EFCA3
:10473000FEF7A0FDFEF756FAFEF708FCFEF7F0FBC9
:10474000FFF79CFA0124240305250A4E0A4F2D0782
:10475000696920460A460240120488430243AA615E
:10476000FFF7FAFAFCF742F8FFF71AF9307003483E
:104770000760EDE764000020AAAA000000300040B6
:1047800010B50C48C1690C4C8906C90F06D02078B9
:10479000032802D0FFF764F9207010BDC1694906F3
:1047A000C90F05D020780228F7D000F091F810BD8D
:1047B000406A10BD003801406400002010B50D4C67
:1047C0002046FEF705F8EFF31081012080F31088F2
:1047D000206808221043206081F31088EFF31080D6
:1047E000012181F31088216804221143216080F3A4
:1047F000108810BD0038014010B50949002008811B
:10480000EFF31081012080F31088064802684023EE
:104810009A43026081F31088FDF7DAFF10BD0000B3
:10482000640000200038014010B500F01BF8EFF3E1
:104830001080012181F3108809490A6820239A43D6
:104840000A6080F31088EFF31080012282F3108851
:104850000A6840231A430A6080F3108810BD0000E4
:104860000038014010B51248006881014018114914
:10487000FBF740FC104A401D107010490868030EF9
:104880000F48C3710B681B021B0E03720B681B04DD
:104890001B0E4372096881720A490978C172117846
:1048A000017309490978417308490978817310BD7A
:1048B0003C00002048BE08003000002038000020E6
:1048C00010000020320000203100002049000020AC
:1048D00010B508480189202908D207490289895C56
:1048E000064A91620189491C018110BDFFF784FFCE
:1048F00010BD0000640000201000002000380140BE
:1049000010B51420FFF7C2FB1620FFF7BFFB0D48C0
:10491000C16801221143C1600B49CB681343CB60CE
:104920000A4C226880231A432260094AFEF714F9D0
:1049300020680121890388432060206840210843C2
:10494000206010BD00080140001401403800002024
:1049500000140040000000000400040000080000F3
:104960000008000008000000080000040008000C17
:10497000000000000000000001020304060708090F
:10498000030406080C101820300000000001020388
:10499000045472616E73706F72746174696F6E200B
:1049A000001001100210041005100610071008185E
:1049B0000B100C100D100E100F10101011103E10D7
:1049C0003F100000E449000800000020A40000009F
:1049D0002C410008884A0008A40000200C050000B3
:1049E0003C4100080100000004000000000000003D
:1049F0000000200053797374656D200000000000F2
:104A000000000000205472616E73706F72746174E4
:104A1000696F6E0D0028000000000000000000001B
:104A20000000000046050000140000000000010026
:104A30000000000000000000000000000000000076
:104A40000000000000000000000000000000000066
:104A50000000000000000000000000000000000056
:104A60000000000000000000000000000000000046
:104A70000000000000000000000000000000000036
:084A800000000000000001002D
:04000005080000C12E
:00000001FF
